:020000040020DA
:10200000405600208D222000E35F2000E15F200089
:10201000E15F2000E15F2000E15F200000000000A0
:10202000000000000000000000000000E15F200050
:10203000E15F200000000000E15F20004960200017
:102040006B60200071602000776020007D602000C0
:10205000000000004F60200055602000E15F20007C
:10206000E15F200000000000000000000000000010
:102070000000000000000000E15F20000000000000
:102080000000000000000000E15F2000E15F200090
:10209000E15F2000E15F2000E15F2000E15F2000C0
:1020A000E15F2000E15F2000E15F2000E15F2000B0
:1020B000E15F2000E15F2000E15F2000E15F2000A0
:1020C000E15F2000E15F2000E15F2000E15F200090
:1020D000E15F2000000000000000000000000000A0
:1020E00000000000000000000000000000000000F0
:1020F0000000000000000000713A2000813A20003A
:1021000000000000000000000000000000000000CF
:1021100000000000000000000000000000000000BF
:1021200000000000000000000000000000000000AF
:10213000000000000000000000000000000000009F
:10214000000000000000000000000000000000008F
:10215000000000000000000000000000000000007F
:10216000000000000000000000000000000000006F
:10217000000000000000000000000000000000005F
:10218000000000000000000000000000000000004F
:10219000000000000000000000000000000000003F
:1021A000000000000000000000000000000000002F
:1021B000000000000000000000000000000000001F
:1021C000000000000000000000000000000000000F
:1021D00000000000000000000000000000000000FF
:1021E00000000000000000000000000000000000EF
:1021F00000000000000000000000000000000000DF
:1022000000000000000000000000000000000000CE
:1022100000000000000000000000000000000000BE
:1022200000000000000000000000000000000000AE
:10223000000000000000000000000000000000009E
:10224000000000000000000000000000000000008E
:10225000000000000000000000000000000000007E
:10226000000000000000000000000000000000006E
:10227000E15F2000593920007D3920001130200015
:10228000F13B2000B52A2000E15F200008B5094B92
:10229000FF221A600848094A4824E369121A0849CB
:1022A00098470848084AA369121A0021984700F085
:1022B000A5F8FEE7B4200D4040400020F840002083
:1022C000E86E2000F84000203F4E0020F8B5214C79
:1022D00000222178D3B28B4239D8DD0066197768A5
:1022E0000132B842F6D1FF2B31D01B4B307A5B68FC
:1022F0009847B0F1004F27D0737A33B941F2883351
:10230000584340F6B833B0FBF3F02C446368013B0C
:10231000052B19D8DFE803F0030B161016160A2355
:102320004343C3F51F533633B3FBF0F00AE040F2EA
:102330008D335843094B03E05823584342F210733E
:10234000B0FBF3F080B2F8BD4FF6FF70F8BD00208F
:10235000F8BD00BF084100209C6A2000A086010053
:102360002DE9F041431E012707FA01F5052B06462A
:10237000EDB203D94FF0FF30BDE8F0811D4C23785A
:10238000012BF7D84B1E062BF4D80329F2D0637823
:102390001D42EFD107FA00F313F04E0803D113F0FA
:1023A000300F0FD1E6E7144B294680209B689847F1
:1023B000B0F1004FDED0237804EBC3035E601D72E2
:1023C0005F720EE00C4B294680209B689847B0F165
:1023D000004FCFD0237804EBC3035E601D7283F8F7
:1023E0000980237800200133237063781D436570D2
:1023F000BDE8F081084100209C6A200073B500F020
:102400009FFC00F099FD00F0F5FC00F0BBFA01F034
:10241000DDFB03F0C5FE00F087FD00F0B3F80120FE
:1024200003F0E2FD02F092F900F076FC002000F0EB
:1024300097FB012000F094FB4049002000F056FC7F
:1024400002F0B8FA03F009FE042003F0CDFD3C4889
:1024500003F038FE3B4803F035FE00F035FA00206B
:1024600002F056FB01F09EFA0021374802F0FAF91B
:1024700001F0D8FF03F0E6FD00F0ECFD00F008FEEF
:1024800002F086FE0821684601F0C4FB9DF8073083
:102490009DF806502D4C43EA0525BDF806302C4822
:1024A000238001F0F1FB2B4E21782B4801F0ECFB4F
:1024B00061782A4801F0E8FBF46A4AF6CD3102203F
:1024C000A04729460320A0471A210120A04708223F
:1024D0006946736B0B209847214801F0D5FB214BCF
:1024E000186803F0EFFD204801F0CEFB1F4B186881
:1024F00003F0E8FD1E4801F0C7FB1E4B186803F00F
:10250000E1FD00211C4802F0ADF91C4B01219B6844
:102510008120984703F02FFE194803F022FE00F0B7
:1025200001FC022003F060FD00F002FC02F026F93D
:1025300010F0FF0FF8D101F0DDFAF5E77149200046
:10254000926C2000AE6C200078400020364E0020B7
:10255000D36C2000946B2000F16C2000F76C2000FD
:10256000FD6C2000086C2000046D2000206C200011
:102570000B6D20003C6C200098400020AC6A2000CD
:10258000786C200008B500F03FF9024B00221A7069
:1025900008BD00BFC24C0020024A137818431070D7
:1025A00000F056B9C24C0020034A137823EA000019
:1025B000107000F04DB900BFC24C002008B50B4BA5
:1025C0001B78034203D0202804D0042804D04FF005
:1025D000004008BD052000E00220054B80211A784C
:1025E00000F0D4FC20EAE07000B208BDC44C00202A
:1025F000C34C0020802810B50C4603D0B0F5807F76
:1026000025D031E08B1E222B2ED8C943184B1A68D7
:102610000A401A60174A13680B401360A20604D5DB
:1026200001220521002000F095FC630704D501225A
:102630000221002000F08EFC00F0A0FC0E4B3022A6
:102640001A700E4B187804441C70002010BDC8B2DC
:10265000102806D001D820B106E0202801D030286B
:1026600002D1054B187010BD4FF0004010BD00BFE7
:1026700020940D4000940D40C34C0020C44C002019
:1026800020B1012805D1044B18787047034B186816
:1026900070470020704700BFC54C002020900D40BF
:1026A00010B5094A0020137801331370074B1978CD
:1026B00002F0B0F8BDE8104005490023054A09685A
:1026C000054801F0E5BE00BFC54C0020384E002093
:1026D00044410020A12620001C410020812810B583
:1026E0000C462AD0B0F5807F39D0802839D102F04D
:1026F00025F81D4B1D4A18701368032123F00803A9
:10270000136052F8203C002023F0080342F8203CDC
:1027100052F81C3C23F0080342F81C3C52F8183CC9
:1027200043F0080342F8183C042200F013FC032293
:1027300000210F4800F0B0FB13E00E4B1A6831B1D6
:1027400042F008021A60002000F018FB05E022F0B9
:1027500008021A60084600F01FFB204610BD064B19
:102760001960012010BD00BF384E002020940D409C
:102770007D27200010940D404441002008B50F48EB
:1027800003F017FDC8B108210C4803F00BFD0C4BFA
:10279000196869B10B4B00221A700B4B1B6823B9E7
:1027A0000A4A0B4801F074FE02E0094801F07AFE83
:1027B000BDE80840074802F07DB908BD3C41002053
:1027C00044410020C54C002020900D40A12620004F
:1027D0001C410020AC6A2000084A136823F004035F
:1027E000136052F8203C43F0040342F8203C044BB1
:1027F00000221A60034B01221A70704720C40D405A
:1028000010C00D40C64C00200D4A0E49136823F03D
:10281000C003136052F8203C43F0C00342F8203C50
:10282000094B00221A600B6823F010030B6051F86B
:10283000203C43F0100341F8203C044B1A607047E1
:1028400020A40D4020C40D4000A30D4040C00D4009
:1028500000F0020202F0FF010B4B12B1FF221A60DE
:1028600000E0196000F0040202F0FF01074B12B112
:10287000FF221A6000E0196010F00100044B1ABF3B
:10288000FF221A601860704700A20D4000A10D40A1
:1028900040C00D40044B1868C0F30720030904BF73
:1028A0001030C0B2704700BF1C300D40054B186897
:1028B000C0F3C21001289ABFC0F1020040034FF4D8
:1028C0000040704714300D402DE9F04788B0FFF705
:1028D000E1FF174B48251C68AB68074698476B68B3
:1028E000804698470546FFF7E1FF064600F0BCFA30
:1028F000814600F0C5FA824600F072FAB60A04F08A
:102900000103AD0AC4F3400406900393CDF814A06C
:10291000CDF8109002940196009507F00F03C7F3CD
:1029200007124146034801F0AFF908B0BDE8F0874F
:102930001C300D402E6D2000F8B500F079F80F4BDB
:102940000024D3E900673A46B04238BF7A1C1546E6
:102950000443C3E90045DFF828E0DEE90001821BFB
:1029600061EB070312196B41CEE9002301F04EFE23
:1029700018B1BDE8F84001F0CDBDF8BDF840002029
:10298000004100200F4B104A1A6053F8042C42F00B
:10299000050243F8042C53F8042C42F0020243F8D9
:1029A000042C0A4A136843F001031360084B002209
:1029B0001A60042243F80C2C012243F8082C0F2241
:1029C000DA62704714E000E047E8010008200D409B
:1029D0000C000340034BD3E90023100A40EA0360D4
:1029E000704700BFF8400020054B18601C3B1A6878
:1029F00042F001021A601A68D207FCD4704700BF87
:102A00002800034010B5064C236823F0010323601F
:102A1000FFF792FF236843F00103236010BD00BF5E
:102A200010E000E0014B1868704700BF48410020EB
:102A3000074B084A196804331B681268120442EAFB
:102A40000323054A0B43106843EA0060704700BF48
:102A500040500D4048500D404C500D4010B50446BC
:102A6000114A1368DB07FCD503F0FBFAFFF7E0FF20
:102A7000231A062BD8BFC41D0C4B220E1A60C4F3B8
:102A8000074243F8042CC4F3072243F8082CE2B2AF
:102A900043F80C2C03F0E1FA054B91201C60BDE8D3
:102AA000104000F06BB900BF50500D404C500D402D
:102AB0004841002008B501F001F8064B00229120A2
:102AC0001A6000F077F9912000F066F9BDE808403F
:102AD00001F0ECBE48410020064B1B681B075FBF9E
:102AE000054B186880F00800C0F3C00048BF002004
:102AF000704700BF18C0004018D00040164A2C2371
:102B000003FB00234FF6BF7270B5DC680546236CEB
:102B100062649BB213F050020DD0104EA369DB0625
:102B200008D456F825301BB12068C0B29847F5E7A5
:102B30002368F3E770BD13F4D06F0BD04FF44073EC
:102B40002363FF236360E36AE262E362236B43F083
:102B50000103236370BD00BFBC6A20004C4100200C
:102B600001282DE9F74F064600F2B2802C25454397
:102B7000594F7C1994F92080B8F1000FC0F2A88059
:102B800094F92290B9F1000FC0F2A280534801F0ED
:102B90000BF8534A7B591168E5680B431360516881
:102BA000636894F921A00B4353609168A3685FFAAE
:102BB00089FB0B4393600023C5F8C83F23690AEBE8
:102BC000C8021A6094F92330227D00939DF80030EA
:102BD00058461946019300F0C7F9019B082219468F
:102BE000584600F0B7F93F4A4FEA0939009959F8B9
:102BF0000200012303FA01F1014349F802104FEAF0
:102C0000083858F8020003FA0AF1014348F80210A4
:102C10005021A963A96B94F9240041F4D061A96300
:102C2000022169634FF440712963A1690028696238
:102C3000E169A9624FF07001E962154616DB94F96B
:102C40002510A2F5A64241EAC0041C3A1460040310
:102C500062598B40134363510022C9B2C0B200F0E5
:102C600079F9214A136843F4004313602C2303FBD2
:102C7000067393F92640002C1BDB93F927A05FFA1B
:102C800084F85FFA8AF9012249464046240300F09D
:102C90006BF96259012303FA0AF3134363510822C3
:102CA0004946404600F056F90F4A136843F4804302
:102CB00013602C2303FB0676F26896F82800136B4A
:102CC00043F00103136303B0BDE8F04F00F056B8C2
:102CD00003B0BDE8F08F00BFBC6A2000D92A2000F5
:102CE00028200D4020940D4030D0004001289CBF8A
:102CF000014B43F8201070474C410020012808D8B0
:102D0000044B2C2202FB0030C3689A699206FCD463
:102D100019607047BC6A2000014B00221A6070479E
:102D200000500D40014B08221A60704700500D40C2
:102D3000024BA0221A6050221A60704700500D40CA
:102D4000074A084B1A60084B80321A60074B8032E2
:102D50001A60074B80321A60064B074A1A607047A8
:102D600000E100E060410020544100205841002073
:102D70005C41002008ED00E000202000054B4109E7
:102D80001A6800F01F00012303FA00F042F8210046
:102D9000704700BF60410020054B41091A6800F0F0
:102DA0001F00012303FA00F042F82100704700BF22
:102DB00054410020054B41091A6800F01F0001230F
:102DC00003FA00F042F82100704700BF5C41002088
:102DD000024B1868C0F38150704700BF04200D40BB
:102DE00008B5FFF7F5FF024B53F8200008BD00BF00
:102DF000146B200038B5164D164C2B68012223F0B9
:102E000040032B602368062123F040032360032046
:102E100000F0A0F82B68012223F080032B602368C8
:102E2000072123F080032360032000F093F80A4A6F
:102E30000A4B0B491A600A680A4B1340084A002BD8
:102E4000F9D113685901FCD413685B01FCD538BD76
:102E500020C40D4000C40D400101020000200D40BF
:102E600004200D4000000101034B04481B6803F0DF
:102E700007031841704700BF04200D400048E801D7
:102E8000034B04481B68C3F302231841704700BF7B
:102E900004200D400048E801024B02EBC10243F858
:102EA0002200704764410020F8B507460E46094DE0
:102EB000002405EB411547FA04F3DB07E1B204D522
:102EC00055F824300BB1304698470134082CF2D124
:102ED000F8BD00BF644100202DE9F04780464FEA6D
:102EE0000837DFF8409007F1804505F5592500F0D7
:102EF000E5FDD5F8186457F809304FEAC80A23FAF7
:102F00000AF446EA0400E4B24146C0B2F6B204FA5A
:102F10000AF4FFF7C9FFC5F81C6447F80940BDE88B
:102F2000F08700BF18970D4080220021014803F070
:102F300009B800BF64410020034A044B1A60044BE7
:102F4000803A1A60704700BF80400D40E841002081
:102F5000E4410020034B01EBC0011B6843F8212032
:102F6000704700BFE8410020034B01EBC0011B6824
:102F700043F82120704700BFE4410020024A136853
:102F800043F030031360704700700D400E2870B599
:102F90000BD1154B154E1C6844F002051D603568B9
:102FA00025F03F0343F001033360114E336823F0F3
:102FB000FF031A43114301430E4A316013681B0695
:102FC000FCD50D4B0D4A1B6812680E2803F0FC035C
:102FD00043EA022308BF054A1BB204BF1560024A38
:102FE000184608BF146070BD34000144F4860840E0
:102FF00008700D4000700D400C700D4010700D40B9
:10300000024B1868B0FA80F04009704700B70840DA
:1030100010B58F20064CFFF7CDFE8F20FFF7BCFECA
:10302000206818B101F036FC0023236010BD00BFFA
:10303000EC410020064A136843F002031360536812
:1030400043F002035360936843F0020393607047B8
:1030500048200D4007B50C4800F0A6FDFFF7EAFF39
:103060000A4B1A6842F002021A6000220192019A89
:103070000F2A02DC019A0132F8E71A6822F00202F4
:103080001A6003B05DF804FB0130200054200D40AD
:10309000064A136823F002031360536823F0020307
:1030A0005360936823F002039360704748200D40FB
:1030B000084B93F90020002A09DB074AED21116033
:1030C0001160E32111601A7862F07F021A7001200A
:1030D000704700BFCA4C0020388808400C4A13686B
:1030E0009907FCD40A4B1B685B065FBF094BED22B6
:1030F0001A601A60084B1B6813B1064BEF221A6066
:10310000064A0120137803F07F031370704700BF55
:103110004C860840388808402C860840CA4C00205D
:1031200038B5A0F10B04E3B20F2B054613D80B4BB7
:103130001B6813F03F0302D0FFF7D0FF012304EB1D
:103140008404074A0B3414600BB1FFF7B1FF054B41
:1031500068B21D7038BD4FF0FF3038BD488608405A
:103160003C860840F740002010B50B4B1B689906C1
:1031700003D1FFF79DFF012300E0002307490A6800
:10318000D207FCD5064A1468C4F300140BB1FFF74C
:10319000A5FF204610BD00BF488608406486084051
:1031A0004C860840044B186800F02200A0F1200370
:1031B00058425841704700BF4C860840024B18687F
:1031C00000F04000704700BF4C86084038B50C4600
:1031D000002900F08880102800F28780DFE800F0E6
:1031E000090F1A1C23394254596F738585787A7CEC
:1031F0007F003F4B1B68003318BF012370E03D4B3D
:1032000005221B6803F07F030B3B93FBF2F30B33A8
:10321000DBB265E0384B00E0384B1A68043B1B68B2
:1032200043EA02235CE000230B60354B354A1B6800
:1032300003F001030B601268900644BF43F00203E1
:103240000B60314B1B78002B4BD00B6843F0040311
:1032500046E02E4B00201B780860002B41D0012354
:103260000B6038BD2A4B2B491A680023D2B201EB00
:10327000C3000079904203D8264A52F833302FE039
:1032800001330E2BF3D127E0234B1B685BB2493B84
:1032900026E0224B1B68990603D1FFF709FF0123A3
:1032A00000E000231E490A68D207FCD51D4A1568B4
:1032B000493D6DB20BB1FFF711FF256011E01A4BCC
:1032C00093F900300CE0194B1B7803F07F0307E003
:1032D0000B2305E01A2303E06FF0170300E0072338
:1032E0002360002038BD022038BD012038BD00BF5A
:1032F0002C8608403C860840CC850840D485084090
:103300000086084024860840C94C0020F640002072
:1033100040860840246B20005886084048860840B4
:103320006486084060860840C84C0020C74C0020D6
:1033300038B505460C46134A13689B07FCD4124B5C
:1033400093F90030002B01DBFFF7B2FE0F4BEE22AA
:103350001A60691E1A60A21C43F8102C2144022036
:1033600000F038FB013C0A4924012143022000F00F
:1033700043FB022000F04AFB022000F05FFB00202C
:1033800038BD00BF4C860840CA4C00203888084031
:1033900002C001C0F8B5214B93F90030002B0DDBC2
:1033A000FFF746FB0546FFF783FE6FF00904641B39
:1033B000FFF73EFBC442FBD4012600E00026184B79
:1033C0001B7823B9174D2B68990604D405E0FFF745
:1033D000CBFE0028F6D10220F8BD134CE923236070
:1033E00004272B689A0707D4013F17F0FF0703D083
:1033F0000620FFF7F9FAF4E72B689B0704D4EE23C5
:1034000023602360012403E02C6814F00204FBD144
:103410000EB1FFF763FE2046F8BD00BFCA4C002086
:10342000F64000204C860840388808400B280DD113
:10343000082A0DD161B1074B074A083111F8010D77
:1034400043F8040F9342F9D10020704701207047E0
:1034500002207047A4850840C485084070B52F4DF0
:103460002B6813F0400308D02D4E3368DCB21B06E6
:1034700005D52C4BED221A601A60002070BD042C7B
:10348000F7D9023C8C42F4DCE4B2032C21D00119C0
:103490000139032000F0A6FA631E23491B011943DA
:1034A000032000F0A9FA032000F0B0FA032000F096
:1034B000C5FA032000F0CEFA0028FAD131681B4B80
:1034C000493949B219703368194E18063370D0D58E
:1034D00006E0336803703368437033688370EDE748
:1034E00089B2042001F02AFE3178032001F07F0127
:1034F00001F024FE0F4B1B7873B92B685A060BD5CD
:10350000064B1B681B0603D50B4801F0C3F903E00B
:10351000044BED221A601A60204670BD4C860840AC
:10352000288808403888084002C0010CC84C002098
:10353000C74C0020C94C0020504000201E4B187082
:10354000002831D01D4A13681B03FCD51C4B1A6898
:1035500042F002021A601A6842F001021A601A6808
:1035600017495007FBD50A6822F001020A60196862
:10357000134A4907FBD4116841F002011160116838
:1035800041F0010111601A685207FCD50D4A8D20E7
:10359000136823F00403136002F5D472136823F058
:1035A00004031360FFF7F8BB064A8D20136843F04D
:1035B00004031360FFF7E2BBC94C002004200D4058
:1035C000048808408C86084010B50C46072861D84E
:1035D000DFE800F0040E181C233F455B012902D1EF
:1035E000FFF766FD4BE0002958D1FFF777FD46E075
:1035F000A1F10B030F2B51D8C8B2FFF791FD013099
:103600003DD149E08CB2E2B2254B02E08CB2254BB1
:10361000E2B2240A1A605C6031E031F007033DD168
:10362000214B11F0010F1A68C1F3800014BF42F062
:10363000010222F001021A601C4B11F0020F1A68FD
:1036400014BF42F0200222F020021A60FFF776FF3A
:1036500015E031F0010021D1154B197010BD01F1B9
:1036600018031F2B1AD813490D2351F83300DA0021
:10367000844206DC0F4B13441A790F4B1A6000206A
:1036800010BD13F1FF33F0D2F9E7CCB20B4B493444
:103690001C60F4E7012010BD032010BD022010BD06
:1036A000C8850840D0850840008608402486084028
:1036B000F6400020246B20004086084058860840D1
:1036C000F8B5294F3D7815F001054AD1274B012463
:1036D0001C605C609C60A3F59323A3F51473F8222F
:1036E0001A600922C3F89021152270331A6003F57D
:1036F0009B230B2203F59E731A60A3F59B23A3F56E
:10370000F07340221A601A687F2642F020021A6085
:10371000D52243F81C5CDE62DA61154B1878FFF79E
:10372000FFFC144B8E201E60FFF728FB022000F0E8
:1037300079F91149022000F055F9032000F072F9DF
:103740000D49032000F046F90C4B1878FFF7F6FE00
:1037500029460B4801F086F83B78204623433B700E
:10376000F8BD0020F8BD00BFCA4C0020A8200D40C5
:10377000F74000209486084028880840C94C002063
:103780005040002038B503880446CBB140F20342D4
:10379000934203D000230380032038BD194B1878CF
:1037A0001A4628B11B7873B1174B1B7858060AD5F7
:1037B000822908D1137843B1134B1A78520614D4D6
:1037C00040F203432380012038BD01F069FC01F081
:1037D00001FC8021FFF742FE0028EDDD80B201F000
:1037E000B9FB0A4B1B699847E6E700221A70084BA1
:1037F0001D68FFF773FCFFF763FFAB06E0D0FFF730
:1038000057FCDDE7C94C0020CA4C00203C6C20006E
:10381000488608400B282DE9F84F0E4610D1082A9B
:1038200040F0828000297FD0414B424A4E1E53F81F
:10383000041D934206F8011FF9D10020BDE8F88F5E
:103840000C286ED1042A6FD100296DD03A4B3B4829
:103850001A68DFF8F8C022F007021A600268DFF881
:10386000F0A042F008020260DAF80040DCF8001034
:103870001A68DFF8E0E022F07002314F1A60DEF8DB
:1038800000203D68E4B2090244EA056401F47F4186
:103890001204214302F47F020A432A490024D1F88A
:1038A00000805FFA88F544EA02081A68A94622F007
:1038B000070242F001021A60026842F00802026048
:1038C000DAF80000DCF800201D68C0B225F07005B1
:1038D00045F010051D60DEF800303D68120240EA38
:1038E000056002F47F421B04024303F47F03134389
:1038F0000A6844EA030A5FFA82FBFFF799F8B8EB1B
:103900000A0869EB0B094FEAC93105460E4A002344
:103910004FEAC83041EA584102F0DCF8281A30601A
:103920008BE70120BDE8F88F0220BDE8F88F00BFCB
:10393000C8850840A88508401088084004880840C9
:10394000208808401C8808400048E8011888084082
:10395000148808402488084008B5054B1B7813B923
:10396000044800F097FF044B00221A6008BD00BF16
:10397000C94C00205040002034880840064B0748BE
:103980001A68042A1FBF06490A7842F040020A70EA
:1039900000221A6000F07EBF2C88084050400020B2
:1039A000CA4C002010B5094C40220021204602F0EC
:1039B000C9FA074B01221A602E205C60FFF7DEF97E
:1039C000BDE810402F20FFF7D9B900BF004000200C
:1039D00004F00F4003289EBF014B000119507047AF
:1039E0000040002003289EBF024B03EB0010416003
:1039F000704700BF0040002003289EBF024B03EB2E
:103A000000108160704700BF00400020032806D8E6
:103A1000034901220B6802FA00F01843086070475E
:103A200028F00F40032806D8034901220B6802FA48
:103A300000F018430860704720F00F40032806D8B4
:103A4000034901220B6802FA00F01843086070472E
:103A500014F00F4003289FBF044B03EB0010806855
:103A600000F0070088BF0020704700BF0040002022
:103A7000024B4FF0FF321A60704700BF04F50F4051
:103A8000014B01221A6070474CF00F40094A13683D
:103A9000084913F4801FFAD1074B1A6822F48032C8
:103AA0001A600A68D203FCD41A6842F400321A6021
:103AB000704700BF04200D4000200D4010B50B4B97
:103AC0001A681C4612F0030F0ED009490B68084A09
:103AD00013F0806FFAD113685B01FCD5FEF792FFFB
:103AE000FFF7D4FF0023236010BD00BF58200D4016
:103AF00004200D4038B5264B1C6814F03F0413D148
:103B0000244D55F8243023B1984768B10134052C71
:103B1000F7D1214D2B783BB1FEF784FF0446FEF729
:103B200087FF201A092801D830BF38BD002CFBD0F0
:103B30001A4B1B481A6822F400321A6002681849AE
:103B400012F4801FFAD11A6842F480321A600B68AE
:103B5000DB03FCD5FEF76CFF201A092803D8BDE86B
:103B60003840FFF793BF63280E4C02D92B78022B05
:103B700000D00123236000F043FE20B1FFF786FF51
:103B80000023236038BDFEF74DFF0028CCD1F5E7B8
:103B900048860840F0410020CB4C002000200D401A
:103BA00004200D4058200D400749002351F82320E0
:103BB000824207D01AB9044A42F823007047013301
:103BC000052BF3D1704700BFF0410020054B0022C8
:103BD0001A60054A136843F004031360034B022282
:103BE0001A70704758200D4010ED00E0CB4C0020BB
:103BF00010B59020064CFFF7DDF89020FFF7CCF8C9
:103C0000206818B100F046FE0023236010BD00BFFD
:103C10000442002030B5184B1A78431E22B101F53A
:103C200020112731154A1FE0154A1278122AF6D1C1
:103C3000144A12784B2AF2D14A0802F12814B4F13E
:103C4000281F04D014F8015D03F8015FF7E701F5C0
:103C50002011273100231044934204DA11F801495E
:103C6000C4540133F8E730BD914204D011F8010982
:103C700003F8010FF8E730BD2B00280027002800CB
:103C80002A002800290028000FB407B504AA52F81A
:103C9000041B0448019200F021F803B05DF804EB26
:103CA00004B070476040002070B505460C46102CEB
:103CB00007D92B68102208496868984750B9103C0A
:103CC000F5E734B12B68224668680349BDE87040C7
:103CD0001847204670BD00BF4E6E20002DE9F04F02
:103CE000064615468FB006914FF0000B069B1B78D9
:103CF000CBB1069C274617F8013B1BB1252B14D0EE
:103D00003C46F7E7069BA3420DD0069B0699C3EB02
:103D100004084246336870689847002840F01F83C3
:103D20002378C34423B9584634E3069BA342ECD11D
:103D30006378002BF7D039460024084610F8013B81
:103D40000A462B2B11D006D8202B11D0232B12D1B1
:103D500044F0080416E02D2B04D0302B0BD144F096
:103D600010040FE044F001040CE044F0060409E004
:103D700044F0020406E0A3F13107082F11D84FF0F8
:103D8000000801E00146D8E70A4611F8013BA3F11B
:103D90003000092813D80A2202FB0838A8F130089D
:103DA000F2E72A2B09D12B680246002B05F1040506
:103DB000B8BF44F00104984601E04FF000081378C2
:103DC0002E2B1AD15178531CA1F1300009280ED89E
:103DD000194600270A780B46A2F13000092801F1A4
:103DE00001010DD80A2303FB0727303FF2E72A29F8
:103DF00004D12F68931C043502E013464FF0FF37BF
:103E00001A786C2A09D15A786C2A02D144F08004BD
:103E10000AE0013344F060040BE0682A09D15A78C3
:103E2000682A03D144F02004023302E0013344F055
:103E300040041A78642A3CD01FD8462A48D00DD8AE
:103E4000252A5AD003D8002A3FF46DAF57E0412A03
:103E50004AD0452A53D144F4424450E0582A31D044
:103E600004D8472A4BD144F4A13448E0612A38D021
:103E7000632A44D144F4A06441E06E2A3AD007D8C2
:103E8000662A22D027D3672A28D0692A11D036E0A3
:103E9000732A2CD006D86F2A11D0702A2FD144F45F
:103EA00040742CE0752A07D0782A28D144F4C854ED
:103EB00025E044F4245422E044F410641FE044F468
:103EC00088541CE044F4B24419E044F4007416E051
:103ED00044F4844413E044F4024410E044F4813494
:103EE0000DE044F4C1340AE044F4E13407E044F462
:103EF000806404E044F4E06401E044F4C06401330D
:103F0000069304F4E063B3F5806F00F08F8113D85B
:103F1000B3F5807F27D0B3F5407F7FF4E7AEAE4B9B
:103F200014F4804FAD4A18BF1A460DF133032868C8
:103F3000002104351F46B5E1B3F5C06F08D0B3F5D5
:103F4000E06F00F02282B3F5A06F7FF4CFAEF2E114
:103F500033680122A24970689847002840F0FF8129
:103F60000BF1010BC2E6002FACBF24F010040127B7
:103F700014F40053079304F0E0032ED0402B12D02A
:103F800005D8ABB1202B21D195F900200DE0602B95
:103F90000ED0802B1AD1073525F0070303F1080551
:103FA000D3E9002307E0B5F90020D317043502E078
:103FB0002A680435D317002A73F1000108DA524247
:103FC00063EB4303CDE90023012304E00022002337
:103FD000CDE900230023059329E0402B13D004D81A
:103FE000BBB1202B1DD12A780EE0602B11D0802B85
:103FF00017D1073525F0070303F10805D3E900239E
:10400000CDE900230BE02A880023CDE90023043505
:1040100005E02B6800221946CDE900120435079B04
:10402000D9E70023059300220023CDE9002304F4FF
:10403000C053B3F5805F0CD0B3F5C05F33D0B3F598
:10404000006F4FD1DDE900230DF13609CDE90223E0
:1040500004E0DDE900230DF1360915E0DDE9022376
:1040600013433AD0DDE902010A22002301F032FDB8
:10407000DDE90201303209F8012D00230A2201F0A6
:1040800029FDCDE90201E9E752EA030125D002F05A
:104090000701303109F8011DD10841EA4371D80800
:1040A0000A460346F0E74C4B14F4804F0DF13609F5
:1040B0004A4918BF1946DDE9002352EA03000CD033
:1040C00002F00F00085C4FEA131E09F8010D1009F9
:1040D00040EA037002467346EFE70DF13603C9EB81
:1040E000030302E00DF1360900230293029B41F61F
:1040F0000802BB4238BFFF1A41F2080302EA040279
:1041000028BF00279A4202D1002F08BF012741F69D
:104110000801029B8A4203EB07000DD1DDE9002371
:10412000134309D02F4A304914F4804F4FF0020A4C
:104130000CBF0B46134602E04FF0000A5346079AA5
:104140009AB1059A52B904F00602022A0AD0062A48
:10415000264A04BF4FF0010A134606E04FF0010A59
:10416000234B02E0234B4FF0010A0AEB000290457B
:104170008CBFC2EB08084FF0000814F00102009257
:104180000DD1E10602D54744904608E0414630464D
:104190000593FFF789FD059B002840F0E080BAF108
:1041A000000F07D03468524619467068A0470028AF
:1041B00040F0D580029B03EB0B04BB46BBF1100F14
:1041C00033681BD910220C4970689847002840F0CA
:1041D000C680ABF1100BF1E7196E20002A6E2000AB
:1041E0004C6E20003E6E20003B6E2000436E20008F
:1041F000416E2000096D20005E6E2000BBF1000FB3
:1042000006D05A46654970689847002840F0A78054
:104210003368029A4946706854449847002840F031
:104220009E80009B3C44002B39D032E0D5F80090B2
:104230000435B9F1000F0AD0CA469AF800300AF1E5
:1042400001020BB19246F8E7C9EB0A0A03E0DFF876
:1042500050914FF0060A002F02DBBA4528BFBA463C
:10426000D0458CBFCAEB08084FF0000814F00107D6
:1042700005D141463046FFF717FD00286FD133685E
:104280005246494670689847002868D10AEB0B04EB
:104290002FB141463046FFF707FD00285FD108EBFC
:1042A000040B23E550EA010E0ED000F00F0E12F8B9
:1042B0000EE04FEA111C03F801ED4FEA101E4EEA22
:1042C000017E70466146EDE7FF1A02BF30220127EA
:1042D00003F8012C07F1030708BF03F1FF3378222D
:1042E000B84503F8012C4FF0300203F8022C88BFC8
:1042F000C7EB08084FF0230298BF4FF0000814F0F6
:104300000104A3F1030903F8032C04D1414630460C
:10431000FFF7CAFC18BB33683A46494670689847AD
:10432000E8B95F4424B141463046FFF7BDFCB0B95F
:1043300008EB070BDAE4B8F1010F2B688CBF08F12A
:10434000FF384FF0000814F0010405F104058DF862
:10435000203008D141463046FFF7A6FC10B14FF09F
:10436000FF3017E0C3443368012208A970689847FA
:104370000028F4D108F101072CB141463046FFF77F
:1043800093FC0028EBD1BB44B0E42B680435C3F8A0
:1043900000B0ABE40FB0BDE8F08F00BF5E6E200050
:1043A000456E2000F8B50388064615462BB14A2B0A
:1043B00015D0002303800320F8BD174801F00AFF41
:1043C00004462CB1A168201D01F0D6FE2468F8E750
:1043D000124B01221A704A2333800120F8BD88292C
:1043E000FBD10D4801F0F6FE0446002CF3D0231D4E
:1043F0009D420ED12146084801F0F6FE084B626945
:104400001F681A60A2691D460AB1E06990472F60D3
:10441000E1E72468E9E700BF08420020CC4C002017
:104420001442002010B5064B002406481C7001F011
:10443000CEFE2146BDE81040034800F013BA00BF8D
:10444000CC4C0020084200206840002070B5044693
:10445000E3610B4B049D1B786561A26143B1094D7B
:10446000094B2E68201D2B6001F086FE2E6000E0B7
:10447000A1602146BDE87040044801F0C8BE00BFFD
:10448000CC4C00201442002068400020084200204C
:1044900013B5034C24680094FFF7D8FF02B010BD99
:1044A0001442002010B5084B04461B781BB10430A1
:1044B00000F0B4F801E0C36003612146BDE810409C
:1044C000024801F091BE00BFCC4C00200842002001
:1044D00010B50E4C236813B90D4A136010BDFEF7DA
:1044E00079FA216891E80C001A44131A8A6842B1DB
:1044F00092E812002144091A8B4228BF0B469268A9
:10450000F5E71844024B186010BD00BF0C420020B4
:1045100010420020014800F0BDB900BF78400020E3
:104520002DE9F8430388054633B1592B0BD00023FE
:1045300003800320BDE8F883234A136059232B80AE
:104540000120BDE8F883872924D08229F6D11E4FA7
:104550004FF00008B9463C680026002CEED02046FB
:1045600001F027FE98B122468821E06800F052F958
:1045700058B9E060A3680EB1B36001E0C9F800303B
:10458000C4F80880FFF7A4FFE5E7FFF7C3FF26465E
:10459000A468E2E70C4900200B681BB90028CDD0C5
:1045A0000B60CBE7DC68A24202D19B680120F4E7F4
:1045B00000B10B6099680029C0D0C86882420ABF68
:1045C00089680B469960F5E70C42002010B5044657
:1045D000FFF7A0FFE3680B4A4BB113683BB1A3425E
:1045E00003D1094A1268DA6007E09B68F6E7064BD8
:1045F0001B68E36013681460A360BDE81040FFF718
:1046000067BF00BF0C42002014420020024B186814
:10461000003018BF012070470C42002010B50B4A33
:1046200004461368834206D18368136008E09A68E1
:10463000944203D01346002BF9D103E0A2689A609C
:10464000FFF746FF0023A360E36010BD0C4200208B
:1046500038B5836804460D469BB10A4804600220C1
:10466000A07304F10C0098470238012801D9832D6A
:1046700005D121462046BDE8384000F005B80123A9
:10468000A37338BD144200202DE9F8431C4A0446A8
:10469000156889462B4690461A4E3768A34204D0C7
:1046A0000BB11B68FAE7BDE8F88334B3A37BABB169
:1046B0000023A37345B1A54204D022468721284692
:1046C00001F068FD2D68F5E7A3683BB14C4505D0C6
:1046D00034602A46832104F10C009847D8F8003052
:1046E0009C4203D12268064B05E0134623B11A68A9
:1046F0009442FAD122681A603760BDE8F88300BF9F
:104700001842002014420020002370B51D46094ABB
:1047100001261370084A146854B1E37B33B1A673C1
:10472000E573002282212046FFF792FF2468F3E719
:1047300070BD00BFCF4C002018420020024B1878FB
:10474000421C1A70704700BFD04C0020064B8A22D2
:104750001A70064A00231370054A1370054A136045
:10476000054A1360704700BFD04C0020CD4C00209C
:10477000CE4C002018420020144200202DE9F041C8
:104780001A4D2B780BB1FFF7BFFF194C22783AB3C3
:10479000184E0C213378184F5943781817F80180B8
:1047A00001334768806803F01F03013A33702270B9
:1047B00068B9124B1E689EB12B780BB1FFF7A4FFAE
:1047C00030463A46414601F0E5FC3668F3E7B8F179
:1047D000810F04BF012383733A46414601F0DAFC9E
:1047E0002B7820781844BDE8F08100BFCF4C002022
:1047F000CE4C0020CD4C00201C420020184200204E
:10480000024A034B10781B7818447047CE4C0020A6
:10481000CF4C0020F0B50B4E3378202B0FD00A4C34
:104820000C252478094F1C4404F01F046C43013309
:104830003D19A86039556A6033700020F0BD012031
:10484000F0BD00BFCE4C0020CD4C00201C4200200B
:1048500038B5034C256801F09DFC256038BD00BFCC
:104860001442002030B40A4C0A4625682B46834285
:104870000CD00BB11B68FAE740B1012105608173D0
:1048800020608381812130BCFFF7E2BF30BC7047DC
:104890001842002038B1837B013B012B9FBF024AA5
:1048A0000123C37313707047CF4C002010B5084C20
:1048B000206858B1002323608168436898472368C3
:1048C00023B1BDE810401868FEF7C8B810BD00BF9E
:1048D0009C43002070B505880446672D09D0792DCA
:1048E00030D0002D34D1FFF729FF1C4B18701C4B22
:1048F0001D601B4D2E461B4801F00AFD431C01D1D3
:1049000067231DE00A28164A07D02B687E2BF2DCAD
:104910005A1C3260144AD054EDE713680025591C24
:104920001160114A2846D5540C4B1978FFF772FFD5
:104930000E4B2A4685211868FFF76CFF20B97923B2
:10494000238009E0852907D1054B00221A60D0E7B2
:1049500000230380032070BD012070BD3D4E002068
:10496000A8430020A0430020524D00201442002004
:104970000D2810B5014615D00B4C23782BB90B48E8
:1049800001F0B3FC48B9012306E00A2805D1074825
:1049900001F0ABFC08B1002323700548FFF77AFF54
:1049A000012010BD002010BD514D0020A04300206B
:1049B0008840002008B505490548802201F08EFC9A
:1049C000BDE8084000210348FFF74CBFD14C002050
:1049D000A0430020884000202DE9F04106880546CC
:1049E000772E31D07E2E40D0002E4ED12B4CFFF7AB
:1049F000A5FE266026462A4B2A4FDFF8B0801870A5
:104A0000236857F823204AB1002108F8031093685F
:104A100080209847336801333360F1E7224A1370EE
:104A2000772320E0214AD256002A12DB1B4A136862
:104A300001331360194B1C4A1B6812789A42F1DC4F
:104A40001B4B1B68002BEBD0194A00231360134A41
:104A5000EFE7144A002052F82320114B1978FFF792
:104A6000D9FE30B97E232B8014E00D4B1B788B428E
:104A700010D10A4B0D491A688B5C03F07F038B54ED
:104A80000B4A136801331360D0E70023038003202F
:104A9000BDE8F0810120BDE8F08100BFB0430020F7
:104AA0003E4E002040400020D24D0020394E0020D4
:104AB000AC43002010B40A4B0A491A7800239342F1
:104AC00003DA51F82340A04208D107490748CA5CDD
:104AD00062F07F02CA5410BCFFF7DCBE0133EEE780
:104AE000D24D002040400020394E00209840002048
:104AF000054A136843F004031360044B1B68906974
:104B000043EA002080B2704700700D4014700D40E1
:104B100010B5184A136823F00C031360164B0122DA
:104B20001A601A68012AFCD1144B08221A60E32289
:104B3000C3F8142203F505731946114A1368DB07FD
:104B4000FCD5104C102000232268013802F001022D
:104B500043EA02034FEA43039BB2F5D1002BF1D0A5
:104B6000094A180A03F0FE0310601360EF230B607C
:104B700010BD00BF00700D40A8200D4024860840E5
:104B8000648608409C86084014700D4010B5437838
:104B9000047843EA0420064B00FA01F19B5CC2F161
:104BA000080003EA212141FA00F0C0B210BD00BFA5
:104BB0009F6E200070B50B4C0023616E0A4A04F111
:104BC0003800FFF765FCFFF793FF616E0023B0FB31
:104BD000F1F5064A05FB110104F11800BDE870402B
:104BE000FFF756BCB4430020F14B2000094C2000D5
:104BF000044B5A6E196E52008A4294BF5A66596627
:104C0000FFF7D8BFB443002010B500F049FA00F018
:104C1000E1F900230380044600F060F868B1037BEB
:104C20005BB12388818804EB83025180C188013302
:104C30009180238001F007FBF0E72088800002309C
:104C400080B200F087F9238823B1BDE81040024804
:104C500000F078B810BD00BFB44300209DF80030CC
:104C6000012B04D1024B9A6D5A66FFF7A3BF704720
:104C7000B4430020F8B50F4616461D46064C0146C3
:104C8000064A204600F04CF8A765E665256604480C
:104C9000BDE8F84000F01CB8B4430020F86B2000D9
:104CA0005D4C200070B505460C46164600F082F8B3
:104CB0002E612046BDE87040014901F0C0BC00BF34
:104CC000A86E2000014801F082BA00BF20440020F5
:104CD000014B1860704700BF24440020014801F0D8
:104CE00079BA00BF204400202DE9F04106460B4868
:104CF0000C46174601F06EFA70B18388A34208D1C2
:104D000085684DB13B4622463146AC46BDE8F04190
:104D1000604701F098FAEFE7BDE8F08120440020F9
:104D200070B505460C461646044AFFF7BBFF6E6198
:104D30002046BDE87040024901F081BC006C2000B3
:104D4000AA6E200010B5044604491A2000F004FAA7
:104D50002046BDE8104001F04EBC00BF364E00209A
:104D6000054B10B51B689847044618B1818801208F
:104D700000F0E4F9204610BDEC6B200038B5064B7E
:104D800005465B6898470446A988012000F0D6F9DB
:104D9000201C18BF012038BDEC6B2000014B9B6824
:104DA000184700BFEC6B2000014801F010BA00BFAB
:104DB0002844002081800146014801F028BA00BF44
:104DC0002844002010B50446054801F003FA28B134
:104DD0008388A34202D001F036FAF8E710BD00BF85
:104DE00028440020F8B506460A480D46174601F04B
:104DF000F1F9044638B1A3680BB12846984720461C
:104E000001F021FAF5E73A4629463046BDE8F84078
:104E100001F0F8BB2C44002038B5FFF7A1FF054690
:104E2000094801F0D7F9044630B1636803B19847E7
:104E3000204601F008FAF6E725B12846BDE83840DB
:104E400001F0DBBB38BD00BF2C44002010B5044688
:104E5000FFF794FF38B100F099F8034B034821465F
:104E60009B689847012010BD686C2000E54D20002C
:104E700008B5044801F0EAF9BDE80840024801F02D
:104E8000E5B900BFB4400020A840002038B50E4866
:104E900001F0ECF90446A8B10C4801F0E7F9054629
:104EA000206028B92146084801F0F4F9284638BDA9
:104EB00000F098F805F1B601A5F8800005F1820030
:104EC00000F014F9204638BDA8400020B44000206E
:104ED00010B501460446074801F0F2F948B12168CF
:104EE000054801F0D7F92146BDE81040014801F01E
:104EF000D1B910BDA8400020B440002010B5014633
:104F00000446094801F0DCF968B12468B4F880105F
:104F1000204600F0D5F804F1B60104F18200BDE8A6
:104F2000104000F0F7B810BDA840002010B50749A8
:104F30000B88834208DB064C80B222880244181A90
:104F400008802280012010BD002010BDBC4C002034
:104F5000BE4C0020014B1880704700BFBC4C0020A5
:104F60000048704750440020014B1888704700BF2C
:104F7000BC4C0020034A044B10781B781844C0B284
:104F8000704700BFE34D0020BE4C00202DE9F041EA
:104F90000C4B1A881D469AB10B4BDFF834801E88E3
:104FA0000A4B00241F7821B2B14204F1010405DA52
:104FB000FFF7E0FF41440B5CCB55F4E700232B8067
:104FC000BDE8F081BE4C0020BC4C0020E34D002029
:104FD0005044002008B5FFF7CDFF014B184408BD31
:104FE00050440020F8B50C4B07461C780B4B1E882C
:104FF000A519802D0CDC2246094900F02DFFFFF792
:10500000E9FF3C4401463246204600F025FF00E01F
:1050100000252846F8BD00BFE34D0020BC4C002011
:105020005044002008B5FFF7A5FF024B1B88184429
:1050300080B208BDBC4C002010B50146FFF7F2FF5E
:105040004318802B10DC0138084B00B2002805DB28
:105050001C5C1A180138545400B2F7E7044B0120C5
:105060001A781144197010BD002010BD5044002062
:10507000E34D002038B534220021064800F062FFDD
:10508000054D002428190549023401F004FB082CC1
:10509000F8D138BD024E0020FA4D0020806C20006F
:1050A000044A00231380044A1380044A1370FFF754
:1050B000E1BF00BFBE4C0020BC4C0020E34D0020EF
:1050C00038B50C460546FFF7EBFF802C28BF80243F
:1050D00022462946034800F0BFFE034B20461C80B1
:1050E00038BD00BF50440020BC4C002010B5074B19
:1050F00003F1340253F8044B934240F8044BF9D1C6
:10510000034A13680B6053684B6010BD024E0020C9
:10511000FA4D002010B5074B00F1340250F8044B53
:10512000904243F8044BF9D10B68034A13604B6873
:10513000536010BD024E0020FA4D0020024B23F8B0
:1051400010100120704700BF024E0020014B33F8C1
:1051500010007047024E002008B5044B1A3803EBCC
:10516000400001F098FA012008BD00BFFA4D002070
:10517000024B1A3803EB4000704700BFFA4D002085
:105180000149024801F08ABA806C2000FC4D0020E1
:10519000084B10B51B689847074B5B689847074B4F
:1051A0005B689847064B5B689847BDE81040054B25
:1051B0005B681847946B20003C6C2000686C2000F2
:1051C000206C2000086C20002DE9F041FDF702FC66
:1051D0000446114F00254FF00C0808FB05761A20F5
:1051E000FFF7C6FF314601F059FA88B10A20FFF7F0
:1051F000ADFF337A834202D00020BDE8F0817068B1
:10520000201AB0F5206F8CBF00200120BDE8F0818E
:105210000135102DE1D1EFE7D044002070B5184ED4
:1052200000241A20FFF7A4FF0C2101FB046101F008
:1052300035FA134D631C10B9102B1C46F1D1013BFC
:105240000C2202FB0352A2F10C0643B1344603CCFC
:10525000106051602068013B90603246F3E70A20FD
:10526000FFF774FF2872FDF7B5FB68601A20FFF79F
:105270007FFFBDE870400146014801F00CBA00BF55
:10528000D044002030B591B0054600F08FF84FF6BD
:10529000FF73984202D14FF0FF307EE040220021A0
:1052A000684600F04FFE3E4B1A782AB901221A7068
:1052B000FFF71EFC3B4B18701420FFF747FF8DF8DB
:1052C00010001320FFF742FF8DF81200FFF758FF80
:1052D000044628B100238DF813308DF8153006E010
:1052E0000B20FFF733FF8DF815408DF813000023D6
:1052F00001248DF814308DF81840ADB10A20FFF765
:1053000025FF28B10A20FFF721FF8DF81A000BE0D6
:10531000244B1A7802B91C7019780A204A1C1A709A
:105320008DF81A10FFF70AFF02248DF8194000F0DB
:105330003DF8ADF81C00FFF723FF38B1FF238DF8CF
:1053400017408DF800308DF8013008E01B20FFF782
:105350000FFF0146684601F09EF98DF8174000F0F6
:1053600025F81149ADF81E0002A801F094F9FFF7E5
:1053700031FE0E90FFF7F8FD0F90684601F06BFAD2
:1053800004464DB1FFF758FE002884D0FFF7E8FD32
:105390000146684601F078FA204611B030BD00BFE2
:1053A000E54D0020E44D0020364E0020014B1888CA
:1053B000704700BFF44000202DE9F041012986B07C
:1053C00006460F46144640F3A780037803F0070211
:1053D0008DF80C20C3F3C0028DF80D20C3F300122A
:1053E0008DF80E20C3F34012C3F380138DF81030F4
:1053F00043788DF80F20C3F340028DF81220C3F3D9
:10540000810203F001058DF81320C3F301129B09FB
:105410008DF815308DF814208DF8115003AB03CBA7
:105420001B882061616123830DB1B51C02E0B37854
:10543000F51CA37602AA01A903A801F08CF99DF836
:105440001380B8F1000F23D0029B23B16A7815F8BE
:10545000023B03EB0223B8F1020FA38309D13049C9
:10546000204601F018F96B78237015F8023B637041
:1054700014E0B8F1030F11D105F108021346611EC3
:1054800013F8010DAB4201F8010FF9D1154605E003
:105490002349204601F0FFF8A4F81C809DF81580F0
:1054A000B8F1000F2BD0019B53B16A7815F8023B7D
:1054B00003EB0223029A9BB2E3831AB9A38301E0B0
:1054C000A38BE383B8F1020F0AD1154904F1080058
:1054D00001F0E1F86B78237215F8023B637215E076
:1054E000B8F1030F12D105F108021346E11D13F8BC
:1054F000010D9D4201F8010FF9D1154606E008495A
:1055000004F1080001F0C7F8A4F81E80A81B3B1A9C
:105510008742E363A56300DA002006B0BDE8F081AE
:10552000806C2000014BDB68184700BF686C2000CE
:10553000014B5B69184700BF3C6C2000014B9B6925
:10554000184700BF3C6C2000024BD86900B10047EF
:10555000704700BF3C6C200013B5044668B1006B77
:1055600000F038FE024640B12146054B0548DB6895
:10557000019302B0BDE81040184702B010BD00BF53
:105580003C6C20008769200070B590F82940012309
:10559000032C88BF042403FA04F40C4B0546DB6992
:1055A0009847002808BF0120013C444305D0FFF77D
:1055B0009FFAB0FBF4F303FB14042B46214605F1DC
:1055C0000800034ABDE87040FEF762BF3C6C200053
:1055D000595520002DE9F04107461B208846FFF76A
:1055E000C7FD484B05461A78474C22B901221A706C
:1055F000FFF77EFA2080238813B9434B01221A80DB
:1056000021880A204B1C2380FFF798FD3F4800F0BB
:10561000E1FD044640B12946201D01F03FF8D8B90C
:10562000204600F010FEF4E7394800F01FFE044663
:1056300040B32946201D01F02EF8002304F12C0070
:10564000206384F8283084F82930E36200F0BFFD3D
:1056500021462E4800F0DBFD206B00F0EDFD072811
:1056600010DC2C4800F002FE054698B9206B00F0D3
:10567000E3FD38B92146254800F0B6FD214624480F
:1056800000F008FE41463846BDE8F04101230422FF
:1056900001F06DB9204800F0E9FDA86058B3FFF7AC
:1056A000F5FB686018B30920AE68FFF74FFD10B92D
:1056B0000823337203E00920FFF748FD307286E8C3
:1056C00080010D20FFF742FD01282946206B02D101
:1056D00000F0AAFD01E000F09AFD206B00F07AFDD9
:1056E00085420DD12046BDE8F041FFF74DBFA968C6
:1056F000094800F0CFFD2946064800F0CBFDB5E78C
:10570000BDE8F081EE4D0020C04C00209045002007
:10571000D8400020CC400020C040002008B50548FB
:1057200000F094FD044800F091FDBDE808400348F6
:1057300000F08CBDCC400020C0400020D8400020AC
:105740002DE9F0410D4614468B68804693E8C00071
:10575000106B00F049FD6868FFF7BAFBA9681448B0
:1057600000F098FD2946134800F094FD206B00F0EE
:1057700031FD40B1002384F8283084F829302046D8
:10578000FFF702FF0BE004F10800FEF78BFE214655
:10579000094800F029FD2146084800F07BFD94F8F7
:1057A0002830424639463046BDE8F04101F0DFB8C6
:1057B000C0400020CC40002090450020D840002070
:1057C000014B1B6A184700BF946B20002DE9FF476F
:1057D00006460F461A204149FFF7BEFC01210B2067
:1057E000FFF7ACFC3E4B5B68984700286ADBFFF78D
:1057F000B7FB3C4C90F802806568FFF7B1FB81462F
:10580000FFF710FC01464846A847FFF7B9FCD4F85B
:1058100018900546C847002851D15DB1A36801938F
:10582000FFF700FC019B984748B102280CBF0122FA
:10583000042245E0E3699847002840D1EEE715B11E
:105840000022012440E0FDF7F3F88246FDF770FAEC
:105850006FF00C05CAEB0505FDF7EAF8C542FBD46D
:10586000C84748B1FDF7E4F881466FF01405FDF72D
:105870005FFAC9EB050509E0E36998470028F1D113
:10588000184B5B6998470028ECD016E0FDF7D0F87C
:10589000C542FBD4E369984778B1124B032103A8B2
:1058A0001B69984703280AD19DF80E20B2EB080225
:1058B00018BF0122002AC3D002E0022200E0012228
:1058C000002401E00522FBE730460123394601F0C0
:1058D0004EF8204604B0BDE8F08700BF364E0020E9
:1058E0005C6C2000946B200082B0044B08B11B6AF2
:1058F00000E05B6A019302B0184700BF946B200080
:1059000007B5FFF731FB03281BD00F4B9B68984767
:10591000002816DB1B20FFF72BFC0C4900F0BEFE15
:1059200058B1FFF751FC60B9FFF778FC084BDB6812
:10593000019303B05DF804EB1847FFF721FC002842
:10594000EFD103B05DF804FB5C6C2000364E002004
:10595000206C200008B5024B1B689847023008BD38
:10596000146C200038B50C4B9B689847041E02DA73
:105970004FF0FF3038BDFFF72DFB03780546002BB5
:10598000F6D10220FFF7D2FA0028F1D06878FFF7AD
:10599000E1FAA01C38BD00BF146C200070B50220D5
:1059A000FFF74AFB10B94FF0FF3070BDFFF7D8FA90
:1059B000002505700446FFF7D7FA6070FFF732FB49
:1059C0000446FFF7C7FF20442A2812DCC0F12B0051
:1059D000C4B2FFF7FFFA0646FFF7C6FA2246294689
:1059E000304400F0AFFAFFF7BFFA204480B2FFF76F
:1059F000B1FA044B5B689847041ED4DBFFF7C6FA84
:105A0000A01C70BD146C2000014B9B68184700BFA0
:105A1000086C200070B504460D4614200121FFF7E4
:105A20008DFB034B29462046BDE870409B68184714
:105A3000206C200038B5038805462BB1492B0FD0C8
:105A400000230380032038BD1F4B052103209B68E2
:105A5000984710211D4800F08FFB49232B8003E05D
:105A60001A4800F092FB08B9012038BD164B0320FC
:105A70005B68984784B221461548FEF705F9632C08
:105A800002D80720FCF790FDA4F16403B3F5C87FAA
:105A900005D20420FCF780FD0320FCF785FDA4F56A
:105AA000FA73B3F5FA7F04D20220FCF775FD0520E6
:105AB00006E0B4F57A7FCCD30120FCF76DFD06201B
:105AC000FCF772FDC5E700BF8C6A2000BC460020D1
:105AD000C86E200053B94AB9002908BF00281CBF6E
:105AE0004FF0FF314FF0FF3000F082B9ADF1080CFC
:105AF0006DE904CE00F006F8DDF804E0DDE90223EC
:105B000004B070472DE9F04F8C460C460546099EBF
:105B1000002B4FD18A4217466BD9B2FA82FEBEF1F2
:105B2000000F0BD0CEF1200520FA05F501FA0EF397
:105B300045EA030C02FA0EF700FA0EF5390CBCFB2D
:105B4000F1F0BAB201FB10C300FB02F84FEA154CAA
:105B50004CEA0344A04509D9E41900F1FF3380F071
:105B60002881A04540F2258102383C44C8EB04045A
:105B7000B4FBF1F301FB134C03FB02F2ACB244EAB9
:105B80000C418A4209D9C91903F1FF3480F00F8111
:105B90008A4240F20C81023B39448A1A43EA0040AF
:105BA0000021002E63D022FA0EF2002386E80C00BA
:105BB000BDE8F08F8B4207D9002E56D0002186E831
:105BC00011000846BDE8F08FB3FA83F1002940F0D8
:105BD0009380A34202D3824200F2FE80851A64EBD6
:105BE00003039C460120002E41D086E82010BDE82A
:105BF000F08F12B90127B7FBF2F7B7FA87FEBEF1B3
:105C0000000F36D1E41B4FEA17481FFA87F901212C
:105C1000B4FBF8F308FB134409FB03F24FEA154CFD
:105C20004CEA0444A24207D9E41903F1FF3002D23E
:105C3000A24200F2D3800346A41AB4FBF8F008FB9A
:105C4000104809FB00F9ACB244EA0842914507D973
:105C5000D21900F1FF3402D2914500F2BA802046F9
:105C6000C9EB020240EA03409BE731463046BDE8FB
:105C7000F08F07FA0EF7CEF1200C24FA0CF34FEA5E
:105C80001748B3FBF8FA1FFA87F908FB1A3520FA10
:105C90000CFC04FA0EF40AFB09FB4CEA040C4FEA74
:105CA0001C4242EA05439B4500FA0EF50AD9DB196E
:105CB0000AF1FF3280F08B809B4540F28880AAF188
:105CC000020A3B44CBEB0303B3FBF8F008FB1033B1
:105CD00000FB09F41FFA8CFC4CEA03439C4207D9F1
:105CE000DB1900F1FF326ED29C426CD902383B4482
:105CF0001C1B40EA0A418BE7C1F1200E8B4022FABF
:105D00000EFC4CEA030C24FA0EF74FEA1C49B7FBD1
:105D1000F9FA1FFA8CF309FB1A7720FA0EF88C4077
:105D20000AFB03F548EA04044FEA144848EA074727
:105D3000BD4202FA01F200FA01FB09D917EB0C0788
:105D40000AF1FF3041D2BD423FD9AAF1020A6744AD
:105D50007F1BB7FBF9F509FB157705FB03F3A4B22D
:105D600044EA0747BB4208D917EB0C0705F1FF309F
:105D700027D2BB4225D9023D674445EA0A40A0FB31
:105D80000289FF1A4F4545464C4614D329D066B3C5
:105D9000BBEB050367EB040707FA0EFECB40CF40D1
:105DA0004EEA030386E888000021BDE8F08F234611
:105DB000F3E61846DAE6B8EB020569EB0C040138A5
:105DC000E5E70546D9E7104692E78246C0E79246E6
:105DD00078E702383A4443E7084604E7023B3C448C
:105DE0002AE7C345E7D33C46D1E73146BDE8F08F0B
:105DF000704700BF032A70B426D940EA01039B070D
:105E000011D004780D78AC4222D10244431C05E045
:105E100013F8014B11F8015FAC4219D19342F7D14D
:105E2000002070BC70470C4603461E682568184663
:105E3000AE42214603F1040304F10404E1D1043A23
:105E4000032A18462146F0D8002ADAD11046E8E79E
:105E5000601B70BC704700BF844641EA000313F02A
:105E6000030349D1403A23D30B6803604B68436076
:105E70008B688360CB68C3600B6903614B694361C6
:105E80008B698361CB69C3610B6A03624B6A4362AE
:105E90008B6A8362CB6AC3620B6B03634B6B436396
:105EA0008B6B8363CB6BC36340304031403ADBD2B2
:105EB00030320BD30B6803604B6843608B688360A0
:105EC000CB68C36010301031103AF3D20C3205D3D6
:105ED00051F8043B40F8043B043AF9D2043208D0AC
:105EE000D2071CBF11F8013B00F8013B01D30B881E
:105EF00003806046704700BF082A13D38B07B1D0D8
:105F000010F00303AED0C3F10403D21ADB071CBFA9
:105F100011F8013B00F8013BA4D331F8023B20F813
:105F2000023B9FE7043AD9D3013A11F8013B00F84C
:105F3000013BF9D20B7803704B7843708B788370F8
:105F40006046704770B4840746D0541E002A41D082
:105F5000CDB2034602E0621EE4B3144603F8015BCF
:105F60009A07F8D1032C2ED9CDB245EA05250F2C7E
:105F700045EA054519D9264603F11002103E0F2EB9
:105F800042F8105C42F80C5C42F8085C42F8045C91
:105F900002F11002F2D8A4F1100222F00F0204F074
:105FA0000F041032032C13440DD91E462246043A26
:105FB000032A46F8045BFAD8221F22F003020432B7
:105FC000134404F003042CB1C9B21C4403F8011BB0
:105FD000A342FBD170BC704714460346C2E700BF22
:105FE000FEE708B5FCF752F9F7B50024064625464A
:105FF00027463046FCF7D0FA0197019B9D4204DD0D
:1060000000BF019B01330193F7E73046FCF7CCFA60
:10601000C5F5C8750197019B9D4204DD00BF019B3A
:1060200001330193F7E70134B4F5487F06D0B4F5A6
:10603000C87FCCBFC4F548752546DAE703B0F0BD8C
:1060400001207047FCF7C8BBFCF776BC7047002006
:10605000FCF754BD0120FCF751BDEFF3108062B690
:106060007047EFF3108072B670470020FCF734BF22
:106070000120FCF731BF0220FCF72EBF0320FCF704
:106080002BBF10B50C46FDF753F92046BDE8104074
:10609000FDF780B910B50446C1B20020FCF72EFE12
:1060A000204610BD70B5054604464618601B44B135
:1060B000237833B1B44204D018460134FFF7EAFF25
:1060C000F4E770BD38B50546002415F8010B20B182
:1060D000FFF7E0FF0134002DF7D10A20FFF7DAFFC8
:1060E000204638BD002070470120704710B5044697
:1060F000302200210E20FCF749FF84B1012C0CD185
:1061000042F210730011A0F28E5058432A2390FBE4
:10611000F3F000F5C340283010BD4FF0004010BD33
:10612000002070470120704710B50446302200213E
:106130000F20FCF72BFF5CB1012C07D140F6F25386
:10614000584347F6F07390FBF3F010BD4FF000405A
:1061500010BD08B5084612B11146FFF7A3FF002095
:1061600008BD10B5041F54F8040F18B10021FEF744
:1061700079FBF8E710BD704710B5044600F012F83F
:106180002046BDE81040FEF721BAC068B0FA80F0A2
:1061900040097047837BDB0701D5FEF759BA70478A
:1061A000FFF754BF10B541600446FCF713FC2060B4
:1061B00010BD10B50446FCF70DFC2368C3F10103C4
:1061C00003446068834294BF0020012010BD002377
:1061D0000360704700687047006800B97047036843
:1061E0000BB11846FBE77047036810B573B1002484
:1061F00099421A6806D10CB9026000E022600022C0
:106200001A6010BD1C460AB11346F1E710BD38B53F
:106210000546FFF7E9FF00230B60FFF7DDFF08B934
:10622000296038BD016038BD38B50446FFF7DCFF92
:1062300003680B60216038BD0368002013B1013092
:106240001B68FBE7704700B10068704710B5044653
:10625000428800214068FFF775FE23886288A068A5
:106260005A43BDE810400021FFF76CBE10B54188CD
:1062700000238B420CDA4268D418D25C32B9012276
:1062800022700288806803FB020010BD0133F0E732
:10629000002010BD30B5826844880023A3420DDA87
:1062A0008A4207D14168CA5C0AB1013ACA544268BD
:1062B000D05C30BD058801332A44EFE7FF2030BDB4
:1062C00082688A4208D84388008800FB0320814204
:1062D0002CBF002001207047002070470023013AA6
:1062E0000160027143718371704710B542798379FF
:1062F0000479D31A34EA030308D003689954437924
:106300005A1C037913404371012010BD002010BDB9
:10631000837942790179D21A0A421FBF0268D25C9E
:1063200001330B401ABF837110464FF0FF307047A6
:10633000831C0020023313F8042C1AB113F8032C29
:106340001044F7E77047072B2DE9F84307468846C6
:1063500015461C4607DC1A4629464046FEF716FC41
:106360003870BDE8F8834FEAE309AAB1002608EBCC
:10637000060008222946FEF709FCB85501364E45AD
:10638000F5D114F0070217D0294608EB0600FEF7F6
:10639000FDFBB855BDE8F88318F805307B5501358D
:1063A000A945F9D114F0070206D0002108EB090035
:1063B000FEF7ECFB07F80900BDE8F8832DE9F74389
:1063C000FEF708FE04460220FEF7B0FD08B90020E3
:1063D00044E06078237803EB002080B2FEF7F2FC03
:1063E00005460028F3D0FEF7F5FD8046287B10F027
:1063F000070318BF012303EBD000FEF797FD002829
:10640000E5D00026B146AC68023414F8023C23B350
:10641000192B14F8017C06F0070208EBE60109D9F4
:1064200001A83B46FFF78FFF01A914F8020CFEF705
:1064300093FE0FE03B4601A8ADF80490FFF783FF01
:106440009DF805109DF8043014F8020C43EA012170
:10645000FEF774FE3E440234D7E7284603B0BDE899
:10646000F083072B2DE9F0410FDC1278C1F1100108
:10647000CB1A02FA03F30278C3F307210A4302702E
:10648000427813434370BDE8F081DF1089B30446BE
:106490000026C1F1080CBE4204F1010411D0955D43
:1064A00014F801EC05FA0CF5C5F3072848EA0E0EBE
:1064B00004F801EC94F800E001364EEA0505257079
:1064C000E9E713F007032DD0925DC3F108052944D5
:1064D00042FA01F1C3F11003C9B29940835DC1F3DF
:1064E0000722134384198355637819436170BDE80B
:1064F000F081545C445401318F42FAD113F0070308
:1065000010D0D25DC3F108042241C3F1100302FA96
:1065100003F3C25DC3F307242243C119C2554A786D
:1065200013434B70BDE8F0812DE9F743047B05462A
:1065300014F0070318BF012303EBD404A01CFEF7DB
:106540007BFD90B3FEF70CFDAB880370AB881B0A94
:106550004370FEF705FD871C224600213846FFF7F1
:10656000F1FCAC680025023414F8020CE0B11928E3
:1065700014F8016C07EBE50805F0070904D9FEF7EC
:10658000F7FD3346024608E0FEF7E0FD33468DF89E
:106590000400000A8DF8050001AA49464046FFF7AD
:1065A00060FF35440234DFE7012003B0BDE8F0832B
:1065B0007047F7B50F46FEF70DFD03880446ADF8AA
:1065C0000030BDF80060FEF7CFFCB3000233834219
:1065D0000FD802340025B5420BDA54F8040B01350C
:1065E0000190BDF80620BDF804103846FEF77CFB8C
:1065F000F1E703B0F0BDFEF729BC03691B6803B1E6
:106600001847704703695B6803B1184770474369CF
:106610005B6803B11847704713B504461A20FEF7AC
:10662000A7FD014601A800F036F863691B6813B1A5
:1066300001A92046984702B010BDFEF7B5BB38B59A
:106640000D46FEF7BFFB044620B185602846FEF7E5
:10665000A5FB207338BD10B5FEF70AFCFEF720FD40
:10666000FEF730FBFFF7E9FFBDE810404FF4E123F0
:106670004FF4F0524FF400710220FEF7FBBA0068AD
:1066800000F1B6018230FEF731BD036803EB410132
:10669000B1F8820070470B880380704708B502226A
:1066A000FFF7A8FBB0FA80F0400908BD30B591B003
:1066B000FEF790FC0446FEF757FC6A46014620466A
:1066C000FEF77AFE044610B94FF0FF303BE0FEF7CC
:1066D0002DFC0028F8D09DF810101420FEF72EFD98
:1066E0009DF81730ABB1BDF81C50FEF75FFE854238
:1066F00005D04FF6FF73BDF81C209A42E4D16946DD
:106700009DF8170000F098F818B969461B20FEF7AD
:1067100023FD02A91A20FEF71FFD9DF81210132079
:10672000FEF70CFD9DF8153013B99DF81A1001E025
:106730004FF6FF710A20FEF701FD9DF81A100E209A
:10674000FEF7FCFC204611B030BD0120FEF79ABDDB
:106750000020FEF797BD30B568B3037A022B10D145
:106760000479C57934B9F5B9447A2B46003418BF99
:1067700001241CE0CDB9437A2C46B3FA83F35B09BC
:1067800015E00378022B10D003792BB9447A14F06A
:10679000030418BF012400E00024C37913F00303AD
:1067A00018BF012303E0012301E000231C4601B1CF
:1067B0000C6002B1136030BD37B50D4600230B608D
:1067C0008B80437D0446D9075CBF01232B70037E79
:1067D000012B0DD8C37D9A0708D0437E9B0705D0B7
:1067E000C28B838B9A4201D1012300E000232375E1
:1067F00001AA694604F11000FFF7ADFF009B0BB141
:106800000223EB70019B0BB102236B70E37D03F05D
:106810000303022B03D0032B0CBF08230023AB7010
:10682000637E03F00303022B03D0032B0CBF08236A
:1068300000232B7103B030BD02280CBF02230823B4
:106840000B448B4205D013F8012DFF2AF9D000200C
:1068500070470120704707B56946FFF7ADFF9DF807
:1068600000009DF80130023018449DF802309DF878
:10687000032018449DF80430104403449DF805009B
:10688000184403B05DF804FBF7B504460D466946AD
:10689000FFF792FF617CA37CC9001B0103F010038A
:1068A00001F00801E27C1943237C520103F0070345
:1068B0000B4302F020021A43237D9B0103F04003A7
:1068C00013432B70637D627EA17D03F0010343EAD5
:1068D0008213E27D490001F0020192000B4302F0B5
:1068E0000C021A43237E1B0103F0300313436B7029
:1068F0009DF80030012B02BFA37E0320AB709DF8F2
:10690000013018BF0220022B08D1A28B431C2A544D
:10691000A28BDBB20230120AC0B2EA5401469DF8E3
:106920000230E218A24205D012F8017D4E1C6F54CD
:10693000F1B2F7E718449DF80330C0B2022B08D13A
:10694000E28B431C2A54E28BDBB20230120AC0B243
:10695000EA549DF804301844C0B2C21AD2B223B12E
:10696000013BE118097AA954F7E703B0F0BD30B450
:106970000D460446114620B11A462846234630BC2F
:10698000184730BC70472DE9F0410E4617460446C3
:10699000002861D0006BFFF71DFC054668B10A2195
:1069A0006868FFF772FE80460A20FEF7CFFB80453D
:1069B00005D02846FFF747FCEFE7BDE8F081AB685C
:1069C000002B49D0032E40D8DFE806F0021D0D460B
:1069D00094F8282000203A4484F8282084F82900DC
:1069E0002246294634E0002284F8292094F8282001
:1069F0003A44D2B284F828201B7A93421DD822460A
:106A00002946022024E094F829203A44D2B2052AEB
:106A100083BF002284F8292094F8282084F82920B4
:106A200084BF013284F8282094F828201B7A9A42E7
:106A300003D32246294601200AE02046FEF7A4FDA2
:106A40006868BDE8F041FFF71ABE22462946304685
:106A5000BDE8F041FEF774BEBDE8F081002070474C
:106A6000FEF7AEBE70B504460D4652B150681668CA
:106A7000FEF744FA29462046FEF7A8FE08B1324642
:106A8000F3E770BDFEF7A2BE70470000826C2000E5
:106A9000CD2220006123200000000000126D2000A4
:106AA000BD252000F525200041602000276D200035
:106AB00081262000DD2620000000000001000000EB
:106AC000010000000100000000C0004000410D4036
:106AD00000000000080000002C0000000000000181
:106AE000FFFFFFFF050000000200000002000000A1
:106AF0000200000000D0004008410D4002000000EC
:106B0000080000002C00000002010200FFFFFFFF50
:106B100006000000C26D2000C66D2000D56D20006B
:106B2000D96D200007000000FF00000005000000F4
:106B3000ED00000003000000D5000000010000008F
:106B4000C500000000000000B6000000FFFFFFFFCE
:106B5000B0000000FDFFFFFFA1000000FBFFFFFFF2
:106B600091000000F9FFFFFF88000000F7FFFFFF22
:106B700072000000F5FFFFFF62000000F3FFFFFF5F
:106B800058000000F1FFFFFF42000000E8FFFFFF98
:106B900000000000C1362000313320009533200072
:106BA000836020005D34200069312000A531200081
:106BB000BD312000B1302000DD302000CD3120007B
:106BC000C9352000153820002D342000006E20002B
:106BD000ED602000E5602000E9602000146E2000D8
:106BE000296120002161200025612000BD63200073
:106BF0002965200031632000B3652000B1652000C5
:106C0000196620000F662000AE6E20005766200037
:106C1000194E2000516720004B672000AD66200010
:106C2000B36E20001D572000D555200025552000AB
:106C3000315520003D55200049552000B86E2000F8
:106C4000616A2000856A2000656A200001592000E1
:106C5000C1572000E95820005D6A200055592000E6
:106C60009D59200065592000C06E2000896A2000CF
:106C7000155A2000095A2000E440002000000000BE
:106C800000004144432073656E736F72732041505E
:106C90004900436F6E74696B692D322E362D343086
:106CA00035382D67333962616234663135005A6F89
:106CB0006C65727469612052452D4D6F7465207248
:106CC00065766973696F6E204220706C6174666FBF
:106CD000726D0052696D6520636F6E6669677572CB
:106CE00065642077697468206164647265737320D9
:106CF00000253032783A00253032780A00204E657F
:106D0000743A2000204D41433A2000205244433A37
:106D100020004144432073656E736F7220696E7466
:106D200065726661636500427574746F6E004343FB
:106D3000323533383A2049443A2030782530346CA3
:106D4000782C207265762E3A20504725642E2564D3
:106D50002C20466C6173683A20256C75204B694283
:106D60002C205352414D3A20256C75204B69422C02
:106D7000204145532F5348413A2025752C20454347
:106D8000432F5253413A2025750A53797374656D28
:106D900020636C6F636B3A20256C7520487A0A4932
:106DA0002F4F20636C6F636B3A20256C7520487AF7
:106DB0000A52657365742063617573653A202573A3
:106DC0000A00504F520045787465726E616C2072F3
:106DD000657365740057445400434C44206F72201F
:106DE000736F667477617265207265736574006392
:106DF00063323533382052462064726976657200FA
:106E00004F6E2D436869702054656D7065726174B2
:106E100075726500564444330030313233343536B0
:106E200037383941424344454600303132333435F6
:106E300036373839616263646566003078003058EF
:106E4000002D002B00286E756C6C29002500202079
:106E50002020202020202020202020202020303012
:106E600030303030303030303030303030304374CB
:106E7000696D65722070726F636573730045766526
:106E80006E742074696D65720053657269616C205F
:106E90006472697665720053656E736F7273000079
:106EA00080C0E0F0F8FCFEFF00001A1000005269FC
:106EB0006D650043534D41006E756C6C72646300E8
:106EC0006E756C6C7365630025750A0047726F768A
:106ED00065206C6F75646E657373207465737420C0
:086EE00070726F6365737300AB
:106EE800DC6B2000AC6A2000CC6B200000000000A6
:106EF80000000000EF6D2000853720000000000032
:106F08005361200000000000000000006E6E2000A9
:106F1800A543200000000000000000007D6E200056
:106F2800214520000000000000000000896E2000BC
:106F3800D54820000000000000000000976E2000E7
:106F4800D94920000000000004000800DB4D0020A3
:106F580030440020BE000800D34D0020CC4600205D
:106F68000C000800E64D0020944500200C000800A5
:106F7800EF4D0020F445002034000200F74D0020BA
:106F88005446002000000000CC6E2000355A200036
:086F980000000000CDAB011A5E
:086FA00064EBFF7F010000001B
:020000040027D3
:10FFD400FFFFFFF30000000000202000FFFFFFFFF1
:10FFE400FFFFFFFFFFFFFFFFFFFFFFFFFFFFFFFF1D
:0CFFF400FFFFFFFFFFFFFFFFFFFFFFFF0D
:040000050027FFD4FD
:00000001FF
