:020000040020DA
:10200000605600208D2220001B62200019622000F3
:1020100019622000196220001962200000000000EF
:102020000000000000000000000000001962200015
:102030001962200000000000196220007D6220006B
:102040009F622000A5622000AB622000B1622000E8
:1020500000000000836220008962200019622000D5
:1020600019622000000000000000000000000000D5
:1020700000000000000000001962200000000000C5
:10208000000000000000000019622000196220001A
:1020900019622000196220001962200019622000D4
:1020A00019622000196220001962200019622000C4
:1020B00019622000196220001962200019622000B4
:1020C00019622000196220001962200019622000A4
:1020D0001962200000000000000000000000000065
:1020E00000000000000000000000000000000000F0
:1020F0000000000000000000E9392000F93920004C
:1021000000000000000000000000000000000000CF
:1021100000000000000000000000000000000000BF
:1021200000000000000000000000000000000000AF
:10213000000000000000000000000000000000009F
:10214000000000000000000000000000000000008F
:10215000000000000000000000000000000000007F
:10216000000000000000000000000000000000006F
:10217000000000000000000000000000000000005F
:10218000000000000000000000000000000000004F
:10219000000000000000000000000000000000003F
:1021A000000000000000000000000000000000002F
:1021B000000000000000000000000000000000001F
:1021C000000000000000000000000000000000000F
:1021D00000000000000000000000000000000000FF
:1021E00000000000000000000000000000000000EF
:1021F00000000000000000000000000000000000DF
:1022000000000000000000000000000000000000CE
:1022100000000000000000000000000000000000BE
:1022200000000000000000000000000000000000AE
:10223000000000000000000000000000000000009E
:10224000000000000000000000000000000000008E
:10225000000000000000000000000000000000007E
:10226000000000000000000000000000000000006E
:1022700019622000D1382000F5382000892F200075
:10228000693B20003D2A20001962200008B5094B57
:10229000FF221A600848094A4824E369121A0849CB
:1022A00098470848084AA369121A0021984700F085
:1022B000C3F8FEE7B4200D40404000200A41002052
:1022C000A071200010410020594E002081380128C3
:1022D0009ABF024B18880020704700BF04410020BD
:1022E00070B503880546512B08D0602B34D06BBBEA
:1022F0006A21234804F05AF8512325E0204804F0CD
:102300005EF838B31F4C204E236842F6F82043F0A5
:10231000010323600023336000F02AFB01F070FC0E
:102320000121682001F0FCFC18B14FF6FF72174B39
:102330001A80FF2333602368192123F001032360EF
:102340000F4804F033F860232B8003E00023038060
:10235000032070BD012070BD094804F030F800284A
:10236000F8D045F2F05000F003FB01F049FC0422E4
:102370000749682001F004FD044B81221A80B7E769
:102380002041002000C40D4004C00D400441002045
:10239000D84C00200D4B1B88802B0ED0812B0ED1EA
:1023A00018B90B4B9878DB7804E001280AD1084B68
:1023B00018785B7803EB00207047184670474DF2A1
:1023C000ED1070474FF0FF30704700BF0441002010
:1023D000D84C0020812813B521D1134C29B91348BA
:1023E00002F07CFA4DF2ED1017E0114B022211467B
:1023F00010460093032301F019FC0E4A0B481368A2
:10240000002123F00103136052F8203C23F0010364
:1024100042F8203C02F0F4FA8020208001E04FF0E6
:10242000FF3002B010BD00BF04410020404000203A
:10243000A086010020C40D4073B500F045FC00F0FB
:102440003FFD00F09BFC00F061FA01F07BFB03F024
:10245000C1FF00F02DFD00F0B3F8012003F0E0FE15
:1024600002F042FA00F01CFC002000F03DFB0120CD
:1024700000F03AFB4049002000F0FCFB02F068FB52
:1024800003F005FF042003F0CBFE3C4803F034FFCB
:102490003B4803F031FF00F0DBF9002002F006FCBE
:1024A00001F03CFA0021374802F0AAFA02F082F863
:1024B00003F0E2FE00F08AFD00F0A6FD02F036FF18
:1024C0000821684601F062FB9DF807309DF8065030
:1024D0002D4C43EA0525BDF806302C48238001F039
:1024E0009BFC2B4E21782B4801F096FC61782A4802
:1024F00001F092FCF46A4AF6CD310220A047294649
:102500000320A0471A210120A04708226946736BC7
:102510000B209847214801F07FFC214B186803F0FD
:10252000EBFE204801F078FC1F4B186803F0E4FE36
:102530001E4801F071FC1E4B186803F0DDFE0021FF
:102540001C4802F05DFA1C4B01219B6881209847D2
:1025500003F02BFF194803F01EFF00F0A7FB022039
:1025600003F05EFE00F0A8FB02F0D6F910F0FF0FBA
:10257000F8D101F07BFAF5E70D4B2000D76E200073
:10258000F36E200088400020504E0020186F20007D
:10259000B86D2000366F20003C6F2000426F200095
:1025A0002C6E2000496F2000446E2000506F2000E8
:1025B000606E2000A8400020D06C20009C6E20009F
:1025C00008B500F0E5F8024B00221A7008BD00BF04
:1025D000DD4C0020024A13781843107000F0FCB85C
:1025E000DD4C0020034A137823EA0000107000F04D
:1025F000F3B800BFDD4C0020024A13785840107039
:1026000000F0EAB8DD4C002020B1012805D1044BD0
:1026100018787047034B186870470020704700BF58
:10262000DE4C002020900D4010B5094A00201378A0
:1026300001331370074B197802F0BAF9BDE8104066
:1026400005490023054A0968054801F0E9BF00BFB4
:10265000DE4C0020524E0020584100202926200048
:1026600030410020812810B50C462AD0B0F5807F7B
:1026700039D0802839D102F029F91D4B1D4A187034
:102680001368032123F00803136052F8203C002054
:1026900023F0080342F8203C52F81C3C23F00803C6
:1026A00042F81C3C52F8183C43F0080342F8183C2E
:1026B000042200F013FC032200210F4800F0B0FBBD
:1026C00013E00E4B1A6831B142F008021A60002084
:1026D00000F018FB05E022F008021A60084600F03E
:1026E0001FFB204610BD064B1960012010BD00BF26
:1026F000524E002020940D400527200010940D40DC
:102700005841002008B50F4803F06DFEC8B10821FC
:102710000C4803F061FE0C4B196869B10B4B0022A9
:102720001A700B4B1B6823B90A4A0B4801F078FF5B
:1027300002E0094801F07EFFBDE80840074802F0CA
:1027400087BA08BD5041002058410020DE4C0020CF
:1027500020900D402926200030410020D06C200020
:10276000084A136823F00403136052F8203C43F036
:10277000040342F8203C044B00221A60034B012260
:102780001A70704720C40D4010C00D40DF4C00206F
:102790000D4A0E49136823F0C003136052F8203C21
:1027A00043F0C00342F8203C094B00221A600B683A
:1027B00023F010030B6051F8203C43F0100341F864
:1027C000203C044B1A60704720A40D4020C40D40EB
:1027D00000A30D4040C00D4000F0020202F0FF01D6
:1027E0000B4B12B1FF221A6000E0196000F00402E6
:1027F00002F0FF01074B12B1FF221A6000E01960DE
:1028000010F00100044B1ABFFF221A6018607047D5
:1028100000A20D4000A10D4040C00D40044B1868BF
:10282000C0F30720030904BF1030C0B2704700BFD7
:102830001C300D40054B1868C0F3C21001289ABF28
:10284000C0F1020040034FF40040704714300D40C7
:102850002DE9F04788B0FFF7E1FF174B48251C68CA
:10286000AB68074698476B68804698470546FFF770
:10287000E1FF064600F0BCFA814600F0C5FA824648
:1028800000F072FAB60A04F00103AD0AC4F3400482
:1028900006900393CDF814A0CDF810900294019601
:1028A000009507F00F03C7F307124146034801F0F4
:1028B000B3FA08B0BDE8F0871C300D405E6F200011
:1028C000F8B500F079F80F4B0024D3E900673A46D9
:1028D000B04238BF7A1C15460443C3E90045DFF80F
:1028E00028E0DEE90001821B61EB070312196B414E
:1028F000CEE9002301F052FF18B1BDE8F84001F025
:10290000D1BEF8BD10410020184100200F4B104AE5
:102910001A6053F8042C42F0050243F8042C53F8D3
:10292000042C42F0020243F8042C0A4A136843F0D4
:1029300001031360084B00221A60042243F80C2C98
:10294000012243F8082C0F22DA62704714E000E0FD
:1029500047E8010008200D400C000340034BD3E979
:102960000023100A40EA0360704700BF10410020B6
:10297000054B18601C3B1A6842F001021A601A6885
:10298000D207FCD4704700BF2800034010B5064CA6
:10299000236823F001032360FFF792FF236843F0CD
:1029A0000103236010BD00BF10E000E0014B186878
:1029B000704700BF5C410020074B084A1968043388
:1029C0001B681268120442EA0323054A0B4310688D
:1029D00043EA0060704700BF40500D4048500D4032
:1029E0004C500D4010B50446114A1368DB07FCD566
:1029F00003F051FCFFF7E0FF231A062BD8BFC41DDC
:102A00000C4B220E1A60C4F3074243F8042CC4F3A3
:102A1000072243F8082CE2B243F80C2C03F037FCF1
:102A2000054B91201C60BDE8104000F06BB900BF61
:102A300050500D404C500D405C41002008B500F056
:102A4000F9FF064B002291201A6000F077F99120DF
:102A500000F066F9BDE8084001F0F6BF5C410020D7
:102A6000064B1B681B075FBF054B186880F008000A
:102A7000C0F3C00048BF0020704700BF18C000402E
:102A800018D00040164A2C2303FB00234FF6BF72D8
:102A900070B5DC680546236C62649BB213F050028B
:102AA0000DD0104EA369DB0608D456F825301BB1B3
:102AB0002068C0B29847F5E72368F3E770BD13F4C8
:102AC000D06F0BD04FF440732363FF236360E36A3E
:102AD000E262E362236B43F00103236370BD00BF36
:102AE000E06C20006041002001282DE9F74F0646E8
:102AF00000F2B2802C254543594F7C1994F920806F
:102B0000B8F1000FC0F2A88094F92290B9F1000F3B
:102B1000C0F2A280534801F003F8534A7B59116870
:102B2000E5680B4313605168636894F921A00B4377
:102B300053609168A3685FFA89FB0B43936000239D
:102B4000C5F8C83F23690AEBC8021A6094F923301C
:102B5000227D00939DF8003058461946019300F0FD
:102B6000C7F9019B08221946584600F0B7F93F4AB9
:102B70004FEA0939009959F80200012303FA01F1DB
:102B8000014349F802104FEA083858F8020003FAE6
:102B90000AF1014348F802105021A963A96B94F986
:102BA000240041F4D061A963022169634FF44071AC
:102BB0002963A16900286962E169A9624FF0700187
:102BC000E962154616DB94F92510A2F5A64241EA02
:102BD000C0041C3A1460040362598B4013436351D0
:102BE0000022C9B2C0B200F079F9214A136843F457
:102BF000004313602C2303FB067393F92640002C3B
:102C00001BDB93F927A05FFA84F85FFA8AF90122A7
:102C100049464046240300F06BF96259012303FA48
:102C20000AF31343635108224946404600F056F91F
:102C30000F4A136843F4804313602C2303FB06768A
:102C4000F26896F82800136B43F00103136303B096
:102C5000BDE8F04F00F056B803B0BDE8F08F00BFFC
:102C6000E06C2000612A200028200D4020940D40B7
:102C700030D0004001289CBF014B43F82010704722
:102C800060410020012808D8044B2C2202FB0030B0
:102C9000C3689A699206FCD419607047E06C200002
:102CA000014B00221A60704700500D40014B082272
:102CB0001A60704700500D40024BA0221A6050224B
:102CC0001A60704700500D40074A084B1A60084BC5
:102CD00080321A60074B80321A60074B80321A60CC
:102CE000064B074A1A60704700E100E0744100207B
:102CF000684100206C4100207041002008ED00E098
:102D000000202000054B41091A6800F01F00012334
:102D100003FA00F042F82100704700BF7441002020
:102D2000054B41091A6800F01F00012303FA00F067
:102D300042F82100704700BF68410020054B41095F
:102D40001A6800F01F00012303FA00F042F8210086
:102D5000704700BF70410020024B1868C0F38150DB
:102D6000704700BF04200D4008B5FFF7F5FF024B88
:102D700053F8200008BD00BF386D200038B5164D4F
:102D8000164C2B68012223F040032B602368062198
:102D900023F040032360032000F0A0F82B680122F9
:102DA00023F080032B602368072123F08003236036
:102DB000032000F093F80A4A0A4B0B491A600A688C
:102DC0000A4B1340084A002BF9D113685901FCD46F
:102DD00013685B01FCD538BD20C40D4000C40D4014
:102DE0000101020000200D4004200D4000000101FF
:102DF000034B04481B6803F007031841704700BFEA
:102E000004200D400048E801034B04481B68C3F34D
:102E100002231841704700BF04200D400048E8011C
:102E2000024B02EBC10243F82200704778410020B8
:102E3000F8B507460E46094D002405EB411547FA43
:102E400004F3DB07E1B204D555F824300BB130466A
:102E500098470134082CF2D1F8BD00BF784100201A
:102E60002DE9F04780464FEA0837DFF8409007F138
:102E7000804505F5592500F0DDFDD5F8186457F8B3
:102E800009304FEAC80A23FA0AF446EA0400E4B219
:102E90004146C0B2F6B204FA0AF4FFF7C9FFC5F81A
:102EA0001C6447F80940BDE8F08700BF18970D4043
:102EB00080220021014803F061B900BF7841002061
:102EC000034A044B1A60044B803A1A60704700BFF3
:102ED00080400D40FC410020F8410020034B01EBF5
:102EE000C0011B6843F82120704700BFFC4100204F
:102EF000034B01EBC0011B6843F82120704700BF62
:102F0000F84100200E2870B50BD1154B154E1C68EA
:102F100044F002051D60356825F03F0343F00103CE
:102F20003360114E336823F0FF031A43114301430A
:102F30000E4A316013681B06FCD50D4B0D4A1B6809
:102F400012680E2803F0FC0343EA022308BF054A77
:102F50001BB204BF1560024A184608BF146070BD5A
:102F600034000144F486084008700D4000700D40A4
:102F70000C700D4010700D40024B1868B0FA80F0D4
:102F80004009704700B7084010B58F20064CFFF786
:102F9000D5FE8F20FFF7C4FE206818B101F048FD70
:102FA0000023236010BD00BF00420020064A1368C2
:102FB00043F002031360536843F0020353609368C5
:102FC00043F002039360704748200D4007B50C485A
:102FD00000F0A6FDFFF7EAFF0A4B1A6842F0020272
:102FE0001A6000220192019A0F2A02DC019A013232
:102FF000F8E71A6822F002021A6003B05DF804FBD9
:10300000792F200054200D40064A136823F0020354
:103010001360536823F002035360936823F00203A4
:103020009360704748200D40084B93F90020002A18
:1030300009DB074AED2111601160E32111601A7864
:1030400062F07F021A700120704700BFE34C00203D
:10305000388808400C4A13689907FCD40A4B1B684F
:103060005B065FBF094BED221A601A60084B1B68B4
:1030700013B1064BEF221A60064A0120137803F0C1
:103080007F031370704700BF4C86084038880840A3
:103090002C860840E34C002038B5A0F10B04E3B2C5
:1030A0000F2B054613D80B4B1B6813F03F0302D0C0
:1030B000FFF7D0FF012304EB8404074A0B341460AC
:1030C0000BB1FFF7B1FF054B68B21D7038BD4FF073
:1030D000FF3038BD488608403C8608400941002042
:1030E00010B50B4B1B68990603D1FFF79DFF012319
:1030F00000E0002307490A68D207FCD5064A146895
:10310000C4F300140BB1FFF7A5FF204610BD00BFAC
:1031100048860840648608404C860840044B18687E
:1031200000F02200A0F1200358425841704700BF30
:103130004C860840024B186800F04000704700BF02
:103140004C86084038B50C46002900F088801028CD
:1031500000F28780DFE800F0090F1A1C233942547F
:10316000596F738585787A7C7F003F4B1B680033ED
:1031700018BF012370E03D4B05221B6803F07F035D
:103180000B3B93FBF2F30B33DBB265E0384B00E013
:10319000384B1A68043B1B6843EA02235CE00023B7
:1031A0000B60354B354A1B6803F001030B60126856
:1031B000900644BF43F002030B60314B1B78002B99
:1031C0004BD00B6843F0040346E02E4B00201B78E5
:1031D0000860002B41D001230B6038BD2A4B2B49DE
:1031E0001A680023D2B201EBC3000079904203D8E1
:1031F000264A52F833302FE001330E2BF3D127E06B
:10320000234B1B685BB2493B26E0224B1B689906A7
:1032100003D1FFF709FF012300E000231E490A68DC
:10322000D207FCD51D4A1568493D6DB20BB1FFF7B9
:1032300011FF256011E01A4B93F900300CE0194B97
:103240001B7803F07F0307E00B2305E01A2303E05C
:103250006FF0170300E007232360002038BD022031
:1032600038BD012038BD00BF2C8608403C86084090
:10327000CC850840D4850840008608402486084054
:10328000E24C00200841002040860840486D2000A4
:103290005886084048860840648608406086084092
:1032A000E14C0020E04C002038B505460C46134A9E
:1032B00013689B07FCD4124B93F90030002B01DB01
:1032C000FFF7B2FE0F4BEE221A60691E1A60A21CB5
:1032D00043F8102C2144022000F038FB013C0A493D
:1032E00024012143022000F043FB022000F04AFBAE
:1032F000022000F05FFB002038BD00BF4C86084074
:10330000E34C00203888084002C001C0F8B5214BCA
:1033100093F90030002B0DDBFFF74EFB0546FFF75E
:1033200083FE6FF00904641BFFF746FBC442FBD425
:10333000012600E00026184B1B7823B9174D2B6897
:10334000990604D405E0FFF7CBFE0028F6D1022051
:10335000F8BD134CE923236004272B689A0707D490
:10336000013F17F0FF0703D00620FFF701FBF4E74A
:103370002B689B0704D4EE2323602360012403E021
:103380002C6814F00204FBD10EB1FFF763FE204657
:10339000F8BD00BFE34C0020084100204C860840E7
:1033A000388808400B280DD1082A0DD161B1074B90
:1033B000074A083111F8010D43F8040F9342F9D17F
:1033C000002070470120704702207047A485084004
:1033D000C485084070B52F4D2B6813F0400308D00A
:1033E0002D4E3368DCB21B0605D52C4BED221A603E
:1033F0001A60002070BD042CF7D9023C8C42F4DC2A
:10340000E4B2032C21D001190139032000F0A6FAFF
:10341000631E23491B011943032000F0A9FA03206E
:1034200000F0B0FA032000F0C5FA032000F0CEFA55
:103430000028FAD131681B4B493949B219703368F9
:10344000194E18063370D0D506E033680370336820
:10345000437033688370EDE789B2042001F03CFFCC
:103460003178032001F07F0101F036FF0F4B1B780C
:1034700073B92B685A060BD5064B1B681B0603D580
:103480000B4801F0D5FA03E0044BED221A601A60F4
:10349000204670BD4C86084028880840388808407F
:1034A00002C0010CE14C0020E04C0020E24C002066
:1034B000604000201E4B1870002831D01D4A136850
:1034C0001B03FCD51C4B1A6842F002021A601A68F2
:1034D00042F001021A601A6817495007FBD50A68C2
:1034E00022F001020A601968134A4907FBD41168E7
:1034F00041F002011160116841F0010111601A6888
:103500005207FCD50D4A8D20136823F00403136085
:1035100002F5D472136823F004031360FFF700BCB4
:10352000064A8D20136843F004031360FFF7EABBDB
:10353000E24C002004200D40048808408C8608409E
:1035400010B50C46072861D8DFE800F0040E181CFF
:10355000233F455B012902D1FFF766FD4BE00029BF
:1035600058D1FFF777FD46E0A1F10B030F2B51D89F
:10357000C8B2FFF791FD01303DD149E08CB2E2B213
:10358000254B02E08CB2254BE2B2240A1A605C6043
:1035900031E031F007033DD1214B11F0010F1A68E2
:1035A000C1F3800014BF42F0010222F001021A6050
:1035B0001C4B11F0020F1A6814BF42F0200222F0D7
:1035C00020021A60FFF776FF15E031F0010021D1EB
:1035D000154B197010BD01F118031F2B1AD8134990
:1035E0000D2351F83300DA00844206DC0F4B1344FC
:1035F0001A790F4B1A60002010BD13F1FF33F0D27F
:10360000F9E7CCB20B4B49341C60F4E7012010BD44
:10361000032010BD022010BDC8850840D085084099
:10362000008608402486084008410020486D20009C
:103630004086084058860840F8B5294F3D7815F077
:1036400001054AD1274B01241C605C609C60A3F5F6
:103650009323A3F51473F8221A600922C3F890216A
:10366000152270331A6003F59B230B2203F59E731A
:103670001A60A3F59B23A3F5F07340221A601A6821
:103680007F2642F020021A60D52243F81C5CDE62DD
:10369000DA61154B1878FFF7FFFC144B8E201E6083
:1036A000FFF730FB022000F079F91149022000F009
:1036B00055F9032000F072F90D49032000F046F996
:1036C0000C4B1878FFF7F6FE29460B4801F098F9E5
:1036D0003B78204623433B70F8BD0020F8BD00BF77
:1036E000E34C0020A8200D400941002094860840AA
:1036F00028880840E24C00206040002038B503884C
:103700000446CBB140F20342934203D0002303802E
:10371000032038BD194B18781A4628B11B7873B1AD
:10372000174B1B7858060AD5822908D1137843B164
:10373000134B1A78520614D440F20343238001201D
:1037400038BD01F07BFD01F013FD8021FFF742FE43
:103750000028EDDD80B201F0CBFC0A4B1B699847D5
:10376000E6E700221A70084B1D68FFF773FCFFF7AD
:1037700063FFAB06E0D0FFF757FCDDE7E24C00202B
:10378000E34C0020606E2000488608400B282DE99D
:10379000F84F0E4610D1082A40F0828000297FD0D1
:1037A000414B424A4E1E53F8041D934206F8011F36
:1037B000F9D10020BDE8F88F0C286ED1042A6FD112
:1037C00000296DD03A4B3B481A68DFF8F8C022F068
:1037D00007021A600268DFF8F0A042F008020260F7
:1037E000DAF80040DCF800101A68DFF8E0E022F0B8
:1037F0007002314F1A60DEF800203D68E4B2090221
:1038000044EA056401F47F411204214302F47F027B
:103810000A432A490024D1F800805FFA88F544EA77
:1038200002081A68A94622F0070242F001021A6053
:10383000026842F008020260DAF80000DCF80020BA
:103840001D68C0B225F0700545F010051D60DEF85A
:1038500000303D68120240EA056002F47F421B041A
:10386000024303F47F0313430A6844EA030A5FFA3E
:1038700082FBFFF7A1F8B8EB0A0869EB0B094FEAE6
:10388000C93105460E4A00234FEAC83041EA584183
:1038900002F03CFA281A30608BE70120BDE8F88F6F
:1038A0000220BDE8F88F00BFC8850840A885084001
:1038B0001088084004880840208808401C88084078
:1038C0000048E80118880840148808402488084007
:1038D00008B5054B1B7813B9044801F0A9F8044B4F
:1038E00000221A6008BD00BFE24C002060400020AA
:1038F00034880840064B07481A68042A1FBF064947
:103900000A7842F040020A7000221A6001F090B872
:103910002C88084060400020E34C002010B5094C82
:1039200040220021204602F029FC074B01221A60A8
:103930002E205C60FFF7E6F9BDE810402F20FFF76E
:10394000E1B900BF0040002004F00F4003289EBFF3
:10395000014B0001195070470040002003289EBF12
:10396000024B03EB00104160704700BF0040002095
:1039700003289EBF024B03EB00108160704700BF1D
:1039800000400020032806D8034901220B6802FAF0
:1039900000F018430860704728F00F40032806D84D
:1039A000034901220B6802FA00F0184308607047CF
:1039B00020F00F40032806D8034901220B6802FAC1
:1039C00000F018430860704714F00F4003289FBFB1
:1039D000044B03EB0010806800F0070088BF002054
:1039E000704700BF00400020024B4FF0FF321A60CA
:1039F000704700BF04F50F40014B01221A60704769
:103A00004CF00F40094A1368084913F4801FFAD19B
:103A1000074B1A6822F480321A600A68D203FCD479
:103A20001A6842F400321A60704700BF04200D404B
:103A300000200D4010B50B4B1A681C4612F0030F06
:103A40000ED009490B68084A13F0806FFAD1136849
:103A50005B01FCD5FEF79AFFFFF7D4FF002323603C
:103A600010BD00BF58200D4004200D4038B5264B36
:103A70001C6814F03F0413D1244D55F8243023B1B1
:103A8000984768B10134052CF7D1214D2B783BB113
:103A9000FEF78CFF0446FEF78FFF201A092801D895
:103AA00030BF38BD002CFBD01A4B1B481A6822F4DB
:103AB00000321A600268184912F4801FFAD11A689D
:103AC00042F480321A600B68DB03FCD5FEF774FF0A
:103AD000201A092803D8BDE83840FFF793BF6328B0
:103AE0000E4C02D92B78022B00D00123236000F06A
:103AF00055FF20B1FFF786FF0023236038BDFEF796
:103B000055FF0028CCD1F5E7488608400442002044
:103B1000E44C002000200D4004200D4058200D40B2
:103B20000749002351F82320824207D01AB9044ADA
:103B300042F8230070470133052BF3D1704700BFD3
:103B400004420020054B00221A60054A136843F026
:103B500004031360034B02221A70704758200D4073
:103B600010ED00E0E44C002010B59020064CFFF76B
:103B7000E5F89020FFF7D4F8206818B100F058FF5E
:103B80000023236010BD00BF1842002030B5184B41
:103B90001A78431E22B101F520112731154A1FE082
:103BA000154A1278122AF6D1144A12784B2AF2D109
:103BB0004A0802F12814B4F1281F04D014F8015D5A
:103BC00003F8015FF7E701F52011273100231044C6
:103BD000934204DA11F80149C4540133F8E730BDC7
:103BE000914204D011F8010903F8010FF8E730BD44
:103BF0002B002800270028002A0028002900280080
:103C0000024A136843F0100313607047200002401B
:103C100014235843034B044A0344B3FBF0F3013B22
:103C200013607047FF23F4000C0002402DE9F843B5
:103C300006460F4614461D462A4ADFF8B49013681C
:103C4000DDF8208043F001031360D9F80030322002
:103C500043F00103C9F80030FEF78AFED9F80030BE
:103C6000214A23F00103C9F80030300381580123B1
:103C700003FA07F921EA09018150210351F802C032
:103C8000AB402CEA030C41F802C0203250F802E0AD
:103C900049EA0E0E40F802E0885803438B50304644
:103CA00039460022FFF71AF9294620460022FFF77D
:103CB00015F90E4B47EAC6021A6045EAC4025A607B
:103CC000394630460B22FFF713F9204629460C22CD
:103CD000FFF70EF9FFF794FF4046BDE8F843FFF702
:103CE00097BF00BF38200D4000940D402C410D407F
:103CF00044200D40024B18600120FEF739BE00BF82
:103D000004000240054B1868C0B2C30704D410F089
:103D1000120F08BF002070470020704704000240C7
:103D200008B5074B4000186099600720FFF7E2FFD5
:103D3000044A1368DB07FCD4BDE80840FFF7E2BF84
:103D400000000240040002400A4B400040F0010025
:103D500010B5186007200C46FFF7CCFF064A136821
:103D6000DB07FCD4FFF7CEFF10B9044B1B682370B0
:103D700010BD00BF000002400400024008000240E5
:103D80002DE9F8430F461446002A3CD000293AD0CA
:103D9000012A03D1BDE8F843FFF7D6BF1B4A430011
:103DA00043F0010313600B20FFF7A4FF184A1368C8
:103DB000DFF85C8013F0010FF9D1FFF7A3FFF0B932
:103DC000144E0125336804F1FF393B70A9450BDD22
:103DD0000920FFF78FFFD8F80030DA07FBD43368EB
:103DE0007B550135EDB2F1E70520FFF783FFD8F8E9
:103DF0000030DB07FBD433683C4404F8013CBDE8E9
:103E0000F843FFF77FBF8020BDE8F8830000024041
:103E100004000240080002400FB407B504AA52F89B
:103E2000041B0448019200F021F803B05DF804EB94
:103E300004B070477040002070B505460C46102C49
:103E400007D92B68102208496868984750B9103C78
:103E5000F5E734B12B68224668680349BDE8704035
:103E60001847204670BD00BF7E7020002DE9F04F3E
:103E7000064615468FB006914FF0000B069B1B7847
:103E8000CBB1069C274617F8013B1BB1252B14D05C
:103E90003C46F7E7069BA3420DD0069B0699C3EB71
:103EA00004084246336870689847002840F01F8332
:103EB0002378C34423B9584634E3069BA342ECD18C
:103EC0006378002BF7D039460024084610F8013BF0
:103ED0000A462B2B11D006D8202B11D0232B12D120
:103EE00044F0080416E02D2B04D0302B0BD144F005
:103EF00010040FE044F001040CE044F0060409E073
:103F000044F0020406E0A3F13107082F11D84FF066
:103F1000000801E00146D8E70A4611F8013BA3F189
:103F20003000092813D80A2202FB0838A8F130080B
:103F3000F2E72A2B09D12B680246002B05F1040574
:103F4000B8BF44F00104984601E04FF00008137830
:103F50002E2B1AD15178531CA1F1300009280ED80C
:103F6000194600270A780B46A2F13000092801F112
:103F700001010DD80A2303FB0727303FF2E72A2966
:103F800004D12F68931C043502E013464FF0FF372D
:103F90001A786C2A09D15A786C2A02D144F080042C
:103FA0000AE0013344F060040BE0682A09D15A7832
:103FB000682A03D144F02004023302E0013344F0C4
:103FC00040041A78642A3CD01FD8462A48D00DD81D
:103FD000252A5AD003D8002A3FF46DAF57E0412A72
:103FE0004AD0452A53D144F4424450E0582A31D0B3
:103FF00004D8472A4BD144F4A13448E0612A38D090
:10400000632A44D144F4A06441E06E2A3AD007D830
:10401000662A22D027D3672A28D0692A11D036E011
:10402000732A2CD006D86F2A11D0702A2FD144F4CD
:1040300040742CE0752A07D0782A28D144F4C8545B
:1040400025E044F4245422E044F410641FE044F4D6
:1040500088541CE044F4B24419E044F4007416E0BF
:1040600044F4844413E044F4024410E044F4813402
:104070000DE044F4C1340AE044F4E13407E044F4D0
:10408000806404E044F4E06401E044F4C06401337B
:10409000069304F4E063B3F5806F00F08F8113D8CA
:1040A000B3F5807F27D0B3F5407F7FF4E7AEAE4B0A
:1040B00014F4804FAD4A18BF1A460DF13303286837
:1040C000002104351F46B5E1B3F5C06F08D0B3F544
:1040D000E06F00F02282B3F5A06F7FF4CFAEF2E183
:1040E00033680122A24970689847002840F0FF8198
:1040F0000BF1010BC2E6002FACBF24F01004012726
:1041000014F40053079304F0E0032ED0402B12D098
:1041100005D8ABB1202B21D195F900200DE0602B03
:104120000ED0802B1AD1073525F0070303F10805BF
:10413000D3E9002307E0B5F90020D317043502E0E6
:104140002A680435D317002A73F1000108DA5242B5
:1041500063EB4303CDE90023012304E000220023A5
:10416000CDE900230023059329E0402B13D004D888
:10417000BBB1202B1DD12A780EE0602B11D0802BF3
:1041800017D1073525F0070303F10805D3E900230C
:10419000CDE900230BE02A880023CDE90023043574
:1041A00005E02B6800221946CDE900120435079B73
:1041B000D9E70023059300220023CDE9002304F46E
:1041C000C053B3F5805F0CD0B3F5C05F33D0B3F507
:1041D000006F4FD1DDE900230DF13609CDE902234F
:1041E00004E0DDE900230DF1360915E0DDE90223E5
:1041F00013433AD0DDE902010A22002301F086FDD3
:10420000DDE90201303209F8012D00230A2201F014
:104210007DFDCDE90201E9E752EA030125D002F074
:104220000701303109F8011DD10841EA4371D8086E
:104230000A460346F0E74C4B14F4804F0DF1360963
:104240004A4918BF1946DDE9002352EA03000CD0A1
:1042500002F00F00085C4FEA131E09F8010D100967
:1042600040EA037002467346EFE70DF13603C9EBEF
:10427000030302E00DF1360900230293029B41F68D
:104280000802BB4238BFFF1A41F2080302EA0402E7
:1042900028BF00279A4202D1002F08BF012741F60C
:1042A0000801029B8A4203EB07000DD1DDE90023E0
:1042B000134309D02F4A304914F4804F4FF0020ABB
:1042C0000CBF0B46134602E04FF0000A5346079A14
:1042D0009AB1059A52B904F00602022A0AD0062AB7
:1042E000264A04BF4FF0010A134606E04FF0010AC8
:1042F000234B02E0234B4FF0010A0AEB00029045EA
:104300008CBFC2EB08084FF0000814F001020092C5
:104310000DD1E10602D54744904608E041463046BB
:104320000593FFF789FD059B002840F0E080BAF176
:10433000000F07D03468524619467068A04700281D
:1043400040F0D580029B03EB0B04BB46BBF1100F82
:1043500033681BD910220C4970689847002840F038
:10436000C680ABF1100BF1E7497020005A702000B5
:104370007C7020006E7020006B7020007370200035
:10438000717020004E6F20008E702000BBF1000F76
:1043900006D05A46654970689847002840F0A780C3
:1043A0003368029A4946706854449847002840F0A0
:1043B0009E80009B3C44002B39D032E0D5F8009021
:1043C0000435B9F1000F0AD0CA469AF800300AF154
:1043D00001020BB19246F8E7C9EB0A0A03E0DFF8E5
:1043E00050914FF0060A002F02DBBA4528BFBA46AB
:1043F000D0458CBFCAEB08084FF0000814F0010745
:1044000005D141463046FFF717FD00286FD13368CC
:104410005246494670689847002868D10AEB0B0459
:104420002FB141463046FFF707FD00285FD108EB6A
:10443000040B23E550EA010E0ED000F00F0E12F827
:104440000EE04FEA111C03F801ED4FEA101E4EEA90
:10445000017E70466146EDE7FF1A02BF3022012758
:1044600003F8012C07F1030708BF03F1FF3378229B
:10447000B84503F8012C4FF0300203F8022C88BF36
:10448000C7EB08084FF0230298BF4FF0000814F064
:104490000104A3F1030903F8032C04D1414630467B
:1044A000FFF7CAFC18BB33683A464946706898471C
:1044B000E8B95F4424B141463046FFF7BDFCB0B9CE
:1044C00008EB070BDAE4B8F1010F2B688CBF08F199
:1044D000FF384FF0000814F0010405F104058DF8D1
:1044E000203008D141463046FFF7A6FC10B14FF00E
:1044F000FF3017E0C3443368012208A97068984769
:104500000028F4D108F101072CB141463046FFF7ED
:1045100093FC0028EBD1BB44B0E42B680435C3F80E
:1045200000B0ABE40FB0BDE8F08F00BF8E7020008C
:1045300075702000F8B50388064615462BB14A2B46
:1045400015D0002303800320F8BD174801F05CFF5D
:1045500004462CB1A168201D01F028FF2468F8E76B
:10456000124B01221A704A2333800120F8BD88299A
:10457000FBD10D4801F048FF0446002CF3D0231D69
:104580009D420ED12146084801F048FF084B626960
:104590001F681A60A2691D460AB1E06990472F6042
:1045A000E1E72468E9E700BF1C420020E54C002059
:1045B0002842002010B5064B002406481C7001F06C
:1045C00020FF2146BDE81040034800F019BA00BFA3
:1045D000E54C00201C4200207840002070B50446C5
:1045E000E3610B4B049D1B786561A26143B1094DEA
:1045F000094B2E68201D2B6001F0D8FE2E6000E0D4
:10460000A1602146BDE87040044801F01ABF00BF18
:10461000E54C002028420020784000201C42002069
:1046200013B5034C24680094FFF7D8FF02B010BD07
:104630002842002010B5084B04461B781BB10430FB
:1046400000F0B4F801E0C36003612146BDE810400A
:10465000024801F0E3BE00BFE54C00201C420020F0
:1046600010B50E4C236813B90D4A136010BDFEF748
:1046700075F9216891E80C001A44131A8A6842B14E
:1046800092E812002144091A8B4228BF0B46926817
:10469000F5E71844024B186010BD00BF204200200F
:1046A00024420020014800F0C3B900BF8840002028
:1046B0002DE9F8430388054633B1592B0BD000236D
:1046C00003800320BDE8F883234A136059232B801D
:1046D0000120BDE8F883872924D08229F6D11E4F16
:1046E0004FF00008B9463C680026002CEED020466A
:1046F00001F079FE98B122468821E06800F058F96F
:1047000058B9E060A3680EB1B36001E0C9F80030A9
:10471000C4F80880FFF7A4FFE5E7FFF7C3FF2646CC
:10472000A468E2E70C4900200B681BB90028CDD033
:104730000B60CBE7DC68A24202D19B680120F4E762
:1047400000B10B6099680029C0D0C86882420ABFD6
:1047500089680B469960F5E72042002010B50446B1
:10476000FFF7A0FFE3680B4A4BB113683BB1A342CC
:1047700003D1094A1268DA6007E09B68F6E7064B46
:104780001B68E36013681460A360BDE81040FFF786
:1047900067BF00BF2042002028420020024B18685B
:1047A000003018BF012070472042002010B50B4A8E
:1047B00004461368834206D18368136008E09A6850
:1047C000944203D01346002BF9D103E0A2689A600B
:1047D000FFF746FF0023A360E36010BD20420020E6
:1047E00038B5836804460D469BB10A480460022030
:1047F000A07304F10C0098470238012801D9832DD9
:1048000005D121462046BDE8384000F005B8012317
:10481000A37338BD284200202DE9F8431C4A044602
:10482000156889462B4690461A4E3768A34204D035
:104830000BB11B68FAE7BDE8F88334B3A37BABB1D7
:104840000023A37345B1A54204D022468721284600
:1048500001F0BAFD2D68F5E7A3683BB14C4505D0E2
:1048600034602A46832104F10C009847D8F80030C0
:104870009C4203D12268064B05E0134623B11A6817
:104880009442FAD122681A603760BDE8F88300BF0D
:104890002C42002028420020002370B51D46094A02
:1048A00001261370084A146854B1E37B33B1A67330
:1048B000E573002282212046FFF792FF2468F3E788
:1048C00070BD00BFE84C00202C420020024B18783D
:1048D000421C1A70704700BFE94C0020014B196858
:1048E000FFF79ABF28420020064B8A221A70064A18
:1048F00000231370054A1370054A1360054A1360BC
:10490000704700BFE94C0020E64C0020E74C002037
:104910002C420020284200202DE9F0411A4D2B782E
:104920000BB1FFF7B9FF194C22783AB3184E0C219E
:104930003378184F5943781817F8018001334768C6
:10494000806803F01F03013A3370227068B9124B7C
:104950001E689EB12B780BB1FFF79EFF30463A469A
:10496000414601F031FD3668F3E7B8F1810F04BF2D
:10497000012383733A46414601F026FD2B782078C7
:104980001844BDE8F08100BFE84C0020E74C00204F
:10499000E64C0020304200202C420020024A034B0B
:1049A00010781B7818447047E74C0020E84C002032
:1049B000F0B50B4E3378202B0FD00A4C0C25247801
:1049C000094F1C4404F01F046C4301333D19A860D7
:1049D00039556A6033700020F0BD0120F0BD00BF82
:1049E000E74C0020E64C00203042002038B5034C54
:1049F000256801F0E9FC256038BD00BF2842002091
:104A000030B40A4C0A4625682B4683420CD00BB1C1
:104A10001B68FAE740B10121056081732060838142
:104A2000812130BCFFF7E2BF30BC70472C42002030
:104A300038B1837B013B012B9FBF024A0123C37323
:104A400013707047E84C002010B5084C206858B12E
:104A500000232360816843689847236823B1BDE839
:104A600010401868FDF7BEBF10BD00BFB043002066
:104A700070B505880446672D09D0792D30D0002DFA
:104A800034D1FFF723FF1C4B18701C4B1D601B4DCE
:104A90002E461B4801F056FD431C01D167231DE043
:104AA0000A28164A07D02B687E2BF2DC5A1C32608B
:104AB000144AD054EDE713680025591C1160114ABF
:104AC0002846D5540C4B1978FFF772FF0E4B2A4637
:104AD00085211868FFF76CFF20B97923238009E04E
:104AE000852907D1054B00221A60D0E700230380F7
:104AF000032070BD012070BD574E0020BC43002034
:104B0000B44300206B4D0020284200200D2810B532
:104B1000014615D00B4C23782BB90B4801F0FFFC54
:104B200048B9012306E00A2805D1074801F0F7FC3F
:104B300008B1002323700548FFF77AFF012010BD5C
:104B4000002010BD6A4D0020B44300209840002092
:104B500008B505490548802201F0DAFCBDE80840A7
:104B600000210348FFF74CBFEA4C0020B44300206B
:104B7000984000202DE9F04106880546772E31D077
:104B80007E2E40D0002E4ED12B4CFFF79FFE26608C
:104B900026462A4B2A4FDFF8B0801870236857F852
:104BA00023204AB1002108F8031093688020984719
:104BB000336801333360F1E7224A1370772320E032
:104BC000214AD256002A12DB1B4A136801331360B4
:104BD000194B1C4A1B6812789A42F1DC1B4B1B686C
:104BE000002BEBD0194A00231360134AEFE7144A55
:104BF000002052F82320114B1978FFF7D9FE30B965
:104C00007E232B8014E00D4B1B788B4210D10A4B76
:104C10000D491A688B5C03F07F038B540B4A1368B1
:104C200001331360D0E7002303800320BDE8F08147
:104C30000120BDE8F08100BFC4430020584E002091
:104C400050400020EB4D0020534E0020C043002078
:104C500010B40A4B0A491A780023934203DA51F838
:104C60002340A04208D107490748CA5C62F07F028E
:104C7000CA5410BCFFF7DCBE0133EEE7EB4D002059
:104C800050400020534E0020A8400020054A1368E1
:104C900043F004031360044B1B68906943EA00204F
:104CA00080B2704700700D4014700D4010B5184A66
:104CB000136823F00C031360164B01221A601A6864
:104CC000012AFCD1144B08221A60E322C3F81422F3
:104CD00003F505731946114A1368DB07FCD5104C20
:104CE000102000232268013802F0010243EA020387
:104CF0004FEA43039BB2F5D1002BF1D0094A180AC1
:104D000003F0FE0310601360EF230B6010BD00BFC3
:104D100000700D40A8200D4024860840648608409D
:104D20009C86084014700D4010B54378047843EA1F
:104D30000420064B00FA01F19B5CC2F1080003EA73
:104D4000212141FA00F0C0B210BD00BFCF70200099
:104D500070B50B4C0023616E0A4A04F13800FFF76E
:104D60005FFCFFF793FF616E0023B0FBF1F5064A8D
:104D700005FB110104F11800BDE87040FFF750BCBD
:104D8000C84300208D4D2000A54D2000044B5A6ED5
:104D9000196E52008A4294BF5A665966FFF7D8BF0F
:104DA000C843002010B500F049FA00F0E1F90023F3
:104DB0000380044600F060F868B1037B5BB1238890
:104DC000818804EB83025180C18801339180238064
:104DD00001F053FBF0E720888000023080B200F041
:104DE00087F9238823B1BDE81040024800F078B865
:104DF00010BD00BFC84300209DF80030012B04D136
:104E0000024B9A6D5A66FFF7A3BF7047C843002054
:104E1000F8B50F4616461D46064C0146064A204682
:104E200000F04CF8A765E66525660448BDE8F84043
:104E300000F01CB8C84300201C6E2000F94D200073
:104E400070B505460C46164600F082F82E612046E5
:104E5000BDE87040014901F00CBD00BFD8702000D2
:104E6000014801F0CEBA00BF34440020014B186065
:104E7000704700BF38440020014801F0C5BA00BFA8
:104E8000344400202DE9F04106460B480C461746F5
:104E900001F0BAFA70B18388A34208D185684DB198
:104EA0003B4622463146AC46BDE8F041604701F042
:104EB000E4FAEFE7BDE8F0813444002070B5054620
:104EC0000C461646044AFFF7BBFF6E612046BDE85C
:104ED0007040024901F0CDBC246E2000DA70200041
:104EE00010B5044604491A2000F004FA2046BDE833
:104EF000104001F09ABC00BF504E0020054B10B589
:104F00001B689847044618B18188012000F0E4F935
:104F1000204610BD106E200038B5064B05465B6874
:104F200098470446A988012000F0D6F9201C18BF34
:104F3000012038BD106E2000014B9B68184700BF50
:104F4000106E2000014801F05CBA00BF3C44002014
:104F500081800146014801F074BA00BF3C44002042
:104F600010B50446054801F04FFA28B18388A342E2
:104F700002D001F082FAF8E710BD00BF3C440020E7
:104F8000F8B506460A480D46174601F03DFA0446B4
:104F900038B1A3680BB128469847204601F06DFA56
:104FA000F5E73A4629463046BDE8F84001F044BCF2
:104FB0004044002038B5FFF7A1FF0546094801F03D
:104FC00023FA044630B1636803B19847204601F0E4
:104FD00054FAF6E725B12846BDE8384001F027BC71
:104FE00038BD00BF4044002010B50446FFF794FFD1
:104FF00038B100F099F8034B034821469B68984765
:10500000012010BD8C6E2000814F200008B504489F
:1050100001F036FABDE80840024801F031BA00BF9D
:10502000C4400020B840002038B50E4801F038FADE
:105030000446A8B10C4801F033FA0546206028B9AF
:105040002146084801F040FA284638BD00F098F89B
:1050500005F1B601A5F8800005F1820000F014F911
:10506000204638BDB8400020C440002010B501469D
:105070000446074801F03EFA48B12168054801F0AE
:1050800023FA2146BDE81040014801F01DBA10BDC9
:10509000B8400020C440002010B50146044609482D
:1050A00001F028FA68B12468B4F88010204600F0B6
:1050B000D5F804F1B60104F18200BDE8104000F01B
:1050C000F7B810BDB840002010B507490B888342DF
:1050D00008DB064C80B222880244181A088022801D
:1050E000012010BD002010BDD04C0020D24C00206B
:1050F000014B1880704700BFD04C0020004870471B
:1051000064440020014B1888704700BFD04C002039
:10511000034A044B10781B781844C0B2704700BF94
:10512000FC4D0020D24C00202DE9F0410C4B1A8898
:105130001D469AB10B4BDFF834801E880A4B0024C1
:105140001F7821B2B14204F1010405DAFFF7E0FF54
:1051500041440B5CCB55F4E700232B80BDE8F08184
:10516000D24C0020D04C0020FC4D00206444002094
:1051700008B5FFF7CDFF014B184408BD644400207B
:10518000F8B50C4B07461C780B4B1E88A519802DD3
:105190000CDC2246094900F07BFFFFF7E9FF3C44A5
:1051A00001463246204600F073FF00E00025284605
:1051B000F8BD00BFFC4D0020D04C0020644400200E
:1051C00008B5FFF7A5FF024B1B88184480B208BD45
:1051D000D04C002010B50146FFF7F2FF4318802B9A
:1051E00010DC0138084B00B2002805DB1C5C1A18E3
:1051F0000138545400B2F7E7044B01201A781144E7
:10520000197010BD002010BD64440020FC4D00202A
:1052100038B534220021064800F0B0FF054D0024C7
:1052200028190549023401F050FB082CF8D138BD8B
:105230001C4E0020144E0020A46E2000044A0023BF
:105240001380044A1380044A1370FFF7E1BF00BFC4
:10525000D24C0020D04C0020FC4D002038B50C462C
:105260000546FFF7EBFF802C28BF80242246294605
:10527000034800F00DFF034B20461C8038BD00BFE3
:1052800064440020D04C002010B5074B03F13402D9
:1052900053F8044B934240F8044BF9D1034A136886
:1052A0000B6053684B6010BD1C4E0020144E002054
:1052B00010B5074B00F1340250F8044B904243F80C
:1052C000044BF9D10B68034A13604B68536010BD5F
:1052D0001C4E0020144E0020024B23F81010012019
:1052E000704700BF1C4E0020014B33F81000704780
:1052F0001C4E002008B5044B1A3803EB400001F0A7
:10530000E4FA012008BD00BF144E0020024B1A38F9
:1053100003EB4000704700BF144E002001490248D3
:1053200001F0D6BAA46E2000164E0020084B10B52E
:105330001B689847074B5B689847074B5B68984723
:10534000064B5B689847BDE81040054B5B68184703
:10535000B86D2000606E20008C6E2000446E20002E
:105360002C6E20002DE9F041FDF7F8FA0446114FAC
:1053700000254FF00C0808FB05761A20FFF7C6FF42
:10538000314601F0A5FA88B10A20FFF7ADFF337A64
:10539000834202D00020BDE8F0817068201AB0F589
:1053A000206F8CBF00200120BDE8F0810135102D59
:1053B000E1D1EFE7E444002070B5184E00241A2034
:1053C000FFF7A4FF0C2101FB046101F081FA134DEA
:1053D000631C10B9102B1C46F1D1013B0C2202FBBF
:1053E0000352A2F10C0643B1344603CC1060516065
:1053F0002068013B90603246F3E70A20FFF774FF14
:105400002872FDF7ABFA68601A20FFF77FFFBDE84E
:1054100070400146014801F058BA00BFE444002042
:1054200030B591B0054600F08FF84FF6FF73984203
:1054300002D14FF0FF307EE040220021684600F0AC
:105440009DFE3E4B1A782AB901221A70FFF71EFC06
:105450003B4B18701420FFF747FF8DF81000132006
:10546000FFF742FF8DF81200FFF758FF044628B1FE
:1054700000238DF813308DF8153006E00B20FFF770
:1054800033FF8DF815408DF81300002301248DF8AB
:1054900014308DF81840ADB10A20FFF725FF28B170
:1054A0000A20FFF721FF8DF81A000BE0244B1A7831
:1054B00002B91C7019780A204A1C1A708DF81A104B
:1054C000FFF70AFF02248DF8194000F03DF8ADF80F
:1054D0001C00FFF723FF38B1FF238DF817408DF82C
:1054E00000308DF8013008E01B20FFF70FFF014668
:1054F000684601F0EAF98DF8174000F025F81149E7
:10550000ADF81E0002A801F0E0F9FFF731FE0E90A1
:10551000FFF7F8FD0F90684601F0B7FA04464DB169
:10552000FFF758FE002884D0FFF7E8FD01466846E3
:1055300001F0C4FA204611B030BD00BFFE4D00207E
:10554000FD4D0020504E0020014B1888704700BFD1
:10555000064100202DE9F041012986B006460F469C
:10556000144640F3A780037803F007028DF80C205F
:10557000C3F3C0028DF80D20C3F300128DF80E2086
:10558000C3F34012C3F380138DF8103043788DF8C5
:105590000F20C3F340028DF81220C3F3810203F001
:1055A00001058DF81320C3F301129B098DF8153006
:1055B0008DF814208DF8115003AB03CB1B882061AC
:1055C000616123830DB1B51C02E0B378F51CA376AD
:1055D00002AA01A903A801F0D8F99DF81380B8F137
:1055E000000F23D0029B23B16A7815F8023B03EB2E
:1055F0000223B8F1020FA38309D13049204601F0FC
:1056000064F96B78237015F8023B637014E0B8F10D
:10561000030F11D105F108021346611E13F8010DA5
:10562000AB4201F8010FF9D1154605E023492046A8
:1056300001F04BF9A4F81C809DF81580B8F1000F1B
:105640002BD0019B53B16A7815F8023B03EB022380
:10565000029A9BB2E3831AB9A38301E0A38BE3838D
:10566000B8F1020F0AD1154904F1080001F02DF933
:105670006B78237215F8023B637215E0B8F1030FE3
:1056800012D105F108021346E11D13F8010D9D42E8
:1056900001F8010FF9D1154606E0084904F10800A8
:1056A00001F013F9A4F81E80A81B3B1A8742E3639C
:1056B000A56300DA002006B0BDE8F081A46E2000EA
:1056C000014BDB68184700BF8C6E2000014B5B6903
:1056D000184700BF606E2000014B9B69184700BF50
:1056E000606E2000024BD86900B10047704700BFD0
:1056F000606E200013B5044668B1006B00F084FEB4
:10570000024640B12146054B0548DB68019302B0D3
:10571000BDE81040184702B010BD00BF606E200009
:10572000BB6B200070B590F829400123032C88BF83
:10573000042403FA04F40C4B0546DB69984700285F
:1057400008BF0120013C444305D0FFF79FFAB0FB9E
:10575000F4F303FB14042B46214605F10800034A29
:10576000BDE87040FEF75CBF606E2000F55620007B
:105770002DE9F04107461B208846FFF7C7FD484B3F
:1057800005461A78474C22B901221A70FFF77EFAB3
:105790002080238813B9434B01221A8021880A20D4
:1057A0004B1C2380FFF798FD3F4800F02DFE044678
:1057B00040B12946201D01F08BF8D8B9204600F0F1
:1057C0005CFEF4E7394800F06BFE044640B329461E
:1057D000201D01F07AF8002304F12C00206384F8E6
:1057E000283084F82930E36200F00BFE21462E4871
:1057F00000F027FE206B00F039FE072810DC2C4853
:1058000000F04EFE054698B9206B00F02FFE38B927
:105810002146254800F002FE2146244800F054FEAF
:1058200041463846BDE8F0410123042201F0B9B9F0
:10583000204800F035FEA86058B3FFF7F5FB68601C
:1058400018B30920AE68FFF74FFD10B90823337273
:1058500003E00920FFF748FD307286E880010D2043
:10586000FFF742FD01282946206B02D100F0F6FD2A
:1058700001E000F0E6FD206B00F0C6FD85420DD191
:105880002046BDE8F041FFF74DBFA968094800F088
:105890001BFE2946064800F017FEB5E7BDE8F0817B
:1058A000074E0020D44C0020A4450020E8400020F2
:1058B000DC400020D040002008B5054800F0E0FDA5
:1058C000044800F0DDFDBDE80840034800F0D8BD05
:1058D000DC400020D0400020E84000202DE9F041CD
:1058E0000D4614468B68804693E8C000106B00F0AC
:1058F00095FD6868FFF7BAFBA968144800F0E4FD5D
:105900002946134800F0E0FD206B00F07DFD40B11A
:10591000002384F8283084F829302046FFF702FF5E
:105920000BE004F10800FEF785FE2146094800F06F
:1059300075FD2146084800F0C7FD94F8283042461E
:1059400039463046BDE8F04101F02BB9D040002087
:10595000DC400020A4450020E8400020014B1B6AE9
:10596000184700BFB86D20002DE9FF4706460F46D7
:105970001A204149FFF7BEFC01210B20FFF7ACFCC8
:105980003E4B5B68984700286ADBFFF7B7FB3C4C4F
:1059900090F802806568FFF7B1FB8146FFF710FCC5
:1059A00001464846A847FFF7B9FCD4F818900546C9
:1059B000C847002851D15DB1A3680193FFF700FCEF
:1059C000019B984748B102280CBF0122042245E000
:1059D000E3699847002840D1EEE715B10022012481
:1059E00040E0FCF7E9FF8246FDF766F96FF00C0531
:1059F000CAEB0505FCF7E0FFC542FBD4C84748B138
:105A0000FCF7DAFF81466FF01405FDF755F9C9EB95
:105A1000050509E0E36998470028F1D1184B5B6957
:105A200098470028ECD016E0FCF7C6FFC542FBD42F
:105A3000E369984778B1124B032103A81B69984783
:105A400003280AD19DF80E20B2EB080218BF0122EC
:105A5000002AC3D002E0022200E00122002401E07B
:105A60000522FBE730460123394601F09AF820462B
:105A700004B0BDE8F08700BF504E0020806E2000CB
:105A8000B86D200082B0044B08B11B6A00E05B6A6D
:105A9000019302B0184700BFB86D200007B5FFF7AB
:105AA00031FB03281BD00F4B9B689847002816DB5F
:105AB0001B20FFF72BFC0C4900F00AFF58B1FFF741
:105AC00051FC60B9FFF778FC084BDB68019303B029
:105AD0005DF804EB1847FFF721FC0028EFD103B075
:105AE0005DF804FB806E2000504E0020446E2000C4
:105AF00008B5024B1B689847023008BD386E20007D
:105B000038B50C4B9B689847041E02DA4FF0FF3003
:105B100038BDFFF72DFB03780546002BF6D1022098
:105B2000FFF7D2FA0028F1D06878FFF7E1FAA01C5D
:105B300038BD00BF386E200070B50220FFF74AFB69
:105B400010B94FF0FF3070BDFFF7D8FA002505708F
:105B50000446FFF7D7FA6070FFF732FB0446FFF701
:105B6000C7FF20442A2812DCC0F12B00C4B2FFF783
:105B7000FFFA0646FFF7C6FA22462946304400F0EF
:105B8000FDFAFFF7BFFA204480B2FFF7B1FA044BE9
:105B90005B689847041ED4DBFFF7C6FAA01C70BDF3
:105BA000386E2000014B9B68184700BF2C6E200008
:105BB00070B504460D4614200121FFF78DFB034B01
:105BC00029462046BDE870409B681847446E200077
:105BD000F8B503880446572B24D00AD8002B7CD173
:105BE000414B8120DB68984701464048FEF714F995
:105BF00008E0692B4CD0722B6FD13D4800F0DFFBE1
:105C000000286ED0384D0121AB6881209847EB68A1
:105C10008120984701463748FEF7FEF8364B0022B0
:105C20001A7016E0324800F0CAFB002859D02E4BFB
:105C300000205B689847314D28800220FCF7DCFC8F
:105C4000B5F900102E48FEF7E7F82B4A1378013318
:105C50001370294D2B78092B05D88021244800F09A
:105C6000A5FB572337E0204F8120FE68B04701464F
:105C70002448FEF7D1F8BB68002181209847812095
:105C8000B04701462048FEF7C7F800232B7015E007
:105C9000174800F094FB20B3134B00205B68984733
:105CA000164D28800220FCF7A7FCB5F90010144817
:105CB000FEF7B2F8104A1378013313700E4B8021AF
:105CC0001B780B48022B03D800F070FB692302E01D
:105CD00000F06CFB7223238003E000232380032069
:105CE000F8BD0120F8BD00BFC06C2000F870200096
:105CF000D04600201D712000124E0020D64C0020FE
:105D000041712000527120006C71200053B94AB9D2
:105D1000002908BF00281CBF4FF0FF314FF0FF30B3
:105D200000F082B9ADF1080C6DE904CE00F006F880
:105D3000DDF804E0DDE9022304B070472DE9F04FFF
:105D40008C460C460546099E002B4FD18A421746C9
:105D50006BD9B2FA82FEBEF1000F0BD0CEF1200556
:105D600020FA05F501FA0EF345EA030C02FA0EF7E4
:105D700000FA0EF5390CBCFBF1F0BAB201FB10C30E
:105D800000FB02F84FEA154C4CEA0344A04509D940
:105D9000E41900F1FF3380F02881A04540F225810D
:105DA00002383C44C8EB0404B4FBF1F301FB134C90
:105DB00003FB02F2ACB244EA0C418A4209D9C91988
:105DC00003F1FF3480F00F818A4240F20C81023BE4
:105DD00039448A1A43EA00400021002E63D022FA97
:105DE0000EF2002386E80C00BDE8F08F8B4207D945
:105DF000002E56D0002186E811000846BDE8F08F3D
:105E0000B3FA83F1002940F09380A34202D3824287
:105E100000F2FE80851A64EB03039C460120002EED
:105E200041D086E82010BDE8F08F12B90127B7FBFA
:105E3000F2F7B7FA87FEBEF1000F36D1E41B4FEA46
:105E400017481FFA87F90121B4FBF8F308FB134444
:105E500009FB03F24FEA154C4CEA0444A24207D96D
:105E6000E41903F1FF3002D2A24200F2D3800346CC
:105E7000A41AB4FBF8F008FB104809FB00F9ACB217
:105E800044EA0842914507D9D21900F1FF3402D201
:105E9000914500F2BA802046C9EB020240EA034075
:105EA0009BE731463046BDE8F08F07FA0EF7CEF19A
:105EB000200C24FA0CF34FEA1748B3FBF8FA1FFA48
:105EC00087F908FB1A3520FA0CFC04FA0EF40AFBD9
:105ED00009FB4CEA040C4FEA1C4242EA05439B458D
:105EE00000FA0EF50AD9DB190AF1FF3280F08B8037
:105EF0009B4540F28880AAF1020A3B44CBEB0303A6
:105F0000B3FBF8F008FB103300FB09F41FFA8CFC1C
:105F10004CEA03439C4207D9DB1900F1FF326ED2F1
:105F20009C426CD902383B441C1B40EA0A418BE777
:105F3000C1F1200E8B4022FA0EFC4CEA030C24FA2D
:105F40000EF74FEA1C49B7FBF9FA1FFA8CF309FB6D
:105F50001A7720FA0EF88C400AFB03F548EA04048D
:105F60004FEA144848EA0747BD4202FA01F200FA34
:105F700001FB09D917EB0C070AF1FF3041D2BD42F2
:105F80003FD9AAF1020A67447F1BB7FBF9F509FB69
:105F9000157705FB03F3A4B244EA0747BB4208D9CF
:105FA00017EB0C0705F1FF3027D2BB4225D9023D84
:105FB000674445EA0A40A0FB0289FF1A4F4545465F
:105FC0004C4614D329D066B3BBEB050367EB04073B
:105FD00007FA0EFECB40CF404EEA030386E8880066
:105FE0000021BDE8F08F2346F3E61846DAE6B8EB69
:105FF000020569EB0C040138E5E70546D9E71046D0
:1060000092E78246C0E7924678E702383A4443E78F
:10601000084604E7023B3C442AE7C345E7D33C4635
:10602000D1E73146BDE8F08F704700BF032A70B456
:1060300026D940EA01039B0711D004780D78AC42C1
:1060400022D10244431C05E013F8014B11F8015F13
:10605000AC4219D19342F7D1002070BC70470C4676
:1060600003461E6825681846AE42214603F1040324
:1060700004F10404E1D1043A032A18462146F0D879
:10608000002ADAD11046E8E7601B70BC704700BFF9
:10609000844641EA000313F0030349D1403A23D375
:1060A0000B6803604B6843608B688360CB68C36098
:1060B0000B6903614B6943618B698361CB69C36180
:1060C0000B6A03624B6A43628B6A8362CB6AC36268
:1060D0000B6B03634B6B43638B6B8363CB6BC36350
:1060E00040304031403ADBD230320BD30B68036092
:1060F0004B6843608B688360CB68C360103010319D
:10610000103AF3D20C3205D351F8043B40F8043B6B
:10611000043AF9D2043208D0D2071CBF11F8013B6F
:1061200000F8013B01D30B8803806046704700BF35
:10613000082A13D38B07B1D010F00303AED0C3F1FC
:106140000403D21ADB071CBF11F8013B00F8013B26
:10615000A4D331F8023B20F8023B9FE7043AD9D39D
:10616000013A11F8013B00F8013BF9D20B780370BA
:106170004B7843708B7883706046704770B48407A7
:1061800046D0541E002A41D0CDB2034602E0621E22
:10619000E4B3144603F8015B9A07F8D1032C2ED917
:1061A000CDB245EA05250F2C45EA054519D9264605
:1061B00003F11002103E0F2E42F8105C42F80C5C06
:1061C00042F8085C42F8045C02F11002F2D8A4F133
:1061D000100222F00F0204F00F041032032C1344BB
:1061E0000DD91E462246043A032A46F8045BFAD823
:1061F000221F22F003020432134404F003042CB1E2
:10620000C9B21C4403F8011BA342FBD170BC704708
:1062100014460346C2E700BFFEE708B5FCF736F8B0
:10622000F7B500240646254627463046FCF7D2F946
:106230000197019B9D4204DD00BF019B0133019347
:10624000F7E73046FCF7CEF9C5F5C8750197019B15
:106250009D4204DD00BF019B01330193F7E7013448
:10626000B4F5487F06D0B4F5C87FCCBFC4F54875F7
:106270002546DAE703B0F0BDFCF772BAFCF720BBA5
:1062800070470020FCF7FEBB0120FCF7FBBBEFF3DF
:10629000108062B67047EFF3108072B6704700202E
:1062A000FCF7DEBD0120FCF7DBBD0220FCF7D8BD0A
:1062B0000320FCF7D5BD10B50C46FCF7F5FF2046D2
:1062C000BDE81040FDF722B810B50446C1B2002069
:1062D000FCF7D8FC204610BD70B5054604464618AC
:1062E000601B44B1237833B1B44204D01846013462
:1062F000FFF7EAFFF4E770BD38B50546002415F84E
:10630000010B20B1FFF7E0FF0134002DF7D10A2087
:10631000FFF7DAFF204638BD0020704701207047A4
:1063200010B50446302200210E20FCF7EBFD84B1AD
:10633000012C0CD142F210730011A0F28E50584380
:106340002A2390FBF3F000F5C340283010BD4FF036
:10635000004010BD002070470120704710B5044672
:10636000302200210F20FCF7CDFD5CB1012C07D1BC
:1063700040F6F253584347F6F07390FBF3F010BD2C
:106380004FF0004010BD08B5084612B11146FFF7A6
:10639000A3FF002008BD10B5041F54F8040F18B166
:1063A0000021FEF72DFBF8E710BD704710B504463D
:1063B00000F012F82046BDE81040FEF7CFB9C068E3
:1063C000B0FA80F040097047837BDB0701D5FEF708
:1063D00007BA7047FFF754BF10B541600446FCF799
:1063E000BDFA206010BD10B50446FCF7B7FA23686B
:1063F000C3F1010303446068834294BF002001207D
:1064000010BD00230360704700687047006800B942
:10641000704703680BB11846FBE77047036810B577
:1064200073B1002499421A6806D10CB9026000E0E9
:10643000226000221A6010BD1C460AB11346F1E723
:1064400010BD38B50546FFF7E9FF00230B60FFF7E5
:10645000DDFF08B9296038BD016038BD38B5044694
:10646000FFF7DCFF03680B60216038BD0368002084
:1064700013B101301B68FBE7704700B1006870473B
:1064800010B50446428800214068FFF777FE238854
:106490006288A0685A43BDE810400021FFF76EBE35
:1064A00010B5418800238B420CDA4268D418D25CC4
:1064B00032B9012222700288806803FB020010BDFD
:1064C0000133F0E7002010BD30B582684488002316
:1064D000A3420DDA8A4207D14168CA5C0AB1013A87
:1064E000CA544268D05C30BD058801332A44EFE7C6
:1064F000FF2030BD82688A4208D84388008800FBAC
:10650000032081422CBF00200120704700207047EB
:106510000023013A0160027143718371704710B525
:10652000427983790479D31A34EA030308D00368E3
:10653000995443795A1C037913404371012010BDCB
:10654000002010BD837942790179D21A0A421FBF17
:106550000268D25C01330B401ABF837110464FF0C2
:10656000FF307047831C0020023313F8042C1AB14B
:1065700013F8032C1044F7E77047072B2DE9F84375
:106580000746884615461C4607DC1A4629464046FB
:10659000FEF7CAFB3870BDE8F8834FEAE309AAB1F9
:1065A000002608EB060008222946FEF7BDFBB85579
:1065B00001364E45F5D114F0070217D0294608EBF5
:1065C0000600FEF7B1FBB855BDE8F88318F80530B2
:1065D0007B550135A945F9D114F0070206D00021F9
:1065E00008EB0900FEF7A0FB07F80900BDE8F883F7
:1065F0002DE9F743FEF7BCFD04460220FEF764FDDB
:1066000008B9002044E06078237803EB002080B2D2
:10661000FEF7A6FC05460028F3D0FEF7A9FD80464C
:10662000287B10F0070318BF012303EBD000FEF70F
:106630004BFD0028E5D00026B146AC68023414F8C2
:10664000023C23B3192B14F8017C06F0070208EB77
:10665000E60109D901A83B46FFF78FFF01A914F80D
:10666000020CFEF747FE0FE03B4601A8ADF8049090
:10667000FFF783FF9DF805109DF8043014F8020C15
:1066800043EA0121FEF728FE3E440234D7E72846BC
:1066900003B0BDE8F083072B2DE9F0410FDC127841
:1066A000C1F11001CB1A02FA03F30278C3F30721F8
:1066B0000A430270427813434370BDE8F081DF1053
:1066C00089B304460026C1F1080CBE4204F101045E
:1066D00011D0955D14F801EC05FA0CF5C5F3072807
:1066E00048EA0E0E04F801EC94F800E001364EEA98
:1066F00005052570E9E713F007032DD0925DC3F17E
:106700000805294442FA01F1C3F11003C9B29940C6
:10671000835DC1F3072213438419835563781943BA
:106720006170BDE8F081545C445401318F42FAD16C
:1067300013F0070310D0D25DC3F108042241C3F166
:10674000100302FA03F3C25DC3F307242243C11905
:10675000C2554A7813434B70BDE8F0812DE9F743E9
:10676000047B054614F0070318BF012303EBD40490
:10677000A01CFEF72FFD90B3FEF7C0FCAB880370A2
:10678000AB881B0A4370FEF7B9FC871C2246002128
:106790003846FFF7F3FCAC680025023414F8020C0D
:1067A000E0B1192814F8016C07EBE50805F00709BA
:1067B00004D9FEF7ABFD3346024608E0FEF794FD30
:1067C00033468DF80400000A8DF8050001AA4946F9
:1067D0004046FFF760FF35440234DFE7012003B095
:1067E000BDE8F0837047F7B50F46FEF7C1FC03889C
:1067F0000446ADF80030BDF80060FEF783FCB3003E
:10680000023383420FD802340025B5420BDA54F824
:10681000040B01350190BDF80620BDF80410384680
:10682000FEF730FBF1E703B0F0BDFEF7DDBB036917
:106830001B6803B11847704703695B6803B11847C9
:10684000704743695B6803B11847704713B5044646
:106850001A20FEF75BFD014601A800F036F86369D7
:106860001B6813B101A92046984702B010BDFEF77E
:1068700069BB38B50D46FEF773FB044620B1856051
:106880002846FEF759FB207338BD10B5FEF7BEFB56
:10689000FEF7D4FCFEF7E4FAFFF7E9FFBDE810408D
:1068A0004FF4E1234FF4F0524FF400710220FEF751
:1068B000AFBA006800F1B6018230FEF7E5BC0368AC
:1068C00003EB4101B1F8820070470B8803807047E9
:1068D00008B50222FFF7AAFBB0FA80F0400908BD14
:1068E00030B591B0FEF744FC0446FEF70BFC6A4657
:1068F00001462046FEF72EFE044610B94FF0FF3049
:106900003BE0FEF7E1FB0028F8D09DF810101420C2
:10691000FEF7E2FC9DF81730ABB1BDF81C50FEF756
:1069200013FE854205D04FF6FF73BDF81C209A4236
:10693000E4D169469DF8170000F098F818B9694647
:106940001B20FEF7D7FC02A91A20FEF7D3FC9DF806
:1069500012101320FEF7C0FC9DF8153013B99DF8F6
:106960001A1001E04FF6FF710A20FEF7B5FC9DF802
:106970001A100E20FEF7B0FC204611B030BD0120E9
:10698000FEF74EBD0020FEF74BBD30B568B3037A6D
:10699000022B10D10479C57934B9F5B9447A2B4664
:1069A000003418BF01241CE0CDB9437A2C46B3FA59
:1069B00083F35B0915E00378022B10D003792BB920
:1069C000447A14F0030418BF012400E00024C379C2
:1069D00013F0030318BF012303E0012301E00023A8
:1069E0001C4601B10C6002B1136030BD37B50D46D5
:1069F00000230B608B80437D0446D9075CBF0123D5
:106A00002B70037E012B0DD8C37D9A0708D0437EDF
:106A10009B0705D0C28B838B9A4201D1012300E0F2
:106A20000023237501AA694604F11000FFF7ADFFAA
:106A3000009B0BB10223EB70019B0BB102236B7027
:106A4000E37D03F00303022B03D0032B0CBF0823C9
:106A50000023AB70637E03F00303022B03D0032BF0
:106A60000CBF082300232B7103B030BD02280CBFDC
:106A7000022308230B448B4205D013F8012DFF2A73
:106A8000F9D0002070470120704707B56946FFF72D
:106A9000ADFF9DF800009DF80130023018449DF8CC
:106AA00002309DF8032018449DF80430104403443C
:106AB0009DF80500184403B05DF804FBF7B50446E3
:106AC0000D466946FFF792FF617CA37CC9001B015C
:106AD00003F0100301F00801E27C1943237C52010A
:106AE00003F007030B4302F020021A43237D9B01AE
:106AF00003F0400313432B70637D627EA17D03F09E
:106B0000010343EA8213E27D490001F00201920091
:106B10000B4302F00C021A43237E1B0103F03003E7
:106B200013436B709DF80030012B02BFA37E03203E
:106B3000AB709DF8013018BF0220022B08D1A28B48
:106B4000431C2A54A28BDBB20230120AC0B2EA54B0
:106B500001469DF80230E218A24205D012F8017DEC
:106B60004E1C6F54F1B2F7E718449DF80330C0B2E1
:106B7000022B08D1E28B431C2A54E28BDBB2023099
:106B8000120AC0B2EA549DF804301844C0B2C21AC6
:106B9000D2B223B1013BE118097AA954F7E703B057
:106BA000F0BD30B40D460446114620B11A462846C1
:106BB000234630BC184730BC70472DE9F0410E46E3
:106BC00017460446002861D0006BFFF71DFC054600
:106BD00068B10A216868FFF772FE80460A20FEF756
:106BE00083FB804505D02846FFF747FCEFE7BDE86B
:106BF000F081AB68002B49D0032E40D8DFE806F0C7
:106C0000021D0D4694F8282000203A4484F82820DC
:106C100084F829002246294634E0002284F82920FD
:106C200094F828203A44D2B284F828201B7A934260
:106C30001DD822462946022024E094F829203A440F
:106C4000D2B2052A83BF002284F8292094F8282094
:106C500084F8292084BF013284F8282094F8282061
:106C60001B7A9A4203D32246294601200AE0204695
:106C7000FEF758FD6868BDE8F041FFF71ABE2246EE
:106C800029463046BDE8F041FEF728BEBDE8F08158
:106C900000207047FEF762BE70B504460D4652B143
:106CA00050681668FEF7F8F929462046FEF75CFEA4
:106CB00008B13246F3E770BDFEF756BE70470000DC
:106CC000A66E200095232000D5232000CD22200091
:106CD000576F2000092620006526200000000000D4
:106CE00001000000010000000100000000C00040A1
:106CF00000410D4000000000080000002C000000D2
:106D000000000001FFFFFFFF05000000020000007F
:106D1000020000000200000000D0004008410D40C9
:106D200002000000080000002C0000000201020028
:106D3000FFFFFFFF06000000F26F2000F66F20004B
:106D4000057020000970200007000000FF0000000F
:106D500005000000ED00000003000000D500000069
:106D600001000000C500000000000000B6000000A7
:106D7000FFFFFFFFB0000000FDFFFFFFA1000000CC
:106D8000FBFFFFFF91000000F9FFFFFF88000000FC
:106D9000F7FFFFFF72000000F5FFFFFF6200000039
:106DA000F3FFFFFF58000000F1FFFFFF420000006B
:106DB000E8FFFFFF0000000039362000A932200064
:106DC0000D332000B7622000D5332000E1302000D1
:106DD0001D312000353120002930200055302000A1
:106DE00045312000413520008D372000A53320009B
:106DF0003070200021632000196320001D632000F3
:106E0000447020005D63200055632000596320001A
:106E1000F16520005D67200065652000E7672000C0
:106E2000E56720004D68200043682000DE702000E8
:106E30008B682000B54F2000856920007F69200005
:106E4000E1682000E3702000B9582000715720004D
:106E5000C1562000CD562000D9562000E55620000E
:106E6000E8702000956C2000B96C2000996C20001F
:106E70009D5A20005D592000855A2000916C200009
:106E8000F15A2000395B2000015B2000F0702000E7
:106E9000BD6C2000B15B2000A55B2000F440002009
:106EA0000000000000005A6F6E696B20536F756E12
:106EB000642053656E736F72005A6F6E696B207039
:106EC000726F636573732070726F6365737320688C
:106ED000616E646C657200436F6E74696B692D320C
:106EE0002E362D343035382D673339626162346681
:106EF0003135005A6F6C65727469612052452D4DB1
:106F00006F7465207265766973696F6E20422070B8
:106F10006C6174666F726D0052696D6520636F6E8F
:106F20006669677572656420776974682061646456
:106F3000726573732000253032783A00253032783C
:106F40000A00204E65743A2000204D41433A20004B
:106F5000205244433A2000427574746F6E004343DC
:106F6000323533383A2049443A2030782530346C71
:106F7000782C207265762E3A20504725642E2564A1
:106F80002C20466C6173683A20256C75204B694251
:106F90002C205352414D3A20256C75204B69422CD0
:106FA000204145532F5348413A2025752C20454315
:106FB000432F5253413A2025750A53797374656DF6
:106FC00020636C6F636B3A20256C7520487A0A4900
:106FD0002F4F20636C6F636B3A20256C7520487AC5
:106FE0000A52657365742063617573653A20257371
:106FF0000A00504F520045787465726E616C2072C1
:10700000657365740057445400434C44206F7220EC
:10701000736F66747761726520726573657400635F
:1070200063323533382052462064726976657200C7
:107030004F6E2D436869702054656D706572617480
:10704000757265005644443300303132333435367E
:1070500037383941424344454600303132333435C4
:1070600036373839616263646566003078003058BD
:10707000002D002B00286E756C6C29002500202047
:1070800020202020202020202020202020203030E0
:107090003030303030303030303030303030437499
:1070A000696D65722070726F6365737300457665F4
:1070B0006E742074696D65720053657269616C202D
:1070C0006472697665720053656E736F7273000047
:1070D00080C0E0F0F8FCFEFF00001A1000005269CA
:1070E0006D650043534D41006E756C6C72646300B6
:1070F0006E756C6C73656300496E697469616C20B0
:10710000737461747573206F662073656E736F722C
:107110002069733A203078253034580A00496E6966
:107120007469616C697A65642E2053656E736F7241
:10713000207374617475733A203078253034580A9E
:107140000056616C75652028644241293A20256407
:107150000A0053656E736F722073746174757320C7
:1071600069733A203078253034580A0050726F63C2
:107170006573732053746F707065643A203078259E
:107180003034580A0054657374205A6F6E696B204E
:0F7190006472697665722070726F636573730045
:1071A00000000000B96E2000E12220000000000075
:1071B000006E2000D06C2000F06D20000000000068
:1071C000000000001F702000FD36200000000000BD
:1071D0008763200000000000000000009E70200077
:1071E000354520000000000000000000AD702000C8
:1071F000B14620000000000000000000B97020002F
:10720000714A20000000000000000000C77020004C
:10721000754B20000000000004000800F44D002021
:1072200044440020BE000800EC4D0020E046002051
:107230000C000800FF4D0020A84500200C000800AD
:10724000084E00200846002034000200104E0020A6
:10725000684600200000000085712000D15B2000FE
:0A72600000000000EDD1CDAB011AD3
:08726C00D0EAFF7F01000000E1
:020000040027D3
:10FFD400FFFFFFF30000000000202000FFFFFFFFF1
:10FFE400FFFFFFFFFFFFFFFFFFFFFFFFFFFFFFFF1D
:0CFFF400FFFFFFFFFFFFFFFFFFFFFFFF0D
:040000050027FFD4FD
:00000001FF
