:020000040020DA
:10200000687C00208D222000C3CB2000C1CB2000A3
:10201000C1CB2000C1CB2000C1CB200000000000BC
:10202000000000000000000000000000C1CB200004
:10203000C1CB200000000000C1CB200079CD2000E2
:102040009BCD2000A1CD2000A7CD2000ADCD20004C
:10205000000000007FCD200085CD2000C1CB2000F6
:10206000C1CB2000000000000000000000000000C4
:102070000000000000000000C1CB200000000000B4
:102080000000000000000000C1CB2000C1CB2000F8
:10209000C1CB2000C1CB2000C1CB2000C1CB200090
:1020A000C1CB2000C1CB2000C1CB2000C1CB200080
:1020B000C1CB2000C1CB2000C1CB2000C1CB200070
:1020C000C1CB2000C1CB2000C1CB2000C1CB200060
:1020D000C1CB200000000000000000000000000054
:1020E00000000000000000000000000000000000F0
:1020F00000000000000000008151200091512000EC
:1021000000000000000000000000000000000000CF
:1021100000000000000000000000000000000000BF
:1021200000000000000000000000000000000000AF
:10213000000000000000000000000000000000009F
:10214000000000000000000000000000000000008F
:10215000000000000000000000000000000000007F
:10216000000000000000000000000000000000006F
:10217000000000000000000000000000000000005F
:10218000000000000000000000000000000000004F
:10219000000000000000000000000000000000003F
:1021A000000000000000000000000000000000002F
:1021B000000000000000000000000000000000001F
:1021C000000000000000000000000000000000000F
:1021D00000000000000000000000000000000000FF
:1021E00000000000000000000000000000000000EF
:1021F00000000000000000000000000000000000DF
:1022000000000000000000000000000000000000CE
:1022100000000000000000000000000000000000BE
:1022200000000000000000000000000000000000AE
:10223000000000000000000000000000000000009E
:10224000000000000000000000000000000000008E
:10225000000000000000000000000000000000007E
:10226000000000000000000000000000000000006E
:10227000C1CB2000695020008D5020002147200054
:1022800001532000C5412000C1CB200008B5094BF7
:10229000FF221A600848094A4824E369121A0849CB
:1022A00098470848084AA369121A0021984701F084
:1022B0000DFCFEE7B4200D404040002015420020F8
:1022C0005CEE2000184200206674002010B5044621
:1022D000436E9847034BE06E00221978BDE810402A
:1022E00003F07CBE227400202DE9F04F0C4685B02F
:1022F00017461E46002B00F0698191F8B0341BB1DF
:1023000001F595600AF073FC94F8B1346BB93B7831
:10231000012E84F8B134D4F8AC3403F10103C4F8CD
:10232000AC3400F05381012500E0002594F8B73467
:102330005BBB7819AE4240F24981D4F8AC3494F8D2
:10234000B82401330132052B10F8011B05F10105FA
:10235000C4F8AC3484F8B82405D900228021204682
:10236000FFF7B4FF32E194F8B634B4F8B2E401F008
:102370007F0202FB03E2DB0184F8B6340B06A4F80B
:10238000B224D7D4012384F8B734B4F8B224B2F518
:10239000007F05D994F8B13403F0F003302B04D159
:1023A0004FF001084FF000092FE0D4F8AC340132AF
:1023B0001E449642C4F8AC64C0F0088103E102F008
:1023C000F002302A2BD094F8B904731BC0F5007AC0
:1023D0009A4528BF9A4620445246791900F2BA40DD
:1023E0000AF098FAD4F8AC3494F8B924534452441F
:1023F00084F8B924C4F8AC3455440022D1B28A45DB
:1024000002F10102FAD8AE4261D9B4F8B224D4F88C
:10241000AC340132934294F8B124D0D35DE094F807
:10242000BF26002ACFD194F8BE269AB97A5D691CDE
:102430001202581CB142A4F8BA26C4F8AC0444D223
:10244000795C02330A430235A4F8BA26C4F8AC34E6
:1024500084F8BE86B4F8BEA6BAF1010FB3D1B4F8C1
:10246000BC06B4F8BA26C5EB060B121A934528BF72
:10247000934620441FFA8BF31A46791900F2C46080
:1024800001930AF047FAD4F8AC24019BB4F8BA16C9
:102490001D441344B4F8BC26C4F8AC345A4492B278
:1024A0009142A4F8BC260DD1631884F8BFA683F826
:1024B000C496B4F8B234023B5B1A9BB2A4F810374E
:1024C000A4F8123784F80E877DE70D467BE7B4F851
:1024D000B2240132934298D278E002F0F003502BFC
:1024E0006CD006D8302B38D0402B45D0202B6AD169
:1024F00019E0702B62D002D8602B5FD063E0902B84
:102500004FF0010247D0B02B5DD184F8992294F8A6
:10251000BB3494F8BA24032143EA0223A4F8B43468
:1025200004F2B4424CE094F8BB342BB104F2BB4249
:1025300082212046FFF7CAFEE18A012384F89932FE
:10254000244A2346C90104F1180003F03DFB082387
:10255000002284F86030114632E004F2BA43C4F835
:10256000083794F8B9342046A4F80C370023A4F8AF
:1025700012370AF046FB26E0012394F8BA2484F8C7
:10258000993294F8BB34052143EA0223A4F8B43409
:1025900004F2B44214E084F8992294F8BB3494F81D
:1025A000BA24022143EA022394F8BC24ADF80C308B
:1025B0008DF80E20A4F8B43403AA01E0002284218F
:1025C0002046FFF783FE012384F8B034002005B0D5
:1025D000BDE8F08FD925200010B590F838308BB1C8
:1025E00000F22C74022380F8603020460AF053FE7B
:1025F000204606F0A7FF2046BDE810403422002107
:102600000AF062BA034B0246BDE81040197802484E
:1026100003F0E4BCD65E00204040002030B5044604
:102620000523002580F86030012385B0A0F86830CC
:10263000A0F89C5280F8385000F595600AF0D7FA5F
:102640000E4B84F8745203930D4B04F22C750293D5
:1026500004F174024FF400730092214604F2A622A2
:102660000193284606F0F4FE2846B4F8282704F51E
:10267000E36105B0BDE8304006F020BF85262000AC
:10268000E922200013B50C468DF80720042A3BD818
:10269000DFE802F0200303032D001C4B0A461C4810
:1026A000197803F09BFC032384F8603004F11800D0
:1026B00003F0CCFA0DF1070201212046FFF706FED8
:1026C00020460AF0B6FA637D012B1DD12046FFF7A4
:1026D000A5FF19E0062381F86030012381F87432E8
:1026E0000C4B0A460A48197803F078FC0CE0B1F864
:1026F0004E372BB9012381F8743201F174030B6753
:1027000004F1180003F086FA02B010BDDD5E00206F
:1027100040400020D95E002038B51D4C2578002DA2
:1027200034D103F0EFFB1B4B18701B4B187003F0F8
:10273000E9FB1A4B187003F0E5FB194B187003F016
:10274000E1FB184B187003F0DDFB174B187003F01A
:10275000D9FB164B187003F0D5FB154B187003F01E
:10276000D1FB144B187003F0CDFB134B1870134BB7
:10277000187003F0C7FB124B187012480AF007FCE0
:102780002946114803F052FC0123237038BD00BFD5
:10279000DE5E0020E15E0020D75E0020D95E0020D2
:1027A000DC5E0020DF5E0020E05E0020DA5E0020BC
:1027B000D65E002022740020DD5E0020D85E00205E
:1027C000DB5E00202C42002040400020F8B51F4670
:1027D000137804460E46154633B34FF4EC620021DD
:1027E0000AF072F9294604F10C000AF089FABDF8E2
:1027F0001820012300256375A4F8A422A4F86830EA
:1028000004F595606766E666A4F89C5284F8385033
:102810000AF0EDF984F87452FFF77EFF2146034871
:102820000AF0D5FB2846F8BD8220F8BD2C420020D6
:102830007FB50446084694F8601003291DD8E3824A
:1028400004F174032367002384F89932237DA4F8EC
:10285000282743F0020323756946C4F8140704F5DA
:10286000E3660AF024FD9DE80F0086E80F00044BA4
:1028700022461978034803F0B1FB002004B070BD74
:10288000E15E00204040002090F860300246082BB6
:1028900007D1092380F86030024B0348197803F010
:1028A0009DBB7047DC5E0020404000202DE9F341D5
:1028B0008DF8071040F2A741038806468B42154663
:1028C00000F02A83B3F5956F0CD240F282418B421F
:1028D0001ED040F299418B4200F00983002B40F05A
:1028E000AF8069E040F2C6418B4200F00D8405D80C
:1028F00040F2B9418B4200F09283A1E040F2D34113
:102900008B4200F06A85B3F59C6F00F0898697E0F2
:10291000BF4B9DF807201B789A4207D1BD4B284634
:102920001D600A2385F860300AF083F9BA4B9DF8E0
:1029300007201B789A4204D1B64B28461D60FFF74A
:102940006DFEB64B9DF807201B789A4237D0B44AEB
:102950009DF807301178994206D1AE4B1D6095F86D
:102960006030092B00F0E982AE4B9DF807201B7800
:102970009A4200F04483AC4B9DF807201B789A42A2
:1029800000F0B283A94B9DF807201B789A4206D12C
:10299000A04B1D6095F87432012B00F01585A44BF7
:1029A0009DF807201B789A4206D19A4B1D6095F836
:1029B0007432012B00F01F8640F282433CE0954BBD
:1029C0001D60B5F8A432A5F8543795F87432012B80
:1029D000BDD10023A5F89C328E4F3C68B4F89C32E0
:1029E000B3F5D17F00F08B8157D8B3F5CD7F00F0E0
:1029F0000A8132D840F29712934200F0D980B3F5A1
:102A0000CC7F22D2002B00F08E80B3F5CA7F40F03D
:102A10006A8294F87432002B40F0B3803B6893F8DC
:102A200060300A2B93D0834B00221978824B1868B0
:102A300003F0D4FA40F299433380012000F031BF13
:102A400000233380032000F02CBF00F0BF8040F251
:102A50009912934200F0C88045E240F29D129342E1
:102A600000F01481B3F5CF7F09D240F29B1293425C
:102A700000F0EF80B3F5CE7F00F0F98033E240F252
:102A80009F12934200F01E81B3F5CF7F40F20C817C
:102A9000B3F5D07F00F0248125E240F2B3129342D7
:102AA00000F0A281B3F5DA7F20D240F2A712934260
:102AB00000F05A81B3F5D47F09D2B3F5D27F00F08C
:102AC000348140F2A512934200F03E810BE240F2C5
:102AD000A912934200F06581B3F5D47F40F2528190
:102AE00040F2AB12934200F06D81FCE1B3F5DD7F63
:102AF00000F0BC8109D8B3F5DA7F00F0848140F2A0
:102B0000B712934200F09081EDE1B3F5DF7F00F062
:102B1000CD81B3F5E57F00F0CE8140F2BB12934248
:102B200040F0E181B1E1228A102384F8783202B1C9
:102B3000023202F10C03B4F8542002B10232134401
:102B4000B4F85C2002B102321344B4F8402002B160
:102B500002321344B4F8482002B102321A44C4F8D5
:102B60007C2204F5217104F520700AF02DF894F808
:102B70008432042B05D9002281212046FFF7A6FBD1
:102B8000B1E194F8781220460AF083F820B14FF4AE
:102B9000CA73A4F89C323CE794F8842204F52071AF
:102BA00020460AF086F840B140F29713A4F89C3210
:102BB00094F87432002BEFD130E7002120460AF060
:102BC00068F840B14FF4CC73A4F89C3294F8743296
:102BD000002BF2D122E7062120460AF05AF840B134
:102BE00040F29913A4F89C3294F87432002BF2D17D
:102BF00014E70622114920460AF05BF800B34FF4AF
:102C0000CD73A4F89C3294F87432002BF1D105E70F
:102C1000DD5E002028420020E15E0020D95E002019
:102C2000DC5E0020D65E0020DF5E0020E05E00203B
:102C3000DA5E0020DB5E00203C430020ACE6200092
:102C4000032120460AF025F840B140F29B13A4F876
:102C50009C3294F87432002BF2D1DFE6217D2046BD
:102C60000AF017F840B14FF4CE73A4F89C3294F8F0
:102C70007432002BF2D1D1E6E18A2046090A0AF02B
:102C800008F840B140F29D13A4F89C3294F87432D5
:102C9000002BF1D1C2E6A17D204609F0FAFF40B138
:102CA0004FF4CF73A4F89C3294F87432002BF2D115
:102CB000B4E60021204609F0ECFF40B140F29F133A
:102CC000A4F89C3294F87432002BF2D1A6E6217C51
:102CD000204609F0DEFF40B14FF4D073A4F89C32D7
:102CE00094F87432002BF2D198E6228AE1682046EB
:102CF00009F0DFFF40B14FF4D173A4F89C3294F88F
:102D00007432002BF1D189E6237D5A0704D494F95B
:102D10001430002B5BDA5EE00021204609F0B9FF99
:102D200040B14FF4D273A4F89C3294F87432002B63
:102D3000F2D173E694F84010204609F0AAFF40B1A2
:102D400040F2A513A4F89C3294F87432002BF1D110
:102D500064E6B4F84020E16B204609F0AAFF40B1D8
:102D600040F2A713A4F89C3294F87432002BF0D1EF
:102D700054E60021204609F08CFF40B14FF4D47393
:102D8000A4F89C3294F87432002BF2D146E694F801
:102D90004810204609F07DFF40B140F2A913A4F885
:102DA0009C3294F87432002BF1D137E6B4F8482005
:102DB000616C204609F07DFF0028A8D040F2AB13DB
:102DC000A4F89C3294F87432002BEFD126E6237DD0
:102DD0005B0642D42DE00021204609F05AFF40B1A5
:102DE00040F2B313A4F89C3294F87432002BF2D161
:102DF00014E694F85410204609F04BFF40B14FF40C
:102E0000DA73A4F89C3294F87432002BF1D105E601
:102E1000B4F85420216D204609F04BFF0028D6D08D
:102E200040F2B713A4F89C3294F87432002BEFD11F
:102E3000F4E5204609F01CFF072384F860304FF4C6
:102E4000A061201D0AF083F804F5956009F0CFFE1B
:102E50004FF4E573A4F89C322DE00021204609F0E0
:102E600018FF40B14FF4DD73A4F89C3294F874322B
:102E7000002BF2D1D2E594F85C10204609F009FF4E
:102E800040B140F2BB13A4F89C3294F87432002B8A
:102E9000F1D1C3E5B4F85C20A16D204609F009FF2B
:102EA0000028C6D04FF4DF73A4F89C3294F8743233
:102EB000002BEFD1B2E594F8993204F10408012B0C
:102EC00007D140460AF055F848B12046FFF7DCFC30
:102ED00005E040460AF04DF80028F2D19EE504F5E1
:102EE000956009F084FE0023A4F89C322FE5BB4BCB
:102EF0009DF807101B788B4214D0B94B1B788B427E
:102F00003FF66AADB74B1B788B42FFF465ADB64B0D
:102F1000186803F063F85FE5B04B9DF807101B7865
:102F20008B4212D1B14B0A221B68022083F8602029
:102F30000022A3F89C2200F0B4BC95F87432012B57
:102F400058D10023A5F89C3204E0A54B1B788B4296
:102F500040F2E88140F2E512A44F3C68B4F89C329C
:102F6000934212D0B3F5F37F01D22BB135E01AD0E2
:102F7000B3F5F87F28D030E0E021204609F089FE43
:102F800040B140F2E513A4F89C3294F87432002B5F
:102F9000F2D1D1E10021204609F07BFE40B14FF48F
:102FA000F373A4F89C3294F87432002BF2D1C3E18D
:102FB000204609F05DFE4FF48071201D09F0C7FF27
:102FC0004FF4F873A4F89C3294F874322BB9201D96
:102FD00009F0CFFF002800F0AF810023A4F89C3255
:102FE000386809F026FE0DF1070201213868FFF765
:102FF0006DF9B9E42A467E4802F0F0FFB4E47B4B59
:103000001D6095F87432012B7FF4B5AC95F86030F3
:10301000082B7FF4B0AC0023A5F89C320BE06F4B7B
:103020009DF807101B788B423FF47CAF6C4B1B78EC
:103030008B4240F2928140F2D2216C4A14681746CA
:10304000B4F89C328B4214D001D84BB148E040F226
:10305000D32293421BD040F2DE2293422FD03FE096
:10306000C021204609F015FE40B140F2D223A4F859
:103070009C3294F87432002BF2D178E10021204682
:1030800009F007FE40B140F2D323A4F89C3294F833
:103090007432002BF2D16AE1204609F0E9FD0123E8
:1030A00084F8383004F5956009F0A1FD4FF4A06173
:1030B000201D09F04CFF40F2DE23A4F89C3294F866
:1030C000B0343BB104F5956009F091FD002384F81C
:1030D000383005E0201D09F04CFF0028F2D146E110
:1030E0000023A4F89C3246E4404B1D6095F87432EE
:1030F000012B7FF447AC95F86030082B7FF442AC8D
:103100000023A5F89C320BE0344B9DF807101B7888
:103110008B423FF407AF324B1B788B4240F2388131
:1031200040F21622314B1C689846B4F89C729742C4
:1031300000F089800ED8B7F5047F49D001D817B3C5
:10314000EBE040F213239F4260D040F215239F42F0
:103150006AD0E2E040F21B239F4200F0A480B7F562
:10316000077F08D2B7F5067F7DD040F219239F4232
:1031700000F08880D1E000F0A58040F225239F4236
:1031800000F0B580C9E0B4F88C228223053284F8BF
:103190007832C4F87C2204F5217104F5207009F01E
:1031A00013FD94F88432042B08D93A468121204635
:1031B000FFF78CF8A4F89C72FFF7E4BB94F8781240
:1031C000204609F066FDA8B14FF40473A4F89C32C0
:1031D00094F87432002BF1D1E4E000BFDD5E0020F2
:1031E000D75E0020D85E00203C430020284200200B
:1031F0004040002094F8842204F52071204609F014
:1032000058FD40B140F21323A4F89C3294F8743274
:10321000002BEFD1C6E00021204609F03AFD40B175
:1032200040F21523A4F89C3294F87432002BF2D1AA
:10323000B8E094F88612204609F02BFD40B140F228
:103240001623A4F89C3294F87432002BF1D1A9E033
:10325000B4F88C122046090A09F01BFD40B14FF466
:103260000673A4F89C3294F87432002BF0D199E0E4
:1032700094F88C12204609F00CFD40B140F219235D
:10328000A4F89C3294F87432002BF1D18AE0B4F89F
:103290008C22D4F88812204609F00BFD40B140F290
:1032A0001B23A4F89C3294F87432002BEFD179E000
:1032B00094F89812204609F0ECFC40B14FF40773E3
:1032C000A4F89C3294F87432002BF1D16AE02046C5
:1032D00009F0CEFC4FF4A061201D09F038FE04F582
:1032E000956009F084FC40F22523A4F89C3294F800
:1032F0009932271D012B0AD1384609F03AFE04F510
:10330000956009F074FC002384F86A3005E03846C3
:1033100009F02FFE0028EFD144E00023A4F89C32EE
:10332000FFF730BBB84B1B788B42FFF413AEB74BA3
:10333000186802F053FE0DE63B6893F860300A2BE4
:103340003FF44EAEB24B00221978B04B186802F031
:1033500045FE40F2A743FFF76FBBAB4B1B788B4298
:10336000FFF469AEA94B186802F038FE63E63B68CB
:1033700093F86030082B7FF4FEAAA54B0022197841
:10338000A24B186802F02AFE40F2B943FFF754BB83
:103390009D4B1B788B42FFF4C3AE9C4B186802F028
:1033A0001DFEBDE6D8F8003093F86030082B7FF49E
:1033B000E9AA974B00221978944B186802F00EFE88
:1033C00040F2C643FFF738BB95F86030082B7FF416
:1033D000E6AA0023A5F89C320BE08E4B9DF807105F
:1033E0001B788B423FF49EAD8B4B1B788B4240F297
:1033F000E6808A4B1C689846B4F89C72B7F5157F36
:103400007DD011D840F24F239F424AD0B7F5147FA8
:1034100001D20FB3CEE040F251239F4252D040F28E
:1034200053239F425CD0C5E040F257239F4200F0F7
:103430008580B7F5167F04D240F256239F426ED0A6
:10344000B8E040F259239F4200F0898040F26223A5
:103450009F4200F09980ADE0B4F88C22A2230432A0
:1034600084F87832C4F87C2204F5217104F52070C8
:1034700009F0AAFB94F88432042B08D93A4681213A
:103480002046FEF723FFA4F89C72FFF788BA94F851
:103490007812204609F0FDFB40B140F24F23A4F81A
:1034A0009C3294F87432002BF1D192E094F884228B
:1034B00004F52071204609F0FCFB40B140F2512395
:1034C000A4F89C3294F87432002BEFD181E00021F3
:1034D000204609F0DEFB40B140F25323A4F89C32B1
:1034E00094F87432002BF2D173E094F886122046DF
:1034F00009F0CFFB40B14FF41573A4F89C3294F857
:103500007432002BF1D164E0B4F88C122046090A21
:1035100009F0BFFB40B140F25623A4F89C3294F866
:103520007432002BF0D154E094F88C12204609F04C
:10353000B0FB40B140F25723A4F89C3294F87432A7
:10354000002BF1D145E0B4F88C22D4F88812204643
:1035500009F0AFFB40B140F25923A4F89C3294F833
:103560007432002BEFD134E0204609F081FB4FF498
:10357000A061201D09F0EBFC04F5956009F037FB14
:1035800040F26223A4F89C3294F89932271D012B53
:103590000AD1384609F0EDFC04F5956009F027FBE7
:1035A000002384F86A3005E0384609F0E2FC002880
:1035B000EFD10EE00023A4F89C32FFF7F0B9124BD4
:1035C0001B788B42FFF415AF104B186802F006FD14
:1035D0000FE7D8F8003093F86030082B7FF4DFA9AC
:1035E0000B4B00221978094B186802F0F7FC40F2E7
:1035F000D343FFF721BA95F86030082B7FF4DCA99C
:103600000023A5F89C3217E0D85E00203C43002040
:10361000DB5E0020DD5E0020D75E00202842002017
:10362000A14B9DF807101B788B423FF47BAC9F4B5E
:103630001B788B4240F21A819D4D2C68B4F89C3265
:10364000B3F5267F00F0958011D840F29322934283
:103650005FD0B3F5257F01D223B302E140F295227A
:10366000934267D040F29722934273D0F9E040F240
:103670009D22934200F0AE8009D840F29A229342F4
:1036800000F08880B3F5277F00F09580E9E040F2F4
:10369000A222934200F0AF8040F2B322934200F0A6
:1036A000CA80DEE094F8982294F89A12530043F00E
:1036B0003003DBB2012984F8783204BF43F0010300
:1036C00084F87832B4F88C12D4F894320B440AB9E6
:1036D000023300E00433C4F87C32D4F87C2204F5D1
:1036E000217104F5207009F06FFA94F88432042BEC
:1036F00005D9002281212046FEF7E8FDB1E094F8CB
:103700007812204609F0C5FA40B140F29323A4F89C
:103710009C3294F87432002BF1D1B1E094F88422F9
:1037200004F52071204609F0C4FA40B140F2952317
:10373000A4F89C3294F87432002BEFD1A0E0B4F8D6
:103740008C122046090A09F0A4FA40B140F29723EE
:10375000A4F89C3294F87432002BF0D190E094F8E5
:103760008C12204609F095FA40B14FF42673A4F864
:103770009C3294F87432002BF1D181E0B4F88C22A1
:10378000D4F88812204609F094FA40B140F29A2306
:10379000A4F89C3294F87432002BEFD170E094F8C6
:1037A0009832E3B10021204609F073FA40B14FF49A
:1037B0002773A4F89C3294F87432002BF2D15FE0A6
:1037C00094F88612204609F064FA40B140F29D2335
:1037D000A4F89C3294F87432002BF1D150E0B4F884
:1037E0009422D4F89012204609F063FA40B140F2D6
:1037F000A223A4F89C3294F87432002BEFD13FE05E
:10380000204609F035FA4FF4A061201D09F09FFB16
:1038100094F898222AB9274BE06E197802F0DEFB63
:1038200018E0012A16D104F5956009F0E0F940F29C
:10383000B323A4F89C3294F89932271D012B03D1AD
:10384000384609F096FB05E0384609F092FB00285F
:10385000F6D115E004F5956009F0C9F9002384F864
:103860006A300023A4F89C32FFF7A6B8124B1B78ED
:103870008B42FFF4E1AE114B186802F0AFFBDBE6C0
:103880002B6893F86030082B7FF496A80C4B00222D
:1038900019780A4B186802F0A1FB4FF49C63FFF7FC
:1038A000CBB802B0BDE8F081DD5E0020D75E00201D
:1038B0002842002022740020D85E00203C430020D3
:1038C000DB5E002070B51E4690F860300446082B81
:1038D00020D190F86A500121F5B980F86A10B0F84B
:1038E0006810C0F88822023189B2A0F86810A0F8E8
:1038F0008612104609F036F9084BA4F88C0284F8B9
:10390000986284F8995222461978054802F066FBBD
:10391000284670BD812070BD084670BDDF5E002066
:103920004040002070B51E4690F860300446082BD9
:103930002BD190F86A5001214DBB80F86A10B0F885
:1039400068109DF81830023189B2A0F86810A0F80C
:10395000861280F89A32C0F88822104609F002F9DF
:10396000049BA4F88C02C4F894329DF81430C4F877
:10397000906284F89832074B84F89952224619785D
:10398000054802F02BFB284670BD812070BD08461B
:1039900070BD00BFDA5E002040400020F8B5214C29
:1039A00000222178D3B28B4239D8DD0066197768BE
:1039B0000132B842F6D1FF2B31D01B4B307A5B6815
:1039C0009847B0F1004F27D0737A33B941F288336A
:1039D000584340F6B833B0FBF3F02C446368013B26
:1039E000052B19D8DFE803F0030B161016160A236F
:1039F0004343C3F51F533633B3FBF0F00AE040F204
:103A00008D335843094B03E05823584342F2107357
:103A1000B0FBF3F080B2F8BD4FF6FF70F8BD0020A8
:103A2000F8BD00BF30420020F0E42000A086010075
:103A30002DE9F041431E012707FA01F5052B064643
:103A4000EDB203D94FF0FF30BDE8F0811D4C237873
:103A5000012BF7D84B1E062BF4D80329F2D063783C
:103A60001D42EFD107FA00F313F04E0803D113F013
:103A7000300F0FD1E6E7144B294680209B6898470A
:103A8000B0F1004FDED0237804EBC3035E601D72FB
:103A90005F720EE00C4B294680209B689847B0F17E
:103AA000004FCFD0237804EBC3035E601D7283F810
:103AB0000980237800200133237063781D436570EB
:103AC000BDE8F08130420020F0E42000F7B500F0BE
:103AD000BFFC00F0B9FD00F015FD00F0D1FA01F0D7
:103AE000FDFB09F032FA00F0A7FD00F0C9F8012053
:103AF00009F012F902F00EFA00F096FC002000F036
:103B0000B7FB012000F0B4FB4949002000F076FC2F
:103B100002F034FB09F039F9042009F0FDF84548BA
:103B200009F068F9444809F065F900F04BFA002003
:103B300002F0D2FB01F0BEFA0021404802F076FA12
:103B400002F00CF809F016F900F00CFE00F028FE67
:103B500007F06AFD0821684601F0E4FB9DF8073094
:103B60009DF80670364C43EA07276B4603CB20606E
:103B70006160344801F010FC0025615D3248013578
:103B800001F00AFC072D2E4EF7D1304DF179304867
:103B900001F002FCEC6A4AF6CD310220A04739461A
:103BA0000320A0471A210120A047694608226B6B19
:103BB0000B209847274801F0EFFB274B186809F0C6
:103BC00019F9264801F0E8FB254B186809F012F9AD
:103BD000244801F0E1FB244B186809F00BF9234A53
:103BE000336813607368536007F040FA002120487F
:103BF00002F01CFA00211F4802F018FA1E4B0121A6
:103C00009B688120984709F06FF91C4809F062F918
:103C100000F010FC022009F07FF800F011FC02F027
:103C200091F910F0FF0FF8D101F0ECFAF5E700BFC1
:103C300039612000D0E62000ECE62000884000201A
:103C40002C74002011E72000A6EB2000E8E52000FE
:103C50003DEE20002FE7200040E6200036E7200060
:103C600058E620003DE7200074E62000106A00209E
:103C70002C410020A840002000E52000A4E6200000
:103C800008B500F03FF9024B00221A7008BD00BFD2
:103C9000E25E0020024A13781843107000F056B913
:103CA000E25E0020034A137823EA0000107000F05F
:103CB0004DB900BFE25E002008B50B4B1B780342F4
:103CC00003D0202804D0042804D04FF0004008BDC1
:103CD000052000E00220054B80211A7800F0DEFC70
:103CE00020EAE07000B208BDE45E0020E35E002040
:103CF000802810B50C4603D0B0F5807F25D031E088
:103D00008B1E222B2ED8C943184B1A680A401A6002
:103D1000174A13680B401360A20604D5012205213F
:103D2000002000F09FFC630704D50122022100203F
:103D300000F098FC00F0AAFC0E4B30221A700E4BDB
:103D4000187804441C70002010BDC8B2102806D09A
:103D500001D820B106E0202801D0302802D1054B3F
:103D6000187010BD4FF0004010BD00BF20940D40F2
:103D700000940D40E35E0020E45E002020B10128A5
:103D800005D1044B18787047034B18687047002022
:103D9000704700BFE55E002020900D4010B5094A35
:103DA0000020137801331370074B197802F016F9CD
:103DB000BDE8104005490023054A0968054801F09F
:103DC00003BF00BFE55E0020237400206C4200208A
:103DD0009D3D200044420020812810B50C462AD089
:103DE000B0F5807F39D0802839D102F08BF81D4B97
:103DF0001D4A18701368032123F00803136052F85A
:103E0000203C002023F0080342F8203C52F81C3CE0
:103E100023F0080342F81C3C52F8183C43F0080316
:103E200042F8183C042200F01DFC032200210F4838
:103E300000F0BAFB13E00E4B1A6831B142F00802F1
:103E40001A60002000F022FB05E022F008021A6050
:103E5000084600F029FB204610BD064B19600120E2
:103E600010BD00BF2374002020940D40793E200037
:103E700010940D406C42002008B50F4809F079F805
:103E8000C8B108210C4809F062F80C4B196869B1F7
:103E90000B4B00221A700B4B1B6823B90A4A0B48C4
:103EA00001F092FE02E0094801F0D0FEBDE80840B2
:103EB000074802F0E3B908BD644200206C420020CC
:103EC000E55E002020900D409D3D200044420020F2
:103ED00000E52000084A136823F00403136052F839
:103EE000203C43F0040342F8203C044B00221A60BB
:103EF000034B01221A70704720C40D4010C00D40C2
:103F0000E65E00200D4A0E49136823F0C0031360DB
:103F100052F8203C43F0C00342F8203C094B0022F9
:103F20001A600B6823F010030B6051F8203C43F03B
:103F3000100341F8203C044B1A60704720A40D4048
:103F400020C40D4000A30D4040C00D4000F002020F
:103F500002F0FF010B4B12B1FF221A6000E0196062
:103F600000F0040202F0FF01074B12B1FF221A60B9
:103F700000E0196010F00100044B1ABFFF221A6024
:103F80001860704700A20D4000A10D4040C00D40D8
:103F9000044B1868C0F30720030904BF1030C0B2F7
:103FA000704700BF1C300D40054B1868C0F3C210AD
:103FB00001289ABFC0F1020040034FF4004070474F
:103FC00014300D402DE9F04788B0FFF7E1FF174BA3
:103FD00048251C68AB68074698476B688046984739
:103FE0000546FFF7E1FF064600F0C6FA814600F0FD
:103FF000CFFA824600F07CFAB60A04F00103AD0A5B
:10400000C4F3400406900393CDF814A0CDF81090AB
:1040100002940196009507F00F03C7F3071241467B
:10402000034801F0B9F908B0BDE8F0871C300D4035
:1040300060E72000F8B500F083F80F4B0024D3E9C7
:1040400000673A46B04238BF7A1C15460443C3E9BC
:104050000045DFF828E0DEE90001821B61EB070381
:1040600012196B41CEE9002301F0B4FE18B1BDE88E
:10407000F84001F033BEF8BD184200202042002075
:104080000F4B104A1A6053F8042C42F0050243F813
:10409000042C53F8042C42F0020243F8042C0A4A80
:1040A000136843F001031360084B00221A600422D6
:1040B00043F80C2C012243F8082C0F22DA627047D7
:1040C00014E000E047E8010008200D400C00034028
:1040D000034BD3E90023100A40EA0360704700BF96
:1040E00018420020034BD3E90023D00B40EA4340A1
:1040F000704700BF20420020054B18601C3B1A6827
:1041000042F001021A601A68D207FCD4704700BF5F
:104110002800034010B5064C236823F001032360F8
:10412000FFF788FF236843F00103236010BD00BF41
:1041300010E000E0014B1868704700BF704200209B
:10414000074B084A196804331B681268120442EAD4
:104150000323054A0B43106843EA0060704700BF21
:1041600040500D4048500D404C500D4010B5044695
:10417000114A1368DB07FCD508F00BFEFFF7E0FFE0
:10418000231A062BD8BFC41D0C4B220E1A60C4F391
:10419000074243F8042CC4F3072243F8082CE2B288
:1041A00043F80C2C08F0F1FD054B91201C60BDE894
:1041B000104000F06BB900BF50500D404C500D4006
:1041C0007042002008B501F001F8064B0022912052
:1041D0001A6000F077F9912000F066F9BDE8084018
:1041E00001F048BF70420020064B1B681B075FBFF1
:1041F000054B186880F00800C0F3C00048BF0020DD
:10420000704700BF18C0004018D00040164A2C2349
:1042100003FB00234FF6BF7270B5DC680546236CC4
:1042200062649BB213F050020DD0104EA369DB06FE
:1042300008D456F825301BB12068C0B29847F5E77E
:104240002368F3E770BD13F4D06F0BD04FF44073C5
:104250002363FF236360E36AE262E362236B43F05C
:104260000103236370BD00BF10E5200074420020ED
:1042700001282DE9F74F064600F2B2802C25454370
:10428000594F7C1994F92080B8F1000FC0F2A88032
:1042900094F92290B9F1000FC0F2A280534801F0C6
:1042A0000BF8534A7B591168E5680B43136051685A
:1042B000636894F921A00B4353609168A3685FFA87
:1042C00089FB0B4393600023C5F8C83F23690AEBC1
:1042D000C8021A6094F92330227D00939DF80030C3
:1042E00058461946019300F0C7F9019B0822194668
:1042F000584600F0B7F93F4A4FEA0939009959F892
:104300000200012303FA01F1014349F802104FEAC8
:10431000083858F8020003FA0AF1014348F802107D
:104320005021A963A96B94F9240041F4D061A963D9
:10433000022169634FF440712963A1690028696211
:10434000E169A9624FF07001E962154616DB94F944
:104350002510A2F5A64241EAC0041C3A14600403E9
:1043600062598B40134363510022C9B2C0B200F0BE
:1043700079F9214A136843F4004313602C2303FBAB
:10438000067393F92640002C1BDB93F927A05FFAF4
:1043900084F85FFA8AF9012249464046240300F076
:1043A0006BF96259012303FA0AF31343635108229C
:1043B0004946404600F056F90F4A136843F48043DB
:1043C00013602C2303FB0676F26896F82800136B23
:1043D00043F00103136303B0BDE8F04F00F056B89B
:1043E00003B0BDE8F08F00BF10E52000E9412000D8
:1043F00028200D4020940D4030D0004001289CBF63
:10440000014B43F82010704774420020012808D85F
:10441000044B2C2202FB0030C3689A699206FCD43C
:104420001960704710E52000014B00221A607047A8
:1044300000500D40014B08221A60704700500D409B
:10444000024BA0221A6050221A60704700500D40A3
:10445000074A084B1A60084B80321A60074B8032BB
:104460001A60074B80321A60064B074A1A60704781
:1044700000E100E0884200207C42002080420020D1
:104480008442002008ED00E000202000054B410997
:104490001A6800F01F00012303FA00F042F821001F
:1044A000704700BF88420020054B41091A6800F0A0
:1044B0001F00012303FA00F042F82100704700BFFB
:1044C0007C420020054B41091A6800F01F000123BF
:1044D00003FA00F042F82100704700BF8442002038
:1044E000024B1868C0F38150704700BF04200D4094
:1044F00008B5FFF7F5FF024B53F8200008BD00BFD9
:1045000068E5200038B5164D164C2B68012223F0C3
:1045100040032B602368062123F04003236003201F
:1045200000F0A0F82B68012223F080032B602368A1
:10453000072123F080032360032000F093F80A4A48
:104540000A4B0B491A600A680A4B1340084A002BB1
:10455000F9D113685901FCD413685B01FCD538BD4F
:1045600020C40D4000C40D400101020000200D4098
:1045700004200D4000000101034B04481B6803F0B8
:1045800007031841704700BF04200D400048E801B0
:10459000034B04481B68C3F302231841704700BF54
:1045A00004200D400048E801024B02EBC10243F831
:1045B000220070478C420020F8B507460E46094D90
:1045C000002405EB411547FA04F3DB07E1B204D5FB
:1045D00055F824300BB1304698470134082CF2D1FD
:1045E000F8BD00BF8C4200202DE9F04780464FEA1D
:1045F0000837DFF8409007F1804505F5592500F0B0
:10460000E5FDD5F8186457F809304FEAC80A23FACF
:104610000AF446EA0400E4B24146C0B2F6B204FA33
:104620000AF4FFF7C9FFC5F81C6447F80940BDE864
:10463000F08700BF18970D4080220021014808F044
:1046400043BA00BF8C420020034A044B1A60044B5B
:10465000803A1A60704700BF80400D401043002030
:104660000C430020034B01EBC0011B6843F82120E1
:10467000704700BF10430020034B01EBC0011B68D3
:1046800043F82120704700BF0C430020024A136802
:1046900043F030031360704700700D400E2870B572
:1046A0000BD1154B154E1C6844F002051D60356892
:1046B00025F03F0343F001033360114E336823F0CC
:1046C000FF031A43114301430E4A316013681B066E
:1046D000FCD50D4B0D4A1B6812680E2803F0FC0335
:1046E00043EA022308BF054A1BB204BF1560024A11
:1046F000184608BF146070BD34000144F4860840B9
:1047000008700D4000700D400C700D4010700D4091
:10471000024B1868B0FA80F04009704700B70840B3
:1047200010B58F20064CFFF7CDFE8F20FFF7BCFEA3
:10473000206818B101F092FC0023236010BD00BF77
:1047400014430020064A136843F0020313605368C1
:1047500043F002035360936843F002039360704791
:1047600048200D4007B50C4800F0A6FDFFF7EAFF12
:104770000A4B1A6842F002021A6000220192019A62
:104780000F2A02DC019A0132F8E71A6822F00202CD
:104790001A6003B05DF804FB1147200054200D405F
:1047A000064A136823F002031360536823F00203E0
:1047B0005360936823F002039360704748200D40D4
:1047C000084B93F90020002A09DB074AED2111600C
:1047D0001160E32111601A7862F07F021A700120E3
:1047E000704700BFEA5E0020388808400C4A136812
:1047F0009907FCD40A4B1B685B065FBF094BED228F
:104800001A601A60084B1B6813B1064BEF221A603E
:10481000064A0120137803F07F031370704700BF2E
:104820004C860840388808402C860840EA5E002004
:1048300038B5A0F10B04E3B20F2B054613D80B4B90
:104840001B6813F03F0302D0FFF7D0FF012304EBF6
:104850008404074A0B3414600BB1FFF7B1FF054B1A
:1048600068B21D7038BD4FF0FF3038BD4886084033
:104870003C8608401342002010B50B4B1B6899067C
:1048800003D1FFF79DFF012300E0002307490A68D9
:10489000D207FCD5064A1468C4F300140BB1FFF725
:1048A000A5FF204610BD00BF48860840648608402A
:1048B0004C860840044B186800F02200A0F1200349
:1048C00058425841704700BF4C860840024B186858
:1048D00000F04000704700BF4C86084038B50C46D9
:1048E000002900F08880102800F28780DFE800F0BF
:1048F000090F1A1C23394254596F738585787A7CC5
:104900007F003F4B1B68003318BF012370E03D4B15
:1049100005221B6803F07F030B3B93FBF2F30B3381
:10492000DBB265E0384B00E0384B1A68043B1B688B
:1049300043EA02235CE000230B60354B354A1B68D9
:1049400003F001030B601268900644BF43F00203BA
:104950000B60314B1B78002B4BD00B6843F00403EA
:1049600046E02E4B00201B780860002B41D001232D
:104970000B6038BD2A4B2B491A680023D2B201EBD9
:10498000C3000079904203D8264A52F833302FE012
:1049900001330E2BF3D127E0234B1B685BB2493B5D
:1049A00026E0224B1B68990603D1FFF709FF01237C
:1049B00000E000231E490A68D207FCD51D4A15688D
:1049C000493D6DB20BB1FFF711FF256011E01A4BA5
:1049D00093F900300CE0194B1B7803F07F0307E0DC
:1049E0000B2305E01A2303E06FF0170300E0072311
:1049F0002360002038BD022038BD012038BD00BF33
:104A00002C8608403C860840CC850840D485084068
:104A10000086084024860840E95E002012420020FB
:104A20004086084078E520005886084048860840BF
:104A30006486084060860840E85E0020E75E00204B
:104A400038B505460C46134A13689B07FCD4124B35
:104A500093F90030002B01DBFFF7B2FE0F4BEE2283
:104A60001A60691E1A60A21C43F8102C214402200F
:104A700000F038FB013C0A4924012143022000F0E8
:104A800043FB022000F04AFB022000F05FFB002005
:104A900038BD00BF4C860840EA5E002038880840D8
:104AA00002C001C0F8B5214B93F90030002B0DDB9B
:104AB000FFF746FB0546FFF783FE6FF00904641B12
:104AC000FFF73EFBC442FBD4012600E00026184B52
:104AD0001B7823B9174D2B68990604D405E0FFF71E
:104AE000CBFE0028F6D10220F8BD134CE923236049
:104AF00004272B689A0707D4013F17F0FF0703D05C
:104B00000620FFF7F9FAF4E72B689B0704D4EE239D
:104B100023602360012403E02C6814F00204FBD11D
:104B20000EB1FFF763FE2046F8BD00BFEA5E00202D
:104B3000124200204C860840388808400B280DD1CE
:104B4000082A0DD161B1074B074A083111F8010D50
:104B500043F8040F9342F9D10020704701207047B9
:104B600002207047A4850840C485084070B52F4DC9
:104B70002B6813F0400308D02D4E3368DCB21B06BF
:104B800005D52C4BED221A601A60002070BD042C54
:104B9000F7D9023C8C42F4DCE4B2032C21D0011999
:104BA0000139032000F0A6FA631E23491B011943B3
:104BB000032000F0A9FA032000F0B0FA032000F06F
:104BC000C5FA032000F0CEFA0028FAD131681B4B59
:104BD000493949B219703368194E18063370D0D567
:104BE00006E0336803703368437033688370EDE721
:104BF00089B2042006F0EEFC3178032001F07F0139
:104C000006F0E8FC0F4B1B7873B92B685A060BD5DE
:104C1000064B1B681B0603D50B4801F01FFA03E087
:104C2000044BED221A601A60204670BD4C86084085
:104C3000288808403888084002C0010CE85E00203F
:104C4000E75E0020E95E0020604000201E4B1870E7
:104C5000002831D01D4A13681B03FCD51C4B1A6871
:104C600042F002021A601A6842F001021A601A68E1
:104C700017495007FBD50A6822F001020A6019683B
:104C8000134A4907FBD4116841F002011160116811
:104C900041F0010111601A685207FCD50D4A8D20C0
:104CA000136823F00403136002F5D472136823F031
:104CB00004031360FFF7F8BB064A8D20136843F026
:104CC00004031360FFF7E2BBE95E002004200D40FF
:104CD000048808408C86084010B50C46072861D827
:104CE000DFE800F0040E181C233F455B012902D1C8
:104CF000FFF766FD4BE0002958D1FFF777FD46E04E
:104D0000A1F10B030F2B51D8C8B2FFF791FD013071
:104D10003DD149E08CB2E2B2254B02E08CB2254B8A
:104D2000E2B2240A1A605C6031E031F007033DD141
:104D3000214B11F0010F1A68C1F3800014BF42F03B
:104D4000010222F001021A601C4B11F0020F1A68D6
:104D500014BF42F0200222F020021A60FFF776FF13
:104D600015E031F0010021D1154B197010BD01F192
:104D700018031F2B1AD813490D2351F83300DA00FA
:104D8000844206DC0F4B13441A790F4B1A60002043
:104D900010BD13F1FF33F0D2F9E7CCB20B4B49341D
:104DA0001C60F4E7012010BD032010BD022010BDDF
:104DB000C8850840D0850840008608402486084001
:104DC0001242002078E520004086084058860840BE
:104DD000F8B5294F3D7815F001054AD1274B01243C
:104DE0001C605C609C60A3F59323A3F51473F82208
:104DF0001A600922C3F89021152270331A6003F556
:104E00009B230B2203F59E731A60A3F59B23A3F546
:104E1000F07340221A601A687F2642F020021A605E
:104E2000D52243F81C5CDE62DA61154B1878FFF777
:104E3000FFFC144B8E201E60FFF728FB022000F0C1
:104E400079F91149022000F055F9032000F072F9B8
:104E50000D49032000F046F90C4B1878FFF7F6FED9
:104E600029460B4801F0E2F83B78204623433B708B
:104E7000F8BD0020F8BD00BFEA5E0020A8200D406C
:104E8000134200209486084028880840E95E0020EC
:104E90006040002038B503880446CBB140F203429D
:104EA000934203D000230380032038BD194B1878A8
:104EB0001A4628B11B7873B1174B1B7858060AD5D0
:104EC000822908D1137843B1134B1A78520614D4AF
:104ED00040F203432380012038BD06F021FB06F099
:104EE000B5FA8021FFF742FE0028EDDD80B206F022
:104EF00091FA0A4B1B699847E6E700221A70084BA3
:104F00001D68FFF773FCFFF763FFAB06E0D0FFF708
:104F100057FCDDE7E95E0020EA5E002074E6200031
:104F2000488608400B282DE9F84F0E4610D1082A74
:104F300040F0828000297FD0414B424A4E1E53F8F8
:104F4000041D934206F8011FF9D10020BDE8F88F37
:104F50000C286ED1042A6FD100296DD03A4B3B4802
:104F60001A68DFF8F8C022F007021A600268DFF85A
:104F7000F0A042F008020260DAF80040DCF800100D
:104F80001A68DFF8E0E022F07002314F1A60DEF8B4
:104F900000203D68E4B2090244EA056401F47F415F
:104FA0001204214302F47F020A432A490024D1F863
:104FB00000805FFA88F544EA02081A68A94622F0E0
:104FC000070242F001021A60026842F00802026021
:104FD000DAF80000DCF800201D68C0B225F070058A
:104FE00045F010051D60DEF800303D68120240EA11
:104FF000056002F47F421B04024303F47F03134362
:105000000A6844EA030A5FFA82FBFFF799F8B8EBF3
:105010000A0869EB0B094FEAC93105460E4A00231D
:105020004FEAC83041EA584107F0B2FA281A306016
:105030008BE70120BDE8F88F0220BDE8F88F00BFA4
:10504000C8850840A88508401088084004880840A2
:10505000208808401C8808400048E801188808405B
:10506000148808402488084008B5054B1B7813B9FC
:10507000044800F0F3FF044B00221A6008BD00BF93
:10508000E95E00206040002034880840064B074855
:105090001A68042A1FBF06490A7842F040020A70C3
:1050A00000221A6000F0DABF2C880840604000201F
:1050B000EA5E002010B5094C40220021204607F08E
:1050C00003FD074B01221A602E205C60FFF7DEF91A
:1050D000BDE810402F20FFF7D9B900BF00400020E5
:1050E00004F00F4003289EBF014B00011950704788
:1050F0000040002003289EBF024B03EB00104160DC
:10510000704700BF0040002003289EBF024B03EB06
:1051100000108160704700BF00400020032806D8BF
:10512000034901220B6802FA00F018430860704737
:1051300028F00F40032806D8034901220B6802FA21
:1051400000F018430860704720F00F40032806D88D
:10515000034901220B6802FA00F018430860704707
:1051600014F00F4003289FBF044B03EB001080682E
:1051700000F0070088BF0020704700BF00400020FB
:10518000024B4FF0FF321A60704700BF04F50F402A
:10519000014B01221A6070474CF00F40094A136816
:1051A000084913F4801FFAD1074B1A6822F48032A1
:1051B0001A600A68D203FCD41A6842F400321A60FA
:1051C000704700BF04200D4000200D4010B50B4B70
:1051D0001A681C4612F0030F0ED009490B68084AE2
:1051E00013F0806FFAD113685B01FCD5FEF792FFD4
:1051F000FFF7D4FF0023236010BD00BF58200D40EF
:1052000004200D4038B5264B1C6814F03F0413D120
:10521000244D55F8243023B1984768B10134052C4A
:10522000F7D1214D2B783BB1FEF784FF0446FEF702
:1052300087FF201A092801D830BF38BD002CFBD0C9
:105240001A4B1B481A6822F400321A600268184987
:1052500012F4801FFAD11A6842F480321A600B6887
:10526000DB03FCD5FEF76CFF201A092803D8BDE844
:105270003840FFF793BF63280E4C02D92B78022BDE
:1052800000D00123236000F09FFE20B1FFF786FFCE
:105290000023236038BDFEF74DFF0028CCD1F5E791
:1052A0004886084018430020EB5E002000200D4097
:1052B00004200D4058200D400749002351F82320B9
:1052C000824207D01AB9044A42F8230070470133DA
:1052D000052BF3D1704700BF18430020054B002277
:1052E0001A60054A136843F004031360034B02225B
:1052F0001A70704758200D4010ED00E0EB5E002062
:1053000010B59020064CFFF7DDF89020FFF7CCF8A1
:10531000206818B100F0A2FE0023236010BD00BF7A
:105320002C43002030B5184B1A78431E22B101F5EA
:1053300020112731154A1FE0154A1278122AF6D19A
:10534000144A12784B2AF2D14A0802F12814B4F117
:10535000281F04D014F8015D03F8015FF7E701F599
:105360002011273100231044934204DA11F8014937
:10537000C4540133F8E730BD914204D011F801095B
:1053800003F8010FF8E730BD2B00280027002800A4
:105390002A002800290028000FB407B504AA52F8F3
:1053A000041B0448019200F035F803B05DF804EBEB
:1053B00004B07047704000201FB51446074A8DE8BE
:1053C0000300029221461A4602A8CDF80CD000F044
:1053D00021F8009B00221A7004B010BD93CE20006B
:1053E00070B505460C46102C07D92B6810220849C9
:1053F0006868984750B9103CF5E734B12B682246ED
:1054000068680349BDE870401847204670BD00BF7A
:1054100080E820002DE9F04F064615468FB0069132
:105420004FF0000B069B1B78CBB1069C274617F864
:10543000013B1BB1252B14D03C46F7E7069BA3424A
:105440000DD0069B0699C3EB04084246336870688A
:105450009847002840F01F832378C34423B9584657
:1054600034E3069BA342ECD16378002BF7D0394696
:105470000024084610F8013B0A462B2B11D006D811
:10548000202B11D0232B12D144F0080416E02D2B31
:1054900004D0302B0BD144F010040FE044F0010491
:1054A0000CE044F0060409E044F0020406E0A3F135
:1054B0003107082F11D84FF0000801E00146D8E766
:1054C0000A4611F8013BA3F13000092813D80A223B
:1054D00002FB0838A8F13008F2E72A2B09D12B6823
:1054E0000246002B05F10405B8BF44F001049846BC
:1054F00001E04FF0000813782E2B1AD15178531C7D
:10550000A1F1300009280ED8194600270A780B4669
:10551000A2F13000092801F101010DD80A2303FB93
:105520000727303FF2E72A2904D12F68931C04355E
:1055300002E013464FF0FF371A786C2A09D15A78E7
:105540006C2A02D144F080040AE0013344F0600484
:105550000BE0682A09D15A78682A03D144F0200464
:10556000023302E0013344F040041A78642A3CD04C
:105570001FD8462A48D00DD8252A5AD003D8002A49
:105580003FF46DAF57E0412A4AD0452A53D144F445
:10559000424450E0582A31D004D8472A4BD144F431
:1055A000A13448E0612A38D0632A44D144F4A0648D
:1055B00041E06E2A3AD007D8662A22D027D3672A3C
:1055C00028D0692A11D036E0732A2CD006D86F2A49
:1055D00011D0702A2FD144F440742CE0752A07D0E2
:1055E000782A28D144F4C85425E044F4245422E015
:1055F00044F410641FE044F488541CE044F4B244C2
:1056000019E044F4007416E044F4844413E044F4D4
:10561000024410E044F481340DE044F4C1340AE063
:1056200044F4E13407E044F4806404E044F4E064CA
:1056300001E044F4C0640133069304F4E063B3F57D
:10564000806F00F08F8113D8B3F5807F27D0B3F53A
:10565000407F7FF4E7AEAE4B14F4804FAD4A18BFE5
:105660001A460DF133032868002104351F46B5E1C1
:10567000B3F5C06F08D0B3F5E06F00F02282B3F548
:10568000A06F7FF4CFAEF2E133680122A2497068C7
:105690009847002840F0FF810BF1010BC2E6002F74
:1056A000ACBF24F01004012714F40053079304F056
:1056B000E0032ED0402B12D005D8ABB1202B21D146
:1056C00095F900200DE0602B0ED0802B1AD1073504
:1056D00025F0070303F10805D3E9002307E0B5F936
:1056E0000020D317043502E02A680435D317002AB6
:1056F00073F1000108DA524263EB4303CDE9002362
:10570000012304E000220023CDE9002300230593B8
:1057100029E0402B13D004D8BBB1202B1DD12A780F
:105720000EE0602B11D0802B17D1073525F0070331
:1057300003F10805D3E90023CDE900230BE02A8813
:105740000023CDE90023043505E02B68002219462B
:10575000CDE900120435079BD9E700230593002209
:105760000023CDE9002304F4C053B3F5805F0CD0CF
:10577000B3F5C05F33D0B3F5006F4FD1DDE900233F
:105780000DF13609CDE9022304E0DDE900230DF136
:10579000360915E0DDE9022313433AD0DDE90201C1
:1057A0000A22002306F0F4FEDDE90201303209F896
:1057B000012D00230A2206F0EBFECDE90201E9E704
:1057C00052EA030125D002F00701303109F8011D2A
:1057D000D10841EA4371D8080A460346F0E74C4B2A
:1057E00014F4804F0DF136094A4918BF1946DDE916
:1057F000002352EA03000CD002F00F00085C4FEACD
:10580000131E09F8010D100940EA037002467346A1
:10581000EFE70DF13603C9EB030302E00DF13609A2
:1058200000230293029B41F60802BB4238BFFF1AD5
:1058300041F2080302EA040228BF00279A4202D17B
:10584000002F08BF012741F60801029B8A4203EBA3
:1058500007000DD1DDE90023134309D02F4A304959
:1058600014F4804F4FF0020A0CBF0B46134602E0BF
:105870004FF0000A5346079A9AB1059A52B904F0BC
:105880000602022A0AD0062A264A04BF4FF0010A5D
:10589000134606E04FF0010A234B02E0234B4FF082
:1058A000010A0AEB000290458CBFC2EB08084FF0DA
:1058B000000814F0010200920DD1E10602D5474420
:1058C000904608E0414630460593FFF789FD059B69
:1058D000002840F0E080BAF1000F07D0346852464B
:1058E00019467068A047002840F0D580029B03EB62
:1058F0000B04BB46BBF1100F33681BD910220C49B7
:1059000070689847002840F0C680ABF1100BF1E7B3
:105910004BE820005CE820007EE8200070E82000D2
:105920006DE8200075E8200073E820003BE72000C8
:1059300090E82000BBF1000F06D05A466549706818
:105940009847002840F0A7803368029A494670685B
:1059500054449847002840F09E80009B3C44002B14
:1059600039D032E0D5F800900435B9F1000F0AD0F3
:10597000CA469AF800300AF101020BB19246F8E7E4
:10598000C9EB0A0A03E0DFF850914FF0060A002F36
:1059900002DBBA4528BFBA46D0458CBFCAEB08081F
:1059A0004FF0000814F0010705D141463046FFF7DB
:1059B00017FD00286FD133685246494670689847F2
:1059C000002868D10AEB0B042FB141463046FFF79F
:1059D00007FD00285FD108EB040B23E550EA010E18
:1059E0000ED000F00F0E12F80EE04FEA111C03F873
:1059F00001ED4FEA101E4EEA017E70466146EDE76A
:105A0000FF1A02BF3022012703F8012C07F1030718
:105A100008BF03F1FF337822B84503F8012C4FF09B
:105A2000300203F8022C88BFC7EB08084FF02302AE
:105A300098BF4FF0000814F00104A3F1030903F824
:105A4000032C04D141463046FFF7CAFC18BB33682B
:105A50003A46494670689847E8B95F4424B14146E0
:105A60003046FFF7BDFCB0B908EB070BDAE4B8F13C
:105A7000010F2B688CBF08F1FF384FF0000814F0BD
:105A8000010405F104058DF8203008D14146304667
:105A9000FFF7A6FC10B14FF0FF3017E0C3443368A6
:105AA000012208A9706898470028F4D108F101077D
:105AB0002CB141463046FFF793FC0028EBD1BB44A4
:105AC000B0E42B680435C3F800B0ABE40FB0BDE818
:105AD000F08F00BF90E8200077E82000F8B5038839
:105AE000064615462BB14A2B15D000230380032010
:105AF000F8BD174807F04EFA04462CB1A168201DE6
:105B000007F0FAF92468F8E7124B01221A704A23C9
:105B100033800120F8BD8829FBD10D4807F03AFAFF
:105B20000446002CF3D0231D9D420ED12146084887
:105B300007F03AFA084B62691F681A60A2691D46AD
:105B40000AB1E06990472F60E1E72468E9E700BF08
:105B500030430020EC5E00203C43002010B5064B93
:105B6000002406481C7007F012FA2146BDE81040D8
:105B7000034800F05BBA00BFEC5E00203043002019
:105B80007840002070B50446E3610B4B049D1B7800
:105B90006561A26143B1094D094B2E68201D2B6040
:105BA00007F0AAF92E6000E0A1602146BDE8704030
:105BB000044807F00CBA00BFEC5E00203C43002014
:105BC000784000203043002013B5034C2468009433
:105BD000FFF7D8FF02B010BD3C43002070B5094B61
:105BE00005461B783BB1084C084B266804302360FF
:105BF00007F08BF926602946BDE87040044807F09D
:105C0000E6B900BFEC5E00203C4300207840002055
:105C10003043002070B5094B05461B783BB1084C5A
:105C2000084B26680430236007F078F9266029467F
:105C3000BDE87040044807F0CAB900BFEC5E002020
:105C40003C430020784000203043002010B5084B32
:105C500004461B781BB1043000F0C4F801E0C360B7
:105C600003612146BDE81040024807F09DB900BF1E
:105C7000EC5E00203043002010B50446FEF732FAF7
:105C800094E80C001344C01A024B98428CBF0020C9
:105C9000012010BDFEFFFF7F10B50E4C236813B925
:105CA0000D4A136010BDFEF713FA216891E80C004D
:105CB0001A44131A8A6842B192E812002144091A60
:105CC0008B4228BF0B469268F5E71844024B1860D8
:105CD00010BD00BF3443002038430020014800F0CD
:105CE000BDB900BF884000202DE9F8430388054670
:105CF00033B1592B0BD0002303800320BDE8F88378
:105D0000234A136059232B800120BDE8F88387299B
:105D100024D08229F6D11E4F4FF00008B9463C68C6
:105D20000026002CEED0204607F023F998B1224639
:105D30008821E06800F052F958B9E060A3680EB11C
:105D4000B36001E0C9F80030C4F80880FFF7A4FF91
:105D5000E5E7FFF7C3FF2646A468E2E70C49002009
:105D60000B681BB90028CDD00B60CBE7DC68A242E2
:105D700002D19B680120F4E700B10B60996800290B
:105D8000C0D0C86882420ABF89680B469960F5E7AF
:105D90003443002010B50446FFF7A0FFE3680B4A28
:105DA0004BB113683BB1A34203D1094A1268DA60D0
:105DB00007E09B68F6E7064B1B68E3601368146016
:105DC000A360BDE81040FFF767BF00BF3443002069
:105DD0003C430020024B1868003018BF0120704778
:105DE0003443002010B50B4A04461368834206D1A1
:105DF0008368136008E09A68944203D01346002B2E
:105E0000F9D103E0A2689A60FFF746FF0023A36080
:105E1000E36010BD3443002038B5836804460D4666
:105E20009BB10A4804600220A07304F10C0098475B
:105E30000238012801D9832D05D121462046BDE82D
:105E4000384000F005B80123A37338BD3C4300205F
:105E50002DE9F8431C4A0446156889462B469046AE
:105E60001A4E3768A34204D00BB11B68FAE7BDE8AD
:105E7000F88334B3A37BABB10023A37345B1A54230
:105E800004D022468721284607F059F82D68F5E707
:105E9000A3683BB14C4505D034602A46832104F108
:105EA0000C009847D8F800309C4203D12268064B7A
:105EB00005E0134623B11A689442FAD122681A60A9
:105EC0003760BDE8F88300BF404300203C4300201A
:105ED000002370B51D46094A01261370084A14684C
:105EE00054B1E37B33B1A673E573002282212046CF
:105EF000FFF792FF2468F3E770BD00BFEF5E00205C
:105F000040430020024B1878421C1A70704700BFB3
:105F1000F05E0020064B8A221A70064A0023137096
:105F2000054A1370054A1360054A1360704700BFA5
:105F3000F05E0020ED5E0020EE5E00204043002079
:105F40003C4300202DE9F0411A4D2B780BB1FFF7AF
:105F5000BFFF194C22783AB3184E0C213378184FF2
:105F60005943781817F8018001334768806803F0B7
:105F70001F03013A3370227068B9124B1E689EB13C
:105F80002B780BB1FFF7A4FF30463A46414606F0A6
:105F9000D6FF3668F3E7B8F1810F04BF012383739E
:105FA0003A46414606F0CBFF2B7820781844BDE8EE
:105FB000F08100BFEF5E0020EE5E0020ED5E00206D
:105FC0004443002040430020024A034B10781B78D2
:105FD00018447047EE5E0020EF5E0020F0B50B4ED7
:105FE0003378202B0FD00A4C0C252478094F1C4401
:105FF00004F01F046C4301333D19A86039556A60F1
:1060000033700020F0BD0120F0BD00BFEE5E002027
:10601000ED5E00204443002038B5034C256806F0AF
:106020008EFF256038BD00BF3C43002030B40A4CD1
:106030000A4625682B4683420CD00BB11B68FAE751
:1060400040B101210560817320608381812130BCD2
:10605000FFF7E2BF30BC70474043002038B1837B7C
:10606000013B012B9FBF024A0123C373137070478A
:10607000EF5E002010B5084C206858B10023236063
:10608000816843689847236823B1BDE810401868C9
:10609000FEF76CB810BD00BFC444002070B5058881
:1060A0000446672D09D0792D30D0002D34D1FFF76B
:1060B00029FF1C4B18701C4B1D601B4D2E461B48A6
:1060C00007F014F8431C01D167231DE00A28164A83
:1060D00007D02B687E2BF2DC5A1C3260144AD05455
:1060E000EDE713680025591C1160114A2846D55464
:1060F0000C4B1978FFF772FF0E4B2A468521186862
:10610000FFF76CFF20B97923238009E0852907D1A7
:10611000054B00221A60D0E700230380032070BDE6
:10612000012070BD28740020D0440020C844002005
:10613000725F00203C4300200D2810B5014615D0A9
:106140000B4C23782BB90B4806F0BDFF48B901234F
:1061500006E00A2805D1074806F0B5FF08B100237C
:1061600023700548FFF77AFF012010BD002010BD05
:10617000715F0020C84400209840002008B5054900
:106180000548802206F098FFBDE80840002103483A
:10619000FFF74CBFF15E0020C8440020984000206B
:1061A0002DE9F04106880546772E31D07E2E40D06D
:1061B000002E4ED12B4CFFF7A5FE266026462A4B1B
:1061C0002A4FDFF8B0801870236857F823204AB1AF
:1061D000002108F803109368802098473368013342
:1061E0003360F1E7224A1370772320E0214AD25628
:1061F000002A12DB1B4A136801331360194B1C4A37
:106200001B6812789A42F1DC1B4B1B68002BEBD009
:10621000194A00231360134AEFE7144A002052F88A
:106220002320114B1978FFF7D9FE30B97E232B803C
:1062300014E00D4B1B788B4210D10A4B0D491A68A4
:106240008B5C03F07F038B540B4A1368013313609C
:10625000D0E7002303800320BDE8F0810120BDE8E2
:10626000F08100BFD8440020297400205040002055
:10627000F25F002024740020D444002010B40A4BA4
:106280000A491A780023934203DA51F82340A042C6
:1062900008D107490748CA5C62F07F02CA5410BCA3
:1062A000FFF7DCBE0133EEE7F25F00205040002034
:1062B00024740020A8400020054A136843F004031A
:1062C0001360044B1B68906943EA002080B270475A
:1062D00000700D4014700D4010B5184A136823F07B
:1062E0000C031360164B01221A601A68012AFCD1B4
:1062F000144B08221A60E322C3F8142203F5057335
:106300001946114A1368DB07FCD5104C10200023F6
:106310002268013802F0010243EA02034FEA430314
:106320009BB2F5D1002BF1D0094A180A03F0FE0305
:1063300010601360EF230B6010BD00BF00700D40B4
:10634000A8200D4024860840648608409C860840AA
:1063500014700D402DE9FF47224C234D04F1080332
:106360000FCB8DE80F002B786F4694F80780BBB1F8
:106370001E493A22A2710A88D21A92B20A80A2F168
:1063800028010812207103F128002044C3F10403FE
:1063900061712C3A011D184406F032FB00232B706A
:1063A000134806F0F7FD0646DFF840A09EB1D6F888
:1063B0000490B9F1000F09D0BAF800302A782C3BCC
:1063C00022449BB2383241463846C847304606F030
:1063D0001AFE0646EAE7054B2E701E8004B0BDE8A3
:1063E000F08700BF186A002015600020046A0020B2
:1063F000DC440020F8B52C4B2C4C1B7904F118061A
:10640000E371237E04F10805FF2B08D195E80F0006
:1064100086E80F003146284600F0DCFA1BE02F46E4
:10642000B646234A3B4603CB7345106051601F4676
:1064300002F10802F6D196E80F0085E80F001C4B28
:106440001C4D03F110062A4618685968083303C228
:10645000B3421546F7D1184D2B78BBB117493A22F4
:10646000A2710A88D21A92B20A80A2F128010812F7
:10647000207103F128002044C3F1040361712C3A18
:10648000011D184406F0BCFA00232B702B788122E2
:106490002833E518E25400236B706B8006F0A8FEE9
:1064A000C0436880F8BD00BF98680020186A0020CB
:1064B00004580020306A002015600020046A002083
:1064C00038B504460B480D4606F064FD50B103791B
:1064D000A34204D143799D4206D0FF2B04D006F09D
:1064E00092FDF3E7012038BD8368002BFAD098476E
:1064F000002038BDE04400200146014806F067BD99
:10650000E04400202DE9F74F474D82462B7889461D
:106510009346464C43B12833E35C3A2B0BD1444AB3
:10652000002313802B707CE0A3793A2B03D194F9DC
:106530002830002BF3DA3F4E04F088FB37463E4A02
:1065400006F1100E334603CB7345106051601E46B2
:1065500002F10802F6D1364EDFF8D080338841468A
:1065600030339BB2B3F5A06F88BF4FF4A063338084
:1065700032882B78D21A04EB4300303A3030019342
:1065800006F03EFA6022019B227000226270628057
:106590003A2213B188F8282001E088F80620274A1B
:1065A000224B1279E271228972B95A8962B99A89A9
:1065B00052B9DA8942B91A8A32B95A8A22B99A8A00
:1065C00012B9DB8A002BAAD01D4B0FCB87E80F0036
:1065D000194B1B78FF2B05D1BAF1040F9FD1B9F1EC
:1065E000020F9CD11449164800F0F4F92F78584650
:1065F00007F12803E21804F803A082F8019006F0DE
:1066000003FE33882C37283BE0511A1263712B7834
:10661000227128331C440023638006F0E9FDC04347
:10662000608003B0BDE8F08F15600020186A00207C
:10663000046A0020306A0020045800209868002076
:10664000206A00202DE9F0411E460F461B490546F1
:106650000C4660230B7000234B704B803A238B71E8
:10666000174B90461B7900F1100ECB71331D1A1297
:106670000A714B7101F118021346286869680835E0
:1066800003C375451A46F7D10E492C36A1F1100007
:1066900000F0A0F90C4B1B782833E518E7540023D1
:1066A0006B8085F8018006F0A3FDC043074B68802E
:1066B0001E80BDE8F04102F0BFBF00BF186A002095
:1066C00098680020306A002015600020046A0020CD
:1066D00008B50448FFF710FFBDE808400248FFF77F
:1066E0000BBF00BFB8400020C44000202DE9F3419B
:1066F000154D009104460E4690461F4601950346EF
:1067000020220321114806F001FD01282B4616D155
:106710002A6804F11001107020462A68023250F8ED
:10672000044B884242F8044BF9D11868089B8674E0
:106730004361099B80F813800777836100E00020A4
:1067400002B0BDE8F08100BFE84400209469002059
:10675000F8B507460B4B0C4D03F160062B602C6817
:10676000B4420BD2237833B1A27C3946D208A01CA4
:1067700006F09EF820B120342C60F0E70020F8BD30
:106780000120F8BD94690020E844002013B5084CAE
:10679000802300930194034620220321054806F03C
:1067A000B5FC08B9206800E0002002B010BD00BFB1
:1067B000EC440020B068002030B548F2FE040C4BD9
:1067C0000C4A03F16001136013688B420CD21D78F0
:1067D0003DB1451C02D09D7C854202D15D88A54219
:1067E00003D020331360EFE70023184630BD00BF0D
:1067F000B0680020EC44002030B548F2FE040C4B99
:106800000C4A03F16001136013688B420CD21D78AF
:106810003DB1451C02D09D7C854202D15D88A542D8
:1068200003D120331360EFE70023184630BD00BFCB
:10683000B0680020EC44002037B5104D8023009351
:10684000044603460195122205210D4806F05EFC20
:1068500001282B460ED12A6804F110011070204641
:106860002A68023250F8044B884242F8044BF9D1AE
:10687000186800E0002003B030BD00BFE4440020F1
:1068800034690020F7B5214C802300930546034668
:106890000E4617460194202203211D4806F036FCBF
:1068A000012830D12A46236805F1100118702368A9
:1068B000023352F8040B8A4243F8040BF9D12068E2
:1068C000C77416B90123037505E00023037531462B
:1068D000183006F00AFB23680E4801219974022340
:1068E0004370FF220023027043808380C3800381B2
:1068F0008372C17202736B7B4373EB89C381FFF7B1
:106900009BFF206800E0002003B0F0BDEC440020B5
:10691000B06800201458002013B5084C8023009361
:106920000194034612220521054806F0EFFB08B941
:10693000206800E0002002B010BD00BFE444002049
:106940003469002038B50546C8B10D48022200243C
:106950004270FF230122C27244808480C48004817B
:10696000847203730370EB7B43732B8AC381FFF73D
:10697000D3FF044A106008B106F0ECFB2C7038BD60
:1069800014580020E444002070B50F4C0F4B2646ED
:10699000236003F160052068A8420ED2037843B15A
:1069A000037D33B91830FFF767F910B13068FFF78E
:1069B000C9FF236820332360EDE700F0E7FABDE864
:1069C0007040034806F0A1BAEC440020B0680020F3
:1069D000F46900202DE9F84F48F2FE030A880546C5
:1069E0009A420F4623D00A78FF2A20D01C4900245F
:1069F000A04689469B461B4A0A6002F1600AD9F804
:106A00000060564517D233786BB1B37C012B0AD1A5
:106A100073885B4507D0B11C384606F0A8FB80455B
:106A20009CBF344680462036C9F80060E7E7012065
:106A3000FFF7C2FE04464CB92C806C80AC80EC8021
:106A40002C816C81AC81EC81BDE8F88FA31C1234E1
:106A500053F8042BA34245F8042BF9D1BDE8F88F75
:106A6000EC440020B068002070B5094EB0684508BD
:106A7000FFF722FC0446FFF71FFC2402B268A4B211
:106A80002044B0FBF2F302FB1300284470BD00BFAA
:106A90009868002073B52F4C01F004FB00F092F8C9
:106AA000602200212C4806F00FF80021F822204631
:106AB00006F00AF8294B20221A70294B18221A7066
:106AC0004FF4A0632360274B40262671A360FFF795
:106AD000CBFF42F21073236148F2FE03314640F2CD
:106AE000FF260025E06025751F4C2A46238065801F
:106AF0002B46A580E580204601950095FFF7F6FD21
:106B000020461A4906F02AFB294601222046FFF7B3
:106B1000B9FE4FF480732046E38126806580A5800E
:106B2000E58025816581A581FFF786FE4FF400731E
:106B3000204626806580A580E58025816581A58128
:106B4000E381FFF779FE0A480C2102B0BDE87040EE
:106B500006F0D2B99868002094690020916900205D
:106B600090690020C027090014580020106A0020F6
:106B7000F46900202DE9F84305460F480F4690467A
:106B800006F008FA0446DFF8389094B1012D04D8D5
:106B90000A4806F031FA034601E0D9F800304246CF
:106BA000394628466668B047204606F02CFA044667
:106BB000EBE7BDE8F88300BFBC4800203445002067
:106BC0003045002008B50B4806F020FA0A4806F0C8
:106BD000DEF90A4B0A49186804F02EFB094806F052
:106BE00015FA094806F0D3F9BDE80840074806F051
:106BF000CEB900BFF0400020B8450020EC40002096
:106C0000B5D12000D040002034450020BC480020F1
:106C100008B540B1044B4168186807F04CFABDE86C
:106C2000084006F0FDBA08BDEC400020014806F01F
:106C3000B1B900BFB845002008B506F0F3FA38B185
:106C4000044B0146186807F023FA003018BF0120F2
:106C500008BD00BFEC4000202DE9F0418046FFF761
:106C6000E5FF002704463E469CB194F82450AF420D
:106C70000AD8EA0804F10801404605F019FE18B9DF
:106C8000802D08D02F462646204606F08FFA04466F
:106C9000EAE76EB13446084806F07CF9844207D032
:106CA0002146054806F080F92146034806F09CF984
:106CB0002046BDE8F08100BFB845002038B5044645
:106CC00000283ED04368002B3BD001461D4806F00B
:106CD0006BF96368586806F05DF9054630B14368A2
:106CE0009C4207D0284606F08EF9F6E704F108002A
:106CF00002F036FA63682946586806F055F9636869
:106D0000586806F047F928B9636859680E4B186847
:106D100004F046FB21460D4806F09CF929460C4834
:106D200006F098F90B4A20461368013B1360FFF701
:106D30006FFF04F108010246BDE838400320FFF769
:106D400019BF38BDB8450020EC400020F0400020BD
:106D5000FC4000203045002010B5044680B140685A
:106D600070B106F017F920B14068FFF7A7FF60681F
:106D7000F7E7044B2146BDE81040186804F010BB4B
:106D800010BD00BFEC4000202DE9F84F074610462B
:106D90008946904606F046FA834610B90020BDE8C1
:106DA000F88F3846FFF758FF044660B1FFF730FF11
:106DB000014628B11022404605F07AFD002856D041
:106DC0002046FFF77BFF2B4B1A689A46102AE5D026
:106DD000294E5946306807F05BF9054668B9034605
:106DE00004225946306804F057FA05460028D5D0E9
:106DF00000236860036006F0CAF8204806F016F920
:106E000004460028CAD001461D4806F0EDF81D488A
:106E100006F00CF920B92146184806F01BF9BDE729
:106E200044600146686806F0D2F8DAF80030656020
:106E3000013329463068CAF8003004F0C7FA3B46EF
:106E400004F1080507F110062A4618685968083346
:106E500003C2B3421546F7D1002384F82490A361FE
:106E6000E3612362424639460220FFF783FE204653
:106E7000BDE8F88F30450020EC400020F0400020B5
:106E8000B8450020FC40002038B505460D4806F006
:106E900081F80446A0B1AC420ED12146094806F063
:106EA00083F82146084806F0D5F8221D1146BDE8B2
:106EB00038400120FFF75EBE204606F0A4F8E8E760
:106EC00038BD00BF34450020D040002038B505460D
:106ED000084806F05FF8044648B110222946201DF4
:106EE00005F0E6FC18B1204606F08DF8F3E72046E1
:106EF00038BD00BF34450020F8B505460F46FFF702
:106F0000E5FF044640B9134806F090F80446F0B196
:106F10000146114806F068F82B46261D05F1100EB3
:106F2000324618685968083303C273451646F7D1CC
:106F300037B1394604F1140005F0D7FF002300E013
:106F4000012323772A4629460020FFF713FE204617
:106F5000F8BD00BFD04000203445002038B50A48B5
:106F600006F018F8044600255CB1251D284601F0FE
:106F7000CDF808B1437C23B9204606F044F8044616
:106F8000F2E7284638BD00BF3445002010B50A4856
:106F900006F000F8044670B1237F43B904F11400F1
:106FA000FEF76AFE18B12046FFF76EFFEFE72046B6
:106FB00006F029F8EEE710BD3445002037B5124B36
:106FC000124D1C782B796A79C4EB032313449BB2CE
:106FD000ADF80630BDF806302022184405F108014E
:106FE00080B206F0E9F8BDF8062004F1280192B25B
:106FF000294406F0E1F810B140BA80B201E04FF642
:10700000FF7003B030BD00BF15600020186A00207B
:10701000F8B52C4F2C4D97F800E02C4C0EF1280CB5
:107020000CEB05035E780220F60020700736002185
:10703000864242DB0CEB0003EA18EB5C012B05D027
:1070400002D3632B06D014E0013033E052780232D1
:1070500010442FE001B1207003F076FDB8B13B7809
:107060002278283313441D446B7813440233237071
:1070700025E003F0C003802B04D0C02B09D0402BA7
:1070800015D102E051B1207008E001B1207001205B
:10709000F8BD01B120702B7EFF2BF8D00EEB000263
:1070A000283202210420FFF72DFA0220F8BD537880
:1070B00002331844C0B20121BAE701B120700020A8
:1070C000F8BD00BF15600020186A00201B6000207A
:1070D000F0B5C578124A0D44EDB2D57083780F0A29
:1070E0003B44DBB2937044789F425470067816702C
:1070F00005D9601CC0B2507008B901361670C9B20B
:107100008D420CDA0133DBB2054993703BB94B7801
:107110000133DBB24B7013B90B7801330B70F0BD48
:107120000C6A002010B5094C0146236803F11400D5
:10713000FFF7CEFF064A2368117819755178597503
:107140009178D2789975DA7510BD00BF3C6F002038
:107150000C6A002008B5FFF79DFCFFF7B9FA06F0AE
:107160006AF8002319460F4A22F813100133082B3E
:10717000FAD1002319460C481A183033B3F5F07FC2
:1071800082F82510F8D1094B4FF480621A80002351
:10719000194607481A182033B3F5A07F1182F9D198
:1071A00008BD00BF28710020406F00202458002037
:1071B0003C710020F0B5344A344F138801339BB240
:1071C000B3F5FA4F28BF4FF480531C0A44EA032456
:1071D000A4B20025EE1996F825E0BEF1000F02D00A
:1071E000368AA642EAD03035B5F5F07FF2D1138069
:1071F000264A002302F5F07692F8255085B1072D36
:1072000009D13BB192F8267093F82650AF4288BF5F
:10721000134600E013463032B242EDD10BB930E0F4
:107220001346022283F82520194A1C8215785982B8
:107230001D76557800F110065D769578D2789D76AA
:107240004025DA76DD8300221D8401251A755A75E2
:107250009A75DA759D8383F8272083F8265083F882
:1072600022200325102283F8245083F823201D4672
:1072700002462C4610685168083203C4B2422546C3
:10728000F7D11846F0BD00BF24580020406F002001
:1072900017600020F8B5104E3578DDB10F4F05F1BD
:1072A00027033C88A34202DB00233B8011E00C4B08
:1072B000A4F12802521B5919184605F0A1FB641BC2
:1072C000A4B23C80283C221200F8242C00F8234C65
:1072D00000233370F8BD00BF15600020046A002051
:1072E000406A0020074A002332F81310814204D17B
:1072F000044A002122F8131070470133082BF3D100
:10730000704700BF2871002004282DE9F74FA14ED7
:1073100000F06B82A049A14DA14FA24A03283C680E
:107320000D6015608A4615D194F8253003F00F03DF
:10733000032B08D1A38B002B40F064869A4B0822C4
:107340001A7000F054BD022B40F05C86002305F853
:10735000073CABE302287AD1944A00231370944A85
:1073600033801380934AD3780133DBB2D37063B98F
:1073700093780133DBB293703BB953780133DBB2BE
:10738000537013B913780133137094F8253003F058
:10739000FD02052A0DD194F826300133DBB2782B9B
:1073A00084F8263040F02E86002384F8253000F043
:1073B00029BE002B00F02686A28B7B48002A3DD0F8
:1073C00094F82620511E84F82610002A40F01A86D0
:1073D00094F82720082A04D0591E01290AD8052A22
:1073E00008D1002384F825308023037002F06CFA62
:1073F00000F00BBD042A9CBF0321914003F00F0352
:1074000094BFC9B230210132013B84F8261084F8C0
:107410002720072B00F2F685DFE813F0440308006D
:107420000A00AF04F405AF04F405AF0400223AE308
:107430000423037002F048FA00F014BD03F00F03B8
:10744000032B40F0DF850823037000F0D0BC052833
:1074500011D1594B1B681B8A002B00F0D3850C3DC2
:107460001560534A002313803B6033804E4B082243
:107470000D601A70B7E115F83C3C3C3D03F0F00399
:10748000602B40F0BF852A796B7912023188D018C1
:10749000884200F3B7852833134433802B7AFF2BBF
:1074A00000F0B085454BAA1D404F454C1A600022A4
:1074B0003A702270AA799846B2B901232370FFF777
:1074C000A7FD012800F09E8503D3022800F09685D1
:1074D0000AE03B7803F128022A44C8F800205278D9
:1074E000083303EBC2033B703648FFF74FF910B186
:1074F000DFF8CC90AEE03348FFF70EFA0028F7D162
:107500002A7E304BFF2AA3F118035FD048F2FE0019
:10751000198B81425AD01989814257D079B959893A
:1075200069B9998959B9D98949B91B8A3BB9698A15
:10753000254B21B9998A11B9DB8A002B46D0298BBA
:10754000214B79B9598B69B9998B59B9D98B49B9FB
:10755000198C39B9598C29B9998C19B9DB8CB3F5C7
:10756000807F33D03388B3F5A06F04D94FF4A06285
:107570000021022005E0EB79012B06D800221146FC
:107580000320FEF7BFFF00F039BD0F4A013BD37166
:1075900000F034BD046A0020386F0020546A0020D7
:1075A0003C6F0020086A00202C6F0020156000202E
:1075B0003871002017600020346F0020306F0020E9
:1075C00016600020306A0020186A002048F2FE038E
:1075D0002989994240F01685298B9F4B81B9598B97
:1075E00071B9998B61B9D98B51B9198C41B9598C41
:1075F00031B9998C21B9DB8CB3F5807F00F002851D
:10760000FF2A00F0FF849548FFF7A2F80246002801
:1076100040F0F8840221D4E024D9BBF13A0F74D0B1
:107620002BD9BBF13B0F00F0ED84BBF13C0F68D1CF
:1076300023789A073AD5590663D443F0400389F872
:107640000030FFF7E5FC012800F0DC8431D302288C
:1076500000F0D484D8F8000090F800B0BBF12B0FF4
:10766000DAD132E0BBF1060F00F01081BBF1110F4F
:107670006AD0BBF1000F44D104E0BBF12C0F00F045
:10768000C1843EE02378D9073BD443F0010389F855
:107690000030FFF7BDFC012800F0B484D7D23B785E
:1076A0006F4A03F128012944116008E043F0020306
:1076B000C5E73B7803F128012944C8F80010497850
:1076C000083303EBC1033B70C4E7237803F00402E3
:1076D00002F0FF01AAB943F0040389F800303B78B7
:1076E00003F128002844C27812B103F12A020AE00B
:1076F0005B4A4178106008335A4A03EBC1031370A8
:10770000A8E7421B012104203BE705F071FD4FF67D
:10771000FF73984240F076843B782833E85C01F0B0
:1077200065FF3B782833EA18E85C5178FEF7C8FE1D
:10773000012801BF00234B4A338013703388002B8C
:1077400000F0608400F05ABCFFF7A4FDEB8D85F8D3
:1077500006B073B9B5F82A80B8F1000F00F0528472
:10776000414F424D3C4B2F60B3F8289007F5A0776E
:107770000BE005F043FD4FF6FF73984240F0428462
:10778000E8E7238A2BB920342C602C68BC42F8D35C
:1077900015E09845F7D1638A0BB14B45F3D12368C7
:1077A0002BB963681BB9A3680BB9E3685BB11022FE
:1077B00021462F4805F07CF80028E4D103E00022A0
:1077C00004210120DDE633882A49303B3380002341
:1077D0000B6029490220294A08702949CAF800206B
:1077E0000A60284A138002F06FF8264B1A88002A94
:1077F00000F0088402F13003174C9BB23380283B21
:1078000019126371194B08321B6852BA2171197D24
:10781000A2850022E2851A8AE17122855A8A112105
:107820006285A17104F118050FCB85E80F00294688
:1078300004F10800FFF7CEF8134B04F13C021A6084
:1078400005F0DCFCC04380B208B1E085D0E34FF620
:10785000FF73E385CCE300BF186A0020306A002084
:10786000306F0020156000203C710020346F002034
:10787000206A00203C6F00202C6F0020486A002006
:10788000086A002038710020386F0020FFF702FDE1
:1078900085F806B005F0AFFC4FF6FF739842AF4C89
:1078A00040F0B083B4F82A90B9F1000F00F0AA8339
:1078B000B4F828B0BBF1000F00F0A483A84C04F585
:1078C000F07394F82580B8F1000F0FD0228A4A4552
:1078D0000CD1628A5A4509D110222146A148019350
:1078E00004F0E6FF019B002800F0F68030349C4253
:1078F000E7D195F8353003F03F03022B08D19A4ABF
:10790000002332F81310494550D00133082BF8D129
:1079100095F83520914B520700F17483142283F8B7
:1079200035203C223280502283F8342093F83320D3
:1079300093F8314093F82F0083F82F2093F83220EA
:1079400093F82E1093F8307083F82E20013093F8BE
:107950002D2083F82D4093F82C40C0B283F83210CC
:1079600083F8312083F82C7083F8304083F833009B
:1079700060B90131C9B283F8321039B90132D2B2DB
:1079800083F8312012B9621C83F830202B8D6A8D68
:10799000744C2A856B8504F1100594E80F0085E886
:1079A0000F0029462046FFF715F80CE30024224675
:1079B0006B4B93F8251021B9694B302404FB02343A
:1079C00013E0072909D13CB193F8260094F826105A
:1079D000884288BF1C4600E01C4601320A2A03F197
:1079E0003003E6D1002C00F00D83604B00271C60B3
:1079F000032384F8263084F82430042384F82330C9
:107A0000584B84F822700FCB84E80F00584B0120AC
:107A10001A7884F8250022765A78A08362769A78BC
:107A2000DB78A276E37695F82C3084F827702375FE
:107A300095F82D30A4F81090637595F82E30A4F8C1
:107A400012B0A37595F82F30E375FFF76BFB95F82F
:107A5000343003F0F002502A24D91A093B46053A83
:107A60009200E91891F83C00E0B1012801D10133FE
:107A700016E002280FD191F83D0004280BD191F8AF
:107A80003E2091F83F3043EA0223402B28BF402399
:107A9000E383238406E0E91891F83D1011B10B440B
:107AA0009342DEDB10222D4B83F835202B4B93F8CD
:107AB000352042F0020283F83520022283F83C2070
:107AC000042283F83D20002283F83E20402283F8E0
:107AD0003F20328060223AE2244B95F835101C603A
