:020000040020DA
:10200000607C00208D2220001BCD200019CD2000F7
:1020100019CD200019CD200019CD200000000000AE
:1020200000000000000000000000000019CD2000AA
:1020300019CD20000000000019CD2000CDCE2000D9
:10204000EFCE2000F5CE2000FBCE200001CF2000F7
:1020500000000000D3CE2000D9CE200019CD2000F2
:1020600019CD20000000000000000000000000006A
:10207000000000000000000019CD2000000000005A
:10208000000000000000000019CD200019CD200044
:1020900019CD200019CD200019CD200019CD200028
:1020A00019CD200019CD200019CD200019CD200018
:1020B00019CD200019CD200019CD200019CD200008
:1020C00019CD200019CD200019CD200019CD2000F8
:1020D00019CD2000000000000000000000000000FA
:1020E00000000000000000000000000000000000F0
:1020F00000000000000000008152200091522000EA
:1021000000000000000000000000000000000000CF
:1021100000000000000000000000000000000000BF
:1021200000000000000000000000000000000000AF
:10213000000000000000000000000000000000009F
:10214000000000000000000000000000000000008F
:10215000000000000000000000000000000000007F
:10216000000000000000000000000000000000006F
:10217000000000000000000000000000000000005F
:10218000000000000000000000000000000000004F
:10219000000000000000000000000000000000003F
:1021A000000000000000000000000000000000002F
:1021B000000000000000000000000000000000001F
:1021C000000000000000000000000000000000000F
:1021D00000000000000000000000000000000000FF
:1021E00000000000000000000000000000000000EF
:1021F00000000000000000000000000000000000DF
:1022000000000000000000000000000000000000CE
:1022100000000000000000000000000000000000BE
:1022200000000000000000000000000000000000AE
:10223000000000000000000000000000000000009E
:10224000000000000000000000000000000000008E
:10225000000000000000000000000000000000007E
:10226000000000000000000000000000000000006E
:1022700019CD2000695120008D51200021482000F7
:1022800001542000D542200019CD200008B5094B8B
:10229000FF221A600848094A4824E369121A0849CB
:1022A00098470848084AA369121A0021984701F084
:1022B000F7FCFEE7B4200D4040400020154200200E
:1022C000B4F02000184200205A74002010B50446D3
:1022D000436E9847034BE06E00221978BDE810402A
:1022E00003F0FCBE487400202DE9F04F0C4685B089
:1022F00017461E46002B00F0698191F8B0341BB1DF
:1023000001F595600AF01FFD94F8B1346BB93B7884
:10231000012E84F8B134D4F8AC3403F10103C4F8CD
:10232000AC3400F05381012500E0002594F8B73467
:102330005BBB7819AE4240F24981D4F8AC3494F8D2
:10234000B82401330132052B10F8011B05F10105FA
:10235000C4F8AC3484F8B82405D900228021204682
:10236000FFF7B4FF32E194F8B634B4F8B2E401F008
:102370007F0202FB03E2DB0184F8B6340B06A4F80B
:10238000B224D7D4012384F8B734B4F8B224B2F518
:10239000007F05D994F8B13403F0F003302B04D159
:1023A0004FF001084FF000092FE0D4F8AC340132AF
:1023B0001E449642C4F8AC64C0F0088103E102F008
:1023C000F002302A2BD094F8B904731BC0F5007AC0
:1023D0009A4528BF9A4620445246791900F2BA40DD
:1023E0000AF044FBD4F8AC3494F8B9245344524472
:1023F00084F8B924C4F8AC3455440022D1B28A45DB
:1024000002F10102FAD8AE4261D9B4F8B224D4F88C
:10241000AC340132934294F8B124D0D35DE094F807
:10242000BF26002ACFD194F8BE269AB97A5D691CDE
:102430001202581CB142A4F8BA26C4F8AC0444D223
:10244000795C02330A430235A4F8BA26C4F8AC34E6
:1024500084F8BE86B4F8BEA6BAF1010FB3D1B4F8C1
:10246000BC06B4F8BA26C5EB060B121A934528BF72
:10247000934620441FFA8BF31A46791900F2C46080
:1024800001930AF0F3FAD4F8AC24019BB4F8BA161D
:102490001D441344B4F8BC26C4F8AC345A4492B278
:1024A0009142A4F8BC260DD1631884F8BFA683F826
:1024B000C496B4F8B234023B5B1A9BB2A4F810374E
:1024C000A4F8123784F80E877DE70D467BE7B4F851
:1024D000B2240132934298D278E002F0F003502BFC
:1024E0006CD006D8302B38D0402B45D0202B6AD169
:1024F00019E0702B62D002D8602B5FD063E0902B84
:102500004FF0010247D0B02B5DD184F8992294F8A6
:10251000BB3494F8BA24032143EA0223A4F8B43468
:1025200004F2B4424CE094F8BB342BB104F2BB4249
:1025300082212046FFF7CAFEE18A012384F89932FE
:10254000244A2346C90104F1180003F0BDFB082307
:10255000002284F86030114632E004F2BA43C4F835
:10256000083794F8B9342046A4F80C370023A4F8AF
:1025700012370AF0F2FB26E0012394F8BA2484F81B
:10258000993294F8BB34052143EA0223A4F8B43409
:1025900004F2B44214E084F8992294F8BB3494F81D
:1025A000BA24022143EA022394F8BC24ADF80C308B
:1025B0008DF80E20A4F8B43403AA01E0002284218F
:1025C0002046FFF783FE012384F8B034002005B0D5
:1025D000BDE8F08FD925200010B590F838308BB1C8
:1025E00000F22C74022380F8603020460AF0FDFED1
:1025F000204607F027F82046BDE81040342200218D
:102600000AF00EBB034B0246BDE8104019780248A1
:1026100003F064BDC05E00204040002030B5044699
:102620000523002580F86030012385B0A0F86830CC
:10263000A0F89C5280F8385000F595600AF083FBB2
:102640000E4B84F8745203930D4B04F22C750293D5
:1026500004F174024FF400730092214604F2A622A2
:102660000193284606F074FF2846B4F8282704F59D
:10267000E36105B0BDE8304006F0A0BF852620002C
:10268000E922200013B50C468DF80720042A3BD818
:10269000DFE802F0200303032D001C4B0A461C4810
:1026A000197803F01BFD032384F8603004F118004F
:1026B00003F04CFB0DF1070201212046FFF706FE57
:1026C00020460AF062FB637D012B1DD12046FFF7F7
:1026D000A5FF19E0062381F86030012381F87432E8
:1026E0000C4B0A460A48197803F0F8FC0CE0B1F8E4
:1026F0004E372BB9012381F8743201F174030B6753
:1027000004F1180003F006FB02B010BDC75E002004
:1027100040400020C35E002038B51D4C2578002DB8
:1027200034D103F06FFC1B4B18701B4B187003F077
:1027300069FC1A4B187003F065FC194B187003F014
:1027400061FC184B187003F05DFC174B187003F018
:1027500059FC164B187003F055FC154B187003F01C
:1027600051FC144B187003F04DFC134B1870134BB5
:10277000187003F047FC124B187012480AF0B1FCB5
:102780002946114803F0D2FC0123237038BD00BF55
:10279000C85E0020CB5E0020C15E0020C35E00202A
:1027A000C65E0020C95E0020CA5E0020C45E002014
:1027B000C05E002048740020C75E0020C25E00207A
:1027C000C55E00202C42002040400020F8B51F4686
:1027D000137804460E46154633B34FF4EC620021DD
:1027E0000AF01EFA294604F10C000AF035FBBDF888
:1027F0001820012300256375A4F8A422A4F86830EA
:1028000004F595606766E666A4F89C5284F8385033
:102810000AF099FA84F87452FFF77EFF21460348C4
:102820000AF07FFC2846F8BD8220F8BD2C4200202B
:102830007FB50446084694F8601003291DD8E3824A
:1028400004F174032367002384F89932237DA4F8EC
:10285000282743F0020323756946C4F8140704F5DA
:10286000E3660AF0CEFD9DE80F0086E80F00044BFA
:1028700022461978034803F031FC002004B070BDF3
:10288000CB5E00204040002090F860300246082BCC
:1028900007D1092380F86030024B0348197803F010
:1028A0001DBC7047C65E0020404000202DE9F3416A
:1028B0008DF8071040F2A741038806468B42154663
:1028C00000F02A83B3F5956F0CD240F282418B421F
:1028D0001ED040F299418B4200F00983002B40F05A
:1028E000AF8069E040F2C6418B4200F00D8405D80C
:1028F00040F2B9418B4200F09283A1E040F2D34113
:102900008B4200F06A85B3F59C6F00F0898697E0F2
:10291000BF4B9DF807201B789A4207D1BD4B284634
:102920001D600A2385F860300AF02FFABA4B9DF833
:1029300007201B789A4204D1B64B28461D60FFF74A
:102940006DFEB64B9DF807201B789A4237D0B44AEB
:102950009DF807301178994206D1AE4B1D6095F86D
:102960006030092B00F0E982AE4B9DF807201B7800
:102970009A4200F04483AC4B9DF807201B789A42A2
:1029800000F0B283A94B9DF807201B789A4206D12C
:10299000A04B1D6095F87432012B00F01585A44BF7
:1029A0009DF807201B789A4206D19A4B1D6095F836
:1029B0007432012B00F01F8640F282433CE0954BBD
:1029C0001D60B5F8A432A5F8543795F87432012B80
:1029D000BDD10023A5F89C328E4F3C68B4F89C32E0
:1029E000B3F5D17F00F08B8157D8B3F5CD7F00F0E0
:1029F0000A8132D840F29712934200F0D980B3F5A1
:102A0000CC7F22D2002B00F08E80B3F5CA7F40F03D
:102A10006A8294F87432002B40F0B3803B6893F8DC
:102A200060300A2B93D0834B00221978824B1868B0
:102A300003F054FB40F299433380012000F031BF92
:102A400000233380032000F02CBF00F0BF8040F251
:102A50009912934200F0C88045E240F29D129342E1
:102A600000F01481B3F5CF7F09D240F29B1293425C
:102A700000F0EF80B3F5CE7F00F0F98033E240F252
:102A80009F12934200F01E81B3F5CF7F40F20C817C
:102A9000B3F5D07F00F0248125E240F2B3129342D7
:102AA00000F0A281B3F5DA7F20D240F2A712934260
:102AB00000F05A81B3F5D47F09D2B3F5D27F00F08C
:102AC000348140F2A512934200F03E810BE240F2C5
:102AD000A912934200F06581B3F5D47F40F2528190
:102AE00040F2AB12934200F06D81FCE1B3F5DD7F63
:102AF00000F0BC8109D8B3F5DA7F00F0848140F2A0
:102B0000B712934200F09081EDE1B3F5DF7F00F062
:102B1000CD81B3F5E57F00F0CE8140F2BB12934248
:102B200040F0E181B1E1228A102384F8783202B1C9
:102B3000023202F10C03B4F8542002B10232134401
:102B4000B4F85C2002B102321344B4F8402002B160
:102B500002321344B4F8482002B102321A44C4F8D5
:102B60007C2204F5217104F520700AF0D9F894F85C
:102B70008432042B05D9002281212046FFF7A6FBD1
:102B8000B1E194F8781220460AF02FF920B14FF401
:102B9000CA73A4F89C323CE794F8842204F52071AF
:102BA00020460AF032F940B140F29713A4F89C3263
:102BB00094F87432002BEFD130E7002120460AF060
:102BC00014F940B14FF4CC73A4F89C3294F87432E9
:102BD000002BF2D122E7062120460AF006F940B187
:102BE00040F29913A4F89C3294F87432002BF2D17D
:102BF00014E70622114920460AF007F900B34FF402
:102C0000CD73A4F89C3294F87432002BF1D105E70F
:102C1000C75E002028420020CB5E0020C35E00205B
:102C2000C65E0020C05E0020C95E0020CA5E002093
:102C3000C45E0020C55E002028430020F0E720008D
:102C4000032120460AF0D1F840B140F29B13A4F8CA
:102C50009C3294F87432002BF2D1DFE6217D2046BD
:102C60000AF0C3F840B14FF4CE73A4F89C3294F844
:102C70007432002BF2D1D1E6E18A2046090A0AF02B
:102C8000B4F840B140F29D13A4F89C3294F8743229
:102C9000002BF1D1C2E6A17D20460AF0A6F840B192
:102CA0004FF4CF73A4F89C3294F87432002BF2D115
:102CB000B4E6002120460AF098F840B140F29F1394
:102CC000A4F89C3294F87432002BF2D1A6E6217C51
:102CD00020460AF08AF840B14FF4D073A4F89C3231
:102CE00094F87432002BF2D198E6228AE1682046EB
:102CF0000AF08BF840B14FF4D173A4F89C3294F8E9
:102D00007432002BF1D189E6237D5A0704D494F95B
:102D10001430002B5BDA5EE0002120460AF065F8F3
:102D200040B14FF4D273A4F89C3294F87432002B63
:102D3000F2D173E694F8401020460AF056F840B1FC
:102D400040F2A513A4F89C3294F87432002BF1D110
:102D500064E6B4F84020E16B20460AF056F840B132
:102D600040F2A713A4F89C3294F87432002BF0D1EF
:102D700054E6002120460AF038F840B14FF4D473ED
:102D8000A4F89C3294F87432002BF2D146E694F801
:102D9000481020460AF029F840B140F2A913A4F8DF
:102DA0009C3294F87432002BF1D137E6B4F8482005
:102DB000616C20460AF029F80028A8D040F2AB1335
:102DC000A4F89C3294F87432002BEFD126E6237DD0
:102DD0005B0642D42DE0002120460AF006F840B1FF
:102DE00040F2B313A4F89C3294F87432002BF2D161
:102DF00014E694F85410204609F0F7FF40B14FF460
:102E0000DA73A4F89C3294F87432002BF1D105E601
:102E1000B4F85420216D204609F0F7FF0028D6D0E1
:102E200040F2B713A4F89C3294F87432002BEFD11F
:102E3000F4E5204609F0C8FF072384F860304FF41A
:102E4000A061201D0AF02DF904F5956009F07BFFC3
:102E50004FF4E573A4F89C322DE00021204609F0E0
:102E6000C4FF40B14FF4DD73A4F89C3294F874327F
:102E7000002BF2D1D2E594F85C10204609F0B5FFA2
:102E800040B140F2BB13A4F89C3294F87432002B8A
:102E9000F1D1C3E5B4F85C20A16D204609F0B5FF7F
:102EA0000028C6D04FF4DF73A4F89C3294F8743233
:102EB000002BEFD1B2E594F8993204F10408012B0C
:102EC00007D140460AF0FFF848B12046FFF7DCFC86
:102ED00005E040460AF0F7F80028F2D19EE504F537
:102EE000956009F030FF0023A4F89C322FE5BB4B1E
:102EF0009DF807101B788B4214D0B94B1B788B427E
:102F00003FF66AADB74B1B788B42FFF465ADB64B0D
:102F1000186803F0E3F85FE5B04B9DF807101B78E5
:102F20008B4212D1B14B0A221B68022083F8602029
:102F30000022A3F89C2200F0B4BC95F87432012B57
:102F400058D10023A5F89C3204E0A54B1B788B4296
:102F500040F2E88140F2E512A44F3C68B4F89C329C
:102F6000934212D0B3F5F37F01D22BB135E01AD0E2
:102F7000B3F5F87F28D030E0E021204609F035FF96
:102F800040B140F2E513A4F89C3294F87432002B5F
:102F9000F2D1D1E10021204609F027FF40B14FF4E2
:102FA000F373A4F89C3294F87432002BF2D1C3E18D
:102FB000204609F009FF4FF48071201D0AF071F8D6
:102FC0004FF4F873A4F89C3294F874322BB9201D96
:102FD0000AF079F8002800F0AF810023A4F89C32B1
:102FE000386809F0D2FE0DF1070201213868FFF7B9
:102FF0006DF9B9E42A467E4803F070F8B4E47B4BDF
:103000001D6095F87432012B7FF4B5AC95F86030F3
:10301000082B7FF4B0AC0023A5F89C320BE06F4B7B
:103020009DF807101B788B423FF47CAF6C4B1B78EC
:103030008B4240F2928140F2D2216C4A14681746CA
:10304000B4F89C328B4214D001D84BB148E040F226
:10305000D32293421BD040F2DE2293422FD03FE096
:10306000C021204609F0C1FE40B140F2D223A4F8AD
:103070009C3294F87432002BF2D178E10021204682
:1030800009F0B3FE40B140F2D323A4F89C3294F887
:103090007432002BF2D16AE1204609F095FE01233B
:1030A00084F8383004F5956009F04DFE4FF4A061C6
:1030B000201D09F0F6FF40F2DE23A4F89C3294F8BC
:1030C000B0343BB104F5956009F03DFE002384F86F
:1030D000383005E0201D09F0F6FF0028F2D146E166
:1030E0000023A4F89C3246E4404B1D6095F87432EE
:1030F000012B7FF447AC95F86030082B7FF442AC8D
:103100000023A5F89C320BE0344B9DF807101B7888
:103110008B423FF407AF324B1B788B4240F2388131
:1031200040F21622314B1C689846B4F89C729742C4
:1031300000F089800ED8B7F5047F49D001D817B3C5
:10314000EBE040F213239F4260D040F215239F42F0
:103150006AD0E2E040F21B239F4200F0A480B7F562
:10316000077F08D2B7F5067F7DD040F219239F4232
:1031700000F08880D1E000F0A58040F225239F4236
:1031800000F0B580C9E0B4F88C228223053284F8BF
:103190007832C4F87C2204F5217104F5207009F01E
:1031A000BFFD94F88432042B08D93A468121204689
:1031B000FFF78CF8A4F89C72FFF7E4BB94F8781240
:1031C000204609F012FEA8B14FF40473A4F89C3213
:1031D00094F87432002BF1D1E4E000BFC75E002008
:1031E000C15E0020C25E002028430020284200204B
:1031F0004040002094F8842204F52071204609F014
:1032000004FE40B140F21323A4F89C3294F87432C7
:10321000002BEFD1C6E00021204609F0E6FD40B1C9
:1032200040F21523A4F89C3294F87432002BF2D1AA
:10323000B8E094F88612204609F0D7FD40B140F27C
:103240001623A4F89C3294F87432002BF1D1A9E033
:10325000B4F88C122046090A09F0C7FD40B14FF4BA
:103260000673A4F89C3294F87432002BF0D199E0E4
:1032700094F88C12204609F0B8FD40B140F21923B1
:10328000A4F89C3294F87432002BF1D18AE0B4F89F
:103290008C22D4F88812204609F0B7FD40B140F2E4
:1032A0001B23A4F89C3294F87432002BEFD179E000
:1032B00094F89812204609F098FD40B14FF4077336
:1032C000A4F89C3294F87432002BF1D16AE02046C5
:1032D00009F07AFD4FF4A061201D09F0E2FE04F52B
:1032E000956009F030FD40F22523A4F89C3294F853
:1032F0009932271D012B0AD1384609F0E4FE04F566
:10330000956009F020FD002384F86A3005E0384616
:1033100009F0D9FE0028EFD144E00023A4F89C3244
:10332000FFF730BBB84B1B788B42FFF413AEB74BA3
:10333000186802F0D3FE0DE63B6893F860300A2B64
:103340003FF44EAEB24B00221978B04B186802F031
:10335000C5FE40F2A743FFF76FBBAB4B1B788B4218
:10336000FFF469AEA94B186802F0B8FE63E63B684B
:1033700093F86030082B7FF4FEAAA54B0022197841
:10338000A24B186802F0AAFE40F2B943FFF754BB03
:103390009D4B1B788B42FFF4C3AE9C4B186802F028
:1033A0009DFEBDE6D8F8003093F86030082B7FF41E
:1033B000E9AA974B00221978944B186802F08EFE08
:1033C00040F2C643FFF738BB95F86030082B7FF416
:1033D000E6AA0023A5F89C320BE08E4B9DF807105F
:1033E0001B788B423FF49EAD8B4B1B788B4240F297
:1033F000E6808A4B1C689846B4F89C72B7F5157F36
:103400007DD011D840F24F239F424AD0B7F5147FA8
:1034100001D20FB3CEE040F251239F4252D040F28E
:1034200053239F425CD0C5E040F257239F4200F0F7
:103430008580B7F5167F04D240F256239F426ED0A6
:10344000B8E040F259239F4200F0898040F26223A5
:103450009F4200F09980ADE0B4F88C22A2230432A0
:1034600084F87832C4F87C2204F5217104F52070C8
:1034700009F056FC94F88432042B08D93A4681218D
:103480002046FEF723FFA4F89C72FFF788BA94F851
:103490007812204609F0A9FC40B140F24F23A4F86D
:1034A0009C3294F87432002BF1D192E094F884228B
:1034B00004F52071204609F0A8FC40B140F25123E8
:1034C000A4F89C3294F87432002BEFD181E00021F3
:1034D000204609F08AFC40B140F25323A4F89C3204
:1034E00094F87432002BF2D173E094F886122046DF
:1034F00009F07BFC40B14FF41573A4F89C3294F8AA
:103500007432002BF1D164E0B4F88C122046090A21
:1035100009F06BFC40B140F25623A4F89C3294F8B9
:103520007432002BF0D154E094F88C12204609F04C
:103530005CFC40B140F25723A4F89C3294F87432FA
:10354000002BF1D145E0B4F88C22D4F88812204643
:1035500009F05BFC40B140F25923A4F89C3294F886
:103560007432002BEFD134E0204609F02DFC4FF4EB
:10357000A061201D09F095FD04F5956009F0E3FBBD
:1035800040F26223A4F89C3294F89932271D012B53
:103590000AD1384609F097FD04F5956009F0D3FB90
:1035A000002384F86A3005E0384609F08CFD0028D5
:1035B000EFD10EE00023A4F89C32FFF7F0B9124BD4
:1035C0001B788B42FFF415AF104B186802F086FD94
:1035D0000FE7D8F8003093F86030082B7FF4DFA9AC
:1035E0000B4B00221978094B186802F077FD40F266
:1035F000D343FFF721BA95F86030082B7FF4DCA99C
:103600000023A5F89C3217E0C25E0020284300206A
:10361000C55E0020C75E0020C15E00202842002059
:10362000A14B9DF807101B788B423FF47BAC9F4B5E
:103630001B788B4240F21A819D4D2C68B4F89C3265
:10364000B3F5267F00F0958011D840F29322934283
:103650005FD0B3F5257F01D223B302E140F295227A
:10366000934267D040F29722934273D0F9E040F240
:103670009D22934200F0AE8009D840F29A229342F4
:1036800000F08880B3F5277F00F09580E9E040F2F4
:10369000A222934200F0AF8040F2B322934200F0A6
:1036A000CA80DEE094F8982294F89A12530043F00E
:1036B0003003DBB2012984F8783204BF43F0010300
:1036C00084F87832B4F88C12D4F894320B440AB9E6
:1036D000023300E00433C4F87C32D4F87C2204F5D1
:1036E000217104F5207009F01BFB94F88432042B3F
:1036F00005D9002281212046FEF7E8FDB1E094F8CB
:103700007812204609F071FB40B140F29323A4F8EF
:103710009C3294F87432002BF1D1B1E094F88422F9
:1037200004F52071204609F070FB40B140F295236A
:10373000A4F89C3294F87432002BEFD1A0E0B4F8D6
:103740008C122046090A09F050FB40B140F2972341
:10375000A4F89C3294F87432002BF0D190E094F8E5
:103760008C12204609F041FB40B14FF42673A4F8B7
:103770009C3294F87432002BF1D181E0B4F88C22A1
:10378000D4F88812204609F040FB40B140F29A2359
:10379000A4F89C3294F87432002BEFD170E094F8C6
:1037A0009832E3B10021204609F01FFB40B14FF4ED
:1037B0002773A4F89C3294F87432002BF2D15FE0A6
:1037C00094F88612204609F010FB40B140F29D2388
:1037D000A4F89C3294F87432002BF1D150E0B4F884
:1037E0009422D4F89012204609F00FFB40B140F229
:1037F000A223A4F89C3294F87432002BEFD13FE05E
:10380000204609F0E1FA4FF4A061201D09F049FCBF
:1038100094F898222AB9274BE06E197802F05EFCE2
:1038200018E0012A16D104F5956009F08CFA40F2EF
:10383000B323A4F89C3294F89932271D012B03D1AD
:10384000384609F040FC05E0384609F03CFC002809
:10385000F6D115E004F5956009F075FA002384F8B7
:103860006A300023A4F89C32FFF7A6B8124B1B78ED
:103870008B42FFF4E1AE114B186802F02FFCDBE63F
:103880002B6893F86030082B7FF496A80C4B00222D
:1038900019780A4B186802F021FC4FF49C63FFF77B
:1038A000CBB802B0BDE8F081C75E0020C15E002049
:1038B0002842002048740020C25E002028430020D7
:1038C000C55E002070B51E4690F860300446082B97
:1038D00020D190F86A500121F5B980F86A10B0F84B
:1038E0006810C0F88822023189B2A0F86810A0F8E8
:1038F0008612104609F0E2F9084BA4F88C0284F80D
:10390000986284F8995222461978054802F0E6FB3D
:10391000284670BD812070BD084670BDC95E00207C
:103920004040002070B51E4690F860300446082BD9
:103930002BD190F86A5001214DBB80F86A10B0F885
:1039400068109DF81830023189B2A0F86810A0F80C
:10395000861280F89A32C0F88822104609F0AEF933
:10396000049BA4F88C02C4F894329DF81430C4F877
:10397000906284F89832074B84F89952224619785D
:10398000054802F0ABFB284670BD812070BD08469B
:1039900070BD00BFC45E0020404000202DE9F84FFC
:1039A0004C4B1B78002B00F090804B4F4B4D3B68ED
:1039B0004B4C43F020033B60FF232B6000F048FC9E
:1039C000241A00F045FCC44202D500F0C1FDF8E71E
:1039D000444C0023236023712B6000F039FCA04687
:1039E000414C241A00F034FCC44202D500F0B0FD72
:1039F000F8E700242646FF232B60282000F004FC73
:103A00003B68DFF8E0A023F020033B602B685FFAFF
:103A100083F94FF0000B29685FFA8BF2494508D112
:103A200001200BF1010B00F0EFFBBBF1FF0FF2D116
:103A30005A462B68FF2A5FFA83F902D14FF000093A
:103A40001EE02A4B1B7823B1022E14D9F10712D5A0
:103A500003E0032E0FD9F3070DD4E10818F8013065
:103A6000072A4FEA4303DBB288BF43F00103013466
:103A70000AF80130E4B20136F6B2552EC9D1DDE7BD
:103A800018F8092049461A4809F1010901F004FD16
:103A9000B9F1050F134EF3D1272C16D9327873786C
:103AA0001344B2781344F27813443279DBB29A4269
:103AB00008D13B68002023F020033B60FF232B60EC
:103AC000BDE8F88F0B4809F03FFA4FF0FF30BDE832
:103AD000F88F00BFCD5E002000940D4080900D4017
:103AE00000E0FFFFCF5E002071FDFFFFCC5E0020F5
:103AF00004E8200014E82000812838B50C4626D1BF
:103B0000144A05211368002023F02003136052F8A3
:103B1000203C002523F0200342F8203C082200F03E
:103B200029FE0D4BFF221A600C4B0D490D481D70EC
:103B300001F0B2FC20210C4801F0AEFC0B4B1CB193
:103B400001221A70284638BD1C70204638BD4FF03F
:103B5000FF3038BD20940D4080900D40CE5E002097
:103B600000900D4029E8200042E82000CD5E0020B2
:103B7000431E022B2DE9F041044604D901462A4890
:103B800001F08AFC2FE0294B1A781E462AB12848FA
:103B900009F0DAF9FF20BDE8F08101221A70FFF781
:103BA000FDFE28B3234809F0CFF9234B234D1978A4
:103BB000234881F00101197001F06EFC2B68214F40
:103BC00023F020034FF0FF082B60C7F80080FFF7B9
:103BD000E5FE60B11C4809F0B7F92B6823F020031B
:103BE0002B60C7F800804FF0FF30BDE8F0813070E7
:103BF000022C0CD0032C14D0144B00229878DB78C4
:103C000000F07F00327003EB0020BDE8F0810F4B25
:103C100018785B7803EB00200023337080B2BDE896
:103C2000F0810020BDE8F0815AE82000CE5E00203F
:103C300072E8200091E82000CC5E002000940D4046
:103C4000ACE8200080900D40CCE82000CF5E002042
:103C500038B50C46054600B129B90E4809F074F98B
:103C60004FF0FF3038BD0320FFF782FF431C10D018
:103C7000094A0A49937803F07F00D37803EB0023C5
:103C80002B60002053780870117803EB01239BB25E
:103C9000236038BDF0E82000CF5E0020CE5E00201B
:103CA000F7B500F05DFC00F057FD00F0B3FC00F04C
:103CB0006FFA01F093FB09F0F2F900F045FD00F016
:103CC000C9F8012009F0D4F802F0A4F900F034FC9E
:103CD000002000F055FB012000F052FB4949002074
:103CE00000F014FC02F0CAFA09F0F9F8042009F017
:103CF000BFF8454809F028F9444809F025F900F0D3
:103D0000E9F9002002F068FB01F054FA0021404874
:103D100002F00CFA01F0A2FF09F0D6F800F0A2FDC3
:103D200000F0BEFD07F000FD0821684601F07AFBB7
:103D30009DF807309DF80670364C43EA07276B461E
:103D400003CB20606160344801F0A6FB0025615D73
:103D50003248013501F0A0FB072D2E4EF7D1304D32
:103D6000F179304801F098FBEC6A4AF6CD31022037
:103D7000A04739460320A0471A210120A0476946E1
:103D800008226B6B0B209847274801F085FB274BD7
:103D9000186809F0D9F8264801F07EFB254B186811
:103DA00009F0D2F8244801F077FB244B186809F099
:103DB000CBF8234A336813607368536007F0D6F971
:103DC0000021204802F0B2F900211F4802F0AEF9AC
:103DD0001E4B01219B688120984709F02FF91C4850
:103DE00009F022F900F0AEFB022009F041F800F0E2
:103DF000AFFB02F027F910F0FF0FF8D101F082FAC3
:103E0000F5E700BF3962200016E9200032E9200002
:103E1000884000205274002057E92000D7ED200090
:103E20002CE7200098F0200075E9200084E72000AE
:103E30007CE920009CE7200083E92000B8E720000F
:103E4000006A00202C410020A840002044E6200009
:103E5000E8E7200008B500F0DDF8024B00221A70F8
:103E600008BD00BFD45E0020024A137818431070CA
:103E700000F0F4B8D45E0020034A137823EA00006F
:103E8000107000F0EBB800BFD45E002020B1012814
:103E900005D1044B18787047034B18687047002011
:103EA000704700BFD55E002020900D4010B5094A34
:103EB0000020137801331370074B197802F00EF9C4
:103EC000BDE8104005490023054A0968054801F08E
:103ED000FBBE00BFD55E0020497400205842002080
:103EE000AD3E200030420020812810B50C462AD07B
:103EF000B0F5807F39D0802839D102F083F81D4B8E
:103F00001D4A18701368032123F00803136052F848
:103F1000203C002023F0080342F8203C52F81C3CCF
:103F200023F0080342F81C3C52F8183C43F0080305
:103F300042F8183C042200F01DFC032200210F4827
:103F400000F0BAFB13E00E4B1A6831B142F00802E0
:103F50001A60002000F022FB05E022F008021A603F
:103F6000084600F029FB204610BD064B19600120D1
:103F700010BD00BF4974002020940D40893F2000EF
:103F800010940D405842002008B50F4809F09BF8E6
:103F9000C8B108210C4809F084F80C4B196869B1C4
:103FA0000B4B00221A700B4B1B6823B90A4A0B48B3
:103FB00001F08AFE02E0094801F0C8FEBDE80840B1
:103FC000074802F0DBB908BD5042002058420020EB
:103FD000D55E002020900D40AD3E200030420020F4
:103FE00044E62000084A136823F00403136052F8E3
:103FF000203C43F0040342F8203C044B00221A60AA
:10400000034B01221A70704720C40D4010C00D40B0
:10401000D65E00200D4A0E49136823F0C0031360DA
:1040200052F8203C43F0C00342F8203C094B0022E8
:104030001A600B6823F010030B6051F8203C43F02A
:10404000100341F8203C044B1A60704720A40D4037
:1040500020C40D4000A30D4040C00D4000F00202FE
:1040600002F0FF010B4B12B1FF221A6000E0196051
:1040700000F0040202F0FF01074B12B1FF221A60A8
:1040800000E0196010F00100044B1ABFFF221A6013
:104090001860704700A20D4000A10D4040C00D40C7
:1040A000044B1868C0F30720030904BF1030C0B2E6
:1040B000704700BF1C300D40054B1868C0F3C2109C
:1040C00001289ABFC0F1020040034FF4004070473E
:1040D00014300D402DE9F04788B0FFF7E1FF174B92
:1040E00048251C68AB68074698476B688046984728
:1040F0000546FFF7E1FF064600F0C6FA814600F0EC
:10410000CFFA824600F07CFAB60A04F00103AD0A49
:10411000C4F3400406900393CDF814A0CDF810909A
:1041200002940196009507F00F03C7F3071241466A
:10413000034801F0B1F908B0BDE8F0871C300D402C
:1041400091E92000F8B500F083F80F4B0024D3E983
:1041500000673A46B04238BF7A1C15460443C3E9AB
:104160000045DFF828E0DEE90001821B61EB070370
:1041700012196B41CEE9002301F0ACFE18B1BDE885
:10418000F84001F02BBEF8BD18420020204200206C
:104190000F4B104A1A6053F8042C42F0050243F802
:1041A000042C53F8042C42F0020243F8042C0A4A6F
:1041B000136843F001031360084B00221A600422C5
:1041C00043F80C2C012243F8082C0F22DA627047C6
:1041D00014E000E047E8010008200D400C00034017
:1041E000034BD3E90023100A40EA0360704700BF85
:1041F00018420020034BD3E90023D00B40EA434090
:10420000704700BF20420020054B18601C3B1A6815
:1042100042F001021A601A68D207FCD4704700BF4E
:104220002800034010B5064C236823F001032360E7
:10423000FFF788FF236843F00103236010BD00BF30
:1042400010E000E0014B1868704700BF5C4200209E
:10425000074B084A196804331B681268120442EAC3
:104260000323054A0B43106843EA0060704700BF10
:1042700040500D4048500D404C500D4010B5044684
:10428000114A1368DB07FCD508F02DFEFFF7E0FFAD
:10429000231A062BD8BFC41D0C4B220E1A60C4F380
:1042A000074243F8042CC4F3072243F8082CE2B277
:1042B00043F80C2C08F013FE054B91201C60BDE860
:1042C000104000F06BB900BF50500D404C500D40F5
:1042D0005C42002008B500F0F9FF064B0022912057
:1042E0001A6000F077F9912000F066F9BDE8084007
:1042F00001F040BF5C420020064B1B681B075FBFFC
:10430000054B186880F00800C0F3C00048BF0020CB
:10431000704700BF18C0004018D00040164A2C2338
:1043200003FB00234FF6BF7270B5DC680546236CB3
:1043300062649BB213F050020DD0104EA369DB06ED
:1043400008D456F825301BB12068C0B29847F5E76D
:104350002368F3E770BD13F4D06F0BD04FF44073B4
:104360002363FF236360E36AE262E362236B43F04B
:104370000103236370BD00BF54E6200060420020AB
:1043800001282DE9F74F064600F2B2802C2545435F
:10439000594F7C1994F92080B8F1000FC0F2A88021
:1043A00094F92290B9F1000FC0F2A280534801F0B5
:1043B00003F8534A7B591168E5680B431360516851
:1043C000636894F921A00B4353609168A3685FFA76
:1043D00089FB0B4393600023C5F8C83F23690AEBB0
:1043E000C8021A6094F92330227D00939DF80030B2
:1043F00058461946019300F0C7F9019B0822194657
:10440000584600F0B7F93F4A4FEA0939009959F880
:104410000200012303FA01F1014349F802104FEAB7
:10442000083858F8020003FA0AF1014348F802106C
:104430005021A963A96B94F9240041F4D061A963C8
:10444000022169634FF440712963A1690028696200
:10445000E169A9624FF07001E962154616DB94F933
:104460002510A2F5A64241EAC0041C3A14600403D8
:1044700062598B40134363510022C9B2C0B200F0AD
:1044800079F9214A136843F4004313602C2303FB9A
:10449000067393F92640002C1BDB93F927A05FFAE3
:1044A00084F85FFA8AF9012249464046240300F065
:1044B0006BF96259012303FA0AF31343635108228B
:1044C0004946404600F056F90F4A136843F48043CA
:1044D00013602C2303FB0676F26896F82800136B12
:1044E00043F00103136303B0BDE8F04F00F056B88A
:1044F00003B0BDE8F08F00BF54E62000F942200071
:1045000028200D4020940D4030D0004001289CBF51
:10451000014B43F82010704760420020012808D862
:10452000044B2C2202FB0030C3689A699206FCD42B
:104530001960704754E62000014B00221A60704752
:1045400000500D40014B08221A60704700500D408A
:10455000024BA0221A6050221A60704700500D4092
:10456000074A084B1A60084B80321A60074B8032AA
:104570001A60074B80321A60064B074A1A60704770
:1045800000E100E074420020684200206C420020FC
:104590007042002008ED00E000202000054B41099A
:1045A0001A6800F01F00012303FA00F042F821000E
:1045B000704700BF74420020054B41091A6800F0A3
:1045C0001F00012303FA00F042F82100704700BFEA
:1045D00068420020054B41091A6800F01F000123C2
:1045E00003FA00F042F82100704700BF704200203B
:1045F000024B1868C0F38150704700BF04200D4083
:1046000008B5FFF7F5FF024B53F8200008BD00BFC7
:10461000ACE6200038B5164D164C2B68012223F06D
:1046200040032B602368062123F04003236003200E
:1046300000F0A0F82B68012223F080032B60236890
:10464000072123F080032360032000F093F80A4A37
:104650000A4B0B491A600A680A4B1340084A002BA0
:10466000F9D113685901FCD413685B01FCD538BD3E
:1046700020C40D4000C40D400101020000200D4087
:1046800004200D4000000101034B04481B6803F0A7
:1046900007031841704700BF04200D400048E8019F
:1046A000034B04481B68C3F302231841704700BF43
:1046B00004200D400048E801024B02EBC10243F820
:1046C0002200704778420020F8B507460E46094D93
:1046D000002405EB411547FA04F3DB07E1B204D5EA
:1046E00055F824300BB1304698470134082CF2D1EC
:1046F000F8BD00BF784200202DE9F04780464FEA20
:104700000837DFF8409007F1804505F5592500F09E
:10471000DDFDD5F8186457F809304FEAC80A23FAC6
:104720000AF446EA0400E4B24146C0B2F6B204FA22
:104730000AF4FFF7C9FFC5F81C6447F80940BDE853
:10474000F08700BF18970D4080220021014808F033
:1047500067BA00BF78420020034A044B1A60044B3A
:10476000803A1A60704700BF80400D40FC42002034
:10477000F8420020034B01EBC0011B6843F82120E5
:10478000704700BFFC420020034B01EBC0011B68D7
:1047900043F82120704700BFF84200200E2870B572
:1047A0000BD1154B154E1C6844F002051D60356891
:1047B00025F03F0343F001033360114E336823F0CB
:1047C000FF031A43114301430E4A316013681B066D
:1047D000FCD50D4B0D4A1B6812680E2803F0FC0334
:1047E00043EA022308BF054A1BB204BF1560024A10
:1047F000184608BF146070BD34000144F4860840B8
:1048000008700D4000700D400C700D4010700D4090
:10481000024B1868B0FA80F04009704700B70840B2
:1048200010B58F20064CFFF7D5FE8F20FFF7C4FE92
:10483000206818B101F092FC0023236010BD00BF76
:1048400000430020064A136843F0020313605368D4
:1048500043F002035360936843F002039360704790
:1048600048200D4007B50C4800F0A6FDFFF7EAFF11
:104870000A4B1A6842F002021A6000220192019A61
:104880000F2A02DC019A0132F8E71A6822F00202CC
:104890001A6003B05DF804FB1148200054200D405D
:1048A000064A136823F002031360536823F00203DF
:1048B0005360936823F002039360704748200D40D3
:1048C000084B93F90020002A09DB074AED2111600B
:1048D0001160E32111601A7862F07F021A700120E2
:1048E000704700BFDA5E0020388808400C4A136821
:1048F0009907FCD40A4B1B685B065FBF094BED228E
:104900001A601A60084B1B6813B1064BEF221A603D
:10491000064A0120137803F07F031370704700BF2D
:104920004C860840388808402C860840DA5E002013
:1049300038B5A0F10B04E3B20F2B054613D80B4B8F
:104940001B6813F03F0302D0FFF7D0FF012304EBF5
:104950008404074A0B3414600BB1FFF7B1FF054B19
:1049600068B21D7038BD4FF0FF3038BD4886084032
:104970003C8608401342002010B50B4B1B6899067B
:1049800003D1FFF79DFF012300E0002307490A68D8
:10499000D207FCD5064A1468C4F300140BB1FFF724
:1049A000A5FF204610BD00BF488608406486084029
:1049B0004C860840044B186800F02200A0F1200348
:1049C00058425841704700BF4C860840024B186857
:1049D00000F04000704700BF4C86084038B50C46D8
:1049E000002900F08880102800F28780DFE800F0BE
:1049F000090F1A1C23394254596F738585787A7CC4
:104A00007F003F4B1B68003318BF012370E03D4B14
:104A100005221B6803F07F030B3B93FBF2F30B3380
:104A2000DBB265E0384B00E0384B1A68043B1B688A
:104A300043EA02235CE000230B60354B354A1B68D8
:104A400003F001030B601268900644BF43F00203B9
:104A50000B60314B1B78002B4BD00B6843F00403E9
:104A600046E02E4B00201B780860002B41D001232C
:104A70000B6038BD2A4B2B491A680023D2B201EBD8
:104A8000C3000079904203D8264A52F833302FE011
:104A900001330E2BF3D127E0234B1B685BB2493B5C
:104AA00026E0224B1B68990603D1FFF709FF01237B
:104AB00000E000231E490A68D207FCD51D4A15688C
:104AC000493D6DB20BB1FFF711FF256011E01A4BA4
:104AD00093F900300CE0194B1B7803F07F0307E0DB
:104AE0000B2305E01A2303E06FF0170300E0072310
:104AF0002360002038BD022038BD012038BD00BF32
:104B00002C8608403C860840CC850840D485084067
:104B10000086084024860840D95E0020124200200A
:104B200040860840BCE62000588608404886084079
:104B30006486084060860840D85E0020D75E00206A
:104B400038B505460C46134A13689B07FCD4124B34
:104B500093F90030002B01DBFFF7B2FE0F4BEE2282
:104B60001A60691E1A60A21C43F8102C214402200E
:104B700000F038FB013C0A4924012143022000F0E7
:104B800043FB022000F04AFB022000F05FFB002004
:104B900038BD00BF4C860840DA5E002038880840E7
:104BA00002C001C0F8B5214B93F90030002B0DDB9A
:104BB000FFF74EFB0546FFF783FE6FF00904641B09
:104BC000FFF746FBC442FBD4012600E00026184B49
:104BD0001B7823B9174D2B68990604D405E0FFF71D
:104BE000CBFE0028F6D10220F8BD134CE923236048
:104BF00004272B689A0707D4013F17F0FF0703D05B
:104C00000620FFF701FBF4E72B689B0704D4EE2393
:104C100023602360012403E02C6814F00204FBD11C
:104C20000EB1FFF763FE2046F8BD00BFDA5E00203C
:104C3000124200204C860840388808400B280DD1CD
:104C4000082A0DD161B1074B074A083111F8010D4F
:104C500043F8040F9342F9D10020704701207047B8
:104C600002207047A4850840C485084070B52F4DC8
:104C70002B6813F0400308D02D4E3368DCB21B06BE
:104C800005D52C4BED221A601A60002070BD042C53
:104C9000F7D9023C8C42F4DCE4B2032C21D0011998
:104CA0000139032000F0A6FA631E23491B011943B2
:104CB000032000F0A9FA032000F0B0FA032000F06E
:104CC000C5FA032000F0CEFA0028FAD131681B4B58
:104CD000493949B219703368194E18063370D0D566
:104CE00006E0336803703368437033688370EDE720
:104CF00089B2042006F0EEFC3178032001F07F0138
:104D000006F0E8FC0F4B1B7873B92B685A060BD5DD
:104D1000064B1B681B0603D50B4801F01FFA03E086
:104D2000044BED221A601A60204670BD4C86084084
:104D3000288808403888084002C0010CD85E00204E
:104D4000D75E0020D95E0020604000201E4B187006
:104D5000002831D01D4A13681B03FCD51C4B1A6870
:104D600042F002021A601A6842F001021A601A68E0
:104D700017495007FBD50A6822F001020A6019683A
:104D8000134A4907FBD4116841F002011160116810
:104D900041F0010111601A685207FCD50D4A8D20BF
:104DA000136823F00403136002F5D472136823F030
:104DB00004031360FFF700BC064A8D20136843F01C
:104DC00004031360FFF7EABBD95E002004200D4006
:104DD000048808408C86084010B50C46072861D826
:104DE000DFE800F0040E181C233F455B012902D1C7
:104DF000FFF766FD4BE0002958D1FFF777FD46E04D
:104E0000A1F10B030F2B51D8C8B2FFF791FD013070
:104E10003DD149E08CB2E2B2254B02E08CB2254B89
:104E2000E2B2240A1A605C6031E031F007033DD140
:104E3000214B11F0010F1A68C1F3800014BF42F03A
:104E4000010222F001021A601C4B11F0020F1A68D5
:104E500014BF42F0200222F020021A60FFF776FF12
:104E600015E031F0010021D1154B197010BD01F191
:104E700018031F2B1AD813490D2351F83300DA00F9
:104E8000844206DC0F4B13441A790F4B1A60002042
:104E900010BD13F1FF33F0D2F9E7CCB20B4B49341C
:104EA0001C60F4E7012010BD032010BD022010BDDE
:104EB000C8850840D0850840008608402486084000
:104EC00012420020BCE62000408608405886084078
:104ED000F8B5294F3D7815F001054AD1274B01243B
:104EE0001C605C609C60A3F59323A3F51473F82207
:104EF0001A600922C3F89021152270331A6003F555
:104F00009B230B2203F59E731A60A3F59B23A3F545
:104F1000F07340221A601A687F2642F020021A605D
:104F2000D52243F81C5CDE62DA61154B1878FFF776
:104F3000FFFC144B8E201E60FFF730FB022000F0B8
:104F400079F91149022000F055F9032000F072F9B7
:104F50000D49032000F046F90C4B1878FFF7F6FED8
:104F600029460B4801F0E2F83B78204623433B708A
:104F7000F8BD0020F8BD00BFDA5E0020A8200D407B
:104F8000134200209486084028880840D95E0020FB
:104F90006040002038B503880446CBB140F203429C
:104FA000934203D000230380032038BD194B1878A7
:104FB0001A4628B11B7873B1174B1B7858060AD5CF
:104FC000822908D1137843B1134B1A78520614D4AE
:104FD00040F203432380012038BD06F021FB06F098
:104FE000B5FA8021FFF742FE0028EDDD80B206F021
:104FF00091FA0A4B1B699847E6E700221A70084BA2
:105000001D68FFF773FCFFF763FFAB06E0D0FFF707
:1050100057FCDDE7D95E0020DA5E0020B8E720000B
:10502000488608400B282DE9F84F0E4610D1082A73
:1050300040F0828000297FD0414B424A4E1E53F8F7
:10504000041D934206F8011FF9D10020BDE8F88F36
:105050000C286ED1042A6FD100296DD03A4B3B4801
:105060001A68DFF8F8C022F007021A600268DFF859
:10507000F0A042F008020260DAF80040DCF800100C
:105080001A68DFF8E0E022F07002314F1A60DEF8B3
:1050900000203D68E4B2090244EA056401F47F415E
:1050A0001204214302F47F020A432A490024D1F862
:1050B00000805FFA88F544EA02081A68A94622F0DF
:1050C000070242F001021A60026842F00802026020
:1050D000DAF80000DCF800201D68C0B225F0700589
:1050E00045F010051D60DEF800303D68120240EA10
:1050F000056002F47F421B04024303F47F03134361
:105100000A6844EA030A5FFA82FBFFF7A1F8B8EBEA
:105110000A0869EB0B094FEAC93105460E4A00231C
:105120004FEAC83041EA584107F0DEFA281A3060E9
:105130008BE70120BDE8F88F0220BDE8F88F00BFA3
:10514000C8850840A88508401088084004880840A1
:10515000208808401C8808400048E801188808405A
:10516000148808402488084008B5054B1B7813B9FB
:10517000044800F0F3FF044B00221A6008BD00BF92
:10518000D95E00206040002034880840064B074864
:105190001A68042A1FBF06490A7842F040020A70C2
:1051A00000221A6000F0DABF2C880840604000201E
:1051B000DA5E002010B5094C40220021204607F09D
:1051C0002FFD074B01221A602E205C60FFF7E6F9E5
:1051D000BDE810402F20FFF7E1B900BF00400020DC
:1051E00004F00F4003289EBF014B00011950704787
:1051F0000040002003289EBF024B03EB00104160DB
:10520000704700BF0040002003289EBF024B03EB05
:1052100000108160704700BF00400020032806D8BE
:10522000034901220B6802FA00F018430860704736
:1052300028F00F40032806D8034901220B6802FA20
:1052400000F018430860704720F00F40032806D88C
:10525000034901220B6802FA00F018430860704706
:1052600014F00F4003289FBF044B03EB001080682D
:1052700000F0070088BF0020704700BF00400020FA
:10528000024B4FF0FF321A60704700BF04F50F4029
:10529000014B01221A6070474CF00F40094A136815
:1052A000084913F4801FFAD1074B1A6822F48032A0
:1052B0001A600A68D203FCD41A6842F400321A60F9
:1052C000704700BF04200D4000200D4010B50B4B6F
:1052D0001A681C4612F0030F0ED009490B68084AE1
:1052E00013F0806FFAD113685B01FCD5FEF79AFFCB
:1052F000FFF7D4FF0023236010BD00BF58200D40EE
:1053000004200D4038B5264B1C6814F03F0413D11F
:10531000244D55F8243023B1984768B10134052C49
:10532000F7D1214D2B783BB1FEF78CFF0446FEF7F9
:105330008FFF201A092801D830BF38BD002CFBD0C0
:105340001A4B1B481A6822F400321A600268184986
:1053500012F4801FFAD11A6842F480321A600B6886
:10536000DB03FCD5FEF774FF201A092803D8BDE83B
:105370003840FFF793BF63280E4C02D92B78022BDD
:1053800000D00123236000F09FFE20B1FFF786FFCD
:105390000023236038BDFEF755FF0028CCD1F5E788
:1053A0004886084004430020DB5E002000200D40BA
:1053B00004200D4058200D400749002351F82320B8
:1053C000824207D01AB9044A42F8230070470133D9
:1053D000052BF3D1704700BF04430020054B00228A
:1053E0001A60054A136843F004031360034B02225A
:1053F0001A70704758200D4010ED00E0DB5E002071
:1054000010B59020064CFFF7E5F89020FFF7D4F890
:10541000206818B100F0A2FE0023236010BD00BF79
:105420001843002030B5184B1A78431E22B101F5FD
:1054300020112731154A1FE0154A1278122AF6D199
:10544000144A12784B2AF2D14A0802F12814B4F116
:10545000281F04D014F8015D03F8015FF7E701F598
:105460002011273100231044934204DA11F8014936
:10547000C4540133F8E730BD914204D011F801095A
:1054800003F8010FF8E730BD2B00280027002800A3
:105490002A002800290028000FB407B504AA52F8F2
:1054A000041B0448019200F035F803B05DF804EBEA
:1054B00004B07047704000201FB51446074A8DE8BD
:1054C0000300029221461A4602A8CDF80CD000F043
:1054D00021F8009B00221A7004B010BDE7CF200015
:1054E00070B505460C46102C07D92B6810220849C8
:1054F0006868984750B9103CF5E734B12B682246EC
:1055000068680349BDE870401847204670BD00BF79
:10551000B1EA20002DE9F04F064615468FB00691FE
:105520004FF0000B069B1B78CBB1069C274617F863
:10553000013B1BB1252B14D03C46F7E7069BA34249
:105540000DD0069B0699C3EB040842463368706889
:105550009847002840F01F832378C34423B9584656
:1055600034E3069BA342ECD16378002BF7D0394695
:105570000024084610F8013B0A462B2B11D006D810
:10558000202B11D0232B12D144F0080416E02D2B30
:1055900004D0302B0BD144F010040FE044F0010490
:1055A0000CE044F0060409E044F0020406E0A3F134
:1055B0003107082F11D84FF0000801E00146D8E765
:1055C0000A4611F8013BA3F13000092813D80A223A
:1055D00002FB0838A8F13008F2E72A2B09D12B6822
:1055E0000246002B05F10405B8BF44F001049846BB
:1055F00001E04FF0000813782E2B1AD15178531C7C
:10560000A1F1300009280ED8194600270A780B4668
:10561000A2F13000092801F101010DD80A2303FB92
:105620000727303FF2E72A2904D12F68931C04355D
:1056300002E013464FF0FF371A786C2A09D15A78E6
:105640006C2A02D144F080040AE0013344F0600483
:105650000BE0682A09D15A78682A03D144F0200463
:10566000023302E0013344F040041A78642A3CD04B
:105670001FD8462A48D00DD8252A5AD003D8002A48
:105680003FF46DAF57E0412A4AD0452A53D144F444
:10569000424450E0582A31D004D8472A4BD144F430
:1056A000A13448E0612A38D0632A44D144F4A0648C
:1056B00041E06E2A3AD007D8662A22D027D3672A3B
:1056C00028D0692A11D036E0732A2CD006D86F2A48
:1056D00011D0702A2FD144F440742CE0752A07D0E1
:1056E000782A28D144F4C85425E044F4245422E014
:1056F00044F410641FE044F488541CE044F4B244C1
:1057000019E044F4007416E044F4844413E044F4D3
:10571000024410E044F481340DE044F4C1340AE062
:1057200044F4E13407E044F4806404E044F4E064C9
:1057300001E044F4C0640133069304F4E063B3F57C
:10574000806F00F08F8113D8B3F5807F27D0B3F539
:10575000407F7FF4E7AEAE4B14F4804FAD4A18BFE4
:105760001A460DF133032868002104351F46B5E1C0
:10577000B3F5C06F08D0B3F5E06F00F02282B3F547
:10578000A06F7FF4CFAEF2E133680122A2497068C6
:105790009847002840F0FF810BF1010BC2E6002F73
:1057A000ACBF24F01004012714F40053079304F055
:1057B000E0032ED0402B12D005D8ABB1202B21D145
:1057C00095F900200DE0602B0ED0802B1AD1073503
:1057D00025F0070303F10805D3E9002307E0B5F935
:1057E0000020D317043502E02A680435D317002AB5
:1057F00073F1000108DA524263EB4303CDE9002361
:10580000012304E000220023CDE9002300230593B7
:1058100029E0402B13D004D8BBB1202B1DD12A780E
:105820000EE0602B11D0802B17D1073525F0070330
:1058300003F10805D3E90023CDE900230BE02A8812
:105840000023CDE90023043505E02B68002219462A
:10585000CDE900120435079BD9E700230593002208
:105860000023CDE9002304F4C053B3F5805F0CD0CE
:10587000B3F5C05F33D0B3F5006F4FD1DDE900233E
:105880000DF13609CDE9022304E0DDE900230DF135
:10589000360915E0DDE9022313433AD0DDE90201C0
:1058A0000A22002306F020FFDDE90201303209F868
:1058B000012D00230A2206F017FFCDE90201E9E7D6
:1058C00052EA030125D002F00701303109F8011D29
:1058D000D10841EA4371D8080A460346F0E74C4B29
:1058E00014F4804F0DF136094A4918BF1946DDE915
:1058F000002352EA03000CD002F00F00085C4FEACC
:10590000131E09F8010D100940EA037002467346A0
:10591000EFE70DF13603C9EB030302E00DF13609A1
:1059200000230293029B41F60802BB4238BFFF1AD4
:1059300041F2080302EA040228BF00279A4202D17A
:10594000002F08BF012741F60801029B8A4203EBA2
:1059500007000DD1DDE90023134309D02F4A304958
:1059600014F4804F4FF0020A0CBF0B46134602E0BE
:105970004FF0000A5346079A9AB1059A52B904F0BB
:105980000602022A0AD0062A264A04BF4FF0010A5C
:10599000134606E04FF0010A234B02E0234B4FF081
:1059A000010A0AEB000290458CBFC2EB08084FF0D9
:1059B000000814F0010200920DD1E10602D547441F
:1059C000904608E0414630460593FFF789FD059B68
:1059D000002840F0E080BAF1000F07D0346852464A
:1059E00019467068A047002840F0D580029B03EB61
:1059F0000B04BB46BBF1100F33681BD910220C49B6
:105A000070689847002840F0C680ABF1100BF1E7B2
:105A10007CEA20008DEA2000AFEA2000A1EA200005
:105A20009EEA2000A6EA2000A4EA200081E92000E6
:105A3000C1EA2000BBF1000F06D05A4665497068E4
:105A40009847002840F0A7803368029A494670685A
:105A500054449847002840F09E80009B3C44002B13
:105A600039D032E0D5F800900435B9F1000F0AD0F2
:105A7000CA469AF800300AF101020BB19246F8E7E3
:105A8000C9EB0A0A03E0DFF850914FF0060A002F35
:105A900002DBBA4528BFBA46D0458CBFCAEB08081E
:105AA0004FF0000814F0010705D141463046FFF7DA
:105AB00017FD00286FD133685246494670689847F1
:105AC000002868D10AEB0B042FB141463046FFF79E
:105AD00007FD00285FD108EB040B23E550EA010E17
:105AE0000ED000F00F0E12F80EE04FEA111C03F872
:105AF00001ED4FEA101E4EEA017E70466146EDE769
:105B0000FF1A02BF3022012703F8012C07F1030717
:105B100008BF03F1FF337822B84503F8012C4FF09A
:105B2000300203F8022C88BFC7EB08084FF02302AD
:105B300098BF4FF0000814F00104A3F1030903F823
:105B4000032C04D141463046FFF7CAFC18BB33682A
:105B50003A46494670689847E8B95F4424B14146DF
:105B60003046FFF7BDFCB0B908EB070BDAE4B8F13B
:105B7000010F2B688CBF08F1FF384FF0000814F0BC
:105B8000010405F104058DF8203008D14146304666
:105B9000FFF7A6FC10B14FF0FF3017E0C3443368A5
:105BA000012208A9706898470028F4D108F101077C
:105BB0002CB141463046FFF793FC0028EBD1BB44A3
:105BC000B0E42B680435C3F800B0ABE40FB0BDE817
:105BD000F08F00BFC1EA2000A8EA2000F8B50388D2
:105BE000064615462BB14A2B15D00023038003200F
:105BF000F8BD174807F078FA04462CB1A168201DBB
:105C000007F024FA2468F8E7124B01221A704A239D
:105C100033800120F8BD8829FBD10D4807F064FAD4
:105C20000446002CF3D0231D9D420ED12146084886
:105C300007F064FA084B62691F681A60A2691D4682
:105C40000AB1E06990472F60E1E72468E9E700BF07
:105C50001C430020DC5E00202843002010B5064BCA
:105C6000002406481C7007F03CFA2146BDE81040AD
:105C7000034800F05BBA00BFDC5E00201C4300203C
:105C80007840002070B50446E3610B4B049D1B78FF
:105C90006561A26143B1094D094B2E68201D2B603F
:105CA00007F0D4F92E6000E0A1602146BDE8704005
:105CB000044807F036BA00BFDC5E0020284300200D
:105CC000784000201C43002013B5034C2468009446
:105CD000FFF7D8FF02B010BD2843002070B5094B74
:105CE00005461B783BB1084C084B266804302360FE
:105CF00007F0B5F926602946BDE87040044807F072
:105D000010BA00BFDC5E002028430020784000204D
:105D10001C43002070B5094B05461B783BB1084C6D
:105D2000084B26680430236007F0A2F92660294654
:105D3000BDE87040044807F0F4B900BFDC5E002005
:105D400028430020784000201C43002010B5084B59
:105D500004461B781BB1043000F0C4F801E0C360B6
:105D600003612146BDE81040024807F0C7B900BFF3
:105D7000DC5E00201C43002010B50446FEF73AFA12
:105D800094E80C001344C01A024B98428CBF0020C8
:105D9000012010BDFEFFFF7F10B50E4C236813B924
:105DA0000D4A136010BDFEF71BFA216891E80C0044
:105DB0001A44131A8A6842B192E812002144091A5F
:105DC0008B4228BF0B469268F5E71844024B1860D7
:105DD00010BD00BF2043002024430020014800F0F4
:105DE000BDB900BF884000202DE9F843038805466F
:105DF00033B1592B0BD0002303800320BDE8F88377
:105E0000234A136059232B800120BDE8F88387299A
:105E100024D08229F6D11E4F4FF00008B9463C68C5
:105E20000026002CEED0204607F04DF998B122460E
:105E30008821E06800F052F958B9E060A3680EB11B
:105E4000B36001E0C9F80030C4F80880FFF7A4FF90
:105E5000E5E7FFF7C3FF2646A468E2E70C49002008
:105E60000B681BB90028CDD00B60CBE7DC68A242E1
:105E700002D19B680120F4E700B10B60996800290A
:105E8000C0D0C86882420ABF89680B469960F5E7AE
:105E90002043002010B50446FFF7A0FFE3680B4A3B
:105EA0004BB113683BB1A34203D1094A1268DA60CF
:105EB00007E09B68F6E7064B1B68E3601368146015
:105EC000A360BDE81040FFF767BF00BF204300207C
:105ED00028430020024B1868003018BF012070478B
:105EE0002043002010B50B4A04461368834206D1B4
:105EF0008368136008E09A68944203D01346002B2D
:105F0000F9D103E0A2689A60FFF746FF0023A3607F
:105F1000E36010BD2043002038B5836804460D4679
:105F20009BB10A4804600220A07304F10C0098475A
:105F30000238012801D9832D05D121462046BDE82C
:105F4000384000F005B80123A37338BD2843002072
:105F50002DE9F8431C4A0446156889462B469046AD
:105F60001A4E3768A34204D00BB11B68FAE7BDE8AC
:105F7000F88334B3A37BABB10023A37345B1A5422F
:105F800004D022468721284607F083F82D68F5E7DC
:105F9000A3683BB14C4505D034602A46832104F107
:105FA0000C009847D8F800309C4203D12268064B79
:105FB00005E0134623B11A689442FAD122681A60A8
:105FC0003760BDE8F88300BF2C4300202843002041
:105FD000002370B51D46094A01261370084A14684B
:105FE00054B1E37B33B1A673E573002282212046CE
:105FF000FFF792FF2468F3E770BD00BFDF5E00206B
:106000002C430020024B1878421C1A70704700BFC6
:10601000E05E0020064B8A221A70064A00231370A5
:10602000054A1370054A1360054A1360704700BFA4
:10603000E05E0020DD5E0020DE5E00202C430020BC
:10604000284300202DE9F0411A4D2B780BB1FFF7C2
:10605000BFFF194C22783AB3184E0C213378184FF1
:106060005943781817F8018001334768806803F0B6
:106070001F03013A3370227068B9124B1E689EB13B
:106080002B780BB1FFF7A4FF30463A46414607F0A4
:1060900000F83668F3E7B8F1810F04BF012383737A
:1060A0003A46414606F0F5FF2B7820781844BDE8C3
:1060B000F08100BFDF5E0020DE5E0020DD5E00209C
:1060C000304300202C430020024A034B10781B78F9
:1060D00018447047DE5E0020DF5E0020F0B50B4EF6
:1060E0003378202B0FD00A4C0C252478094F1C4400
:1060F00004F01F046C4301333D19A86039556A60F0
:1061000033700020F0BD0120F0BD00BFDE5E002036
:10611000DD5E00203043002038B5034C256806F0D2
:10612000B8FF256038BD00BF2843002030B40A4CBA
:106130000A4625682B4683420CD00BB11B68FAE750
:1061400040B101210560817320608381812130BCD1
:10615000FFF7E2BF30BC70472C43002038B1837B8F
:10616000013B012B9FBF024A0123C3731370704789
:10617000DF5E002010B5084C206858B10023236072
:10618000816843689847236823B1BDE810401868C8
:10619000FEF774B810BD00BFB044002070B505888C
:1061A0000446672D09D0792D30D0002D34D1FFF76A
:1061B00029FF1C4B18701C4B1D601B4D2E461B48A5
:1061C00007F03EF8431C01D167231DE00A28164A58
:1061D00007D02B687E2BF2DC5A1C3260144AD05454
:1061E000EDE713680025591C1160114A2846D55463
:1061F0000C4B1978FFF772FF0E4B2A468521186861
:10620000FFF76CFF20B97923238009E0852907D1A6
:10621000054B00221A60D0E700230380032070BDE5
:10622000012070BD4E740020BC440020B444002006
:10623000625F0020284300200D2810B5014615D0CC
:106240000B4C23782BB90B4806F0E7FF48B9012324
:1062500006E00A2805D1074806F0DFFF08B1002351
:1062600023700548FFF77AFF012010BD002010BD04
:10627000615F0020B44400209840002008B5054923
:106280000548802206F0C2FFBDE80840002103480F
:10629000FFF74CBFE15E0020B4440020984000208E
:1062A0002DE9F04106880546772E31D07E2E40D06C
:1062B000002E4ED12B4CFFF7A5FE266026462A4B1A
:1062C0002A4FDFF8B0801870236857F823204AB1AE
:1062D000002108F803109368802098473368013341
:1062E0003360F1E7224A1370772320E0214AD25627
:1062F000002A12DB1B4A136801331360194B1C4A36
:106300001B6812789A42F1DC1B4B1B68002BEBD008
:10631000194A00231360134AEFE7144A002052F889
:106320002320114B1978FFF7D9FE30B97E232B803B
:1063300014E00D4B1B788B4210D10A4B0D491A68A3
:106340008B5C03F07F038B540B4A1368013313609B
:10635000D0E7002303800320BDE8F0810120BDE8E1
:10636000F08100BFC44400204F7400205040002042
:10637000E25F00204A740020C044002010B40A4BA1
:106380000A491A780023934203DA51F82340A042C5
:1063900008D107490748CA5C62F07F02CA5410BCA2
:1063A000FFF7DCBE0133EEE7E25F00205040002043
:1063B0004A740020A8400020054A136843F00403F3
:1063C0001360044B1B68906943EA002080B2704759
:1063D00000700D4014700D4010B5184A136823F07A
:1063E0000C031360164B01221A601A68012AFCD1B3
:1063F000144B08221A60E322C3F8142203F5057334
:106400001946114A1368DB07FCD5104C10200023F5
:106410002268013802F0010243EA02034FEA430313
:106420009BB2F5D1002BF1D0094A180A03F0FE0304
:1064300010601360EF230B6010BD00BF00700D40B3
:10644000A8200D4024860840648608409C860840A9
:1064500014700D402DE9FF47224C234D04F1080331
:106460000FCB8DE80F002B786F4694F80780BBB1F7
:106470001E493A22A2710A88D21A92B20A80A2F167
:1064800028010812207103F128002044C3F10403FD
:1064900061712C3A011D184406F05EFB00232B703D
:1064A000134806F021FE0646DFF840A09EB1D6F85C
:1064B0000490B9F1000F09D0BAF800302A782C3BCB
:1064C00022449BB2383241463846C847304606F02F
:1064D00044FE0646EAE7054B2E701E8004B0BDE878
:1064E000F08700BF086A002005600020F4690020E2
:1064F000C8440020F8B52C4B2C4C1B7904F118062D
:10650000E371237E04F10805FF2B08D195E80F0005
:1065100086E80F003146284600F0DCFA1BE02F46E3
:10652000B646234A3B4603CB7345106051601F4675
:1065300002F10802F6D196E80F0085E80F001C4B27
:106540001C4D03F110062A4618685968083303C227
:10655000B3421546F7D1184D2B78BBB117493A22F3
:10656000A2710A88D21A92B20A80A2F128010812F6
:10657000207103F128002044C3F1040361712C3A17
:10658000011D184406F0E8FA00232B702B788122B5
:106590002833E518E25400236B706B8006F0D2FEBE
:1065A000C0436880F8BD00BF88680020086A0020EA
:1065B000F0570020206A002005600020F4690020C8
:1065C00038B504460B480D4606F08EFD50B10379F0
:1065D000A34204D143799D4206D0FF2B04D006F09C
:1065E000BCFDF3E7012038BD8368002BFAD0984743
:1065F000002038BDCC4400200146014806F091BD82
:10660000CC4400202DE9F74F474D82462B78894630
:106610009346464C43B12833E35C3A2B0BD1444AB2
:10662000002313802B707CE0A3793A2B03D194F9DB
:106630002830002BF3DA3F4E04F088FB37463E4A01
:1066400006F1100E334603CB7345106051601E46B1
:1066500002F10802F6D1364EDFF8D0803388414689
:1066600030339BB2B3F5A06F88BF4FF4A063338083
:1066700032882B78D21A04EB4300303A3030019341
:1066800006F06AFA6022019B22700022627062802A
:106690003A2213B188F8282001E088F80620274A1A
:1066A000224B1279E271228972B95A8962B99A89A8
:1066B00052B9DA8942B91A8A32B95A8A22B99A8AFF
:1066C00012B9DB8A002BAAD01D4B0FCB87E80F0035
:1066D000194B1B78FF2B05D1BAF1040F9FD1B9F1EB
:1066E000020F9CD11449164800F0F4F92F7858464F
:1066F00007F12803E21804F803A082F8019006F0DD
:106700002DFE33882C37283BE0511A1263712B7809
:10671000227128331C440023638006F013FEC0431B
:10672000608003B0BDE8F08F05600020086A00209B
:10673000F4690020206A0020F057002088680020BB
:10674000106A00202DE9F0411E460F461B49054600
:106750000C4660230B7000234B704B803A238B71E7
:10676000174B90461B7900F1100ECB71331D1A1296
:106770000A714B7101F118021346286869680835DF
:1067800003C375451A46F7D10E492C36A1F1100006
:1067900000F0A0F90C4B1B782833E518E7540023D0
:1067A0006B8085F8018006F0CDFDC043074B688003
:1067B0001E80BDE8F04102F0BFBF00BF086A0020A4
:1067C00088680020206A002005600020F46900200D
:1067D00008B50448FFF710FFBDE808400248FFF77E
:1067E0000BBF00BFB8400020C44000202DE9F3419A
:1067F000154D009104460E4690461F4601950346EE
:1068000020220321114806F02BFD01282B4616D12A
:106810002A6804F11001107020462A68023250F8EC
:10682000044B884242F8044BF9D11868089B8674DF
:106830004361099B80F813800777836100E00020A3
:1068400002B0BDE8F08100BFD4440020846900207C
:10685000F8B507460B4B0C4D03F160062B602C6816
:10686000B4420BD2237833B1A27C3946D208A01CA3
:1068700006F0CAF820B120342C60F0E70020F8BD03
:106880000120F8BD84690020D444002013B5084CD1
:10689000802300930194034620220321054806F03B
:1068A000DFFC08B9206800E0002002B010BD00BF86
:1068B000D8440020A068002030B548F2FE040C4BFC
:1068C0000C4A03F16001136013688B420CD21D78EF
:1068D0003DB1451C02D09D7C854202D15D88A54218
:1068E00003D020331360EFE70023184630BD00BF0C
:1068F000A0680020D844002030B548F2FE040C4BBC
:106900000C4A03F16001136013688B420CD21D78AE
:106910003DB1451C02D09D7C854202D15D88A542D7
:1069200003D120331360EFE70023184630BD00BFCA
:10693000A0680020D844002037B5104D8023009374
:10694000044603460195122205210D4806F088FCF5
:1069500001282B460ED12A6804F110011070204640
:106960002A68023250F8044B884242F8044BF9D1AD
:10697000186800E0002003B030BD00BFD044002004
:1069800024690020F7B5214C802300930546034677
:106990000E4617460194202203211D4806F060FC94
:1069A000012830D12A46236805F1100118702368A8
:1069B000023352F8040B8A4243F8040BF9D12068E1
:1069C000C77416B90123037505E00023037531462A
:1069D000183006F034FB23680E4801219974022315
:1069E0004370FF220023027043808380C3800381B1
:1069F0008372C17202736B7B4373EB89C381FFF7B0
:106A00009BFF206800E0002003B0F0BDD8440020C8
:106A1000A06800200058002013B5084C8023009384
:106A20000194034612220521054806F019FC08B915
:106A3000206800E0002002B010BD00BFD04400205C
:106A40002469002038B50546C8B10D48022200244B
:106A50004270FF230122C27244808480C48004817A
:106A6000847203730370EB7B43732B8AC381FFF73C
:106A7000D3FF044A106008B106F016FC2C7038BD34
:106A800000580020D044002070B50F4C0F4B264614
:106A9000236003F160052068A8420ED2037843B159
:106AA000037D33B91830FFF767F910B13068FFF78D
:106AB000C9FF236820332360EDE700F0E7FABDE863
:106AC0007040034806F0CBBAD8440020A0680020EC
:106AD000E46900202DE9F84F48F2FE030A880546D4
:106AE0009A420F4623D00A78FF2A20D01C4900245E
:106AF000A04689469B461B4A0A6002F1600AD9F803
:106B00000060564517D233786BB1B37C012B0AD1A4
:106B100073885B4507D0B11C384606F0D2FB804530
:106B20009CBF344680462036C9F80060E7E7012064
:106B3000FFF7C2FE04464CB92C806C80AC80EC8020
:106B40002C816C81AC81EC81BDE8F88FA31C1234E0
:106B500053F8042BA34245F8042BF9D1BDE8F88F74
:106B6000D8440020A068002070B5094EB0684508E0
:106B7000FFF722FC0446FFF71FFC2402B268A4B210
:106B80002044B0FBF2F302FB1300284470BD00BFA9
:106B90008868002073B52F4C01F004FB00F092F8D8
:106BA000602200212C4806F03BF80021F822204604
:106BB00006F036F8294B20221A70294B18221A7039
:106BC0004FF4A0632360274B40262671A360FFF794
:106BD000CBFF42F21073236148F2FE03314640F2CC
:106BE000FF260025E06025751F4C2A46238065801E
:106BF0002B46A580E580204601950095FFF7F6FD20
:106C000020461A4906F054FB294601222046FFF788
:106C1000B9FE4FF480732046E38126806580A5800D
:106C2000E58025816581A581FFF786FE4FF400731D
:106C3000204626806580A580E58025816581A58127
:106C4000E381FFF779FE0A480C2102B0BDE87040ED
:106C500006F0FCB988680020846900208169002062
:106C600080690020C027090000580020006A002029
:106C7000E46900202DE9F84305460F480F46904689
:106C800006F032FA0446DFF8389094B1012D04D8AA
:106C90000A4806F05BFA034601E0D9F800304246A4
:106CA000394628466668B047204606F056FA04463C
:106CB000EBE7BDE8F88300BFA8480020204500208E
:106CC0001C45002008B50B4806F04AFA0A4806F0B1
:106CD00008FA0A4B0A49186804F02EFB094806F026
:106CE0003FFA094806F0FDF9BDE80840074806F0FC
:106CF000F8B900BFF0400020A4450020EC4000207F
:106D000009D32000D040002020450020A8480020C2
:106D100008B540B1044B4168186807F076FABDE841
:106D2000084006F027BB08BDEC400020014806F0F3
:106D3000DBB900BFA445002008B506F01DFB38B143
:106D4000044B0146186807F04DFA003018BF0120C7
:106D500008BD00BFEC4000202DE9F0418046FFF760
:106D6000E5FF002704463E469CB194F82450AF420C
:106D70000AD8EA0804F10801404605F045FE18B9B2
:106D8000802D08D02F462646204606F0B9FA044644
:106D9000EAE76EB13446084806F0A6F9844207D007
:106DA0002146054806F0AAF92146034806F0C6F92F
:106DB0002046BDE8F08100BFA445002038B5044658
:106DC00000283ED04368002B3BD001461D4806F00A
:106DD00095F96368586806F087F9054630B143684D
:106DE0009C4207D0284606F0B8F9F6E704F10800FF
:106DF00002F036FA63682946586806F07FF963683E
:106E0000586806F071F928B9636859680E4B18681C
:106E100004F046FB21460D4806F0C6F929460C4809
:106E200006F0C2F90B4A20461368013B1360FFF7D6
:106E30006FFF04F108010246BDE838400320FFF768
:106E400019BF38BDA4450020EC400020F0400020D0
:106E5000FC4000201C45002010B5044680B140686D
:106E600070B106F041F920B14068FFF7A7FF6068F4
:106E7000F7E7044B2146BDE81040186804F010BB4A
:106E800010BD00BFEC4000202DE9F84F074610462A
:106E90008946904606F070FA834610B90020BDE896
:106EA000F88F3846FFF758FF044660B1FFF730FF10
:106EB000014628B11022404605F0A6FD002856D014
:106EC0002046FFF77BFF2B4B1A689A46102AE5D025
:106ED000294E5946306807F085F9054668B90346DA
:106EE00004225946306804F057FA05460028D5D0E8
:106EF00000236860036006F0F4F8204806F040F9CB
:106F000004460028CAD001461D4806F017F91D485E
:106F100006F036F920B92146184806F045F9BDE7D4
:106F200044600146686806F0FCF8DAF800306560F5
:106F3000013329463068CAF8003004F0C7FA3B46EE
:106F400004F1080507F110062A4618685968083345
:106F500003C2B3421546F7D1002384F82490A361FD
:106F6000E3612362424639460220FFF783FE204652
:106F7000BDE8F88F1C450020EC400020F0400020C8
:106F8000A4450020FC40002038B505460D4806F019
:106F9000ABF80446A0B1AC420ED12146094806F038
:106FA000ADF82146084806F0FFF8221D1146BDE85D
:106FB00038400120FFF75EBE204606F0CEF8E8E735
:106FC00038BD00BF20450020D040002038B5054620
:106FD000084806F089F8044648B110222946201DC9
:106FE00005F012FD18B1204606F0B7F8F3E7204689
:106FF00038BD00BF20450020F8B505460F46FFF715
:10700000E5FF044640B9134806F0BAF80446F0B16B
:107010000146114806F092F82B46261D05F1100E88
:10702000324618685968083303C273451646F7D1CB
:1070300037B1394604F1140006F001F8002300E0EE
:10704000012323772A4629460020FFF713FE204616
:10705000F8BD00BFD04000202045002038B50A48C8
:1070600006F042F8044600255CB1251D284601F0D3
:10707000CDF808B1437C23B9204606F06EF80446EB
:10708000F2E7284638BD00BF2045002010B50A4869
:1070900006F02AF8044670B1237F43B904F11400C6
:1070A000FEF76AFE18B12046FFF76EFFEFE72046B5
:1070B00006F053F8EEE710BD2045002037B5124B1F
:1070C000124D1C782B796A79C4EB032313449BB2CD
:1070D000ADF80630BDF806302022184405F108014D
:1070E00080B206F013F9BDF8062004F1280192B22F
:1070F000294406F00BF910B140BA80B201E04FF616
:10710000FF7003B030BD00BF05600020086A00209A
:10711000F8B52C4F2C4D97F800E02C4C0EF1280CB4
:107120000CEB05035E780220F60020700736002184
:10713000864242DB0CEB0003EA18EB5C012B05D026
:1071400002D3632B06D014E0013033E052780232D0
:1071500010442FE001B1207003F076FDB8B13B7808
:107160002278283313441D446B7813440233237070
:1071700025E003F0C003802B04D0C02B09D0402BA6
:1071800015D102E051B1207008E001B1207001205A
:10719000F8BD01B120702B7EFF2BF8D00EEB000262
:1071A000283202210420FFF72DFA0220F8BD53787F
:1071B00002331844C0B20121BAE701B120700020A7
:1071C000F8BD00BF05600020086A00200B600020A9
:1071D000F0B5C578124A0D44EDB2D57083780F0A28
:1071E0003B44DBB2937044789F425470067816702B
:1071F00005D9601CC0B2507008B901361670C9B20A
:107200008D420CDA0133DBB2054993703BB94B7800
:107210000133DBB24B7013B90B7801330B70F0BD47
:10722000FC69002010B5094C0146236803F11400E5
:10723000FFF7CEFF064A2368117819755178597502
:107240009178D2789975DA7510BD00BF2C6F002047
:10725000FC69002008B5FFF79DFCFFF7B9FA06F0BE
:1072600094F8002319460F4A22F813100133082B13
:10727000FAD1002319460C481A183033B3F5F07FC1
:1072800082F82510F8D1094B4FF480621A80002350
:10729000194607481A182033B3F5A07F1182F9D197
:1072A00008BD00BF18710020306F0020105800206A
:1072B0002C710020F0B5344A344F138801339BB24F
:1072C000B3F5FA4F28BF4FF480531C0A44EA032455
:1072D000A4B20025EE1996F825E0BEF1000F02D009
:1072E000368AA642EAD03035B5F5F07FF2D1138068
:1072F000264A002302F5F07692F8255085B1072D35
:1073000009D13BB192F8267093F82650AF4288BF5E
:10731000134600E013463032B242EDD10BB930E0F3
:107320001346022283F82520194A1C8215785982B7
:107330001D76557800F110065D769578D2789D76A9
:107340004025DA76DD8300221D8401251A755A75E1
:107350009A75DA759D8383F8272083F8265083F881
:1073600022200325102283F8245083F823201D4671
:1073700002462C4610685168083203C4B2422546C2
:10738000F7D11846F0BD00BF10580020306F002024
:1073900007600020F8B5104E3578DDB10F4F05F1CC
:1073A00027033C88A34202DB00233B8011E00C4B07
:1073B000A4F12802521B5919184605F0CDFB641B95
:1073C000A4B23C80283C221200F8242C00F8234C64
:1073D00000233370F8BD00BF05600020F469002071
:1073E000306A0020074A002332F81310814204D18A
:1073F000044A002122F8131070470133082BF3D1FF
:10740000704700BF1871002004282DE9F74FA14EE6
:1074100000F06B82A049A14DA14FA24A03283C680D
:107420000D6015608A4615D194F8253003F00F03DE
:10743000032B08D1A38B002B40F064869A4B0822C3
:107440001A7000F054BD022B40F05C86002305F852
:10745000073CABE302287AD1944A00231370944A84
:1074600033801380934AD3780133DBB2D37063B98E
:1074700093780133DBB293703BB953780133DBB2BD
:10748000537013B913780133137094F8253003F057
:10749000FD02052A0DD194F826300133DBB2782B9A
:1074A00084F8263040F02E86002384F8253000F042
:1074B00029BE002B00F02686A28B7B48002A3DD0F7
:1074C00094F82620511E84F82610002A40F01A86CF
:1074D00094F82720082A04D0591E01290AD8052A21
:1074E00008D1002384F825308023037002F06CFA61
:1074F00000F00BBD042A9CBF0321914003F00F0351
:1075000094BFC9B230210132013B84F8261084F8BF
:107510002720072B00F2F685DFE813F0440308006C
:107520000A00AF04F405AF04F405AF0400223AE307
:107530000423037002F048FA00F014BD03F00F03B7
:10754000032B40F0DF850823037000F0D0BC052832
:1075500011D1594B1B681B8A002B00F0D3850C3DC1
:107560001560534A002313803B6033804E4B082242
:107570000D601A70B7E115F83C3C3C3D03F0F00398
:10758000602B40F0BF852A796B7912023188D018C0
:10759000884200F3B7852833134433802B7AFF2BBE
:1075A00000F0B085454BAA1D404F454C1A600022A3
:1075B0003A702270AA799846B2B901232370FFF776
:1075C000A7FD012800F09E8503D3022800F09685D0
:1075D0000AE03B7803F128022A44C8F800205278D8
:1075E000083303EBC2033B703648FFF74FF910B185
:1075F000DFF8CC90AEE03348FFF70EFA0028F7D161
:107600002A7E304BFF2AA3F118035FD048F2FE0018
:10761000198B81425AD01989814257D079B9598939
:1076200069B9998959B9D98949B91B8A3BB9698A14
:10763000254B21B9998A11B9DB8A002B46D0298BB9
:10764000214B79B9598B69B9998B59B9D98B49B9FA
:10765000198C39B9598C29B9998C19B9DB8CB3F5C6
:10766000807F33D03388B3F5A06F04D94FF4A06284
:107670000021022005E0EB79012B06D800221146FB
:107680000320FEF7BFFF00F039BD0F4A013BD37165
:1076900000F034BDF4690020286F0020446A002007
:1076A0002C6F0020F86900201C6F0020056000206E
:1076B0002871002007600020246F0020206F002028
:1076C00006600020206A0020086A002048F2FE03BD
:1076D0002989994240F01685298B9F4B81B9598B96
:1076E00071B9998B61B9D98B51B9198C41B9598C40
:1076F00031B9998C21B9DB8CB3F5807F00F002851C
:10770000FF2A00F0FF849548FFF7A2F80246002800
:1077100040F0F8840221D4E024D9BBF13A0F74D0B0
:107720002BD9BBF13B0F00F0ED84BBF13C0F68D1CE
:1077300023789A073AD5590663D443F0400389F871
:107740000030FFF7E5FC012800F0DC8431D302288B
:1077500000F0D484D8F8000090F800B0BBF12B0FF3
:10776000DAD132E0BBF1060F00F01081BBF1110F4E
:107770006AD0BBF1000F44D104E0BBF12C0F00F044
:10778000C1843EE02378D9073BD443F0010389F854
:107790000030FFF7BDFC012800F0B484D7D23B785D
:1077A0006F4A03F128012944116008E043F0020305
:1077B000C5E73B7803F128012944C8F8001049784F
:1077C000083303EBC1033B70C4E7237803F00402E2
:1077D00002F0FF01AAB943F0040389F800303B78B6
:1077E00003F128002844C27812B103F12A020AE00A
:1077F0005B4A4178106008335A4A03EBC1031370A7
:10780000A8E7421B012104203BE705F09BFD4FF652
:10781000FF73984240F076843B782833E85C01F0AF
:1078200065FF3B782833EA18E85C5178FEF7C8FE1C
:10783000012801BF00234B4A338013703388002B8B
:1078400000F0608400F05ABCFFF7A4FDEB8D85F8D2
:1078500006B073B9B5F82A80B8F1000F00F0528471
:10786000414F424D3C4B2F60B3F8289007F5A0776D
:107870000BE005F06DFD4FF6FF73984240F0428437
:10788000E8E7238A2BB920342C602C68BC42F8D35B
:1078900015E09845F7D1638A0BB14B45F3D12368C6
:1078A0002BB963681BB9A3680BB9E3685BB11022FD
:1078B00021462F4805F0A8F80028E4D103E0002273
:1078C00004210120DDE633882A49303B3380002340
:1078D0000B6029490220294A08702949CAF800206A
:1078E0000A60284A138002F06FF8264B1A88002A93
:1078F00000F0088402F13003174C9BB23380283B20
:1079000019126371194B08321B6852BA2171197D23
:10791000A2850022E2851A8AE17122855A8A112104
:107920006285A17104F118050FCB85E80F00294687
:1079300004F10800FFF7CEF8134B04F13C021A6083
:1079400005F006FDC04380B208B1E085D0E34FF6F4
:10795000FF73E385CCE300BF086A0020206A0020A3
:10796000206F0020056000202C710020246F002073
:10797000106A00202C6F00201C6F0020386A002045
:10798000F869002028710020286F0020FFF702FD11
:1079900085F806B005F0D9FC4FF6FF739842AF4C5E
:1079A00040F0B083B4F82A90B9F1000F00F0AA8338
:1079B000B4F828B0BBF1000F00F0A483A84C04F584
:1079C000F07394F82580B8F1000F0FD0228A4A4551
:1079D0000CD1628A5A4509D110222146A14801934F
:1079E00005F012F8019B002800F0F68030349C422C
:1079F000E7D195F8353003F03F03022B08D19A4ABE
:107A0000002332F81310494550D00133082BF8D128
:107A100095F83520914B520700F17483142283F8B6
:107A200035203C223280502283F8342093F83320D2
:107A300093F8314093F82F0083F82F2093F83220E9
:107A400093F82E1093F8307083F82E20013093F8BD
:107A50002D2083F82D4093F82C40C0B283F83210CB
:107A600083F8312083F82C7083F8304083F833009A
:107A700060B90131C9B283F8321039B90132D2B2DA
:107A800083F8312012B9621C83F830202B8D6A8D67
:107A9000744C2A856B8504F1100594E80F0085E885
:107AA0000F0029462046FFF715F80CE30024224674
:107AB0006B4B93F8251021B9694B302404FB023439
:107AC00013E0072909D13CB193F8260094F8261059
:107AD000884288BF1C4600E01C4601320A2A03F196
