:020000040020DA
:10200000707900208D22200097D4200095D42000E4
:1020100095D4200095D4200095D420000000000025
:1020200000000000000000000000000095D4200027
:1020300095D420000000000095D4200045D6200053
:1020400067D620006DD6200073D6200079D62000F8
:10205000000000004BD6200051D6200095D420006F
:1020600095D42000000000000000000000000000E7
:10207000000000000000000095D4200000000000D7
:10208000000000000000000095D4200095D420003E
:1020900095D4200095D4200095D4200095D420001C
:1020A00095D4200095D4200095D4200095D420000C
:1020B00095D4200095D4200095D4200095D42000FC
:1020C00095D4200095D4200095D4200095D42000EC
:1020D00095D4200000000000000000000000000077
:1020E00000000000000000000000000000000000F0
:1020F00000000000000000000156200011562000E2
:1021000000000000000000000000000000000000CF
:1021100000000000000000000000000000000000BF
:1021200000000000000000000000000000000000AF
:10213000000000000000000000000000000000009F
:10214000000000000000000000000000000000008F
:10215000000000000000000000000000000000007F
:10216000000000000000000000000000000000006F
:10217000000000000000000000000000000000005F
:10218000000000000000000000000000000000004F
:10219000000000000000000000000000000000003F
:1021A000000000000000000000000000000000002F
:1021B000000000000000000000000000000000001F
:1021C000000000000000000000000000000000000F
:1021D00000000000000000000000000000000000FF
:1021E00000000000000000000000000000000000EF
:1021F00000000000000000000000000000000000DF
:1022000000000000000000000000000000000000CE
:1022100000000000000000000000000000000000BE
:1022200000000000000000000000000000000000AE
:10223000000000000000000000000000000000009E
:10224000000000000000000000000000000000008E
:10225000000000000000000000000000000000007E
:10226000000000000000000000000000000000006E
:1022700095D42000E95420000D5520002D47200062
:1022800071572000BD41200095D4200008B5094BAE
:10229000FF221A600848094A4824E3690849121ACB
:1022A00098470848084AA3690021121A984701F084
:1022B0006BFCFEE7B4200D4040400020354200207A
:1022C000C4F92000384200206C71002010B504468B
:1022D000436E9847034BE06E19780022BDE810402A
:1022E00004F0A6B85A7100202DE9F3470C461746B2
:1022F0001E46002B00F0698191F8B0341BB101F546
:1023000095600BF0DEF894F8B1346BB93B78012E90
:1023100084F8B134D4F8AC3403F10103C4F8AC341C
:1023200000F05381012500E0002594F8B7345BBB31
:102330007819B54280F04981D4F8AC3494F8B824C7
:1023400001330132052B10F8011B05F10105C4F81A
:10235000AC3484F8B82405D9204680210022FFF748
:10236000B5FF32E194F8B634B4F8B2E401F07F027C
:1023700002FB03E2DB0184F8B6340B06A4F8B224B6
:10238000D7D4012384F8B734B4F8B224B2F5007F6F
:1023900036D994F8B13403F0F003302B30D0D4F8B0
:1023A000AC3401321E449642C4F8AC64C0F00D81D6
:1023B00008E102F0F002302A2CD094F8B904C5EB01
:1023C0000608C0F50073984528BF9846204479193F
:1023D000424600F2BA400AF007FFD4F8AC3494F851
:1023E000B9244344424484F8B924C4F8AC34454485
:1023F0000022D1B2414502F10102FAD3B54262D2C4
:10240000B4F8B224D4F8AC340132934294F8B12435
:10241000CFD35EE094F8BF26002ACED194F8BE2632
:10242000A2B97A5D691C1202581CB142A4F8BA26FE
:10243000C4F8AC0445D2795C02330A43C4F8AC3426
:1024400001230235A4F8BA2684F8BE36B4F8BEA635
:10245000BAF1010FB1D1B4F8BC06B4F8BA36C5EB85
:1024600006081A1A904528BF904620441FFA88F99A
:1024700079194A4600F2C4600AF0B6FEB4F8BC26E8
:10248000D4F8AC344244B4F8BA1692B24B449142F8
:102490004D44C4F8AC34A4F8BC260ED16318002215
:1024A00084F8BFA683F8C426B4F8B234023B5B1AA2
:1024B0009BB2A4F81037A4F81237012384F80E3722
:1024C0007BE70D4679E7B4F8B2240132934297D204
:1024D0007BE002F0F003502B6FD006D8302B38D0C1
:1024E000402B45D0202B6DD118E0702B65D002D841
:1024F000602B62D066E0902B4FF0010246D0B02BEB
:1025000060D184F8992294F8BB3494F8BA24204618
:1025100043EA0223A4F8B43403214BE094F8BB341B
:102520002BB12046822104F2BB42FFF7CFFEE18AA5
:10253000012384F8993204F11800C901254A234681
:1025400003F08AFD0823002184F8603020460A4603
:1025500036E004F2BA43C4F8083794F8B934204698
:10256000A4F80C370023A4F812370AF0B4FF29E0CE
:10257000012384F8993294F8BA2494F8BB342046A5
:1025800043EA0223A4F8B434052113E084F8992225
:1025900094F8BB3494F8BA24204643EA022394F812
:1025A000BC24ADF804308DF80620A4F8B434022120
:1025B00001AA05E004F2B44202E020468421002290
:1025C000FFF784FE012384F8B034002002B0BDE898
:1025D000F08700BFD925200010B590F838300246AA
:1025E0008BB100F22C74022380F8603020460BF08F
:1025F0008AFB204607F07EFB2046BDE81040002104
:1026000034220AF0CBBE034B03481978BDE81040D2
:1026100003F00EBFEC5B00204040002030B50446C4
:102620000523002580F86030012385B0A0F86830CC
:10263000A0F89C5280F8385000F595600AF041FFF0
:102640000E4A04F1740302920D4A84F87452009306
:1026500004F22C754FF400730392214604F2A62273
:102660000193284607F0CCFA2846B4F8282704F549
:10267000E36105B0BDE8304007F0F8BAE922200078
:102680008526200013B50C468DF80720042A3BD878
:10269000DFE802F0200303032D001C4B22461978CB
:1026A0001B4803F0C5FE032384F8603004F11800D2
:1026B00003F014FD204601210DF10702FFF706FE8D
:1026C00020460AF020FF637D012B1DD12046FFF735
:1026D000A5FF19E0062381F86030012381F87432E8
:1026E0000C4B224619780A4803F0A2FE0CE0B1F820
:1026F0004E372BB9012381F8743201F174030B6753
:1027000004F1180003F0CEFC02B010BDF35B002012
:1027100040400020EF5B002038B51D4C2578002D8F
:1027200034D103F019FE1B4B18701B4B187003F0CB
:1027300013FE1A4B187003F00FFE194B187003F0BC
:102740000BFE184B187003F007FE174B187003F0C0
:1027500003FE164B187003F0FFFD154B187003F0C5
:10276000FBFD144B187003F0F7FD134B1870134B5F
:10277000187003F0F1FD124B187012480BF041F97C
:102780001148294603F07CFE0123237038BD00BFA9
:10279000F45B0020F75B0020ED5B0020EF5B002086
:1027A000F25B0020F55B0020F65B0020F05B002070
:1027B000EC5B00205A710020F35B0020EE5B0020F0
:1027C000F15B00204C42002040400020F8B51F463D
:1027D000137804460E46154633B34FF4EC620021DD
:1027E0000AF0DCFD294604F10C000AF0F3FEBDF806
:1027F0001820012300256375A4F8A422A4F86830EA
:1028000004F595606766E666A4F89C5284F8385033
:102810000AF057FE84F87452FFF77EFF0348214602
:102820000BF010F92846F8BD8220F8BD4C4200207C
:102830007FB5044690F8600003281ED8E38204F1B7
:1028400074032367002384F89932237DC4F8141796
:1028500043F00203A4F828272375084604F5E3662D
:1028600069460BF05CFA9DE80F0086E80F00044B08
:1028700004481978224603F0DBFD002004B070BD47
:10288000F75B00204040002090F860300246082BA3
:1028900007D1092380F86030024B0348197803F010
:1028A000C7BD7047F25B0020404000202DE9F34196
:1028B0008DF8071040F2A741038806468B42154663
:1028C00000F01283B3F5956F0CD240F282418B4237
:1028D0001ED040F299418B4200F03687002B40F029
:1028E0009D8057E040F2C6418B4200F0E58305D859
:1028F00040F2B9418B4200F06A838FE040F2D3414D
:102900008B4200F0F284B3F59C6F00F0F08585E017
:10291000C44B9DF807201B789A4207D1C24B28462A
:102920001D600A2385F860300AF0EDFDBF4B9DF86D
:1029300007201B789A4204D1BB4B28461D60FFF745
:102940006DFEBB4B9DF807201B789A4225D0B94AF3
:102950009DF807301178994200F0B782B64B9DF888
:1029600007201B789A4200F02283B44B9DF8072081
:102970001B789A4200F09083B14B9DF807201B789A
:102980009A4200F0A284AF4B9DF807201B789A4230
:1029900000F09D8540F282433CE0A34B1D60B5F8FA
:1029A000A432A5F8543795F87432012BCFD1002307
:1029B000A5F89C329C4F3C68B4F89C32B3F5D17FAB
:1029C00000F08B8157D8B3F5CD7F00F00A8132D863
:1029D00040F29712934200F0D980B3F5CC7F22D217
:1029E000002B00F08E80B3F5CA7F40F06A8294F825
:1029F0007432002B40F0B3803B6893F860300A2BB0
:102A0000A5D0914B00221868904B197803F010FD67
:102A100040F299433380012000F040BF002333800F
:102A2000032000F03BBF00F0BF8040F299129342B8
:102A300000F0C88045E240F29D12934200F01481FC
:102A4000B3F5CF7F09D240F29B12934200F0D780BA
:102A5000B3F5CE7F00F0E18033E240F29F12934263
:102A600000F01E81B3F5CF7F40F20C81B3F5D07F2B
:102A700000F0248125E240F2B312934200F0A281DB
:102A8000B3F5DA7F20D240F2A712934200F05A81C8
:102A9000B3F5D47F09D2B3F5D27F00F0348140F290
:102AA000A512934200F03E810BE240F2A91293423C
:102AB00000F06581B3F5D47F40F2528140F2AB1251
:102AC000934200F06D81FCE1B3F5DD7F00F0BC8145
:102AD00009D8B3F5DA7F00F0848140F2B71293424F
:102AE00000F09081EDE1B3F5DF7F00F0CD81B3F52B
:102AF000E57F00F0CE8140F2BB12934240F0E181CD
:102B0000B1E1228A102384F8783202B1023202F154
:102B10000C03B4F8542002B102321344B4F85C2020
:102B200002B102321344B4F8402002B1023213441D
:102B3000B4F8482002B102321A44C4F87C2204F5E9
:102B4000207004F521710AF0A9FC94F88432042B5A
:102B500005D9204681210022FFF7B8FBB1E12046CC
:102B600094F878120AF0FFFC20B14FF4CA73A4F86D
:102B70009C323CE7204604F5207194F884220AF048
:102B800002FD40B140F29713A4F89C3294F87432DD
:102B9000002BEFD130E7204600210AF0E4FC40B1E1
:102BA0004FF4CC73A4F89C3294F87432002BF2D119
:102BB00022E7204606210AF0D6FC40B140F29913E4
:102BC000A4F89C3294F87432002BF2D114E720461A
:102BD0001F4906220AF0D7FC40B14FF4CD73A4F888
:102BE0009C3294F87432002BF1D105E72046032182
:102BF0000AF0B9FC40B140F29B13A4F89C3294F85F
:102C00007432002BF2D1F7E62046217D0AF0ABFCAE
:102C100000B34FF4CE73A4F89C3294F87432002BB6
:102C2000F2D1E9E6F35B002048420020F75B002088
:102C3000EF5B0020F25B0020EC5B0020F55B0020E6
:102C4000F65B0020F05B002048430020F15B002091
:102C500004F22000E18A2046090A0AF084FC40B10F
:102C600040F29D13A4F89C3294F87432002BF1D1F9
:102C7000C2E62046A17D0AF076FC40B14FF4CF7346
:102C8000A4F89C3294F87432002BF2D1B4E62046BA
:102C900000210AF068FC40B140F29F13A4F89C3276
:102CA00094F87432002BF2D1A6E62046217C0AF07B
:102CB0005AFC40B14FF4D073A4F89C3294F87432AB
:102CC000002BF2D198E62046E168228A0AF05BFCEC
:102CD00040B14FF4D173A4F89C3294F87432002BB5
:102CE000F1D189E6237D5A0704D494F91430002BDE
:102CF0005BDA5EE0204600210AF035FC40B14FF47B
:102D0000D273A4F89C3294F87432002BF2D173E69B
:102D1000204694F840100AF026FC40B140F2A5137A
:102D2000A4F89C3294F87432002BF1D164E620466A
:102D3000E16BB4F840200AF026FC40B140F2A71342
:102D4000A4F89C3294F87432002BF0D154E620465B
:102D500000210AF008FC40B14FF4D473A4F89C326F
:102D600094F87432002BF2D146E6204694F84810CD
:102D70000AF0F9FB40B140F2A913A4F89C3294F890
:102D80007432002BF1D137E62046616CB4F848204C
:102D90000AF0F9FB0028A8D040F2AB13A4F89C324B
:102DA00094F87432002BEFD126E6237D5B0642D4E3
:102DB0002DE0204600210AF0D6FB40B140F2B313CB
:102DC000A4F89C3294F87432002BF2D114E6204619
:102DD00094F854100AF0C7FB40B14FF4DA73A4F82A
:102DE0009C3294F87432002BF1D105E62046216D17
:102DF000B4F854200AF0C7FB0028D6D040F2B7132D
:102E0000A4F89C3294F87432002BEFD1F4E52046FC
:102E10000AF098FB072384F86030201D4FF4A0616E
:102E20000AF0CFFD04F595600AF04BFB4FF4E57313
:102E3000A4F89C322DE0204600210AF094FB40B11A
:102E40004FF4DD73A4F89C3294F87432002BF2D165
:102E5000D2E5204694F85C100AF085FB40B140F2C0
:102E6000BB13A4F89C3294F87432002BF1D1C3E563
:102E70002046A16DB4F85C200AF085FB0028C6D07E
:102E80004FF4DF73A4F89C3294F87432002BEFD126
:102E9000B2E594F8993204F10408012B07D14046B9
:102EA0000AF0A1FD48B12046FFF7EEFC05E04046E0
:102EB0000AF099FD0028F2D19EE504F595600AF02C
:102EC00000FB0023A4F89C3241E5BF4B1D6095F840
:102ED0006030092B7FF442AD95F87432012B61D13B
:102EE0000023A5F89C320BE0B84B9DF807101B7827
:102EF0008B4200F03F84B64B1B788B4240F24484F7
:102F000040F2E512B04F3C68B4F89C32934212D0C4
:102F1000B3F5F37F01D22BB137E01BD0B3F5F87FC7
:102F20002AD032E02046E0210AF01DFB48B140F2F1
:102F3000E513A4F89C3294F87432002BF2D100F01F
:102F40002EBC204600210AF00EFB48B14FF4F3736B
:102F5000A4F89C3294F87432002BF2D100F01FBC1C
:102F600020460AF0EFFA201D4FF480710AF029FD87
:102F70004FF4F873A4F89C3294F874322BB9201DE6
:102F80000AF031FD002800F00A840023A4F89C32E6
:102F900038680AF0B8FA386801210DF10702FFF726
:102FA00095F9DBE42A468B4803F042FAD6E4864BD7
:102FB0001D6095F87432012B7FF4D7AC95F8603022
:102FC000082B7FF4D2AC0023A5F89C320BE07F4B9A
:102FD0009DF807101B788B4200F0CC837C4B1B784C
:102FE0008B4240F2ED8340F2D221774A14681746B3
:102FF000B4F89C328B4214D001D84BB148E040F277
:10300000D32293421BD040F2DE2293422FD03FE0E6
:103010002046C0210AF0A7FA40B140F2D223A4F81A
:103020009C3294F87432002BF2D1D3E32046002175
:103030000AF099FA40B140F2D323A4F89C3294F8F4
:103040007432002BF2D1C5E320460AF07BFA01234B
:1030500084F8383004F595600AF033FA201D4FF4F7
:10306000A0610AF0AEFC40F2DE23A4F89C3294F892
:10307000B0343BB104F595600AF023FA002384F8DC
:10308000383005E0201D0AF0AEFC0028F2D1A1E3A3
:103090000023A4F89C3268E44B4B1D6095F8743211
:1030A000012B7FF469AC95F86030082B7FF464AC99
:1030B0000023A5F89C320BE0444B9DF807101B78C9
:1030C0008B4200F05783424B1B788B4240F2938334
:1030D00040F216223C4B1C689846B4F89C7297420A
:1030E00000F084800ED8B7F5047F48D001D817B31C
:1030F000E6E040F213239F4252D040F215239F4254
:103100005CD0DDE040F21B239F4200F09F80B7F5CA
:10311000077F08D2B7F5067F78D040F219239F4287
:1031200000F08380CCE000F0A08040F225239F4295
:1031300000F0B080C4E0B4F88C228223053284F819
:103140007832C4F87C2204F5207004F521710AF06D
:10315000A5F994F88432042B07D9204681213A46F8
:10316000FFF7B4F8A4F89C7206E4204694F87812AD
:103170000AF0F9F940B14FF40473A4F89C3294F8C2
:103180007432002BF1D140E3204604F5207194F80D
:1031900084220AF0F8F940B140F21323A4F89C32DB
:1031A00094F87432002BEFD12FE3204600210AF06F
:1031B000DAF988B140F21523A4F89C3294F87432FD
:1031C000002BF2D121E300BF48420020F35B002036
:1031D000ED5B002040400020204694F886120AF063
:1031E000C2F940B140F21623A4F89C3294F874322C
:1031F000002BF1D109E3B4F88C122046090A0AF039
:10320000B2F940B14FF40673A4F89C3294F87432CA
:10321000002BF0D1F9E2204694F88C120AF0A3F9C1
:1032200040B140F21923A4F89C3294F87432002B78
:10323000F1D1EAE22046D4F88812B4F88C220AF0E0
:10324000A2F940B140F21B23A4F89C3294F87432E6
:10325000002BEFD1D9E2204694F898120AF083F9B6
:1032600040B14FF40773A4F89C3294F87432002BE9
:10327000F1D1CAE220460AF065F9201D4FF4A061A1
:103280000AF09FFB04F595600AF01BF940F2252334
:10329000A4F89C3294F89932271D012B0AD13846A4
:1032A0000AF0A1FB04F595600AF00BF9002384F8FD
:1032B0006A3005E038460AF096FB0028EFD1A4E218
:1032C0000023A4F89C32FFF757BBC84B1D6095F84C
:1032D0007432012B7FF457AB95F86030082B7FF4E4
:1032E00052AB0023A5F89C320BE0C14B9DF80710B0
:1032F0001B788B4200F03E82BE4B1B788B4240F223
:103300009682BA4B1C689846B4F89C72B7F5157F44
:103310007DD011D840F24F239F424AD0B7F5147F99
:1033200001D20FB3CEE040F251239F4252D040F27F
:1033300053239F425CD0C5E040F257239F4200F0E8
:103340008580B7F5167F04D240F256239F426ED097
:10335000B8E040F259239F4200F0898040F2622396
:103360009F4200F09980ADE0B4F88C22A223043291
:1033700084F87832C4F87C2204F5207004F52171B9
:103380000AF08CF894F88432042B08D92046812165
:103390003A46FEF79BFFA4F89C72FFF7F4BA20466A
:1033A00094F878120AF0DFF840B140F24F23A4F805
:1033B0009C3294F87432002BF1D142E2204604F59D
:1033C000207194F884220AF0DEF840B140F25123D3
:1033D000A4F89C3294F87432002BEFD131E22046ED
:1033E00000210AF0C0F840B140F25323A4F89C3207
:1033F00094F87432002BF2D123E2204694F886121E
:103400000AF0B1F840B14FF41573A4F89C3294F867
:103410007432002BF1D114E2B4F88C122046090A60
:103420000AF0A1F840B140F25623A4F89C3294F877
:103430007432002BF0D104E2204694F88C120AF08A
:1034400092F840B140F25723A4F89C3294F87432B9
:10345000002BF1D1F5E12046D4F88812B4F88C2283
:103460000AF091F840B140F25923A4F89C3294F844
:103470007432002BEFD1E4E120460AF063F8201DFE
:103480004FF4A0610AF09DFA04F595600AF019F86E
:1034900040F26223A4F89C3294F89932271D012B44
:1034A0000AD138460AF09FFA04F595600AF009F847
:1034B000002384F86A3005E038460AF094FA0028C0
:1034C000EFD1BEE10023A4F89C32FFF75CBA474B72
:1034D0001D6095F87432012B7FF45CAA95F860307A
:1034E000082B7FF457AA0023A5F89C320BE0404B31
:1034F0009DF807101B788B4200F03C813D4B1B78F8
:103500008B4240F2B081394D2C68B4F89C32B3F54F
:10351000267F00F09C8011D840F2932293425FD026
:10352000B3F5257F01D223B309E140F295229342FE
:103530006ED040F2972293427AD000E140F29D2271
:10354000934200F0B58009D840F29A22934200F0ED
:103550008F80B3F5277F00F09C80F0E040F2A2223C
:10356000934200F0B68040F2B322934200F0D18043
:10357000E5E094F8982294F89A12530043F030034F
:10358000DBB2012984F8783204BF43F0010384F8E8
:103590007832B4F88C12D4F894320B440AB902335E
:1035A00000E00433C4F87C3204F5207004F5217186
:1035B000D4F87C2209F072FF94F88432042B05D9E8
:1035C000204681210022FEF781FEB8E0204694F8D3
:1035D000781209F0C8FF78B140F29323A4F89C3226
:1035E00094F87432002BF1D147E100BF484200202B
:1035F000F35B0020ED5B0020204604F5207194F879
:10360000842209F0C0FF40B140F29523A4F89C3217
:1036100094F87432002BEFD12FE1B4F88C122046CD
:10362000090A09F0A0FF40B140F29723A4F89C32A8
:1036300094F87432002BF0D11FE1204694F88C12DC
:1036400009F091FF40B14FF42673A4F89C3294F82E
:103650007432002BF1D110E12046D4F88812B4F86E
:103660008C2209F090FF40B140F29A23A4F89C32DA
:1036700094F87432002BEFD1FFE094F89832E3B164
:103680002046002109F06FFF40B14FF42773A4F8E2
:103690009C3294F87432002BF2D1EEE0204694F87C
:1036A000861209F060FF40B140F29D23A4F89C32DD
:1036B00094F87432002BF1D1DFE02046D4F8901258
:1036C000B4F8942209F05FFF40B140F2A223A4F8BD
:1036D0009C3294F87432002BEFD1CEE0204609F0F2
:1036E00031FF201D4FF4A0610AF06BF994F8982285
:1036F0002AB96C4BE06E197802F09AFE18E0012AA4
:1037000016D104F5956009F0DCFE40F2B323A4F86D
:103710009C3294F89932271D012B03D138460AF0C8
:1037200062F905E038460AF05EF90028F6D1A4E017
:1037300004F5956009F0C5FE002384F86A30002383
:10374000A4F89C32FFF726B9574B9DF807101B7859
:103750008B420FD0554B1B788B423FF62BA9544B15
:103760001B788B42FFF426A9524B186802F060FECA
:10377000FFF720B9504B0A221B68022083F8602013
:103780000022A3F89C2289E0494B1B788B42FFF46E
:10379000B7AB484B186802F04BFEFFF7B1BB3B6874
:1037A00093F860300A2B3FF4F3AB424B00221868C9
:1037B000424B197802F03CFE40F2A743FFF72AB9CA
:1037C0003B4B1B788B42FFF40EAC3A4B186802F06F
:1037D0002FFE08E43B6893F86030082B7FF4C5A8FF
:1037E000344B00221868354B197802F021FE40F264
:1037F000B943FFF70FB92E4B1B788B42FFF468AC2F
:103800002C4B186802F014FE62E4D8F8003093F8EC
:103810006030082B7FF4B0A8264B00221868274B95
:10382000197802F005FE40F2C643FFF7F3B8204BCB
:103830001B788B42FFF465AD1E4B186802F0F8FD53
:103840005FE5D8F8003093F86030082B7FF49BA830
:10385000184B00221868194B197802F0E9FD40F264
:10386000D343FFF7D7B8124B1B788B42FFF44BAE14
:10387000104B186802F0DCFD45E62B6893F86030C9
:10388000082B7FF487A80B4B002218680B4B197884
:1038900002F0CEFD4FF49C63FFF7BCB802B0BDE868
:1038A000F08100BF5A710020F35B0020ED5B002027
:1038B000EE5B00204843002048420020F15B0020DE
:1038C00070B51E4690F860300446082B20D190F861
:1038D0006A500121F5B980F86A10B0F86810C0F894
:1038E0008822023189B2A0F86810A0F8861210462A
:1038F00009F0A2FD084BA4F88C0284F8986284F8C1
:10390000995219782246054802F092FD284670BD6A
:10391000812070BD084670BDF55B0020404000204E
:1039200070B51E4690F860300446082B2BD190F8F5
:103930006A5001214DBB80F86A10B0F868109DF8FC
:103940001830023189B2A0F86810A0F8861280F809
:103950009A32C0F88822104609F06EFD049BA4F844
:103960008C02C4F894329DF81430C4F8906284F844
:103970009832074B84F8995219782246054802F08C
:1039800057FD284670BD812070BD084670BD00BF40
:10399000F05B002040400020812810B50C461DD16E
:1039A000104A00201368052123F02003136052F809
:1039B000203C23F0200342F8203C082200F05EFE69
:1039C000094BFF221A60094B00201870084B14B1F4
:1039D00001221A7010BD1C70204610BD4FF0FF3040
:1039E00010BD00BF20940D4080900D40F95B002079
:1039F000F85B00202DE9F84F431E022B074600F22A
:103A0000B1805A4E3378002B40F09E8001233370F2
:103A1000574B584D1B78584C002B00F09B802B685F
:103A200043F020032B60FF23236000F085FB8046DA
:103A300000F082FB514BC8EB0303C34202D500F0F8
:103A40000BFDF5E7002105224D4809F0A7FC0023F6
:103A5000236000F071FB804600F06EFB494BC8EB21
:103A60000303C34202D500F0F7FCF5E74FF000086E
:103A7000C146FF232360142000F03AFB2B6823F09B
:103A800020032B6023685FFA83FA4FF0000B236852
:103A90005FFA8BF0534508D101200BF1010B00F0C8
:103AA00027FBBBF1FF0FF2D158462368FF285FFACE
:103AB00083FA1CD0B9F1030F12D919F0010F0FD1FD
:103AC0002F494FEAD8028B5C08284FEA4303DBB248
:103AD00088BF43F0010308F101088B545FFA88F8AE
:103AE00009F101095FFA89F9B9F1550FCDD1B8F1A2
:103AF000270F2FD9224B59781A780A4499780A440B
:103B0000D9780A441979D2B2914223D12A68022F76
:103B100022F020022A604FF0FF0222600BD0032F18
:103B200015D098780022DB7800F07F00327003EB2C
:103B30000020BDE8F88F18785B7803EB00200023A5
:103B4000337080B2BDE8F88FFF20BDE8F88F002009
:103B5000BDE8F88F2B6823F020032B60FF23236040
:103B6000002333704FF0FF30BDE8F88FF95B002081
:103B7000F85B002000940D4080900D4000E0FFFFB6
:103B8000FA5B002071FDFFFFF7B500F06DFC00F05F
:103B900067FD00F0BDFC00F06FFA01F0D7FD09F001
:103BA00007FF00F055FD00F0C9F8012009F01EFDE7
:103BB00002F0DAFB00F044FC002000F055FB01208D
:103BC00000F052FB4949002000F024FC02F00EFDF9
:103BD00009F041FD042009F009FD454809F044FEC3
:103BE000444809F041FE00F0E9F9002002F020FD10
:103BF00001F0A0FC4048002102F042FC02F0F6F97E
:103C000009F01EFD00F0B4FD00F0D0FD07F072FEDB
:103C10006846082101F0BEFD9DF807309DF806704A
:103C2000364C43EA07276B4603CB2060616034487B
:103C300001F0EAFD0025615D3248013501F0E4FD47
:103C4000072D2E4EF7D1304DF179304801F0DCFDD3
:103C5000EC6A4AF6CD310220A04739460320A0473E
:103C60001A210120A047694608226B6B0B20984758
:103C7000274801F0C9FD274B186809F0F5FD2648D3
:103C800001F0C2FD254B186809F0EEFD244801F053
:103C9000BBFD244B186809F0E7FD234A3368136025
:103CA0007368536007F05EFF2048002102F0E8FBD4
:103CB0001F48002102F0E4FB1E4B01219B6881207C
:103CC000984709F04BFE1C4809F03EFE00F0BEFB91
:103CD000022009F08BFC00F0BFFB02F05DFB10F04E
:103CE000FF0FF8D101F0CAFCF5E700BFA96520007D
:103CF00025F220003FF2200088400020647100205F
:103D000064F22000E7F6200034F12000A8F920003A
:103D100082F220008CF1200089F2200098F120002E
:103D200090F22000C0F12000986500201C41002086
:103D3000A84000203CF02000FCF1200008B500F075
:103D4000DDF8024B00221A7008BD00BFFF5B0020A7
:103D5000024A13781843107000F0F4B8FF5B00209B
:103D6000034A137823EA0000107000F0EBB800BF9C
:103D7000FF5B002020B1012805D1044B1878704763
:103D8000034B186870470020704700BF005C00209C
:103D900020900D4010B5094A0020137801331370AC
:103DA000074B197802F044FBBDE81040054B06486C
:103DB0001968064A002302F04FB900BF005C0020DA
:103DC0005B7100207842002050420020953D200089
:103DD000812810B50C462AD0B0F5807F39D08028D4
:103DE00039D102F0B9FA1D4B1D4A18701368002032
:103DF00023F00803136052F8203C032123F008034A
:103E000042F8203C52F81C3C23F0080342F81C3CCA
:103E100052F8183C43F0080342F8183C042200F022
:103E20002DFC10480021032200F0CAFB13E00E4BCA
:103E30001A6831B142F008021A60002000F032FB2B
:103E400005E022F008021A60084600F037FB204621
:103E500010BD064B1960012010BD00BF5B71002032
:103E600020940D40713E200010940D4078420020B7
:103E700008B50F4809F0B7FDC0B108210C4809F09A
:103E8000A0FD0C4B196861B10B4B00221A700B4B53
:103E90000B481B681BB90B4A02F0DEF801E002F088
:103EA0001DF9BDE80840084802F068BC08BD00BF25
:103EB0007042002078420020005C002020900D40DD
:103EC00050420020953D20003CF02000084A136835
:103ED00023F00403136052F8203C43F0040342F83B
:103EE000203C044B00221A60034B01221A707047D9
:103EF00020C40D4010C00D40015C00200D4A0E4949
:103F0000136823F0C003136052F8203C43F0C00351
:103F100042F8203C094B00221A600B6823F0100382
:103F20000B6051F8203C43F0100341F8203C044B57
:103F30001A60704720A40D4020C40D4000A30D401E
:103F400040C00D4000F0020202F0FF010B4B12B125
:103F5000FF221A6000E0196000F0040202F0FF0185
:103F6000074B12B1FF221A6000E0196010F0010047
:103F7000044B1ABFFF221A601860704700A20D4060
:103F800000A10D4040C00D40044B1868C0F307204D
:103F9000030904BF1030C0B2704700BF1C300D4091
:103FA000054B1868C0F3C21001289ABFC0F1020087
:103FB00040034FF40040704714300D402DE9F047A6
:103FC00088B0FFF7E1FF174B48251C68AB68074630
:103FD00098476B68804698470646FFF7E1FF05461D
:103FE00000F0D6FA824600F0DFFA814600F086FA49
:103FF000B60AC4F34003AD0A04F00104029306902C
:10400000009601950394CDF810A0CDF81490414688
:10401000C7F3071207F00F03034801F0F5FB08B0E0
:10402000BDE8F0871C300D409EF22000F8B500F08E
:1040300083F80F4B0024D3E900673A46B04238BFFB
:104040007A1C15460443C3E90045DFF828E0DEE9A1
:104050000001821B61EB070312196B41CEE90023BB
:1040600002F0E4F818B1BDE8F84002F06FB8F8BD0E
:1040700038420020404200200F4B104A1A6053F88B
:10408000042C42F0050243F8042C53F8042C42F0AF
:10409000020243F8042C0A4A136843F00103136038
:1040A000084B00221A60042243F80C2C012243F82A
:1040B000082C0F22DA62704714E000E047E80100A4
:1040C00008200D400C000340034BD3E90023100AE5
:1040D00040EA0360704700BF38420020034BD3E939
:1040E0000023D00B40EA4340704700BF404200200D
:1040F000054B18601C3B1A6842F001021A601A68EE
:10410000D207FCD4704700BF2800034010B5064C0E
:10411000236823F001032360FFF788FF236843F03F
:104120000103236010BD00BF10E000E0014B1868E0
:10413000704700BF7C420020074B084A19680433CF
:104140001B681268120442EA0323054A0B431068F5
:1041500043EA0060704700BF40500D4048500D409A
:104160004C500D4010B50446114B1B68DB07FBD5C6
:1041700009F075FAFFF7E0FF231A062BD8BFC41D1C
:104180000C4B220E1A60C4F3074243F8042CC4F30C
:10419000072243F8082CE2B243F80C2C09F05BFA32
:1041A000054B91201C60BDE8104000F07BB900BFBA
:1041B00050500D404C500D407C42002008B501F09D
:1041C00043FA064B002291201A6000F083F99120F7
:1041D00000F074F9BDE8084002F076B97C42002096
:1041E000064B1B681B075FBF054B186880F0080073
:1041F000C0F3C00048BF0020704700BF18C0004097
:1042000018D00040164A38B52C2303FB00234FF684
:10421000BF72DC680546236C62649BB213F05002E7
:104220000DD0A369DB0609D40E4B53F825301BB122
:104230002068C0B29847F4E72368F2E738BD13F46A
:10424000D06F0BD04FF440732363FF236360E36AA6
:10425000E262E362236B43F00103236338BD00BFD6
:104260004CF02000804200202DE9F04F012885B05D
:10427000064600F2BF802C244443604B1D1995F97B
:1042800020A005F12007BAF1000F9946C0F2B280D4
:1042900095F92230002BC0F2AD80594801F046FA62
:1042A000584A59F804301168EC680B4313605168A0
:1042B0006B6895F921B00B4353609168AB6895F832
:1042C00022800B4393600023C4F8C83F2B690BEB9B
:1042D000CA021A6095F823305FFA88FC01939DF8B2
:1042E0000430604619462A7DCDF80CC0029300F0D8
:1042F000CFF9029BDDF80CC019466046082200F099
:10430000BDF94FFA88F840494FEA08389DF9042072
:1043100058F80100012303FA02F2024348F8012091
:104320004FEA0A3A5AF8010003FA0BF202434AF83C
:1043300001205022A263A26B95F8240042F4D062BF
:10434000A263022262634FF440722263AA6962622E
:10435000EA69A2627022E26242B2002A0C4614DBD1
:1043600095F92510294D41EAC20129607979120396
:1043700015594FB2BB402B431351002200F07EF978
:10438000234A136843F4004313602C2303FB069372
:1043900093F8265020336FB2002F1CDB93F807A050
:1043A000EDB25FFA8AF82846414601223F0300F049
:1043B0006FF94FFA8AFA3A59012303FA0AF31343C1
:1043C0003B5108222846414600F058F9104A13682C
:1043D00043F4804313602C2303FB0696F26896F89F
:1043E0002800136B43F00103136305B0BDE8F04FE1
:1043F00000F058B805B0BDE8F08F00BF4CF02000C9
:10440000E141200028200D4020940D4004410D4042
:1044100030D0004001289CBF014B43F8201070476A
:1044200080420020012808D8044B2C2202FB0030D7
:10443000C3689A699206FCD4196070474CF020005A
:10444000014B00221A60704700500D40014B0822BA
:104450001A60704700500D40024BA0221A60502293
:104460001A60704700500D40074A084B1A60084B0D
:1044700080321A60074B80321A60074B80321A6014
:10448000064B074A1A60704700E100E094420020A2
:10449000884200208C4200209042002008ED00E07D
:1044A00000202000044B41091A6800F01F0001237E
:1044B000834042F82130704794420020044B410968
:1044C0001A6800F01F000123834042F82130704732
:1044D00088420020044B41091A6800F01F000123A4
:1044E000834042F82130704790420020024B186808
:1044F000C0F38150704700BF04200D4008B5FFF79E
:10450000F5FF024B53F8200008BD00BFA4F02000C7
:1045100038B5164D164C2B68032023F040032B6052
:104520002368062123F040032360012200F0A6F84F
:104530002B68012223F080032B602368032023F0E3
:1045400080032360072100F099F80A4A0A4B1A6099
:104550000A4B0B4A19680A40002AF9D11A6851011E
:10456000FCD41A685201FCD538BD00BF20C40D40F0
:1045700000C40D400101020000200D4004200D4048
:1045800000000101014B08221A60704774200D40A1
:10459000034B04481B6803F007031841704700BF32
:1045A00004200D400048E801034B04481B68C3F396
:1045B00002231841704700BF04200D400048E80165
:1045C000024B02EBC10243F82200704798420020E0
:1045D000F8B507460E46094D002405EB411547FA8C
:1045E00004F3DB07E1B204D555F824300BB13046B3
:1045F00098470134082CF2D1F8BD00BF9842002042
:104600002DE9F04780464FEA0837DFF8409007F180
:10461000804505F5592501F017F8D5F8186457F8C5
:1046200009404FEAC80A24FA0AF446EA0400E4B250
:10463000C0B24146F6B204FA0AF4FFF7C9FFC5F862
:104640001C6447F80940BDE8F08700BF18970D408B
:1046500002480021802208F0A1BE00BF984200203D
:10466000034A044B1A60044B803A1A60704700BF3B
:1046700080400D401C43002018430020034B01EBF9
:10468000C0011B6843F82120704700BF1C43002075
:10469000034B01EBC0011B6843F82120704700BFAA
:1046A000184300200E2870B50BD1164B164E1C680F
:1046B00044F002051D60356825F03F0343F0010317
:1046C0003360124E336823F0FF031A431143014352
:1046D00031600F4B1B681B06FBD50E4B0E4A1B6847
:1046E00012680E2803F0FC0343EA022308BF064ABF
:1046F0009BB204BF1560034A9BB208BF146018B296
:1047000070BD00BF34000144F486084008700D40BD
:1047100000700D400C700D4010700D40024B186879
:10472000B0FA80F04009704700B7084010B58F20FC
:10473000064CFFF7CFFE8F20FFF7C0FE206818B1B0
:1047400001F0B6FE0023236010BD00BF204300200F
:10475000064A136843F002031360536843F00203F0
:104760005360936843F002039360704748200D4004
:1047700007B50C4800F0DAFFFFF7EAFF0A4B1A68AA
:1047800042F002021A6000220192019A0F2A02DC12
:10479000019A0132F8E71A6822F002021A6003B0A7
:1047A0005DF804FB1D47200054200D40064A1368A5
:1047B00023F002031360536823F0020353609368ED
:1047C00023F002039360704748200D40014B1860AE
:1047D000704700BF204300202DE9F0473E4EA0B0B7
:1047E00034688246884615461F46002C70D102293F
:1047F00016D1AC4216DA1822482302FB04A14FEA74
:104800008409DB690DEB4410984709F1030920ABDB
:1048100003EBC9090022002349E920230134E8E71A
:10482000012904D06D00B8F1020FEDB205D0482384
:10483000DB69684651462A019847284A012303212B
:10484000136027485160083233601160016801F03D
:10485000030444451EBF21F0030148EA0101016041
:1048600003FA05F01F4C01381F49B8400860A4F551
:104870008064C4F8000423601C4BC3F800D0E368D4
:104880001B0C1B0443EA0515E560194B1C68E40783
:10489000FBD51C68002C06DA4FF0004313600023A0
:1048A0003360042015E01B6813F0804306D04FF0FE
:1048B000804313600023336006200AE00324146061
:1048C00033600B680340834214BF0620002000E0E1
:1048D000032020B0BDE8F08700B7084080B708404B
:1048E00008B4084000B4084004B4084004B00840CC
:1048F00090B708402DE9F047434C894621689C4613
:10490000DDF82880BDF82030BDF82C50DDF830E00F
:10491000002975D13D4901260E603D4E0327B24660
:104920000221376021603B490F603B4FC7F8009080
:10493000D7F80090B9F1000FFADB384FD7F80090A4
:1049400019F0005FB94607D04FF000530B60002309
:1049500023600520BDE8F0874AB11668304F3E60FD
:1049600056687E609668BE60D7682E4A17602E4AE9
:10497000002710F4E02F10605560976002F10802E4
:104980001BD053600432C3B1A2F25C52012010600C
:10499000C2F804C0D360D9F800309B07FBD51F4B89
:1049A0001B68002B07DA4FF000430B6000232360E5
:1049B0000420BDE8F08702230B600123CAF8003011
:1049C000BEF1000F08D07046FFF700FF8F20FFF701
:1049D00081FD8F20FFF766FD7DB1144A012313602E
:1049E00009990C3242F8081C1560B8F1000F04D088
:1049F00053610F4BC3F800809D600020BDE8F08735
:104A00000320BDE8F08700BF00B7084080B708402A
:104A100084B7084088B708400CB4084090B70840F5
:104A200040B508404CB5084050B5084000B00840BB
:104A300024B00840034B1A68034B1A4214BF0120EC
:104A40000020704790B70840010000E0F8B5204B07
:104A5000204F1E684FF060433B6005468F200C4698
:104A6000FFF72CFD0020FFF7B1FE00221A4B964203
:104A70001A6027DB710027D4B20027D405B9ECB146
:104A8000164B1B685B00FBD55DB1154B1B682B609B
:104A9000144B1B686B60144B1B68AB60134B1B689B
:104AA000EB605CB1124B1B682360124B1B686360A8
:104AB000114B1B68A360114B1B68E36003233B6031
:104AC0000020F8BD0420F8BD0620F8BD0520F8BD83
:104AD00090B7084088B7084000B7084050B5084074
:104AE00040B5084044B5084048B508404CB50840BA
:104AF00070B5084074B5084078B508407CB50840EA
:104B000037B5114B05461C68C4F340040CB9FFF7D8
:104B10001FFE102300210093019101202A462B46FD
:104B200008F0ADFD08B1FFF72DFD08F0BDFD431CF9
:104B3000FBD008B1FFF726FD24B903B0BDE8304033
:104B4000FFF734BE03B030BD48200D4038B50B4BE5
:104B500005461C68C4F340040CB9FFF7F9FD0121B8
:104B600028460A460023FFF737FE08B1FFF70AFD83
:104B70001CB9BDE83840FFF719BE38BD48200D40CC
:104B8000014B1B68184700BFB4F020002DE9F04F1F
:104B90001646284A89B014688346C4F340040F4679
:104BA0009DF84880DDF84CA09DF85050DDF85490F9
:104BB0001CB90793FFF7CCFD079B1FFA88F0B9F1EA
:104BC000000F1AD000218DE881000296039704950A
:104BD000059102205A4608F0E4FD28B13CBB09B01B
:104BE000BDE8F04FFFF7E2BDFFF724FF0028FBD040
:104BF0005046294608F0F2FDF0E72E448DE881008A
:104C0000029603970495CDF81490022049465A461F
:104C100008F0EAFD0028E1D1FFF70CFF0028FBD0E7
:104C20003846314652462B4608F098FDD6E709B083
:104C3000BDE8F08F48200D40084B93F90020002A72
:104C400009DB074AED2111601160E32111601A7838
:104C500062F07F021A700120704700BF055C0020DF
:104C6000388808400B4B1A689207FBD41B685B0618
:104C70005FBF094BED221A601A60084B1B6813B125
:104C8000054BEF221A60064A0120137803F07F03D8
:104C9000137070474C860840388808402C860840BE
:104CA000055C002038B5A0F10B04E3B20F2B0546DC
:104CB00013D80B4B1B6813F03F0302D0FFF7D2FF52
:104CC000012304EB8404074A0B3414600BB1FFF793
:104CD000B3FF054BE8B21D7000E0FF2040B238BDC5
:104CE000488608403C8608402342002010B50B4B04
:104CF0001B68990603D1FFF79FFF012300E0002303
:104D0000074A1268D207FBD5064A1468C4F3001498
:104D10000BB1FFF7A7FF204610BD00BF4886084033
:104D2000648608404C860840044B186800F0220056
:104D3000A0F1200358425841704700BF4C860840FC
:104D4000024B186800F04000704700BF4C860840D6
:104D500038B50C46002900F08880102800F28780C2
:104D6000DFE800F0090F1A1C23394253586F73858E
:104D700085787A7C7F003F4B1B68003318BF012386
:104D800070E03D4B05221B6803F07F030B3B93FB58
:104D9000F2F30B33DBB265E0384B00E0384B1A68B6
:104DA000043B1B6843EA02235CE000230B60354BA5
:104DB000354A1B6803F001030B601268900644BF7C
:104DC00043F002030B60314B1B78002B4BD00B6878
:104DD00043F0040346E02E4B00201B780860002BB4
:104DE00041D001230B6038BD2A4B1A680023D2B290
:104DF000294901EBC3000079904202D851F83330C1
:104E000030E001330E2BF3D128E0244B1B685BB25A
:104E1000493B27E0224B1B68990603D1FFF70CFFA3
:104E2000012300E000231F4A1268D207FBD51E4A67
:104E30001568493DEDB20BB1FFF714FF6DB2256067
:104E400011E01A4B93F900300CE0194B1B7803F07A
:104E50007F0307E00B2305E01A2303E06FF017033D
:104E600000E007232360002038BD022038BD012068
:104E700038BD00BF2C8608403C860840CC850840E1
:104E8000D48508400086084024860840045C002041
:104E90002242002040860840C4F020005886084086
:104EA000488608406486084060860840035C00200D
:104EB000025C002038B505460C46134B1B689B0767
:104EC000FBD4124B93F90030002B01DBFFF7B4FE4B
:104ED0000F4BEE221A60691E1A60A21C43F8102CB8
:104EE0002144022000F03EFB013C0A4924012143F9
:104EF000022000F049FB022000F050FB022000F0ED
:104F000065FB002038BD00BF4C860840055C0020D2
:104F10003888084002C001C0F8B5214B93F9003031
:104F2000002B0DDBFFF708F90446FFF785FEFFF7BE
:104F300003F96FF009031B1BC342F8D4012600E0FC
:104F40000026184B1B7823B9174D2B68990604D4FB
:104F500005E0FFF7CBFE0028F6D10220F8BD134C88
:104F6000E923236004272B689A0707D4013F17F031
:104F7000FF0703D00620FFF7BBF8F4E72B689B0779
:104F800004D4EE2323602360012403E02C6814F092
:104F90000204FBD10EB1FFF765FE2046F8BD00BF4D
:104FA000055C0020224200204C86084038880840DA
:104FB000044B1A6810B142F0010201E022F0010234
:104FC0001A607047008608400B280DD1082A0DD1C1
:104FD00061B1074B083111F8012D43F8042F054A40
:104FE0009342F8D10020704701207047022070479B
:104FF000A4850840C485084070B5304E336813F06E
:10500000400308D02E4D2B68DCB21B0605D52D4B76
:10501000ED221A601A60002070BD042CF7D9023C02
:105020008C42F4DCE4B2032C21D0011901390320B5
:1050300000F0A0FA631E24491B010320194300F06D
:10504000A3FA032000F0AAFA032000F0BFFA03201D
:1050500000F0C8FA0028FAD129681C4B4939C9B2B6
:1050600019702B681A4D18062B70D0D506E02B68E6
:1050700003702B6843702B688370EDE749B289B2E7
:10508000042006F045FD2978032001F07F0106F099
:105090003FFD104B1B7873B933685A060BD5074B8D
:1050A0001B681B0603D50C4801F002FA03E0054B10
:1050B000ED221A601A60204670BD00BF4C86084081
:1050C000288808403888084002C0010C035C002092
:1050D000025C0020045C0020604000201E4B187021
:1050E000002831D01D4B1B681B03FBD51C4B1A68D5
:1050F00042F002021A601A6842F001021A601A684D
:1051000017495007FBD50A6822F001020A601968A6
:10511000134A4907FBD4116841F00201116011687C
:1051200041F0010111601A685207FCD50D4A8D202B
:10513000136823F004031360D2F8A83123F00403AA
:10514000C2F8A831FFF7BAB9064A8D20136843F0B8
:1051500004031360FFF7A6B9045C002004200D408F
:10516000048808408C86084010B50C4607285CD897
:10517000DFE800F0040F1B1F263C4256012903D133
:10518000FFF75AFD002010BD002950D1FFF76AFD3E
:10519000F8E7A1F10B030F2B49D8C8B2FFF782FD46
:1051A000431C0CBF0320002010BD8CB2E2B2214B87
:1051B00002E08CB2204BE2B2240A1A605C60E1E7A4
:1051C00031F0070333D101F00100FFF7F1FE1B4B73
:1051D00014F0020F1A68C4F3800014BF42F02002DA
:1051E00022F020021A60FFF779FFCBE731F00100CF
:1051F0001DD1134B197010BD01F118031F2B16D8C8
:105200000D231049DA0051F83300844204DC8B1876
:105210001A790D4B1A60B5E713F1FF33F1D2B1E7FC
:10522000CCB20A4B49341C60ACE7012010BD02200F
:1052300010BD00BFC8850840D085084024860840BE
:1052400022420020C4F020004086084058860840D2
:10525000F8B5294F3D7815F001054AD1274B0124B7
:105260001C605C609C60A3F59323A3F51473F82283
:105270001A600922C3F89021152270331A6003F5D1
:105280009B230B2203F59E731A60A3F59B23A3F5C2
:10529000F07340221A601A687F2642F020021A60DA
:1052A000D52243F81C5CDE62DA61154B1878FFF7F3
:1052B000F9FC144B8E201E60FFF7F4F8022000F07A
:1052C00079F91149022000F055F9032000F072F934
:1052D0000D49032000F046F90C4B1878FFF7FEFE4D
:1052E0000B48294601F0CCF83B78204623433B701D
:1052F000F8BD0020F8BD00BF055C0020A8200D40CF
:10530000234200209486084028880840045C00203E
:105310006040002038B503880446CBB140F2034218
:10532000934203D000230380032038BD194B187823
:105330001A4628B11B7873B1174B1B7858060AD54B
:10534000822908D1137843B1134B1A78520614D42A
:1053500040F203432380012038BD06F083FB06F0B2
:1053600017FB8021FFF748FE0028EDDD80B206F034
:10537000F3FA0A4B1B699847E6E700221A70084BBC
:105380001D68FFF76FFCFFF763FFAB06E0D0FFF788
:1053900053FCDDE7045C0020055C0020C0F1200028
:1053A000488608400B282DE9F84F8A4611D1082A73
:1053B00040F0828000297FD0414B01F1FF3A53F841
:1053C000042D0AF8012F3F4A9342F8D10020BDE88E
:1053D000F88F0C286DD1042A6ED100296CD03A497F
:1053E0003A480B68DFF8EC9023F007030B60036882
:1053F000DFF8E4B043F008030360DBF80040D9F8BD
:1054000000200B68DFF8D4C0DFF8D48023F07003ED
:105410000B60D8F80050DCF80030E4B2120244EA25
:10542000036392B2DFF8BCE01A43EBB242EA0343F3
:105430000024DEF8002044EA03060B68D5B223F00E
:10544000070343F001030B6003682F4643F0080392
:105450000360DBF80000D9F800200B68120223F08B
:10546000700343F010030B60D8F80050DCF80030F4
:10547000C1B241EA036392B21A43EBB242EA034378
:10548000DEF8002044EA03085FFA82F9FEF754FED2
:10549000B6EB080667EB0907F903054641EA5641F2
:1054A000F0030B4A002307F095FB281ACAF8000006
:1054B0008CE70120BDE8F88F0220BDE8F88F00BF1F
:1054C000C8850840A885084010880840048808401E
:1054D0000048E801188808401488084020880840DF
:1054E000248808401C88084008B5054B1B7813B970
:1054F000044800F0DDFF044B00221A6008BD00BF25
:10550000045C00206040002034880840064B0748B7
:105510001A68042A1FBF06490A7842F040020A703E
:1055200000221A6000F0C4BF2C88084060400020B0
:10553000055C002010B5094C00212046402207F0F0
:105540002DFF074B01221A602E205C60FEF7AAFF98
:10555000BDE810402F20FEF7A5BF00BF004000208F
:1055600004F00F4003289EBF014B00011950704703
:105570000040002003289EBF024B03EB0010416057
:10558000704700BF0040002003289EBF024B03EB82
:1055900000108160704700BF0040002003289FBFBB
:1055A000034901230A6883409CBF13430B60704783
:1055B00028F00F4003289FBF034901230A68834056
:1055C0009CBF13430B60704720F00F4003289FBF20
:1055D000034901230A6883409CBF13430B60704753
:1055E00014F00F4003289FBF044B03EB00108068AA
:1055F00000F0070088BF0020704700BF0040002077
:10560000024B4FF0FF321A60704700BF04F50F40A5
:10561000014B01221A6070474CF00F40094B1A6889
:1056200012F4801F1A46F9D1043B196821F4803125
:1056300019601168C903FCD41A6842F400321A6078
:10564000704700BF04200D4010B50A4B1A681C4675
:1056500012F0030F0CD0084B1A685101FBD41A68E2
:105660005201FCD5FEF752FDFFF7D8FF002323605F
:1056700010BD00BF58200D4004200D4038B5254B0B
:105680001C6814F03F0413D1234B53F8243023B18A
:10569000984768B10134052CF6D1204D2B783BB1E9
:1056A000FEF744FD0446FEF747FD201A092801D8FD
:1056B00030BF38BD002CFBD0194B1A6822F40032E1
:1056C0001A60184A1168C902FBD4196841F4803184
:1056D00019601368DB03FCD5FEF72EFD201A09289C
:1056E00003D8BDE83840FFF799BF63280E4C02D9B4
:1056F0002B78022B00D00123236000F08FFE20B115
:10570000FFF78CFF0023236038BDFEF70FFD002854
:10571000CED1F5E74886084024430020065C0020EF
:1057200000200D4004200D4058200D400023064A63
:1057300052F82310814206D011B942F82300704775
:105740000133052BF3D1704724430020054B002281
:105750001A60054A136843F004031360034B0222E6
:105760001A70704758200D4010ED00E0065C0020D4
:1057700010B59020064CFEF7ADFE9020FEF79EFE81
:10578000206818B100F094FE0023236010BD00BF14
:105790003843002030B5184B1A78431E3AB9174ADF
:1057A0001278122A03D1164A12784B2A03D001F537
:1057B0002011273117E04A0802F12814B4F1281FFC
:1057C00004D014F8015D03F8015FF7E701F520113B
:1057D00027310023934205DA11F801598418E55462
:1057E0000133F7E730BD074A914204D011F801298F
:1057F00003F8012FF7E730BD2B0028002A0028000E
:1058000029002800270028000FB407B504AA52F881
:10581000041B0448019200F035F803B05DF804EB76
:1058200004B07047704000201FB5084C8DE803009D
:10583000114602A81A460294CDF80CD000F022F8C6
:10584000009B00221A7004B010BD00BF07D92000D1
:1058500070B505460C46102C07D92B6868680849B6
:105860001022984750B9103CF5E734B12B686868AE
:105870002246BDE8704002491847204670BD00BF6F
:10588000CEF320002DE9F04F80468FB006910792AD
:105890000026069B1B78002B00F05F83069B1C46AE
:1058A00013F8012B1AB9069B9C4203D10FE0252A5D
:1058B000F5D1F8E7069BD8F80400E51A0699D8F860
:1058C00000302A469847002840F02A832E44237847
:1058D000002B00F042836378611C002B00F03D83B5
:1058E00000240A4611F8013B2B2B11D006D8202B9F
:1058F00011D0232B12D144F00804F2E72D2B04D051
:10590000302B0BD144F01004EBE744F00104E8E73E
:1059100044F00604E5E744F00204E2E7A3F13101B4
:1059200008290DD8134600251A4613F8011BA1F1CA
:105930003000092811D80A2202FB0515303DF3E793
:105940002A2B09D1079B01321D68191D002D0791D3
:10595000B8BF44F0010400E0002513782E2B1CD1C1
:105960005178531CA1F1300009280ED819460027A0
:105970000A780B46A2F13000092801F101010FD885
:105980000A2303FB0727303FF2E72A2906D1931C9D
:10599000079A111D0791176802E013464FF0FF3771
:1059A0001A786C2A09D15A786C2A02D144F0800402
:1059B0000AE0013344F060040BE0682A09D15A7808
:1059C000682A03D144F02004023302E0013344F09A
:1059D00040041A78642A3CD01FD8462A48D00DD8F3
:1059E000252A5AD003D8002A00F0B78257E0412A6E
:1059F0004AD0452A53D144F4424450E0582A31D089
:105A000004D8472A4BD144F4A13448E0612A38D065
:105A1000632A44D144F4A06441E06E2A3AD007D806
:105A2000662A22D027D3672A28D0692A11D036E0E7
:105A3000732A2CD006D86F2A11D0702A2FD144F4A3
:105A400040742CE0752A07D0782A28D144F4C85431
:105A500025E044F4245422E044F410641FE044F4AC
:105A600088541CE044F4B24419E044F4007416E095
:105A700044F4844413E044F4024410E044F48134D8
:105A80000DE044F4C1340AE044F4E13407E044F4A6
:105A9000806404E044F4E06401E044F4C064013351
:105AA000069304F4E063B3F5806F00F0AA8116D882
:105AB000B3F5807F2BD0B3F5407F7FF4EAAE079B30
:105AC000A04914F4804F03F104029F4818BF084610
:105AD0000DF1330107920F461A680023C5E1B3F5B3
:105AE000C06F08D0B3F5E06F00F03182B3F5A06F5E
:105AF0007FF4CFAE00E2D8F80030D8F80400934924
:105B000001229847002840F00B820136C1E6002FA1
:105B1000ACBF24F01004012714F40053039304F0E5
:105B2000E00337D0402B17D008D8DBB1202B2AD187
:105B3000079B1A1D079293F9002017E0602B11D0E4
:105B4000802B20D1079B073323F0070303F10802C2
:105B50000792D3E900230AE0079B1A1D0792B3F9C5
:105B6000002003E0079B1A1D07921A68D317002A2A
:105B700073F1000109DA524263EB4303CDE90023DC
:105B80004FF0010933E000220023CDE900234FF05C
:105B900000092CE0402B16D007D8CBB1202B20D108
:105BA000079B1A1D07921A78EEE7602B10D0802B06
:105BB00017D1079B073323F0070303F1080207926D
:105BC000D3E90023E1E7079B1A1D07921A88DBE758
:105BD000079B00211A1D07921B681846CDE900019A
:105BE000D5E700220023CDE900234FF0000904F49B
:105BF000C053B3F5805F0CD0B3F5C05F33D0B3F5BD
:105C0000006F4FD1DDE900230DF1360ACDE9042301
:105C100004E0DDE900230DF1360A15E0DDE9042397
:105C200013433AD0DDE904010A22002306F0D2FF33
:105C3000DDE9040130320AF8012D00230A2206F0C2
:105C4000C9FFCDE90401E9E752EA030125D002F0DA
:105C5000070130310AF8011DD10841EA4371D80823
:105C60000A460346F0E7384B14F4804F0DF1360A2C
:105C7000344908BF1946DDE9002352EA03000CD07D
:105C800002F00F00085C4FEA131E0AF8010D10091C
:105C900040EA037002467346EFE70DF1360BCAEB9C
:105CA0000B0B03E00DF1360A4FF0000B41F6080232
:105CB00041F208035F4502EA04028CBFCBEB070701
:105CC00000279A4202D1002F08BF012741F60801A0
:105CD0008A4207EB0B030DD1DDE9000150EA010216
:105CE00008D01B4914F4804F1A4A4FF0020C18BF19
:105CF0000A4602E04FF0000C62460399A1B1B9F1E7
:105D0000000F0AD104F0060102290AD0062912491F
:105D100004BF4FF0010C0A4606E04FF0010C0F4A99
:105D200002E00F4A4FF0010C63449D428CBFED1A14
:105D3000002514F0010922D1E30613D52F444D4666
:105D40001DE000BF99F32000AAF32000CCF320004F
:105D5000BEF32000BBF32000C3F32000C1F32000FA
:105D60008EF2200040462946CDF80CC00092FFF785
:105D70006FFD009ADDF80CC0002840F0D180BCF126
:105D8000000F0DD01146D8F800306246D8F8040054
:105D9000CDF800C09847DDF800C0002840F0C08072
:105DA0003C465E44102CD8F800300DD9D8F80400D9
:105DB0006C491022CDF800C09847002840F0B08010
:105DC000103CDDF800C0EDE75CB1D8F8040065498F
:105DD0002246CDF800C09847DDF800C0002840F00A
:105DE0009F80D8F80030D8F8040051465A466644DF
:105DF0009847002840F094803E44B9F1000F79D0D4
:105E000073E0079BD3F800A01A1D0792BAF1000FA8
:105E100009D05346994699F800200133002AF9D158
:105E2000CAEB090903E0DFF840A14FF00609002F93
:105E300002DBB94528BFB9464D458CBFC9EB050506
:105E4000002514F0010405D140462946FFF700FD66
:105E5000002865D1D8F80030D8F8040051464A46E9
:105E6000984700285CD14E443EE052EA030E0ED023
:105E700002F00F0E10F80EE04FEA131C01F801EDCE
:105E80004FEA121E4EEA037E72466346EDE70B466A
:105E90007F1A01BF3022012701F1FF3301F8012CE5
:105EA00003377822BD4203F8012C4FF0300203F88B
:105EB000022C88BFED1B4FF0230298BF002514F081
:105EC0000104A3F1030903F8032C04D14046294639
:105ED000FFF7BEFC20BBD8F80030D8F804004946D4
:105EE0003A469847E0B93E4424B140462946FFF778
:105EF000AFFCA8B92E44CCE4079B012D03F10402AA
:105F00001B688CBF05F1FF35002514F001040792D2
:105F10008DF8203008D140462946FFF799FC10B192
:105F20004FF0FF301AE02E44D8F80030D8F80400C3
:105F300008A9012298470028F2D16F1C2CB14046D5
:105F40002946FFF785FC0028EAD13E44A1E4079BDF
:105F50001A1D1B6807921E609BE430460FB0BDE817
:105F6000F08F00BF89F32000C5F32000F8B5038847
:105F7000064615462BB14A2B15D00023038003207B
:105F8000F8BD174807F040FD04462CB1201DA1685C
:105F900007F0E5FC2468F8E7124B01221A704A2347
:105FA00033800120F8BD8829FBD10D4807F02CFD76
:105FB0000446002CF3D0231D9D420ED108482146F3
:105FC00007F02CFD084B62691F681A60A2691D4624
:105FD0000AB1E06990472F60E1E72468E9E700BF74
:105FE0003C430020075C00204843002010B5064BCE
:105FF000002406481C7007F004FD2146BDE810404F
:10600000034800F03DBA00BF075C00203C4300207D
:106010007840002070B50446E3610B4B049D1B786B
:106020006561A26143B1094D094B2E68201D2B60AB
:1060300007F095FC2E6000E0A1602146BDE87040AD
:10604000044807F0FFBC00BF075C00204843002065
:10605000784000203C43002013B5034C2468009492
:10606000FFF7D8FF02B010BD4843002070B5094BC0
:1060700005461B783BB1084C084B2668043023606A
:1060800007F076FC26602946BDE87040044807F01A
:10609000D9BC00BF075C00204843002078400020A6
:1060A0003C43002070B5094B05461B783BB1084CBA
:1060B000084B26680430236007F063FC26602946FD
:1060C000BDE87040044807F0BDBC00BF075C00207D
:1060D00048430020784000203C43002010B5084B86
:1060E00004461B781BB1043000F0A8F801E0C3603F
:1060F00003612146BDE81040024807F08FBC00BF95
:10610000075C00203C43002010B50E4C236813B9F7
:106110000D4A136010BDFDF7D7FF216891E80C0010
:106120001A44131A8A6842B192E812002144091AEB
:106130008B4228BF0B469268F5E71844024B186063
:1061400010BD00BF4043002044430020014800F040
:10615000AFB900BF88400020F8B5038805462BB1D1
:10616000592B09D0002303800320F8BD1E4A136079
:1061700059232B800120F8BD872920D08229F7D10F
:10618000194F00263C68002CF2D0204607F02BFC6B
:1061900090B1E0688821224600F04AF950B9E060E9
:1061A000A3680EB1B36000E03B600023A360FFF77B
:1061B000ABFFE5E7FFF7CAFF2646A468E3E70A4915
:1061C0000B680BB90B60D3E7D868904201D19B688C
:1061D000F7E70B6099680029CAD0C86890420ABFE7
:1061E00089680B469960F5E74043002010B50446E6
:1061F000FFF7ACFFE3680B4A4BB113683BB1A34216
:1062000003D1094A1268DA6007E09B68F6E7064B9B
:106210001B68E36013681460A360BDE81040FFF7DB
:1062200073BF00BF4043002048430020024B186862
:10623000003018BF012070474043002010B50B4AC2
:1062400004461368984206D18368136008E09A6890
:10625000A24203D01346002BF9D103E0A2689A6052
:10626000FFF752FF0023A360E36010BD404300200E
:1062700038B5836804460D469BB10A480460022085
:10628000A07304F10C0098470238012801D9832D2E
:1062900005D120462146BDE8384000F005B801236D
:1062A000A37338BD484300202DE9F8431C4A044637
:1062B000156889462B4690461A4E3768A34204D08B
:1062C0000BB11B68FAE7BDE8F88334B3A37BABB12D
:1062D0000023A37345B1AC4204D02846872122464F
:1062E00007F060FB2D68F5E7A3683BB14C4505D08E
:1062F000346004F10C0083212A469847D8F8003016
:106300009C4203D12268064B05E0134623B11A686C
:10631000A242FAD122681A603760BDE8F88300BF54
:106320004C4300204843002010B5094B00221A704E
:10633000084B1C685CB1E37B3BB101230022A373D3
:10634000E27320468221FFF793FF2468F2E710BD35
:106350000A5C00204C430020024B1878421C1A7043
:10636000704700BF0B5C0020064B8A221A70064A59
:1063700000231370054A1370054A1360054A136021
:10638000704700BF0B5C0020085C0020095C002007
:106390004C430020484300202DE9F0411A4D2B7852
:1063A0000BB1FFF7C1FF194C22783AB3184E0C21FC
:1063B0003378184F5943781817F80180013347682C
:1063C000806803F01F03013A3370227068B9124BE2
:1063D0001E689EB12B780BB1FFF7A6FF30464146F1
:1063E0003A4607F0DFFA3668F3E7B8F1810F04BFE9
:1063F0000123837341463A4607F0D4FA2B7820787C
:106400001844BDE8F08100BF0A5C0020095C002050
:10641000085C0020504300204C430020024A034BFC
:1064200010781B7818447047095C00200A5C002033
:10643000F0B50B4E3378202B0FD00A4C0C25247866
:10644000094F1C4404F01F046C4301333D19A8603C
:1064500039556A6033700020F0BD0120F0BD00BFE7
:10646000095C0020085C00205043002038B5034C34
:10647000256807F097FA256038BD00BF4843002023
:1064800010B50A4609490C68234683420DD00BB16A
:106490001B68FAE748B104600860012181738381B9
:1064A0008121BDE81040FFF7E1BF10BD4C43002043
:1064B00038B1837B013B012B9FBF024A0123C37389
:1064C000137070470A5C002010B5084C206858B162
:1064D00000232360816843689847236823B1BDE89F
:1064E00010401868FDF73EBE10BD00BFD04400202C
:1064F00010B50446FDF7F2FD94E80C001344C01AF1
:10650000024B98428CBF0020012010BDFEFFFF7F90
:1065100038B505880446672D09D0792D2ED0002D79
:1065200032D1FFF719FF1B4B18701B4B1D601B4826
:1065300007F01BFB431C01D167231DE00A28164B03
:1065400007D01A687E2AF2DC511C1960144B98544B
:10655000EDE7196800254A1C1A60114A0D4B555485
:1065600028461978FFF764FF0E4B852118682A46E4
:10657000FFF75EFF20B97923238009E0852907D141
:10658000054B00221A60D2E700230380032038BDA8
:10659000012038BD60710020DC440020D44400207C
:1065A0008D5C0020484300200D2810B5014615D011
:1065B0000B4C23782BB90B4807F0C3FA48B90123D9
:1065C00006E00A2805D1074807F0BBFA08B1002306
:1065D00023700548FFF76CFF012010BD002010BD9F
:1065E0000C5C0020D44400209840002008B50548E9
:1065F0000549802207F09EFABDE8084003480021C3
:10660000FFF73EBFD44400200D5C002098400020DE
:10661000054A136843F004031360044B1B68906938
:1066200043EA002080B2704700700D4014700D40A6
:10663000174A136823F00C031360164B01221A60EB
:106640001A68012AFCD1144B08221A60E322C3F80D
:10665000142203F505731946104B1B68DB07FBD5A5
:10666000102000230E4A0138126802F0010243EAAA
:1066700002034FEA43039BB2F4D1002BF0D0094A46
:10668000180A03F0FE0310601360EF230B607047DD
:1066900000700D40A8200D40248608406486084004
:1066A0009C86084014700D4070B505880446772D0F
:1066B00030D07E2D3FD0002D4DD1FFF74DFE294B20
:1066C0001870294B1D601D462B68284A264E52F82B
:1066D00023204AB126480021C1549368802098475E
:1066E000336801333360EFE7224A1370772320E0E9
:1066F0001F4AD256002A12DB1B4A1368013313606B
:10670000194B1C4A1B6812789342F1DB1A4B1B6829
:10671000002BEBD0184A00231360134AEFE7114A0D
:1067200000201178114A52F82320FFF781FE30B97A
:106730007E23238013E00B4B1B788B420FD10A4B37
:106740000B491A688B5C03F07F038B540A4A136869
:1067500001331360D0E700230380032070BD0120C4
:1067600070BD00BF61710020E04400205040002057
:106770005C7100200D5D0020E4440020094B1A7874
:106780000023934204DA084951F82310814207D1CB
:1067900006490748CA5C62F07F02CA54FFF788BE08
:1067A0000133EEE70D5D0020504000205C710020B9
:1067B000A84000200C4AB82303FB0022002330B578
:1067C00053821A46094CE1188D782DB11C5D844224
:1067D00002BF00248C70013240F24C5171338B4265
:1067E000F0D1104630BD00BF04450020195D0020E7
:1067F00008B5064802F018FF054B01221A70FD216A
:1068000000225A709970DA7008BD00BF596A2000E2
:106810000F5D002010B513780446087A83F0020358
:1068200098421DD1487A5378984219D1887A937842
:10683000984215D1C87AD378984211D1087B137940
:1068400098420DD1487B5379984209D1887B93793E
:10685000984205D1C87BD379984201D103201BE02F
:106860000B890F4A6BB94B89B3F57F4F09D18B89DF
:10687000FE2B06D11368C989022023F8021B13607E
:106880000AE0136851F8080F083343F8080C486809
:1068900043F8040C13600120A040C0B210BD00BF3B
:1068A000F044002010B50F4C0220A17905F030F91A
:1068B000A379112B01D0062B05D1238D618D99422F
:1068C000A8BF194608E03A2B05BF94F8281094F8A1
:1068D0002930002143EA01210120BDE8104005F0E4
:1068E00017B900BFA065002010B5084C01462378F9
:1068F000012B08D1A01C082206F044FC00280CBF84
:106900002046002010BD002010BD00BF0F5D0020FC
:1069100008B50146132005F009F9044B04489B68AB
:1069200000219847BDE80840FDF796BDE0F1200042
:106930003569200010B508460C46114602F058FA99
:10694000044B1B6813B19B6820469847024B1C60A0
:1069500010BD00BF00450020FC440020F8B50546EE
:106960000023114A712404FB0324A278B2B9617098
:1069700004F0FCFF26460D4F0D4A3B7806F8035BFA
:10698000C01A1568A0701D4404F0F0FF3A7829463B
:10699000821A304606F028FCA078F8BD01330C2B93
:1069A000DFD14FF0FF30F8BD195D00206562002097
:1069B000F44400202DE9F8434FEA1219B9F10F0F02
:1069C00080461D4602F00F040BD00F2C05D1B9F103
:1069D000000F0AD11024274619E0B9F1000F09D0A1
:1069E00004E00F2C4FF0100900D1102440464A4615
:1069F00006F0FAFB09EB04020F2A274606DC08EB37
:106A000009000021C2F1100206F0C8FCBCB1114D12
:106A1000C7F110002E6840443146224606F0E4FBE0
:106A2000022C08D1B9F10A0F9FBFFF2388F80B3061
:106A3000FE2388F80C3034442C60BDE8F883B9F1AB
:106A4000000F05D040462946BDE8F84307F0F7B8E7
:106A5000BDE8F883F04400202DE9F04F8E4E8F4DB5
:106A6000002387B033702B70044604F0FBFF04F062
:106A70008FFF8B4A8B4B126818608DE86000994637
:106A80000AB1FFF70FFF04A80CB9874900E02146BF
:106A900007F0D1FF854B864E1A8803933E2A40F2B9
:106AA0000182D9F800B0834D0BF102032B60009BEB
:106AB00006F1180093F80080002308F102080BF893
:106AC0000830FFF711FF20B906F10800FFF70CFFAF
:106AD00020B10BF103032B60802400E004467278A0
:106AE0003178130943EA0113DBB2980840EA8313B3
:106AF000DBB212F00F0FDEB26E4F01F00F010CD1BE
:106B00006B48408848B911B912F0F00F1FD03B68AC
:106B100003F8016B3B6070261AE079B912F0F00FB0
:106B20000CD1296823F03F031A43634B0A701B887A
:106B3000033121F8023C6826296009E05C4A2B6891
:106B40001068186003F8046B2B60602600E078265C
:106B5000574B9A790293112A08BF46F0040673072F
:106B60005EBF3B6803F8012B3B60029BDB79402B47
:106B700006D0FF2B07D0012B08D146F0010609E013
:106B800046F0020606E046F0030603E03A6802F823
:106B9000013B3A60029A464B128982B95A8972B90E
:106BA0009A8962B9DA8952B91A8A42B95A8A32B9CB
:106BB0009A8A22B9DB8A13B944F0400013E03F48B7
:106BC000FFF792FE3E4B186078B142781BF8083010
:106BD000042043EA02130BF808303849394AFFF71A
:106BE00019FE60F03F00C4B227E0029B30491A89C9
:106BF00048F2FE039A420CD14B8B53B98B8B43B9AD
:106C0000CB8B33B9042008312E4AFFF703FE204313
:106C1000E9E73A68DFF8A4C096460CF1100A63462B
:106C200003CB5345CEF80000CEF804109C460EF17D
:106C3000080EF4D11F4B10321A60DFF874A09AF8D6
:106C40001830FF2B40F08A809AF8192044F0080E83
:106C5000022A5FFA8EFE37D1BAF81A30A3BBBAF80F
:106C60001C308BBBBAF81E3073BBBAF820305BBB4C
:106C7000BAF8223043BBBAF824302BBB9AF826303E
:106C800013BB3B689AF8272044F00B0003F8012B54
:106C9000C4B23B609FE000BF0E5D00206562002033
:106CA00000450020F4440020FCF420008C65002006
:106CB000A0650020F0440020A2650020A865002007
:106CC000E8440020986500209A4B588B194688BBF1
:106CD000988B78BBD88BA8B9188C98B9588C88B980
:106CE00093F8240070B9296844F00A00C4B2084639
:106CF00000F8012B33F8252F043121F8032C9B7861
:106D0000837015E0C98B8B4BA1B9198C91B993F89D
:106D1000221079B9296844F00900C4B2084600F885
:106D2000012B53F8232F063141F8052C1B790371F1
:106D3000296050E0804ADFF814C214680CF1100892
:106D40002746634603CB4345386079609C4607F18C
:106D50000807F6D11034146074463CE00AF11800BC
:106D6000FFF7C2FD754B186050B143781BF808104F
:106D700044F004040B43E4B20BF8083000200EE0AA
:106D800048F2FE03BAF818209A4210D1BAF81A3025
:106D90006BB9BAF81C3053B9BAF81E303BB90AF1D6
:106DA000180104AAFFF736FD2043C4B213E0624A7B
:106DB000DFF898C117680CF11008BE46634603CB94
:106DC0004345CEF80000CEF804109C460EF1080EA4
:106DD000F4D110371760019A5649282313708B7924
:106DE000112B53D14FF2B0030A8D52BA92B222F056
:106DF0000F0080B2984217D14B8D5BBA23F00F037E
:106E00001B041B0C83420FD12868F32303704B8DA6
:106E100002301A0A0B8D1B0A02EB031303F5AA6357
:106E200000F8013C286028E0029B42495B8D5BBA78
:106E300003F47F43B3F5704F09D12B68F1221A7028
:106E40000A8DA3F801204A8D120ADA700CE002F4D0
:106E50007F42B2F5704F2B6808D1F2221A700A8D6A
:106E6000120A5A704A8D5A80043305E0F0221A70D3
:106E7000886A053343F8040C2B60314B1A882B6861
:106E800023F8022B019A2B6030231370009BD9F852
:106E900000201B78D65413445C70274B1B689B1A48
:106EA000009A1AE0D9F8002041231370009B06F1E4
:106EB00028051C78631CDBB21344324603CAAA427D
:106EC00018605960164603F10803F6D1009B293477
:106ED0001C70019B019A1B782833137004A913209E
:106EE00004F024FE174BDFF868801B68984730EAEF
:106EF000200028BF1520039BC0F17D051C88019B45
:106F0000DFF850A01E78009BA21B93F800B00E4F34
:106F1000CBEB05039A4240F3CC80C0F17803019398
:106F200004F02EFE019B94FBF3F40134A04213DC29
:106F30000020D0E0A0650020F0440020E8440020BC
:106F4000CE650020F0F1200065620020B8650020C9
:106F50008C6500200E5D0020D9F800B05F4B3C78B6
:106F600000221A60594622460BF10400039306F0F2
:106F7000B1F9B8F800205A496FEA82426FEA9242AA
:106F8000C2F307228BF80020B8F8002004348BF8F5
:106F900001200A88E4B2501C0880110ADFF850C1B1
:106FA0008BF802102D1B9AF8001025F007054D4EA6
:106FB00061448BF803200BEB04002A46CDF808C08F
:106FC0003C70356006F010F9281980B204F0C4FC5A
:106FD00004F0DCFD039B04461D460028A8D00DF1FB
:106FE000100B5846FFF794FC204604F007FE20469D
:106FF00004F0EEFD2B68012B9AD0043B012B97D9AE
:107000009AF800A0336853441FFA83FA05233B70B3
:10701000354B1A68B8F800306FEAC3436FEAD343C0
:10702000C3F307231370B8F800305370019B23F0AB
:10703000070737602D4B1B889A454BD2D9F80020A3
:107040004FEADA0111713268CAEB03039342B8BF09
:10705000244AD9F80000B8BF1360009B376893F842
:107060000080029B3A4603EB0A01404406F0BCF85C
:1070700008EB070080B204F06FFC04F087FD0746C0
:1070800000283FF455AF5846FFF742FC384604F05D
:10709000B5FD384604F09CFD124B1B689A442B68E2
:1070A0001FFA8AFA012B3FF443AF043B012BC1D8EE
:1070B0003EE7D9F800000E495844314406F094F8F0
:1070C000B8F800005844801B80B204F045FC04A8C6
:1070D000FFF71EFC012007B0BDE8F08FFC44002044
:1070E00058550020F8440020F44400208C6500200E
:1070F000A06500202DE9F047074688461646002A7D
:1071000047D0434C0025A146238ABB4215D1638A50
:107110009BB1122004F016FD0146204607F090FCBA
:1071200058B1ECB220463146FFF718FC002827DAA8
:107130000027DFF8E0A0B8460DE0B834002D5DD19F
:107140000125E1E7A8450BD10AF1B80AB8F1000F13
:1071500010D14FF001083AF8063C002BF4D0F1E7CB
:10716000504606F040FC0028EED04046FFF722FBD8
:107170000744E9E7002F41DD20463146FFF7EEFBEB
:1071800000283BDDB82303FB0595AB8A1844A88291
:107190003AE0204DFF2435F8063C4FFA84F97BB3E2
:1071A000284606F020FC10B13046FFF703FBB9F18A
:1071B000FF3F03D135F8063C03B9F4B2012E05F1C7
:1071C000B80501D00126E6E765B26B1C16D0B823DE
:1071D0005D43DFF83C90122009EB0506A6F812800B
:1071E000378204F0AFFC0146304607F024FC05F17D
:1071F00018004844402106F0E4FB05E0FF2403E0CA
:10720000B9F1FF3FDAD1D8E760B2BDE8F08700BF3F
:10721000044500201C4500202DE9F04F122087B0C6
:10722000A54CDFF8CCA204F08DFC002604F0C6F9D2
:107230008AF80060267004F0ABFBA04DA0462860E1
:10724000042004F06DFC9E4B2A6800B21860577849
:10725000137847EA032703F0F803C02B02D0E02B92
:1072600019D03AE090782378D278C7F30A0704332C
:1072700042EA0020394632462370FFF73BFFB0F167
:10728000FF3F814600F080828E4CB82303FB004410
:107290000126223424E01379D17890782278C7F33C
:1072A0000A070532227041EA00201A463946009347
:1072B000FFF720FFB0F1FF3F814600F06582814972
:1072C000B82202FB0012958A4FF0010BBD4234BF79
:1072D000002501253446009BDFE1B1464F467A4C3C
:1072E000296898F800504A5D02F0E003602B40F0F6
:1072F000B681A81C084429444D78744B5FFA85FC7C
:107300001CF0800F18601CBF0130186012F0100FC5
:1073100002F0080130D1D1B9196831F8010FA4F891
:1073200001008978E170196811F8040B196083086D
:1073300003F00F0141F060012170617803F0300328
:1073400043EA801301F00F010B43637030E01868CB
:107350006021864621701EF8011B03304FEA910B15
:107360000BF0300B01F00F014BEA01016170BEF828
:107370000010186061801BE001F0FF0E99B91968D8
:107380000878C0F3830040F06000207011F801BB62
:10739000A4F802E04FEA9B0000F0300040EA8B10B6
:1073A0006070196004E060232370002363706380C1
:1073B00002F0040303F0FF0100912BB943490B686D
:1073C00013F8010BA0710B6012F003020BBF3F4AD0
:1073D0003F4B13689B5C09BF13F8011BE3711360FB
:1073E000E1716B06C5F3011233D51CF0800F1DBF90
:1073F000324998F80030096800211EBF5B1899785F
:10740000090922B904F1080B9AB9114614E0314B6D
:107410001878012805D1587888420CBF19460021F8
:1074200000E000212C4B19600029EBD1B3460D463A
:1074300032E1294B19680231284B12209A5C0391E2
:10744000CDF808C0019204F07DFB0399034658462D
:107450000BE0234B12209A5CCDF808C0019204F097
:1074600071FB2049034604F10800019AFFF7A2FAD4
:1074700005F00800DDF808C005F0030200F0FF0188
:1074800005F00403002835D0002B6BD1164B1B8868
:10749000ADF81430531E012B9FBF0C490B6813F835
:1074A000010B0B60114B98BF8DF815009A5C04F12D
:1074B000180005A9002353E065620020F444002071
:1074C000EC44002004450020A0650020F04400208A
:1074D00011F420000F5D0020E84400202AF4200071
:1074E00015F4200019F420000FF420001BF42000F4
:1074F0000E5D002053B31CF0800F1DBFA44998F807
:10750000003009680B4618BF5B18A24918BF9D7868
:10751000087818BF05F00F03012805D14D789D426A
:107520000CBF0D46002500E000259B4B1D60002D83
:1075300000F0AE80994B13209A5C019204F002FB9C
:10754000A91C0346019A04F1180009E0944B13208A
:107550009D5C04F0F7FA2A469249034604F11800AC
:10756000FFF728FA9AF800008F4900F128038AF8FB
:107570000030009B002B53D00B681A7802F0F80201
:10758000F02A4DD11122A2711A7802F0040502F0FE
:10759000F302F03AEDB2032A7CD8DFE802F0020AE7
:1075A0001622B3F801200533228533F8022C6285B8
:1075B0002CE0B3F801202285DA78A2F5805292B24D
:1075C000120242F0F002628509E05A78A2F5805278
:1075D00092B2120242F0F00222855A886285043388
:1075E00014E05A7802331209A2F5756292B21202BF
:1075F00042F0F002228513F8012C02F00F02A2F5EE
:10760000756292B2120242F0F00262850B6025B9F7
:107610000B6833F8022BE2850B6030308AF80000EB
:107620005B4A0B6812689B1A88F8003067B904F04F
:107630009DF95E4B1B78C01A9AF800301844283820
:1076400003122371607104E0A7F128031A1222715A
:107650006371A379112B1DD1A388A3851AE0412A58
:1076600040F092806A1CD2B28B18224603F12801A6
:1076700053F8040B8B4242F8040BF9D105F12903AE
:1076800088F800309AF8003028338AF8003001E09A
:10769000B34601E0B34600252B46009304F066F99B
:1076A00098F8002082426FD804F060F93F4A4049C0
:1076B0001278009BC2EB0008C1F8008040F2145120
:1076C0009AF800A0DB009BB2534443448B425BD842
:1076D0003CB12F4B04EB0A0019681144424605F0F7
:1076E00083FD002F39D056B132484FFA89F3B824C0
:1076F00004FB030308EB0A0189B29982198495B34C
:10770000B8224FFA89F402FB04F32A492A48CA181E
:10771000114697822231128C05F066FD274D05F245
:107720004C5615F8012C5AB115F8033CA34207D169
:1077300015F8020C204B294603EBC00005F054FD60
:107740007135B542EDD15FFA89F0FFF733F8BBF13F
:10775000000F0BD01A4B1F800CE0BBF1000F05D0BF
:10776000002DF7D110E0BBF1000F0DD1144BD04428
:10777000A3F80080134C236823B1FFF793F8236824
:107780005B68984701F08CFF07B0BDE8F08F00BF41
:10779000F44400200F5D0020E84400202AF420007B
:1077A00015F4200019F42000F04400206562002048
:1077B000F844002004450020A06500201C5D002046
:1077C0008C6500200045002037B5124B124D1C7807
:1077D0002B796A79C4EB032313449BB2ADF80630CE
:1077E000BDF8063005F108011844202280B206F0E9
:1077F000CCF9BDF8062004F12801294492B206F024
:10780000C4F910B140BA80B201E04FF6FF7003B086
:1078100030BD00BF66620020A06500202DE9F04168
:10782000264F274E3D7827482835AB195C78022330
:10783000E40007349C423DDBE9187218715CDFF804
:107840008080012931D002D3632902D011E00133B5
:107850002EE0037018461B4C02F024FED0B13B789A
:1078600022782833134443445B7813440233237053
:1078700021E001F0C001802905D0C02905D04029B0
:1078800013D1037006E0037007E098F81820037026
:10789000FF2A02D10120BDE8F08104200221EA186C
:1078A00001F0B6FD0220BDE8F081527802321344A7
:1078B000DBB2BFE703700020BDE8F0816662002004
:1078C000A06500206C620020F0B5C578124A0D4416
:1078D000EDB2D57083780F0A3B44DBB293704478E5
:1078E000BB4254700678167005D2601CC0B250704E
:1078F00008B901361670C9B28D420CDA0133DBB219
:10790000054993703BB94B780133DBB24B7013B927
:107910000B7801330B70F0BD9465002010B5084C56
:10792000014620681430FFF7CFFF064A236811781C
:107930001975517859759178D2789975DA7510BDA5
:10794000C46A00209465002008B501F079F901F0BF
:1079500047FE06F0ABF900230E49002221F8132060
:107960000133082BF8D10C49002311443032B2F511
:10797000F07F81F82530F6D1084A4FF480611180FC
:10798000074A00211A442033B3F5A07F1182F7D1B2
:1079900008BD00BFB06C0020C86A00205A55002006
:1079A000C46C0020F0B5344D2B8801339BB2B3F585
:1079B000FA4F28BF4FF480530022304C144494F8FF
:1079C000256026B15EBA248AB6B2B442EDD0303218
:1079D000B2F5F07FF1D1294C2B8004F5F07700222D
:1079E00094F8256023468EB1072E09D13AB194F858
:1079F000266092F826309E4288BF224600E022464A
:107A00003034BC42ECD11346002A33D0022283F832
:107A100025201B4A5982147800F110061C765478F0
:107A20005C769478D2789C76DA7600221A755A754C
:107A30009A75DA7583F8272083F82220102283F8BC
:107A400023202A881D4652BA1A8202464024DC832B
:107A50001C8401249C8383F82640032483F824405B
:107A60002C4610685168083203C4B2422546F7D14B
:107A70001846F0BD1046F0BD5A550020C86A0020D7
:107A8000686200202DE9F041124F3D7805B3DFF820
:107A90004C8005F12703B8F80040A34203DB002324
:107AA000A8F8003013E00C4EA4F1280205F12801DB
:107AB000641BA4B206F128003144521B05F00AFCF5
:107AC000A8F80040283C23123371747100233B70E6
:107AD000BDE8F08166620020A06500208C65002072
